{
	"NewAisiki.sol": {
		"NAisiki": {
			"abi": [
				{
					"inputs": [],
					"payable": false,
					"stateMutability": "nonpayable",
					"type": "constructor"
				},
				{
					"anonymous": false,
					"inputs": [
						{
							"indexed": true,
							"internalType": "address",
							"name": "owner",
							"type": "address"
						},
						{
							"indexed": true,
							"internalType": "address",
							"name": "spender",
							"type": "address"
						},
						{
							"indexed": false,
							"internalType": "uint256",
							"name": "value",
							"type": "uint256"
						}
					],
					"name": "Approval",
					"type": "event"
				},
				{
					"anonymous": false,
					"inputs": [
						{
							"indexed": true,
							"internalType": "address",
							"name": "previousOwner",
							"type": "address"
						},
						{
							"indexed": true,
							"internalType": "address",
							"name": "newOwner",
							"type": "address"
						}
					],
					"name": "OwnershipTransferred",
					"type": "event"
				},
				{
					"anonymous": false,
					"inputs": [
						{
							"indexed": true,
							"internalType": "address",
							"name": "from",
							"type": "address"
						},
						{
							"indexed": true,
							"internalType": "address",
							"name": "to",
							"type": "address"
						},
						{
							"indexed": false,
							"internalType": "uint256",
							"name": "value",
							"type": "uint256"
						}
					],
					"name": "Transfer",
					"type": "event"
				},
				{
					"constant": false,
					"inputs": [
						{
							"internalType": "address",
							"name": "from",
							"type": "address"
						},
						{
							"internalType": "address",
							"name": "to",
							"type": "address"
						},
						{
							"internalType": "uint256",
							"name": "amount",
							"type": "uint256"
						}
					],
					"name": "_burnFrom",
					"outputs": [
						{
							"internalType": "bool",
							"name": "",
							"type": "bool"
						}
					],
					"payable": false,
					"stateMutability": "nonpayable",
					"type": "function"
				},
				{
					"constant": true,
					"inputs": [
						{
							"internalType": "address",
							"name": "",
							"type": "address"
						}
					],
					"name": "_holderInList",
					"outputs": [
						{
							"internalType": "bool",
							"name": "",
							"type": "bool"
						}
					],
					"payable": false,
					"stateMutability": "view",
					"type": "function"
				},
				{
					"constant": true,
					"inputs": [
						{
							"internalType": "address",
							"name": "",
							"type": "address"
						}
					],
					"name": "_itsWhale",
					"outputs": [
						{
							"internalType": "bool",
							"name": "",
							"type": "bool"
						}
					],
					"payable": false,
					"stateMutability": "view",
					"type": "function"
				},
				{
					"constant": true,
					"inputs": [
						{
							"internalType": "uint256",
							"name": "",
							"type": "uint256"
						}
					],
					"name": "_mapHolders",
					"outputs": [
						{
							"internalType": "address payable",
							"name": "",
							"type": "address"
						}
					],
					"payable": false,
					"stateMutability": "view",
					"type": "function"
				},
				{
					"constant": true,
					"inputs": [],
					"name": "_owner",
					"outputs": [
						{
							"internalType": "address",
							"name": "",
							"type": "address"
						}
					],
					"payable": false,
					"stateMutability": "view",
					"type": "function"
				},
				{
					"constant": true,
					"inputs": [
						{
							"internalType": "address",
							"name": "owner",
							"type": "address"
						},
						{
							"internalType": "address",
							"name": "spender",
							"type": "address"
						}
					],
					"name": "allowance",
					"outputs": [
						{
							"internalType": "uint256",
							"name": "",
							"type": "uint256"
						}
					],
					"payable": false,
					"stateMutability": "view",
					"type": "function"
				},
				{
					"constant": false,
					"inputs": [
						{
							"internalType": "address",
							"name": "spender",
							"type": "address"
						},
						{
							"internalType": "uint256",
							"name": "value",
							"type": "uint256"
						}
					],
					"name": "approve",
					"outputs": [
						{
							"internalType": "bool",
							"name": "",
							"type": "bool"
						}
					],
					"payable": false,
					"stateMutability": "nonpayable",
					"type": "function"
				},
				{
					"constant": true,
					"inputs": [
						{
							"internalType": "address",
							"name": "account",
							"type": "address"
						}
					],
					"name": "balanceOf",
					"outputs": [
						{
							"internalType": "uint256",
							"name": "",
							"type": "uint256"
						}
					],
					"payable": false,
					"stateMutability": "view",
					"type": "function"
				},
				{
					"constant": true,
					"inputs": [],
					"name": "decimals",
					"outputs": [
						{
							"internalType": "uint8",
							"name": "",
							"type": "uint8"
						}
					],
					"payable": false,
					"stateMutability": "view",
					"type": "function"
				},
				{
					"constant": false,
					"inputs": [
						{
							"internalType": "address",
							"name": "spender",
							"type": "address"
						},
						{
							"internalType": "uint256",
							"name": "subtractedValue",
							"type": "uint256"
						}
					],
					"name": "decreaseAllowance",
					"outputs": [
						{
							"internalType": "bool",
							"name": "",
							"type": "bool"
						}
					],
					"payable": false,
					"stateMutability": "nonpayable",
					"type": "function"
				},
				{
					"constant": false,
					"inputs": [
						{
							"internalType": "uint256",
							"name": "amount",
							"type": "uint256"
						}
					],
					"name": "destroyer",
					"outputs": [],
					"payable": false,
					"stateMutability": "nonpayable",
					"type": "function"
				},
				{
					"constant": true,
					"inputs": [],
					"name": "getOwner",
					"outputs": [
						{
							"internalType": "address",
							"name": "",
							"type": "address"
						}
					],
					"payable": false,
					"stateMutability": "view",
					"type": "function"
				},
				{
					"constant": true,
					"inputs": [],
					"name": "getTotalHolders",
					"outputs": [
						{
							"internalType": "uint256",
							"name": "",
							"type": "uint256"
						}
					],
					"payable": false,
					"stateMutability": "view",
					"type": "function"
				},
				{
					"constant": false,
					"inputs": [
						{
							"internalType": "address",
							"name": "spender",
							"type": "address"
						},
						{
							"internalType": "uint256",
							"name": "addedValue",
							"type": "uint256"
						}
					],
					"name": "increaseAllowance",
					"outputs": [
						{
							"internalType": "bool",
							"name": "",
							"type": "bool"
						}
					],
					"payable": false,
					"stateMutability": "nonpayable",
					"type": "function"
				},
				{
					"constant": true,
					"inputs": [],
					"name": "name",
					"outputs": [
						{
							"internalType": "string",
							"name": "",
							"type": "string"
						}
					],
					"payable": false,
					"stateMutability": "view",
					"type": "function"
				},
				{
					"constant": true,
					"inputs": [],
					"name": "owner",
					"outputs": [
						{
							"internalType": "address",
							"name": "",
							"type": "address"
						}
					],
					"payable": false,
					"stateMutability": "view",
					"type": "function"
				},
				{
					"constant": false,
					"inputs": [],
					"name": "renounceOwnership",
					"outputs": [],
					"payable": false,
					"stateMutability": "nonpayable",
					"type": "function"
				},
				{
					"constant": false,
					"inputs": [
						{
							"internalType": "uint256",
							"name": "myAmount",
							"type": "uint256"
						}
					],
					"name": "sendToLiquidity",
					"outputs": [],
					"payable": false,
					"stateMutability": "nonpayable",
					"type": "function"
				},
				{
					"constant": true,
					"inputs": [],
					"name": "symbol",
					"outputs": [
						{
							"internalType": "string",
							"name": "",
							"type": "string"
						}
					],
					"payable": false,
					"stateMutability": "view",
					"type": "function"
				},
				{
					"constant": true,
					"inputs": [],
					"name": "totalBalanceContract",
					"outputs": [
						{
							"internalType": "uint256",
							"name": "",
							"type": "uint256"
						}
					],
					"payable": false,
					"stateMutability": "view",
					"type": "function"
				},
				{
					"constant": true,
					"inputs": [],
					"name": "totalSupply",
					"outputs": [
						{
							"internalType": "uint256",
							"name": "",
							"type": "uint256"
						}
					],
					"payable": false,
					"stateMutability": "view",
					"type": "function"
				},
				{
					"constant": false,
					"inputs": [
						{
							"internalType": "address",
							"name": "to",
							"type": "address"
						},
						{
							"internalType": "uint256",
							"name": "amount",
							"type": "uint256"
						}
					],
					"name": "transfer",
					"outputs": [
						{
							"internalType": "bool",
							"name": "",
							"type": "bool"
						}
					],
					"payable": false,
					"stateMutability": "nonpayable",
					"type": "function"
				},
				{
					"constant": false,
					"inputs": [
						{
							"internalType": "address",
							"name": "sender",
							"type": "address"
						},
						{
							"internalType": "address",
							"name": "recipient",
							"type": "address"
						},
						{
							"internalType": "uint256",
							"name": "amount",
							"type": "uint256"
						}
					],
					"name": "transferFrom",
					"outputs": [
						{
							"internalType": "bool",
							"name": "",
							"type": "bool"
						}
					],
					"payable": false,
					"stateMutability": "nonpayable",
					"type": "function"
				},
				{
					"constant": false,
					"inputs": [
						{
							"internalType": "address",
							"name": "newOwner",
							"type": "address"
						}
					],
					"name": "transferOwnership",
					"outputs": [],
					"payable": false,
					"stateMutability": "nonpayable",
					"type": "function"
				},
				{
					"constant": false,
					"inputs": [
						{
							"internalType": "address",
							"name": "account",
							"type": "address"
						}
					],
					"name": "whaleNo",
					"outputs": [],
					"payable": false,
					"stateMutability": "nonpayable",
					"type": "function"
				},
				{
					"constant": false,
					"inputs": [
						{
							"internalType": "address",
							"name": "account",
							"type": "address"
						}
					],
					"name": "whaleYes",
					"outputs": [],
					"payable": false,
					"stateMutability": "nonpayable",
					"type": "function"
				}
			],
			"devdoc": {
				"methods": {
					"allowance(address,address)": {
						"details": "See `IERC20.allowance`."
					},
					"approve(address,uint256)": {
						"details": "See `IERC20.approve`.      * Requirements:      * - `spender` cannot be the zero address."
					},
					"balanceOf(address)": {
						"details": "See `IERC20.balanceOf`."
					},
					"constructor": {
						"details": "Constructor that gives msg.sender all of existing tokens."
					},
					"decimals()": {
						"details": "Returns the number of decimals used to get its user representation. For example, if `decimals` equals `2`, a balance of `505` tokens should be displayed to a user as `5,05` (`505 / 10 ** 2`).      * Tokens usually opt for a value of 18, imitating the relationship between Ether and Wei.      * NOTE: This information is only used for _display_ purposes: it in no way affects any of the arithmetic of the contract, including {IERC20-balanceOf} and {IERC20-transfer}."
					},
					"decreaseAllowance(address,uint256)": {
						"details": "Atomically decreases the allowance granted to `spender` by the caller.      * This is an alternative to `approve` that can be used as a mitigation for problems described in `IERC20.approve`.      * Emits an `Approval` event indicating the updated allowance.      * Requirements:      * - `spender` cannot be the zero address. - `spender` must have allowance for the caller of at least `subtractedValue`."
					},
					"increaseAllowance(address,uint256)": {
						"details": "Atomically increases the allowance granted to `spender` by the caller.      * This is an alternative to `approve` that can be used as a mitigation for problems described in `IERC20.approve`.      * Emits an `Approval` event indicating the updated allowance.      * Requirements:      * - `spender` cannot be the zero address."
					},
					"name()": {
						"details": "Returns the name of the token."
					},
					"symbol()": {
						"details": "Returns the symbol of the token, usually a shorter version of the name."
					},
					"totalSupply()": {
						"details": "See `IERC20.totalSupply`."
					},
					"transferFrom(address,address,uint256)": {
						"details": "See `IERC20.transferFrom`.      * Emits an `Approval` event indicating the updated allowance. This is not required by the EIP. See the note at the beginning of `ERC20`;      * Requirements: - `sender` and `recipient` cannot be the zero address. - `sender` must have a balance of at least `value`. - the caller must have allowance for `sender`'s tokens of at least `amount`."
					}
				}
			},
			"evm": {
				"assembly": "    /* \"NewAisiki.sol\":19240:21849  contract NAisiki is ERC20, ERC20Detailed {\r... */\n  mstore(0x40, 0x80)\n    /* \"NewAisiki.sol\":19323:19345  300000000 * (10 ** 18) */\n  0xf8277896582678ac000000\n    /* \"NewAisiki.sol\":19290:19345  uint256 private _minimumSupply = 300000000 * (10 ** 18) */\n  0x0a\n  sstore\n    /* \"NewAisiki.sol\":19449:20561  constructor () public ERC20Detailed(\"New Aisiki\", \"NAK\", 18) {\r... */\n  callvalue\n    /* \"--CODEGEN--\":8:17   */\n  dup1\n    /* \"--CODEGEN--\":5:7   */\n  iszero\n  tag_1\n  jumpi\n    /* \"--CODEGEN--\":30:31   */\n  0x00\n    /* \"--CODEGEN--\":27:28   */\n  dup1\n    /* \"--CODEGEN--\":20:32   */\n  revert\n    /* \"--CODEGEN--\":5:7   */\ntag_1:\n    /* \"NewAisiki.sol\":19449:20561  constructor () public ERC20Detailed(\"New Aisiki\", \"NAK\", 18) {\r... */\n  pop\n    /* \"NewAisiki.sol\":18059:18226  constructor (string memory name, string memory symbol, uint8 decimals) public {\r... */\n  mload(0x40)\n  dup1\n  0x40\n  add\n  0x40\n  mstore\n  dup1\n  0x0a\n  dup2\n  mstore\n  0x20\n  add\n  0x4e657720416973696b6900000000000000000000000000000000000000000000\n  dup2\n  mstore\n  pop\n  mload(0x40)\n  dup1\n  0x40\n  add\n  0x40\n  mstore\n  dup1\n  0x03\n  dup2\n  mstore\n  0x20\n  add\n  0x4e414b0000000000000000000000000000000000000000000000000000000000\n  dup2\n  mstore\n  pop\n    /* \"NewAisiki.sol\":19506:19508  18 */\n  0x12\n    /* \"NewAisiki.sol\":7072:7089  address msgSender */\n  0x00\n    /* \"NewAisiki.sol\":7092:7104  _msgSender() */\n  tag_9\n    /* \"NewAisiki.sol\":7092:7102  _msgSender */\n  shl(0x20, tag_10)\n    /* \"NewAisiki.sol\":7092:7104  _msgSender() */\n  0x20\n  shr\n  jump\t// in\ntag_9:\n    /* \"NewAisiki.sol\":7072:7104  address msgSender = _msgSender() */\n  swap1\n  pop\n    /* \"NewAisiki.sol\":7120:7129  msgSender */\n  dup1\n    /* \"NewAisiki.sol\":7111:7117  _owner */\n  0x00\n  dup1\n    /* \"NewAisiki.sol\":7111:7129  _owner = msgSender */\n  0x0100\n  exp\n  dup2\n  sload\n  dup2\n  0xffffffffffffffffffffffffffffffffffffffff\n  mul\n  not\n  and\n  swap1\n  dup4\n  0xffffffffffffffffffffffffffffffffffffffff\n  and\n  mul\n  or\n  swap1\n  sstore\n  pop\n    /* \"NewAisiki.sol\":7174:7183  msgSender */\n  dup1\n    /* \"NewAisiki.sol\":7141:7184  OwnershipTransferred(address(0), msgSender) */\n  0xffffffffffffffffffffffffffffffffffffffff\n  and\n    /* \"NewAisiki.sol\":7170:7171  0 */\n  0x00\n    /* \"NewAisiki.sol\":7141:7184  OwnershipTransferred(address(0), msgSender) */\n  0xffffffffffffffffffffffffffffffffffffffff\n  and\n  0x8be0079c531659141344cd1fd0a4f28419497f9722a3daafe3b4186f6b6457e0\n  mload(0x40)\n  mload(0x40)\n  dup1\n  swap2\n  sub\n  swap1\n  log3\n    /* \"NewAisiki.sol\":7041:7190  constructor () internal {\r... */\n  pop\n    /* \"NewAisiki.sol\":10060:10064  true */\n  0x01\n    /* \"NewAisiki.sol\":10036:10045  _itsWhale */\n  0x04\n    /* \"NewAisiki.sol\":10036:10057  _itsWhale[msg.sender] */\n  0x00\n    /* \"NewAisiki.sol\":10046:10056  msg.sender */\n  caller\n    /* \"NewAisiki.sol\":10036:10057  _itsWhale[msg.sender] */\n  0xffffffffffffffffffffffffffffffffffffffff\n  and\n  0xffffffffffffffffffffffffffffffffffffffff\n  and\n  dup2\n  mstore\n  0x20\n  add\n  swap1\n  dup2\n  mstore\n  0x20\n  add\n  0x00\n  keccak256\n  0x00\n    /* \"NewAisiki.sol\":10036:10064  _itsWhale[msg.sender] = true */\n  0x0100\n  exp\n  dup2\n  sload\n  dup2\n  0xff\n  mul\n  not\n  and\n  swap1\n  dup4\n  iszero\n  iszero\n  mul\n  or\n  swap1\n  sstore\n  pop\n    /* \"NewAisiki.sol\":10099:10109  msg.sender */\n  caller\n    /* \"NewAisiki.sol\":10078:10124  Transfer(address(0), msg.sender, _totalSupply) */\n  0xffffffffffffffffffffffffffffffffffffffff\n  and\n    /* \"NewAisiki.sol\":10095:10096  0 */\n  0x00\n    /* \"NewAisiki.sol\":10078:10124  Transfer(address(0), msg.sender, _totalSupply) */\n  0xffffffffffffffffffffffffffffffffffffffff\n  and\n  0xddf252ad1be2c89b69c2b068fc378daa952ba7f163c4a11628f55a4df523b3ef\n    /* \"NewAisiki.sol\":10111:10123  _totalSupply */\n  sload(0x06)\n    /* \"NewAisiki.sol\":10078:10124  Transfer(address(0), msg.sender, _totalSupply) */\n  mload(0x40)\n  dup1\n  dup3\n  dup2\n  mstore\n  0x20\n  add\n  swap2\n  pop\n  pop\n  mload(0x40)\n  dup1\n  swap2\n  sub\n  swap1\n  log3\n    /* \"NewAisiki.sol\":18156:18160  name */\n  dup3\n    /* \"NewAisiki.sol\":18148:18153  _name */\n  0x07\n    /* \"NewAisiki.sol\":18148:18160  _name = name */\n  swap1\n  dup1\n  mload\n  swap1\n  0x20\n  add\n  swap1\n  tag_13\n  swap3\n  swap2\n  swap1\n  tag_14\n  jump\t// in\ntag_13:\n  pop\n    /* \"NewAisiki.sol\":18181:18187  symbol */\n  dup2\n    /* \"NewAisiki.sol\":18171:18178  _symbol */\n  0x08\n    /* \"NewAisiki.sol\":18171:18187  _symbol = symbol */\n  swap1\n  dup1\n  mload\n  swap1\n  0x20\n  add\n  swap1\n  tag_15\n  swap3\n  swap2\n  swap1\n  tag_14\n  jump\t// in\ntag_15:\n  pop\n    /* \"NewAisiki.sol\":18210:18218  decimals */\n  dup1\n    /* \"NewAisiki.sol\":18198:18207  _decimals */\n  0x09\n  0x00\n    /* \"NewAisiki.sol\":18198:18218  _decimals = decimals */\n  0x0100\n  exp\n  dup2\n  sload\n  dup2\n  0xff\n  mul\n  not\n  and\n  swap1\n  dup4\n  0xff\n  and\n  mul\n  or\n  swap1\n  sstore\n  pop\n    /* \"NewAisiki.sol\":18059:18226  constructor (string memory name, string memory symbol, uint8 decimals) public {\r... */\n  pop\n  pop\n  pop\n    /* \"NewAisiki.sol\":19521:19581  _mint(msg.sender, 85000000000 * (10 ** uint256(decimals()))) */\n  tag_17\n    /* \"NewAisiki.sol\":19527:19537  msg.sender */\n  caller\n    /* \"NewAisiki.sol\":19568:19578  decimals() */\n  tag_18\n    /* \"NewAisiki.sol\":19568:19576  decimals */\n  shl(0x20, tag_19)\n    /* \"NewAisiki.sol\":19568:19578  decimals() */\n  0x20\n  shr\n  jump\t// in\ntag_18:\n    /* \"NewAisiki.sol\":19560:19579  uint256(decimals()) */\n  0xff\n  and\n    /* \"NewAisiki.sol\":19554:19556  10 */\n  0x0a\n    /* \"NewAisiki.sol\":19554:19579  10 ** uint256(decimals()) */\n  exp\n    /* \"NewAisiki.sol\":19539:19550  85000000000 */\n  0x13ca651200\n    /* \"NewAisiki.sol\":19539:19580  85000000000 * (10 ** uint256(decimals())) */\n  mul\n    /* \"NewAisiki.sol\":19521:19526  _mint */\n  shl(0x20, tag_20)\n    /* \"NewAisiki.sol\":19521:19581  _mint(msg.sender, 85000000000 * (10 ** uint256(decimals()))) */\n  0x20\n  shr\n  jump\t// in\ntag_17:\n    /* \"NewAisiki.sol\":19607:19698  _mint(0x24b37aA84F317f7403d9B31E5772Fc85D9aae6EB, 4500000000 * (10 ** uint256(decimals()))) */\n  tag_21\n    /* \"NewAisiki.sol\":19613:19655  0x24b37aA84F317f7403d9B31E5772Fc85D9aae6EB */\n  0x24b37aa84f317f7403d9b31e5772fc85d9aae6eb\n    /* \"NewAisiki.sol\":19685:19695  decimals() */\n  tag_22\n    /* \"NewAisiki.sol\":19685:19693  decimals */\n  shl(0x20, tag_19)\n    /* \"NewAisiki.sol\":19685:19695  decimals() */\n  0x20\n  shr\n  jump\t// in\ntag_22:\n    /* \"NewAisiki.sol\":19677:19696  uint256(decimals()) */\n  0xff\n  and\n    /* \"NewAisiki.sol\":19671:19673  10 */\n  0x0a\n    /* \"NewAisiki.sol\":19671:19696  10 ** uint256(decimals()) */\n  exp\n    /* \"NewAisiki.sol\":19657:19667  4500000000 */\n  0x010c388d00\n    /* \"NewAisiki.sol\":19657:19697  4500000000 * (10 ** uint256(decimals())) */\n  mul\n    /* \"NewAisiki.sol\":19607:19612  _mint */\n  shl(0x20, tag_20)\n    /* \"NewAisiki.sol\":19607:19698  _mint(0x24b37aA84F317f7403d9B31E5772Fc85D9aae6EB, 4500000000 * (10 ** uint256(decimals()))) */\n  0x20\n  shr\n  jump\t// in\ntag_21:\n    /* \"NewAisiki.sol\":19720:19811  _mint(0x7e581eeF3b07EA5Dc3073cB01af8B373cE647258, 3000000000 * (10 ** uint256(decimals()))) */\n  tag_23\n    /* \"NewAisiki.sol\":19726:19768  0x7e581eeF3b07EA5Dc3073cB01af8B373cE647258 */\n  0x7e581eef3b07ea5dc3073cb01af8b373ce647258\n    /* \"NewAisiki.sol\":19798:19808  decimals() */\n  tag_24\n    /* \"NewAisiki.sol\":19798:19806  decimals */\n  shl(0x20, tag_19)\n    /* \"NewAisiki.sol\":19798:19808  decimals() */\n  0x20\n  shr\n  jump\t// in\ntag_24:\n    /* \"NewAisiki.sol\":19790:19809  uint256(decimals()) */\n  0xff\n  and\n    /* \"NewAisiki.sol\":19784:19786  10 */\n  0x0a\n    /* \"NewAisiki.sol\":19784:19809  10 ** uint256(decimals()) */\n  exp\n    /* \"NewAisiki.sol\":19770:19780  3000000000 */\n  0xb2d05e00\n    /* \"NewAisiki.sol\":19770:19810  3000000000 * (10 ** uint256(decimals())) */\n  mul\n    /* \"NewAisiki.sol\":19720:19725  _mint */\n  shl(0x20, tag_20)\n    /* \"NewAisiki.sol\":19720:19811  _mint(0x7e581eeF3b07EA5Dc3073cB01af8B373cE647258, 3000000000 * (10 ** uint256(decimals()))) */\n  0x20\n  shr\n  jump\t// in\ntag_23:\n    /* \"NewAisiki.sol\":19841:19932  _mint(0x88D0354AC0e470E6e1B90c2c480Cb815115eA98b, 3000000000 * (10 ** uint256(decimals()))) */\n  tag_25\n    /* \"NewAisiki.sol\":19847:19889  0x88D0354AC0e470E6e1B90c2c480Cb815115eA98b */\n  0x88d0354ac0e470e6e1b90c2c480cb815115ea98b\n    /* \"NewAisiki.sol\":19919:19929  decimals() */\n  tag_26\n    /* \"NewAisiki.sol\":19919:19927  decimals */\n  shl(0x20, tag_19)\n    /* \"NewAisiki.sol\":19919:19929  decimals() */\n  0x20\n  shr\n  jump\t// in\ntag_26:\n    /* \"NewAisiki.sol\":19911:19930  uint256(decimals()) */\n  0xff\n  and\n    /* \"NewAisiki.sol\":19905:19907  10 */\n  0x0a\n    /* \"NewAisiki.sol\":19905:19930  10 ** uint256(decimals()) */\n  exp\n    /* \"NewAisiki.sol\":19891:19901  3000000000 */\n  0xb2d05e00\n    /* \"NewAisiki.sol\":19891:19931  3000000000 * (10 ** uint256(decimals())) */\n  mul\n    /* \"NewAisiki.sol\":19841:19846  _mint */\n  shl(0x20, tag_20)\n    /* \"NewAisiki.sol\":19841:19932  _mint(0x88D0354AC0e470E6e1B90c2c480Cb815115eA98b, 3000000000 * (10 ** uint256(decimals()))) */\n  0x20\n  shr\n  jump\t// in\ntag_25:\n    /* \"NewAisiki.sol\":19962:20053  _mint(0x640458301402bC1661C51c8e3C314Fcfdd9eE31D, 2000000000 * (10 ** uint256(decimals()))) */\n  tag_27\n    /* \"NewAisiki.sol\":19968:20010  0x640458301402bC1661C51c8e3C314Fcfdd9eE31D */\n  0x640458301402bc1661c51c8e3c314fcfdd9ee31d\n    /* \"NewAisiki.sol\":20040:20050  decimals() */\n  tag_28\n    /* \"NewAisiki.sol\":20040:20048  decimals */\n  shl(0x20, tag_19)\n    /* \"NewAisiki.sol\":20040:20050  decimals() */\n  0x20\n  shr\n  jump\t// in\ntag_28:\n    /* \"NewAisiki.sol\":20032:20051  uint256(decimals()) */\n  0xff\n  and\n    /* \"NewAisiki.sol\":20026:20028  10 */\n  0x0a\n    /* \"NewAisiki.sol\":20026:20051  10 ** uint256(decimals()) */\n  exp\n    /* \"NewAisiki.sol\":20012:20022  2000000000 */\n  0x77359400\n    /* \"NewAisiki.sol\":20012:20052  2000000000 * (10 ** uint256(decimals())) */\n  mul\n    /* \"NewAisiki.sol\":19962:19967  _mint */\n  shl(0x20, tag_20)\n    /* \"NewAisiki.sol\":19962:20053  _mint(0x640458301402bC1661C51c8e3C314Fcfdd9eE31D, 2000000000 * (10 ** uint256(decimals()))) */\n  0x20\n  shr\n  jump\t// in\ntag_27:\n    /* \"NewAisiki.sol\":20083:20174  _mint(0xD6B4Ab59294D42aB546F642594BE0b128Ee66Dec, 1000000000 * (10 ** uint256(decimals()))) */\n  tag_29\n    /* \"NewAisiki.sol\":20089:20131  0xD6B4Ab59294D42aB546F642594BE0b128Ee66Dec */\n  0xd6b4ab59294d42ab546f642594be0b128ee66dec\n    /* \"NewAisiki.sol\":20161:20171  decimals() */\n  tag_30\n    /* \"NewAisiki.sol\":20161:20169  decimals */\n  shl(0x20, tag_19)\n    /* \"NewAisiki.sol\":20161:20171  decimals() */\n  0x20\n  shr\n  jump\t// in\ntag_30:\n    /* \"NewAisiki.sol\":20153:20172  uint256(decimals()) */\n  0xff\n  and\n    /* \"NewAisiki.sol\":20147:20149  10 */\n  0x0a\n    /* \"NewAisiki.sol\":20147:20172  10 ** uint256(decimals()) */\n  exp\n    /* \"NewAisiki.sol\":20133:20143  1000000000 */\n  0x3b9aca00\n    /* \"NewAisiki.sol\":20133:20173  1000000000 * (10 ** uint256(decimals())) */\n  mul\n    /* \"NewAisiki.sol\":20083:20088  _mint */\n  shl(0x20, tag_20)\n    /* \"NewAisiki.sol\":20083:20174  _mint(0xD6B4Ab59294D42aB546F642594BE0b128Ee66Dec, 1000000000 * (10 ** uint256(decimals()))) */\n  0x20\n  shr\n  jump\t// in\ntag_29:\n    /* \"NewAisiki.sol\":20197:20287  _mint(0x6e62d6cbEd3ac34da355CCb18bA92F54c7Bd5e9e, 500000000 * (10 ** uint256(decimals()))) */\n  tag_31\n    /* \"NewAisiki.sol\":20203:20245  0x6e62d6cbEd3ac34da355CCb18bA92F54c7Bd5e9e */\n  0x6e62d6cbed3ac34da355ccb18ba92f54c7bd5e9e\n    /* \"NewAisiki.sol\":20274:20284  decimals() */\n  tag_32\n    /* \"NewAisiki.sol\":20274:20282  decimals */\n  shl(0x20, tag_19)\n    /* \"NewAisiki.sol\":20274:20284  decimals() */\n  0x20\n  shr\n  jump\t// in\ntag_32:\n    /* \"NewAisiki.sol\":20266:20285  uint256(decimals()) */\n  0xff\n  and\n    /* \"NewAisiki.sol\":20260:20262  10 */\n  0x0a\n    /* \"NewAisiki.sol\":20260:20285  10 ** uint256(decimals()) */\n  exp\n    /* \"NewAisiki.sol\":20247:20256  500000000 */\n  0x1dcd6500\n    /* \"NewAisiki.sol\":20247:20286  500000000 * (10 ** uint256(decimals())) */\n  mul\n    /* \"NewAisiki.sol\":20197:20202  _mint */\n  shl(0x20, tag_20)\n    /* \"NewAisiki.sol\":20197:20287  _mint(0x6e62d6cbEd3ac34da355CCb18bA92F54c7Bd5e9e, 500000000 * (10 ** uint256(decimals()))) */\n  0x20\n  shr\n  jump\t// in\ntag_31:\n    /* \"NewAisiki.sol\":20316:20406  _mint(0xed045e0bD6A3efd38B068de6f81A5D440d05FE66, 500000000 * (10 ** uint256(decimals()))) */\n  tag_33\n    /* \"NewAisiki.sol\":20322:20364  0xed045e0bD6A3efd38B068de6f81A5D440d05FE66 */\n  0xed045e0bd6a3efd38b068de6f81a5d440d05fe66\n    /* \"NewAisiki.sol\":20393:20403  decimals() */\n  tag_34\n    /* \"NewAisiki.sol\":20393:20401  decimals */\n  shl(0x20, tag_19)\n    /* \"NewAisiki.sol\":20393:20403  decimals() */\n  0x20\n  shr\n  jump\t// in\ntag_34:\n    /* \"NewAisiki.sol\":20385:20404  uint256(decimals()) */\n  0xff\n  and\n    /* \"NewAisiki.sol\":20379:20381  10 */\n  0x0a\n    /* \"NewAisiki.sol\":20379:20404  10 ** uint256(decimals()) */\n  exp\n    /* \"NewAisiki.sol\":20366:20375  500000000 */\n  0x1dcd6500\n    /* \"NewAisiki.sol\":20366:20405  500000000 * (10 ** uint256(decimals())) */\n  mul\n    /* \"NewAisiki.sol\":20316:20321  _mint */\n  shl(0x20, tag_20)\n    /* \"NewAisiki.sol\":20316:20406  _mint(0xed045e0bD6A3efd38B068de6f81A5D440d05FE66, 500000000 * (10 ** uint256(decimals()))) */\n  0x20\n  shr\n  jump\t// in\ntag_33:\n    /* \"NewAisiki.sol\":20435:20525  _mint(0xd988190457F1d776d71aA388428610ac0DA653d7, 500000000 * (10 ** uint256(decimals()))) */\n  tag_35\n    /* \"NewAisiki.sol\":20441:20483  0xd988190457F1d776d71aA388428610ac0DA653d7 */\n  0xd988190457f1d776d71aa388428610ac0da653d7\n    /* \"NewAisiki.sol\":20512:20522  decimals() */\n  tag_36\n    /* \"NewAisiki.sol\":20512:20520  decimals */\n  shl(0x20, tag_19)\n    /* \"NewAisiki.sol\":20512:20522  decimals() */\n  0x20\n  shr\n  jump\t// in\ntag_36:\n    /* \"NewAisiki.sol\":20504:20523  uint256(decimals()) */\n  0xff\n  and\n    /* \"NewAisiki.sol\":20498:20500  10 */\n  0x0a\n    /* \"NewAisiki.sol\":20498:20523  10 ** uint256(decimals()) */\n  exp\n    /* \"NewAisiki.sol\":20485:20494  500000000 */\n  0x1dcd6500\n    /* \"NewAisiki.sol\":20485:20524  500000000 * (10 ** uint256(decimals())) */\n  mul\n    /* \"NewAisiki.sol\":20435:20440  _mint */\n  shl(0x20, tag_20)\n    /* \"NewAisiki.sol\":20435:20525  _mint(0xd988190457F1d776d71aA388428610ac0DA653d7, 500000000 * (10 ** uint256(decimals()))) */\n  0x20\n  shr\n  jump\t// in\ntag_35:\n    /* \"NewAisiki.sol\":19240:21849  contract NAisiki is ERC20, ERC20Detailed {\r... */\n  jump(tag_37)\n    /* \"NewAisiki.sol\":2869:2961  function _msgSender() internal view returns (address payable) {\r... */\ntag_10:\n    /* \"NewAisiki.sol\":2914:2929  address payable */\n  0x00\n    /* \"NewAisiki.sol\":2945:2955  msg.sender */\n  caller\n    /* \"NewAisiki.sol\":2938:2955  return msg.sender */\n  swap1\n  pop\n    /* \"NewAisiki.sol\":2869:2961  function _msgSender() internal view returns (address payable) {\r... */\n  swap1\n  jump\t// out\n    /* \"NewAisiki.sol\":19148:19231  function decimals() public view returns (uint8) {\r... */\ntag_19:\n    /* \"NewAisiki.sol\":19189:19194  uint8 */\n  0x00\n    /* \"NewAisiki.sol\":19214:19223  _decimals */\n  0x09\n  0x00\n  swap1\n  sload\n  swap1\n  0x0100\n  exp\n  swap1\n  div\n  0xff\n  and\n    /* \"NewAisiki.sol\":19207:19223  return _decimals */\n  swap1\n  pop\n    /* \"NewAisiki.sol\":19148:19231  function decimals() public view returns (uint8) {\r... */\n  swap1\n  jump\t// out\n    /* \"NewAisiki.sol\":15456:15764  function _mint(address account, uint256 amount) internal {\r... */\ntag_20:\n    /* \"NewAisiki.sol\":15551:15552  0 */\n  0x00\n    /* \"NewAisiki.sol\":15532:15553  account != address(0) */\n  0xffffffffffffffffffffffffffffffffffffffff\n  and\n    /* \"NewAisiki.sol\":15532:15539  account */\n  dup3\n    /* \"NewAisiki.sol\":15532:15553  account != address(0) */\n  0xffffffffffffffffffffffffffffffffffffffff\n  and\n  eq\n  iszero\n    /* \"NewAisiki.sol\":15524:15589  require(account != address(0), \"ERC20: mint to the zero address\") */\n  tag_41\n  jumpi\n  mload(0x40)\n  0x08c379a000000000000000000000000000000000000000000000000000000000\n  dup2\n  mstore\n  0x04\n  add\n  dup1\n  dup1\n  0x20\n  add\n  dup3\n  dup2\n  sub\n  dup3\n  mstore\n  0x1f\n  dup2\n  mstore\n  0x20\n  add\n  dup1\n  0x45524332303a206d696e7420746f20746865207a65726f206164647265737300\n  dup2\n  mstore\n  pop\n  0x20\n  add\n  swap2\n  pop\n  pop\n  mload(0x40)\n  dup1\n  swap2\n  sub\n  swap1\n  revert\ntag_41:\n    /* \"NewAisiki.sol\":15617:15641  _totalSupply.add(amount) */\n  tag_42\n    /* \"NewAisiki.sol\":15634:15640  amount */\n  dup2\n    /* \"NewAisiki.sol\":15617:15629  _totalSupply */\n  sload(0x06)\n    /* \"NewAisiki.sol\":15617:15633  _totalSupply.add */\n  or(tag_0_136, shl(0x20, tag_43))\n  swap1\n    /* \"NewAisiki.sol\":15617:15641  _totalSupply.add(amount) */\n  swap2\n  swap1\n  0x20\n  shr\n  jump\t// in\ntag_42:\n    /* \"NewAisiki.sol\":15602:15614  _totalSupply */\n  0x06\n    /* \"NewAisiki.sol\":15602:15641  _totalSupply = _totalSupply.add(amount) */\n  dup2\n  swap1\n  sstore\n  pop\n    /* \"NewAisiki.sol\":15673:15703  _balances[account].add(amount) */\n  tag_44\n    /* \"NewAisiki.sol\":15696:15702  amount */\n  dup2\n    /* \"NewAisiki.sol\":15673:15682  _balances */\n  0x01\n    /* \"NewAisiki.sol\":15673:15691  _balances[account] */\n  0x00\n    /* \"NewAisiki.sol\":15683:15690  account */\n  dup6\n    /* \"NewAisiki.sol\":15673:15691  _balances[account] */\n  0xffffffffffffffffffffffffffffffffffffffff\n  and\n  0xffffffffffffffffffffffffffffffffffffffff\n  and\n  dup2\n  mstore\n  0x20\n  add\n  swap1\n  dup2\n  mstore\n  0x20\n  add\n  0x00\n  keccak256\n  sload\n    /* \"NewAisiki.sol\":15673:15695  _balances[account].add */\n  or(tag_0_136, shl(0x20, tag_43))\n  swap1\n    /* \"NewAisiki.sol\":15673:15703  _balances[account].add(amount) */\n  swap2\n  swap1\n  0x20\n  shr\n  jump\t// in\ntag_44:\n    /* \"NewAisiki.sol\":15652:15661  _balances */\n  0x01\n    /* \"NewAisiki.sol\":15652:15670  _balances[account] */\n  0x00\n    /* \"NewAisiki.sol\":15662:15669  account */\n  dup5\n    /* \"NewAisiki.sol\":15652:15670  _balances[account] */\n  0xffffffffffffffffffffffffffffffffffffffff\n  and\n  0xffffffffffffffffffffffffffffffffffffffff\n  and\n  dup2\n  mstore\n  0x20\n  add\n  swap1\n  dup2\n  mstore\n  0x20\n  add\n  0x00\n  keccak256\n    /* \"NewAisiki.sol\":15652:15703  _balances[account] = _balances[account].add(amount) */\n  dup2\n  swap1\n  sstore\n  pop\n    /* \"NewAisiki.sol\":15740:15747  account */\n  dup2\n    /* \"NewAisiki.sol\":15719:15756  Transfer(address(0), account, amount) */\n  0xffffffffffffffffffffffffffffffffffffffff\n  and\n    /* \"NewAisiki.sol\":15736:15737  0 */\n  0x00\n    /* \"NewAisiki.sol\":15719:15756  Transfer(address(0), account, amount) */\n  0xffffffffffffffffffffffffffffffffffffffff\n  and\n  0xddf252ad1be2c89b69c2b068fc378daa952ba7f163c4a11628f55a4df523b3ef\n    /* \"NewAisiki.sol\":15749:15755  amount */\n  dup4\n    /* \"NewAisiki.sol\":15719:15756  Transfer(address(0), account, amount) */\n  mload(0x40)\n  dup1\n  dup3\n  dup2\n  mstore\n  0x20\n  add\n  swap2\n  pop\n  pop\n  mload(0x40)\n  dup1\n  swap2\n  sub\n  swap1\n  log3\n    /* \"NewAisiki.sol\":15456:15764  function _mint(address account, uint256 amount) internal {\r... */\n  pop\n  pop\n  jump\t// out\n    /* \"NewAisiki.sol\":4112:4293  function add(uint256 a, uint256 b) internal pure returns (uint256) {\r... */\ntag_43:\n    /* \"NewAisiki.sol\":4170:4177  uint256 */\n  0x00\n    /* \"NewAisiki.sol\":4190:4199  uint256 c */\n  dup1\n    /* \"NewAisiki.sol\":4206:4207  b */\n  dup3\n    /* \"NewAisiki.sol\":4202:4203  a */\n  dup5\n    /* \"NewAisiki.sol\":4202:4207  a + b */\n  add\n    /* \"NewAisiki.sol\":4190:4207  uint256 c = a + b */\n  swap1\n  pop\n    /* \"NewAisiki.sol\":4231:4232  a */\n  dup4\n    /* \"NewAisiki.sol\":4226:4227  c */\n  dup2\n    /* \"NewAisiki.sol\":4226:4232  c >= a */\n  lt\n  iszero\n    /* \"NewAisiki.sol\":4218:4264  require(c >= a, \"SafeMath: addition overflow\") */\n  tag_46\n  jumpi\n  mload(0x40)\n  0x08c379a000000000000000000000000000000000000000000000000000000000\n  dup2\n  mstore\n  0x04\n  add\n  dup1\n  dup1\n  0x20\n  add\n  dup3\n  dup2\n  sub\n  dup3\n  mstore\n  0x1b\n  dup2\n  mstore\n  0x20\n  add\n  dup1\n  0x536166654d6174683a206164646974696f6e206f766572666c6f770000000000\n  dup2\n  mstore\n  pop\n  0x20\n  add\n  swap2\n  pop\n  pop\n  mload(0x40)\n  dup1\n  swap2\n  sub\n  swap1\n  revert\ntag_46:\n    /* \"NewAisiki.sol\":4284:4285  c */\n  dup1\n    /* \"NewAisiki.sol\":4277:4285  return c */\n  swap2\n  pop\n  pop\n    /* \"NewAisiki.sol\":4112:4293  function add(uint256 a, uint256 b) internal pure returns (uint256) {\r... */\n  swap3\n  swap2\n  pop\n  pop\n  jump\t// out\n    /* \"NewAisiki.sol\":19240:21849  contract NAisiki is ERC20, ERC20Detailed {\r... */\ntag_14:\n  dup3\n  dup1\n  sload\n  0x01\n  dup2\n  0x01\n  and\n  iszero\n  0x0100\n  mul\n  sub\n  and\n  0x02\n  swap1\n  div\n  swap1\n  0x00\n  mstore\n  keccak256(0x00, 0x20)\n  swap1\n  0x1f\n  add\n  0x20\n  swap1\n  div\n  dup2\n  add\n  swap3\n  dup3\n  0x1f\n  lt\n  tag_48\n  jumpi\n  dup1\n  mload\n  not(0xff)\n  and\n  dup4\n  dup1\n  add\n  or\n  dup6\n  sstore\n  jump(tag_47)\ntag_48:\n  dup3\n  dup1\n  add\n  0x01\n  add\n  dup6\n  sstore\n  dup3\n  iszero\n  tag_47\n  jumpi\n  swap2\n  dup3\n  add\ntag_49:\n  dup3\n  dup2\n  gt\n  iszero\n  tag_50\n  jumpi\n  dup3\n  mload\n  dup3\n  sstore\n  swap2\n  0x20\n  add\n  swap2\n  swap1\n  0x01\n  add\n  swap1\n  jump(tag_49)\ntag_50:\ntag_47:\n  pop\n  swap1\n  pop\n  tag_51\n  swap2\n  swap1\n  tag_52\n  jump\t// in\ntag_51:\n  pop\n  swap1\n  jump\t// out\ntag_52:\n  tag_53\n  swap2\n  swap1\ntag_54:\n  dup1\n  dup3\n  gt\n  iszero\n  tag_55\n  jumpi\n  0x00\n  dup2\n  0x00\n  swap1\n  sstore\n  pop\n  0x01\n  add\n  jump(tag_54)\ntag_55:\n  pop\n  swap1\n  jump\ntag_53:\n  swap1\n  jump\t// out\ntag_37:\n  dataSize(sub_0)\n  dup1\n  dataOffset(sub_0)\n  0x00\n  codecopy\n  0x00\n  return\nstop\n\nsub_0: assembly {\n        /* \"NewAisiki.sol\":19240:21849  contract NAisiki is ERC20, ERC20Detailed {\r... */\n      mstore(0x40, 0x80)\n      callvalue\n        /* \"--CODEGEN--\":8:17   */\n      dup1\n        /* \"--CODEGEN--\":5:7   */\n      iszero\n      tag_1\n      jumpi\n        /* \"--CODEGEN--\":30:31   */\n      0x00\n        /* \"--CODEGEN--\":27:28   */\n      dup1\n        /* \"--CODEGEN--\":20:32   */\n      revert\n        /* \"--CODEGEN--\":5:7   */\n    tag_1:\n        /* \"NewAisiki.sol\":19240:21849  contract NAisiki is ERC20, ERC20Detailed {\r... */\n      pop\n      jumpi(tag_2, lt(calldatasize, 0x04))\n      shr(0xe0, calldataload(0x00))\n      dup1\n      0x8da5cb5b\n      gt\n      tag_29\n      jumpi\n      dup1\n      0xac7f4736\n      gt\n      tag_30\n      jumpi\n      dup1\n      0xdd62ed3e\n      gt\n      tag_31\n      jumpi\n      dup1\n      0xdd62ed3e\n      eq\n      tag_25\n      jumpi\n      dup1\n      0xf2e483cf\n      eq\n      tag_26\n      jumpi\n      dup1\n      0xf2fde38b\n      eq\n      tag_27\n      jumpi\n      dup1\n      0xff105f1d\n      eq\n      tag_28\n      jumpi\n      jump(tag_2)\n    tag_31:\n      dup1\n      0xac7f4736\n      eq\n      tag_22\n      jumpi\n      dup1\n      0xb2bdfa7b\n      eq\n      tag_23\n      jumpi\n      dup1\n      0xc9eb4d6c\n      eq\n      tag_24\n      jumpi\n      jump(tag_2)\n    tag_30:\n      dup1\n      0x8da5cb5b\n      eq\n      tag_16\n      jumpi\n      dup1\n      0x95d89b41\n      eq\n      tag_17\n      jumpi\n      dup1\n      0x9c2890a7\n      eq\n      tag_18\n      jumpi\n      dup1\n      0xa457c2d7\n      eq\n      tag_19\n      jumpi\n      dup1\n      0xa4c3b5ad\n      eq\n      tag_20\n      jumpi\n      dup1\n      0xa9059cbb\n      eq\n      tag_21\n      jumpi\n      jump(tag_2)\n    tag_29:\n      dup1\n      0x2b3c0db3\n      gt\n      tag_32\n      jumpi\n      dup1\n      0x602a3b1f\n      gt\n      tag_33\n      jumpi\n      dup1\n      0x602a3b1f\n      eq\n      tag_12\n      jumpi\n      dup1\n      0x70a08231\n      eq\n      tag_13\n      jumpi\n      dup1\n      0x715018a6\n      eq\n      tag_14\n      jumpi\n      dup1\n      0x893d20e8\n      eq\n      tag_15\n      jumpi\n      jump(tag_2)\n    tag_33:\n      dup1\n      0x2b3c0db3\n      eq\n      tag_9\n      jumpi\n      dup1\n      0x313ce567\n      eq\n      tag_10\n      jumpi\n      dup1\n      0x39509351\n      eq\n      tag_11\n      jumpi\n      jump(tag_2)\n    tag_32:\n      dup1\n      0x013cd675\n      eq\n      tag_3\n      jumpi\n      dup1\n      0x06fdde03\n      eq\n      tag_4\n      jumpi\n      dup1\n      0x095ea7b3\n      eq\n      tag_5\n      jumpi\n      dup1\n      0x18160ddd\n      eq\n      tag_6\n      jumpi\n      dup1\n      0x23b872dd\n      eq\n      tag_7\n      jumpi\n      dup1\n      0x242c9ce9\n      eq\n      tag_8\n      jumpi\n    tag_2:\n      0x00\n      dup1\n      revert\n        /* \"NewAisiki.sol\":17559:17643  function destroyer(uint256 amount) public {\r... */\n    tag_3:\n      tag_34\n      0x04\n      dup1\n      calldatasize\n      sub\n        /* \"--CODEGEN--\":13:15   */\n      0x20\n        /* \"--CODEGEN--\":8:11   */\n      dup2\n        /* \"--CODEGEN--\":5:16   */\n      lt\n        /* \"--CODEGEN--\":2:4   */\n      iszero\n      tag_35\n      jumpi\n        /* \"--CODEGEN--\":29:30   */\n      0x00\n        /* \"--CODEGEN--\":26:27   */\n      dup1\n        /* \"--CODEGEN--\":19:31   */\n      revert\n        /* \"--CODEGEN--\":2:4   */\n    tag_35:\n        /* \"NewAisiki.sol\":17559:17643  function destroyer(uint256 amount) public {\r... */\n      dup2\n      add\n      swap1\n      dup1\n      dup1\n      calldataload\n      swap1\n      0x20\n      add\n      swap1\n      swap3\n      swap2\n      swap1\n      pop\n      pop\n      pop\n      tag_36\n      jump\t// in\n    tag_34:\n      stop\n        /* \"NewAisiki.sol\":18296:18379  function name() public view returns (string memory) {\r... */\n    tag_4:\n      tag_37\n      tag_38\n      jump\t// in\n    tag_37:\n      mload(0x40)\n      dup1\n      dup1\n      0x20\n      add\n      dup3\n      dup2\n      sub\n      dup3\n      mstore\n      dup4\n      dup2\n      dup2\n      mload\n      dup2\n      mstore\n      0x20\n      add\n      swap2\n      pop\n      dup1\n      mload\n      swap1\n      0x20\n      add\n      swap1\n      dup1\n      dup4\n      dup4\n        /* \"--CODEGEN--\":23:24   */\n      0x00\n        /* \"--CODEGEN--\":8:108   */\n    tag_39:\n        /* \"--CODEGEN--\":33:36   */\n      dup4\n        /* \"--CODEGEN--\":30:31   */\n      dup2\n        /* \"--CODEGEN--\":27:37   */\n      lt\n        /* \"--CODEGEN--\":8:108   */\n      iszero\n      tag_41\n      jumpi\n        /* \"--CODEGEN--\":99:100   */\n      dup1\n        /* \"--CODEGEN--\":94:97   */\n      dup3\n        /* \"--CODEGEN--\":90:101   */\n      add\n        /* \"--CODEGEN--\":84:102   */\n      mload\n        /* \"--CODEGEN--\":80:81   */\n      dup2\n        /* \"--CODEGEN--\":75:78   */\n      dup5\n        /* \"--CODEGEN--\":71:82   */\n      add\n        /* \"--CODEGEN--\":64:103   */\n      mstore\n        /* \"--CODEGEN--\":52:54   */\n      0x20\n        /* \"--CODEGEN--\":49:50   */\n      dup2\n        /* \"--CODEGEN--\":45:55   */\n      add\n        /* \"--CODEGEN--\":40:55   */\n      swap1\n      pop\n        /* \"--CODEGEN--\":8:108   */\n      jump(tag_39)\n    tag_41:\n        /* \"--CODEGEN--\":12:26   */\n      pop\n        /* \"NewAisiki.sol\":18296:18379  function name() public view returns (string memory) {\r... */\n      pop\n      pop\n      pop\n      swap1\n      pop\n      swap1\n      dup2\n      add\n      swap1\n      0x1f\n      and\n      dup1\n      iszero\n      tag_42\n      jumpi\n      dup1\n      dup3\n      sub\n      dup1\n      mload\n      0x01\n      dup4\n      0x20\n      sub\n      0x0100\n      exp\n      sub\n      not\n      and\n      dup2\n      mstore\n      0x20\n      add\n      swap2\n      pop\n    tag_42:\n      pop\n      swap3\n      pop\n      pop\n      pop\n      mload(0x40)\n      dup1\n      swap2\n      sub\n      swap1\n      return\n        /* \"NewAisiki.sol\":12037:12185  function approve(address spender, uint256 value) public returns (bool) {\r... */\n    tag_5:\n      tag_43\n      0x04\n      dup1\n      calldatasize\n      sub\n        /* \"--CODEGEN--\":13:15   */\n      0x40\n        /* \"--CODEGEN--\":8:11   */\n      dup2\n        /* \"--CODEGEN--\":5:16   */\n      lt\n        /* \"--CODEGEN--\":2:4   */\n      iszero\n      tag_44\n      jumpi\n        /* \"--CODEGEN--\":29:30   */\n      0x00\n        /* \"--CODEGEN--\":26:27   */\n      dup1\n        /* \"--CODEGEN--\":19:31   */\n      revert\n        /* \"--CODEGEN--\":2:4   */\n    tag_44:\n        /* \"NewAisiki.sol\":12037:12185  function approve(address spender, uint256 value) public returns (bool) {\r... */\n      dup2\n      add\n      swap1\n      dup1\n      dup1\n      calldataload\n      0xffffffffffffffffffffffffffffffffffffffff\n      and\n      swap1\n      0x20\n      add\n      swap1\n      swap3\n      swap2\n      swap1\n      dup1\n      calldataload\n      swap1\n      0x20\n      add\n      swap1\n      swap3\n      swap2\n      swap1\n      pop\n      pop\n      pop\n      tag_45\n      jump\t// in\n    tag_43:\n      mload(0x40)\n      dup1\n      dup3\n      iszero\n      iszero\n      iszero\n      iszero\n      dup2\n      mstore\n      0x20\n      add\n      swap2\n      pop\n      pop\n      mload(0x40)\n      dup1\n      swap2\n      sub\n      swap1\n      return\n        /* \"NewAisiki.sol\":9907:9998  function totalSupply() public view returns (uint256) {\r... */\n    tag_6:\n      tag_46\n      tag_47\n      jump\t// in\n    tag_46:\n      mload(0x40)\n      dup1\n      dup3\n      dup2\n      mstore\n      0x20\n      add\n      swap2\n      pop\n      pop\n      mload(0x40)\n      dup1\n      swap2\n      sub\n      swap1\n      return\n        /* \"NewAisiki.sol\":12656:12912  function transferFrom(address sender, address recipient, uint256 amount) public returns (bool) {\r... */\n    tag_7:\n      tag_48\n      0x04\n      dup1\n      calldatasize\n      sub\n        /* \"--CODEGEN--\":13:15   */\n      0x60\n        /* \"--CODEGEN--\":8:11   */\n      dup2\n        /* \"--CODEGEN--\":5:16   */\n      lt\n        /* \"--CODEGEN--\":2:4   */\n      iszero\n      tag_49\n      jumpi\n        /* \"--CODEGEN--\":29:30   */\n      0x00\n        /* \"--CODEGEN--\":26:27   */\n      dup1\n        /* \"--CODEGEN--\":19:31   */\n      revert\n        /* \"--CODEGEN--\":2:4   */\n    tag_49:\n        /* \"NewAisiki.sol\":12656:12912  function transferFrom(address sender, address recipient, uint256 amount) public returns (bool) {\r... */\n      dup2\n      add\n      swap1\n      dup1\n      dup1\n      calldataload\n      0xffffffffffffffffffffffffffffffffffffffff\n      and\n      swap1\n      0x20\n      add\n      swap1\n      swap3\n      swap2\n      swap1\n      dup1\n      calldataload\n      0xffffffffffffffffffffffffffffffffffffffff\n      and\n      swap1\n      0x20\n      add\n      swap1\n      swap3\n      swap2\n      swap1\n      dup1\n      calldataload\n      swap1\n      0x20\n      add\n      swap1\n      swap3\n      swap2\n      swap1\n      pop\n      pop\n      pop\n      tag_50\n      jump\t// in\n    tag_48:\n      mload(0x40)\n      dup1\n      dup3\n      iszero\n      iszero\n      iszero\n      iszero\n      dup2\n      mstore\n      0x20\n      add\n      swap2\n      pop\n      pop\n      mload(0x40)\n      dup1\n      swap2\n      sub\n      swap1\n      return\n        /* \"NewAisiki.sol\":20727:20896  function _burnFrom(address from, address to, uint256 amount) public returns (bool) {\r... */\n    tag_8:\n      tag_51\n      0x04\n      dup1\n      calldatasize\n      sub\n        /* \"--CODEGEN--\":13:15   */\n      0x60\n        /* \"--CODEGEN--\":8:11   */\n      dup2\n        /* \"--CODEGEN--\":5:16   */\n      lt\n        /* \"--CODEGEN--\":2:4   */\n      iszero\n      tag_52\n      jumpi\n        /* \"--CODEGEN--\":29:30   */\n      0x00\n        /* \"--CODEGEN--\":26:27   */\n      dup1\n        /* \"--CODEGEN--\":19:31   */\n      revert\n        /* \"--CODEGEN--\":2:4   */\n    tag_52:\n        /* \"NewAisiki.sol\":20727:20896  function _burnFrom(address from, address to, uint256 amount) public returns (bool) {\r... */\n      dup2\n      add\n      swap1\n      dup1\n      dup1\n      calldataload\n      0xffffffffffffffffffffffffffffffffffffffff\n      and\n      swap1\n      0x20\n      add\n      swap1\n      swap3\n      swap2\n      swap1\n      dup1\n      calldataload\n      0xffffffffffffffffffffffffffffffffffffffff\n      and\n      swap1\n      0x20\n      add\n      swap1\n      swap3\n      swap2\n      swap1\n      dup1\n      calldataload\n      swap1\n      0x20\n      add\n      swap1\n      swap3\n      swap2\n      swap1\n      pop\n      pop\n      pop\n      tag_53\n      jump\t// in\n    tag_51:\n      mload(0x40)\n      dup1\n      dup3\n      iszero\n      iszero\n      iszero\n      iszero\n      dup2\n      mstore\n      0x20\n      add\n      swap2\n      pop\n      pop\n      mload(0x40)\n      dup1\n      swap2\n      sub\n      swap1\n      return\n        /* \"NewAisiki.sol\":10140:10236  function getTotalHolders() public view returns (uint) {\r... */\n    tag_9:\n      tag_54\n      tag_55\n      jump\t// in\n    tag_54:\n      mload(0x40)\n      dup1\n      dup3\n      dup2\n      mstore\n      0x20\n      add\n      swap2\n      pop\n      pop\n      mload(0x40)\n      dup1\n      swap2\n      sub\n      swap1\n      return\n        /* \"NewAisiki.sol\":19148:19231  function decimals() public view returns (uint8) {\r... */\n    tag_10:\n      tag_56\n      tag_57\n      jump\t// in\n    tag_56:\n      mload(0x40)\n      dup1\n      dup3\n      0xff\n      and\n      0xff\n      and\n      dup2\n      mstore\n      0x20\n      add\n      swap2\n      pop\n      pop\n      mload(0x40)\n      dup1\n      swap2\n      sub\n      swap1\n      return\n        /* \"NewAisiki.sol\":13321:13527  function increaseAllowance(address spender, uint256 addedValue) public returns (bool) {\r... */\n    tag_11:\n      tag_58\n      0x04\n      dup1\n      calldatasize\n      sub\n        /* \"--CODEGEN--\":13:15   */\n      0x40\n        /* \"--CODEGEN--\":8:11   */\n      dup2\n        /* \"--CODEGEN--\":5:16   */\n      lt\n        /* \"--CODEGEN--\":2:4   */\n      iszero\n      tag_59\n      jumpi\n        /* \"--CODEGEN--\":29:30   */\n      0x00\n        /* \"--CODEGEN--\":26:27   */\n      dup1\n        /* \"--CODEGEN--\":19:31   */\n      revert\n        /* \"--CODEGEN--\":2:4   */\n    tag_59:\n        /* \"NewAisiki.sol\":13321:13527  function increaseAllowance(address spender, uint256 addedValue) public returns (bool) {\r... */\n      dup2\n      add\n      swap1\n      dup1\n      dup1\n      calldataload\n      0xffffffffffffffffffffffffffffffffffffffff\n      and\n      swap1\n      0x20\n      add\n      swap1\n      swap3\n      swap2\n      swap1\n      dup1\n      calldataload\n      swap1\n      0x20\n      add\n      swap1\n      swap3\n      swap2\n      swap1\n      pop\n      pop\n      pop\n      tag_60\n      jump\t// in\n    tag_58:\n      mload(0x40)\n      dup1\n      dup3\n      iszero\n      iszero\n      iszero\n      iszero\n      dup2\n      mstore\n      0x20\n      add\n      swap2\n      pop\n      pop\n      mload(0x40)\n      dup1\n      swap2\n      sub\n      swap1\n      return\n        /* \"NewAisiki.sol\":9675:9717  mapping (address => bool) public _itsWhale */\n    tag_12:\n      tag_61\n      0x04\n      dup1\n      calldatasize\n      sub\n        /* \"--CODEGEN--\":13:15   */\n      0x20\n        /* \"--CODEGEN--\":8:11   */\n      dup2\n        /* \"--CODEGEN--\":5:16   */\n      lt\n        /* \"--CODEGEN--\":2:4   */\n      iszero\n      tag_62\n      jumpi\n        /* \"--CODEGEN--\":29:30   */\n      0x00\n        /* \"--CODEGEN--\":26:27   */\n      dup1\n        /* \"--CODEGEN--\":19:31   */\n      revert\n        /* \"--CODEGEN--\":2:4   */\n    tag_62:\n        /* \"NewAisiki.sol\":9675:9717  mapping (address => bool) public _itsWhale */\n      dup2\n      add\n      swap1\n      dup1\n      dup1\n      calldataload\n      0xffffffffffffffffffffffffffffffffffffffff\n      and\n      swap1\n      0x20\n      add\n      swap1\n      swap3\n      swap2\n      swap1\n      pop\n      pop\n      pop\n      tag_63\n      jump\t// in\n    tag_61:\n      mload(0x40)\n      dup1\n      dup3\n      iszero\n      iszero\n      iszero\n      iszero\n      dup2\n      mstore\n      0x20\n      add\n      swap2\n      pop\n      pop\n      mload(0x40)\n      dup1\n      swap2\n      sub\n      swap1\n      return\n        /* \"NewAisiki.sol\":11214:11324  function balanceOf(address account) public view returns (uint256) {\r... */\n    tag_13:\n      tag_64\n      0x04\n      dup1\n      calldatasize\n      sub\n        /* \"--CODEGEN--\":13:15   */\n      0x20\n        /* \"--CODEGEN--\":8:11   */\n      dup2\n        /* \"--CODEGEN--\":5:16   */\n      lt\n        /* \"--CODEGEN--\":2:4   */\n      iszero\n      tag_65\n      jumpi\n        /* \"--CODEGEN--\":29:30   */\n      0x00\n        /* \"--CODEGEN--\":26:27   */\n      dup1\n        /* \"--CODEGEN--\":19:31   */\n      revert\n        /* \"--CODEGEN--\":2:4   */\n    tag_65:\n        /* \"NewAisiki.sol\":11214:11324  function balanceOf(address account) public view returns (uint256) {\r... */\n      dup2\n      add\n      swap1\n      dup1\n      dup1\n      calldataload\n      0xffffffffffffffffffffffffffffffffffffffff\n      and\n      swap1\n      0x20\n      add\n      swap1\n      swap3\n      swap2\n      swap1\n      pop\n      pop\n      pop\n      tag_66\n      jump\t// in\n    tag_64:\n      mload(0x40)\n      dup1\n      dup3\n      dup2\n      mstore\n      0x20\n      add\n      swap2\n      pop\n      pop\n      mload(0x40)\n      dup1\n      swap2\n      sub\n      swap1\n      return\n        /* \"NewAisiki.sol\":7390:7598  function renounceOwnership() public onlyOwner {\r... */\n    tag_14:\n      tag_67\n      tag_68\n      jump\t// in\n    tag_67:\n      stop\n        /* \"NewAisiki.sol\":10881:10964  function getOwner() external view returns (address) {\r... */\n    tag_15:\n      tag_69\n      tag_70\n      jump\t// in\n    tag_69:\n      mload(0x40)\n      dup1\n      dup3\n      0xffffffffffffffffffffffffffffffffffffffff\n      and\n      0xffffffffffffffffffffffffffffffffffffffff\n      and\n      dup2\n      mstore\n      0x20\n      add\n      swap2\n      pop\n      pop\n      mload(0x40)\n      dup1\n      swap2\n      sub\n      swap1\n      return\n        /* \"NewAisiki.sol\":7196:7269  function owner() public view returns (address) {\r... */\n    tag_16:\n      tag_71\n      tag_72\n      jump\t// in\n    tag_71:\n      mload(0x40)\n      dup1\n      dup3\n      0xffffffffffffffffffffffffffffffffffffffff\n      and\n      0xffffffffffffffffffffffffffffffffffffffff\n      and\n      dup2\n      mstore\n      0x20\n      add\n      swap2\n      pop\n      pop\n      mload(0x40)\n      dup1\n      swap2\n      sub\n      swap1\n      return\n        /* \"NewAisiki.sol\":18498:18585  function symbol() public view returns (string memory) {\r... */\n    tag_17:\n      tag_73\n      tag_74\n      jump\t// in\n    tag_73:\n      mload(0x40)\n      dup1\n      dup1\n      0x20\n      add\n      dup3\n      dup2\n      sub\n      dup3\n      mstore\n      dup4\n      dup2\n      dup2\n      mload\n      dup2\n      mstore\n      0x20\n      add\n      swap2\n      pop\n      dup1\n      mload\n      swap1\n      0x20\n      add\n      swap1\n      dup1\n      dup4\n      dup4\n        /* \"--CODEGEN--\":23:24   */\n      0x00\n        /* \"--CODEGEN--\":8:108   */\n    tag_75:\n        /* \"--CODEGEN--\":33:36   */\n      dup4\n        /* \"--CODEGEN--\":30:31   */\n      dup2\n        /* \"--CODEGEN--\":27:37   */\n      lt\n        /* \"--CODEGEN--\":8:108   */\n      iszero\n      tag_77\n      jumpi\n        /* \"--CODEGEN--\":99:100   */\n      dup1\n        /* \"--CODEGEN--\":94:97   */\n      dup3\n        /* \"--CODEGEN--\":90:101   */\n      add\n        /* \"--CODEGEN--\":84:102   */\n      mload\n        /* \"--CODEGEN--\":80:81   */\n      dup2\n        /* \"--CODEGEN--\":75:78   */\n      dup5\n        /* \"--CODEGEN--\":71:82   */\n      add\n        /* \"--CODEGEN--\":64:103   */\n      mstore\n        /* \"--CODEGEN--\":52:54   */\n      0x20\n        /* \"--CODEGEN--\":49:50   */\n      dup2\n        /* \"--CODEGEN--\":45:55   */\n      add\n        /* \"--CODEGEN--\":40:55   */\n      swap1\n      pop\n        /* \"--CODEGEN--\":8:108   */\n      jump(tag_75)\n    tag_77:\n        /* \"--CODEGEN--\":12:26   */\n      pop\n        /* \"NewAisiki.sol\":18498:18585  function symbol() public view returns (string memory) {\r... */\n      pop\n      pop\n      pop\n      swap1\n      pop\n      swap1\n      dup2\n      add\n      swap1\n      0x1f\n      and\n      dup1\n      iszero\n      tag_78\n      jumpi\n      dup1\n      dup3\n      sub\n      dup1\n      mload\n      0x01\n      dup4\n      0x20\n      sub\n      0x0100\n      exp\n      sub\n      not\n      and\n      dup2\n      mstore\n      0x20\n      add\n      swap2\n      pop\n    tag_78:\n      pop\n      swap3\n      pop\n      pop\n      pop\n      mload(0x40)\n      dup1\n      swap2\n      sub\n      swap1\n      return\n        /* \"NewAisiki.sol\":10244:10353  function totalBalanceContract () public view returns (uint256) {\r... */\n    tag_18:\n      tag_79\n      tag_80\n      jump\t// in\n    tag_79:\n      mload(0x40)\n      dup1\n      dup3\n      dup2\n      mstore\n      0x20\n      add\n      swap2\n      pop\n      pop\n      mload(0x40)\n      dup1\n      swap2\n      sub\n      swap1\n      return\n        /* \"NewAisiki.sol\":14030:14246  function decreaseAllowance(address spender, uint256 subtractedValue) public returns (bool) {\r... */\n    tag_19:\n      tag_81\n      0x04\n      dup1\n      calldatasize\n      sub\n        /* \"--CODEGEN--\":13:15   */\n      0x40\n        /* \"--CODEGEN--\":8:11   */\n      dup2\n        /* \"--CODEGEN--\":5:16   */\n      lt\n        /* \"--CODEGEN--\":2:4   */\n      iszero\n      tag_82\n      jumpi\n        /* \"--CODEGEN--\":29:30   */\n      0x00\n        /* \"--CODEGEN--\":26:27   */\n      dup1\n        /* \"--CODEGEN--\":19:31   */\n      revert\n        /* \"--CODEGEN--\":2:4   */\n    tag_82:\n        /* \"NewAisiki.sol\":14030:14246  function decreaseAllowance(address spender, uint256 subtractedValue) public returns (bool) {\r... */\n      dup2\n      add\n      swap1\n      dup1\n      dup1\n      calldataload\n      0xffffffffffffffffffffffffffffffffffffffff\n      and\n      swap1\n      0x20\n      add\n      swap1\n      swap3\n      swap2\n      swap1\n      dup1\n      calldataload\n      swap1\n      0x20\n      add\n      swap1\n      swap3\n      swap2\n      swap1\n      pop\n      pop\n      pop\n      tag_83\n      jump\t// in\n    tag_81:\n      mload(0x40)\n      dup1\n      dup3\n      iszero\n      iszero\n      iszero\n      iszero\n      dup2\n      mstore\n      0x20\n      add\n      swap2\n      pop\n      pop\n      mload(0x40)\n      dup1\n      swap2\n      sub\n      swap1\n      return\n        /* \"NewAisiki.sol\":10394:10662  function sendToLiquidity (uint256 myAmount) public onlyOwner () {\r... */\n    tag_20:\n      tag_84\n      0x04\n      dup1\n      calldatasize\n      sub\n        /* \"--CODEGEN--\":13:15   */\n      0x20\n        /* \"--CODEGEN--\":8:11   */\n      dup2\n        /* \"--CODEGEN--\":5:16   */\n      lt\n        /* \"--CODEGEN--\":2:4   */\n      iszero\n      tag_85\n      jumpi\n        /* \"--CODEGEN--\":29:30   */\n      0x00\n        /* \"--CODEGEN--\":26:27   */\n      dup1\n        /* \"--CODEGEN--\":19:31   */\n      revert\n        /* \"--CODEGEN--\":2:4   */\n    tag_85:\n        /* \"NewAisiki.sol\":10394:10662  function sendToLiquidity (uint256 myAmount) public onlyOwner () {\r... */\n      dup2\n      add\n      swap1\n      dup1\n      dup1\n      calldataload\n      swap1\n      0x20\n      add\n      swap1\n      swap3\n      swap2\n      swap1\n      pop\n      pop\n      pop\n      tag_86\n      jump\t// in\n    tag_84:\n      stop\n        /* \"NewAisiki.sol\":20575:20719  function transfer(address to, uint256 amount) public returns (bool) {\r... */\n    tag_21:\n      tag_87\n      0x04\n      dup1\n      calldatasize\n      sub\n        /* \"--CODEGEN--\":13:15   */\n      0x40\n        /* \"--CODEGEN--\":8:11   */\n      dup2\n        /* \"--CODEGEN--\":5:16   */\n      lt\n        /* \"--CODEGEN--\":2:4   */\n      iszero\n      tag_88\n      jumpi\n        /* \"--CODEGEN--\":29:30   */\n      0x00\n        /* \"--CODEGEN--\":26:27   */\n      dup1\n        /* \"--CODEGEN--\":19:31   */\n      revert\n        /* \"--CODEGEN--\":2:4   */\n    tag_88:\n        /* \"NewAisiki.sol\":20575:20719  function transfer(address to, uint256 amount) public returns (bool) {\r... */\n      dup2\n      add\n      swap1\n      dup1\n      dup1\n      calldataload\n      0xffffffffffffffffffffffffffffffffffffffff\n      and\n      swap1\n      0x20\n      add\n      swap1\n      swap3\n      swap2\n      swap1\n      dup1\n      calldataload\n      swap1\n      0x20\n      add\n      swap1\n      swap3\n      swap2\n      swap1\n      pop\n      pop\n      pop\n      tag_89\n      jump\t// in\n    tag_87:\n      mload(0x40)\n      dup1\n      dup3\n      iszero\n      iszero\n      iszero\n      iszero\n      dup2\n      mstore\n      0x20\n      add\n      swap2\n      pop\n      pop\n      mload(0x40)\n      dup1\n      swap2\n      sub\n      swap1\n      return\n        /* \"NewAisiki.sol\":10972:11151  function whaleNo(address account) public onlyOwner () {\r... */\n    tag_22:\n      tag_90\n      0x04\n      dup1\n      calldatasize\n      sub\n        /* \"--CODEGEN--\":13:15   */\n      0x20\n        /* \"--CODEGEN--\":8:11   */\n      dup2\n        /* \"--CODEGEN--\":5:16   */\n      lt\n        /* \"--CODEGEN--\":2:4   */\n      iszero\n      tag_91\n      jumpi\n        /* \"--CODEGEN--\":29:30   */\n      0x00\n        /* \"--CODEGEN--\":26:27   */\n      dup1\n        /* \"--CODEGEN--\":19:31   */\n      revert\n        /* \"--CODEGEN--\":2:4   */\n    tag_91:\n        /* \"NewAisiki.sol\":10972:11151  function whaleNo(address account) public onlyOwner () {\r... */\n      dup2\n      add\n      swap1\n      dup1\n      dup1\n      calldataload\n      0xffffffffffffffffffffffffffffffffffffffff\n      and\n      swap1\n      0x20\n      add\n      swap1\n      swap3\n      swap2\n      swap1\n      pop\n      pop\n      pop\n      tag_92\n      jump\t// in\n    tag_90:\n      stop\n        /* \"NewAisiki.sol\":6923:6944  address public _owner */\n    tag_23:\n      tag_93\n      tag_94\n      jump\t// in\n    tag_93:\n      mload(0x40)\n      dup1\n      dup3\n      0xffffffffffffffffffffffffffffffffffffffff\n      and\n      0xffffffffffffffffffffffffffffffffffffffff\n      and\n      dup2\n      mstore\n      0x20\n      add\n      swap2\n      pop\n      pop\n      mload(0x40)\n      dup1\n      swap2\n      sub\n      swap1\n      return\n        /* \"NewAisiki.sol\":10692:10873  function whaleYes(address account) public onlyOwner () {\r... */\n    tag_24:\n      tag_95\n      0x04\n      dup1\n      calldatasize\n      sub\n        /* \"--CODEGEN--\":13:15   */\n      0x20\n        /* \"--CODEGEN--\":8:11   */\n      dup2\n        /* \"--CODEGEN--\":5:16   */\n      lt\n        /* \"--CODEGEN--\":2:4   */\n      iszero\n      tag_96\n      jumpi\n        /* \"--CODEGEN--\":29:30   */\n      0x00\n        /* \"--CODEGEN--\":26:27   */\n      dup1\n        /* \"--CODEGEN--\":19:31   */\n      revert\n        /* \"--CODEGEN--\":2:4   */\n    tag_96:\n        /* \"NewAisiki.sol\":10692:10873  function whaleYes(address account) public onlyOwner () {\r... */\n      dup2\n      add\n      swap1\n      dup1\n      dup1\n      calldataload\n      0xffffffffffffffffffffffffffffffffffffffff\n      and\n      swap1\n      0x20\n      add\n      swap1\n      swap3\n      swap2\n      swap1\n      pop\n      pop\n      pop\n      tag_97\n      jump\t// in\n    tag_95:\n      stop\n        /* \"NewAisiki.sol\":11756:11890  function allowance(address owner, address spender) public view returns (uint256) {\r... */\n    tag_25:\n      tag_98\n      0x04\n      dup1\n      calldatasize\n      sub\n        /* \"--CODEGEN--\":13:15   */\n      0x40\n        /* \"--CODEGEN--\":8:11   */\n      dup2\n        /* \"--CODEGEN--\":5:16   */\n      lt\n        /* \"--CODEGEN--\":2:4   */\n      iszero\n      tag_99\n      jumpi\n        /* \"--CODEGEN--\":29:30   */\n      0x00\n        /* \"--CODEGEN--\":26:27   */\n      dup1\n        /* \"--CODEGEN--\":19:31   */\n      revert\n        /* \"--CODEGEN--\":2:4   */\n    tag_99:\n        /* \"NewAisiki.sol\":11756:11890  function allowance(address owner, address spender) public view returns (uint256) {\r... */\n      dup2\n      add\n      swap1\n      dup1\n      dup1\n      calldataload\n      0xffffffffffffffffffffffffffffffffffffffff\n      and\n      swap1\n      0x20\n      add\n      swap1\n      swap3\n      swap2\n      swap1\n      dup1\n      calldataload\n      0xffffffffffffffffffffffffffffffffffffffff\n      and\n      swap1\n      0x20\n      add\n      swap1\n      swap3\n      swap2\n      swap1\n      pop\n      pop\n      pop\n      tag_100\n      jump\t// in\n    tag_98:\n      mload(0x40)\n      dup1\n      dup3\n      dup2\n      mstore\n      0x20\n      add\n      swap2\n      pop\n      pop\n      mload(0x40)\n      dup1\n      swap2\n      sub\n      swap1\n      return\n        /* \"NewAisiki.sol\":9620:9666  mapping (address => bool) public _holderInList */\n    tag_26:\n      tag_101\n      0x04\n      dup1\n      calldatasize\n      sub\n        /* \"--CODEGEN--\":13:15   */\n      0x20\n        /* \"--CODEGEN--\":8:11   */\n      dup2\n        /* \"--CODEGEN--\":5:16   */\n      lt\n        /* \"--CODEGEN--\":2:4   */\n      iszero\n      tag_102\n      jumpi\n        /* \"--CODEGEN--\":29:30   */\n      0x00\n        /* \"--CODEGEN--\":26:27   */\n      dup1\n        /* \"--CODEGEN--\":19:31   */\n      revert\n        /* \"--CODEGEN--\":2:4   */\n    tag_102:\n        /* \"NewAisiki.sol\":9620:9666  mapping (address => bool) public _holderInList */\n      dup2\n      add\n      swap1\n      dup1\n      dup1\n      calldataload\n      0xffffffffffffffffffffffffffffffffffffffff\n      and\n      swap1\n      0x20\n      add\n      swap1\n      swap3\n      swap2\n      swap1\n      pop\n      pop\n      pop\n      tag_103\n      jump\t// in\n    tag_101:\n      mload(0x40)\n      dup1\n      dup3\n      iszero\n      iszero\n      iszero\n      iszero\n      dup2\n      mstore\n      0x20\n      add\n      swap2\n      pop\n      pop\n      mload(0x40)\n      dup1\n      swap2\n      sub\n      swap1\n      return\n        /* \"NewAisiki.sol\":7604:7786  function transferOwnership(address newOwner) public onlyOwner {\r... */\n    tag_27:\n      tag_104\n      0x04\n      dup1\n      calldatasize\n      sub\n        /* \"--CODEGEN--\":13:15   */\n      0x20\n        /* \"--CODEGEN--\":8:11   */\n      dup2\n        /* \"--CODEGEN--\":5:16   */\n      lt\n        /* \"--CODEGEN--\":2:4   */\n      iszero\n      tag_105\n      jumpi\n        /* \"--CODEGEN--\":29:30   */\n      0x00\n        /* \"--CODEGEN--\":26:27   */\n      dup1\n        /* \"--CODEGEN--\":19:31   */\n      revert\n        /* \"--CODEGEN--\":2:4   */\n    tag_105:\n        /* \"NewAisiki.sol\":7604:7786  function transferOwnership(address newOwner) public onlyOwner {\r... */\n      dup2\n      add\n      swap1\n      dup1\n      dup1\n      calldataload\n      0xffffffffffffffffffffffffffffffffffffffff\n      and\n      swap1\n      0x20\n      add\n      swap1\n      swap3\n      swap2\n      swap1\n      pop\n      pop\n      pop\n      tag_106\n      jump\t// in\n    tag_104:\n      stop\n        /* \"NewAisiki.sol\":9765:9801  address payable[] public _mapHolders */\n    tag_28:\n      tag_107\n      0x04\n      dup1\n      calldatasize\n      sub\n        /* \"--CODEGEN--\":13:15   */\n      0x20\n        /* \"--CODEGEN--\":8:11   */\n      dup2\n        /* \"--CODEGEN--\":5:16   */\n      lt\n        /* \"--CODEGEN--\":2:4   */\n      iszero\n      tag_108\n      jumpi\n        /* \"--CODEGEN--\":29:30   */\n      0x00\n        /* \"--CODEGEN--\":26:27   */\n      dup1\n        /* \"--CODEGEN--\":19:31   */\n      revert\n        /* \"--CODEGEN--\":2:4   */\n    tag_108:\n        /* \"NewAisiki.sol\":9765:9801  address payable[] public _mapHolders */\n      dup2\n      add\n      swap1\n      dup1\n      dup1\n      calldataload\n      swap1\n      0x20\n      add\n      swap1\n      swap3\n      swap2\n      swap1\n      pop\n      pop\n      pop\n      tag_109\n      jump\t// in\n    tag_107:\n      mload(0x40)\n      dup1\n      dup3\n      0xffffffffffffffffffffffffffffffffffffffff\n      and\n      0xffffffffffffffffffffffffffffffffffffffff\n      and\n      dup2\n      mstore\n      0x20\n      add\n      swap2\n      pop\n      pop\n      mload(0x40)\n      dup1\n      swap2\n      sub\n      swap1\n      return\n        /* \"NewAisiki.sol\":17559:17643  function destroyer(uint256 amount) public {\r... */\n    tag_36:\n        /* \"NewAisiki.sol\":17610:17635  _burn(msg.sender, amount) */\n      tag_111\n        /* \"NewAisiki.sol\":17616:17626  msg.sender */\n      caller\n        /* \"NewAisiki.sol\":17628:17634  amount */\n      dup3\n        /* \"NewAisiki.sol\":17610:17615  _burn */\n      tag_112\n        /* \"NewAisiki.sol\":17610:17635  _burn(msg.sender, amount) */\n      jump\t// in\n    tag_111:\n        /* \"NewAisiki.sol\":17559:17643  function destroyer(uint256 amount) public {\r... */\n      pop\n      jump\t// out\n        /* \"NewAisiki.sol\":18296:18379  function name() public view returns (string memory) {\r... */\n    tag_38:\n        /* \"NewAisiki.sol\":18333:18346  string memory */\n      0x60\n        /* \"NewAisiki.sol\":18366:18371  _name */\n      0x07\n        /* \"NewAisiki.sol\":18359:18371  return _name */\n      dup1\n      sload\n      0x01\n      dup2\n      0x01\n      and\n      iszero\n      0x0100\n      mul\n      sub\n      and\n      0x02\n      swap1\n      div\n      dup1\n      0x1f\n      add\n      0x20\n      dup1\n      swap2\n      div\n      mul\n      0x20\n      add\n      mload(0x40)\n      swap1\n      dup2\n      add\n      0x40\n      mstore\n      dup1\n      swap3\n      swap2\n      swap1\n      dup2\n      dup2\n      mstore\n      0x20\n      add\n      dup3\n      dup1\n      sload\n      0x01\n      dup2\n      0x01\n      and\n      iszero\n      0x0100\n      mul\n      sub\n      and\n      0x02\n      swap1\n      div\n      dup1\n      iszero\n      tag_114\n      jumpi\n      dup1\n      0x1f\n      lt\n      tag_115\n      jumpi\n      0x0100\n      dup1\n      dup4\n      sload\n      div\n      mul\n      dup4\n      mstore\n      swap2\n      0x20\n      add\n      swap2\n      jump(tag_114)\n    tag_115:\n      dup3\n      add\n      swap2\n      swap1\n      0x00\n      mstore\n      keccak256(0x00, 0x20)\n      swap1\n    tag_116:\n      dup2\n      sload\n      dup2\n      mstore\n      swap1\n      0x01\n      add\n      swap1\n      0x20\n      add\n      dup1\n      dup4\n      gt\n      tag_116\n      jumpi\n      dup3\n      swap1\n      sub\n      0x1f\n      and\n      dup3\n      add\n      swap2\n    tag_114:\n      pop\n      pop\n      pop\n      pop\n      pop\n      swap1\n      pop\n        /* \"NewAisiki.sol\":18296:18379  function name() public view returns (string memory) {\r... */\n      swap1\n      jump\t// out\n        /* \"NewAisiki.sol\":12037:12185  function approve(address spender, uint256 value) public returns (bool) {\r... */\n    tag_45:\n        /* \"NewAisiki.sol\":12102:12106  bool */\n      0x00\n        /* \"NewAisiki.sol\":12119:12155  _approve(msg.sender, spender, value) */\n      tag_118\n        /* \"NewAisiki.sol\":12128:12138  msg.sender */\n      caller\n        /* \"NewAisiki.sol\":12140:12147  spender */\n      dup5\n        /* \"NewAisiki.sol\":12149:12154  value */\n      dup5\n        /* \"NewAisiki.sol\":12119:12127  _approve */\n      tag_119\n        /* \"NewAisiki.sol\":12119:12155  _approve(msg.sender, spender, value) */\n      jump\t// in\n    tag_118:\n        /* \"NewAisiki.sol\":12173:12177  true */\n      0x01\n        /* \"NewAisiki.sol\":12166:12177  return true */\n      swap1\n      pop\n        /* \"NewAisiki.sol\":12037:12185  function approve(address spender, uint256 value) public returns (bool) {\r... */\n      swap3\n      swap2\n      pop\n      pop\n      jump\t// out\n        /* \"NewAisiki.sol\":9907:9998  function totalSupply() public view returns (uint256) {\r... */\n    tag_47:\n        /* \"NewAisiki.sol\":9951:9958  uint256 */\n      0x00\n        /* \"NewAisiki.sol\":9978:9990  _totalSupply */\n      sload(0x06)\n        /* \"NewAisiki.sol\":9971:9990  return _totalSupply */\n      swap1\n      pop\n        /* \"NewAisiki.sol\":9907:9998  function totalSupply() public view returns (uint256) {\r... */\n      swap1\n      jump\t// out\n        /* \"NewAisiki.sol\":12656:12912  function transferFrom(address sender, address recipient, uint256 amount) public returns (bool) {\r... */\n    tag_50:\n        /* \"NewAisiki.sol\":12745:12749  bool */\n      0x00\n        /* \"NewAisiki.sol\":12762:12798  _transfer(sender, recipient, amount) */\n      tag_122\n        /* \"NewAisiki.sol\":12772:12778  sender */\n      dup5\n        /* \"NewAisiki.sol\":12780:12789  recipient */\n      dup5\n        /* \"NewAisiki.sol\":12791:12797  amount */\n      dup5\n        /* \"NewAisiki.sol\":12762:12771  _transfer */\n      tag_123\n        /* \"NewAisiki.sol\":12762:12798  _transfer(sender, recipient, amount) */\n      jump\t// in\n    tag_122:\n        /* \"NewAisiki.sol\":12809:12882  _approve(sender, msg.sender, _allowances[sender][msg.sender].sub(amount)) */\n      tag_124\n        /* \"NewAisiki.sol\":12818:12824  sender */\n      dup5\n        /* \"NewAisiki.sol\":12826:12836  msg.sender */\n      caller\n        /* \"NewAisiki.sol\":12838:12881  _allowances[sender][msg.sender].sub(amount) */\n      tag_125\n        /* \"NewAisiki.sol\":12874:12880  amount */\n      dup6\n        /* \"NewAisiki.sol\":12838:12849  _allowances */\n      0x02\n        /* \"NewAisiki.sol\":12838:12857  _allowances[sender] */\n      0x00\n        /* \"NewAisiki.sol\":12850:12856  sender */\n      dup11\n        /* \"NewAisiki.sol\":12838:12857  _allowances[sender] */\n      0xffffffffffffffffffffffffffffffffffffffff\n      and\n      0xffffffffffffffffffffffffffffffffffffffff\n      and\n      dup2\n      mstore\n      0x20\n      add\n      swap1\n      dup2\n      mstore\n      0x20\n      add\n      0x00\n      keccak256\n        /* \"NewAisiki.sol\":12838:12869  _allowances[sender][msg.sender] */\n      0x00\n        /* \"NewAisiki.sol\":12858:12868  msg.sender */\n      caller\n        /* \"NewAisiki.sol\":12838:12869  _allowances[sender][msg.sender] */\n      0xffffffffffffffffffffffffffffffffffffffff\n      and\n      0xffffffffffffffffffffffffffffffffffffffff\n      and\n      dup2\n      mstore\n      0x20\n      add\n      swap1\n      dup2\n      mstore\n      0x20\n      add\n      0x00\n      keccak256\n      sload\n        /* \"NewAisiki.sol\":12838:12873  _allowances[sender][msg.sender].sub */\n      tag_126\n      swap1\n        /* \"NewAisiki.sol\":12838:12881  _allowances[sender][msg.sender].sub(amount) */\n      swap2\n      swap1\n      0xffffffff\n      and\n      jump\t// in\n    tag_125:\n        /* \"NewAisiki.sol\":12809:12817  _approve */\n      tag_119\n        /* \"NewAisiki.sol\":12809:12882  _approve(sender, msg.sender, _allowances[sender][msg.sender].sub(amount)) */\n      jump\t// in\n    tag_124:\n        /* \"NewAisiki.sol\":12900:12904  true */\n      0x01\n        /* \"NewAisiki.sol\":12893:12904  return true */\n      swap1\n      pop\n        /* \"NewAisiki.sol\":12656:12912  function transferFrom(address sender, address recipient, uint256 amount) public returns (bool) {\r... */\n      swap4\n      swap3\n      pop\n      pop\n      pop\n      jump\t// out\n        /* \"NewAisiki.sol\":20727:20896  function _burnFrom(address from, address to, uint256 amount) public returns (bool) {\r... */\n    tag_53:\n        /* \"NewAisiki.sol\":20804:20808  bool */\n      0x00\n        /* \"NewAisiki.sol\":20828:20878  super.transferFrom(from, to, _partialBurn(amount)) */\n      tag_128\n        /* \"NewAisiki.sol\":20847:20851  from */\n      dup5\n        /* \"NewAisiki.sol\":20853:20855  to */\n      dup5\n        /* \"NewAisiki.sol\":20857:20877  _partialBurn(amount) */\n      tag_129\n        /* \"NewAisiki.sol\":20870:20876  amount */\n      dup6\n        /* \"NewAisiki.sol\":20857:20869  _partialBurn */\n      tag_130\n        /* \"NewAisiki.sol\":20857:20877  _partialBurn(amount) */\n      jump\t// in\n    tag_129:\n        /* \"NewAisiki.sol\":20828:20846  super.transferFrom */\n      tag_50\n        /* \"NewAisiki.sol\":20828:20878  super.transferFrom(from, to, _partialBurn(amount)) */\n      jump\t// in\n    tag_128:\n        /* \"NewAisiki.sol\":20821:20878  return super.transferFrom(from, to, _partialBurn(amount)) */\n      swap1\n      pop\n        /* \"NewAisiki.sol\":20727:20896  function _burnFrom(address from, address to, uint256 amount) public returns (bool) {\r... */\n      swap4\n      swap3\n      pop\n      pop\n      pop\n      jump\t// out\n        /* \"NewAisiki.sol\":10140:10236  function getTotalHolders() public view returns (uint) {\r... */\n    tag_55:\n        /* \"NewAisiki.sol\":10188:10192  uint */\n      0x00\n        /* \"NewAisiki.sol\":10212:10223  _mapHolders */\n      0x05\n        /* \"NewAisiki.sol\":10212:10230  _mapHolders.length */\n      dup1\n      sload\n      swap1\n      pop\n        /* \"NewAisiki.sol\":10205:10230  return _mapHolders.length */\n      swap1\n      pop\n        /* \"NewAisiki.sol\":10140:10236  function getTotalHolders() public view returns (uint) {\r... */\n      swap1\n      jump\t// out\n        /* \"NewAisiki.sol\":19148:19231  function decimals() public view returns (uint8) {\r... */\n    tag_57:\n        /* \"NewAisiki.sol\":19189:19194  uint8 */\n      0x00\n        /* \"NewAisiki.sol\":19214:19223  _decimals */\n      0x09\n      0x00\n      swap1\n      sload\n      swap1\n      0x0100\n      exp\n      swap1\n      div\n      0xff\n      and\n        /* \"NewAisiki.sol\":19207:19223  return _decimals */\n      swap1\n      pop\n        /* \"NewAisiki.sol\":19148:19231  function decimals() public view returns (uint8) {\r... */\n      swap1\n      jump\t// out\n        /* \"NewAisiki.sol\":13321:13527  function increaseAllowance(address spender, uint256 addedValue) public returns (bool) {\r... */\n    tag_60:\n        /* \"NewAisiki.sol\":13401:13405  bool */\n      0x00\n        /* \"NewAisiki.sol\":13418:13497  _approve(msg.sender, spender, _allowances[msg.sender][spender].add(addedValue)) */\n      tag_134\n        /* \"NewAisiki.sol\":13427:13437  msg.sender */\n      caller\n        /* \"NewAisiki.sol\":13439:13446  spender */\n      dup5\n        /* \"NewAisiki.sol\":13448:13496  _allowances[msg.sender][spender].add(addedValue) */\n      tag_135\n        /* \"NewAisiki.sol\":13485:13495  addedValue */\n      dup6\n        /* \"NewAisiki.sol\":13448:13459  _allowances */\n      0x02\n        /* \"NewAisiki.sol\":13448:13471  _allowances[msg.sender] */\n      0x00\n        /* \"NewAisiki.sol\":13460:13470  msg.sender */\n      caller\n        /* \"NewAisiki.sol\":13448:13471  _allowances[msg.sender] */\n      0xffffffffffffffffffffffffffffffffffffffff\n      and\n      0xffffffffffffffffffffffffffffffffffffffff\n      and\n      dup2\n      mstore\n      0x20\n      add\n      swap1\n      dup2\n      mstore\n      0x20\n      add\n      0x00\n      keccak256\n        /* \"NewAisiki.sol\":13448:13480  _allowances[msg.sender][spender] */\n      0x00\n        /* \"NewAisiki.sol\":13472:13479  spender */\n      dup10\n        /* \"NewAisiki.sol\":13448:13480  _allowances[msg.sender][spender] */\n      0xffffffffffffffffffffffffffffffffffffffff\n      and\n      0xffffffffffffffffffffffffffffffffffffffff\n      and\n      dup2\n      mstore\n      0x20\n      add\n      swap1\n      dup2\n      mstore\n      0x20\n      add\n      0x00\n      keccak256\n      sload\n        /* \"NewAisiki.sol\":13448:13484  _allowances[msg.sender][spender].add */\n      tag_136\n      swap1\n        /* \"NewAisiki.sol\":13448:13496  _allowances[msg.sender][spender].add(addedValue) */\n      swap2\n      swap1\n      0xffffffff\n      and\n      jump\t// in\n    tag_135:\n        /* \"NewAisiki.sol\":13418:13426  _approve */\n      tag_119\n        /* \"NewAisiki.sol\":13418:13497  _approve(msg.sender, spender, _allowances[msg.sender][spender].add(addedValue)) */\n      jump\t// in\n    tag_134:\n        /* \"NewAisiki.sol\":13515:13519  true */\n      0x01\n        /* \"NewAisiki.sol\":13508:13519  return true */\n      swap1\n      pop\n        /* \"NewAisiki.sol\":13321:13527  function increaseAllowance(address spender, uint256 addedValue) public returns (bool) {\r... */\n      swap3\n      swap2\n      pop\n      pop\n      jump\t// out\n        /* \"NewAisiki.sol\":9675:9717  mapping (address => bool) public _itsWhale */\n    tag_63:\n      mstore(0x20, 0x04)\n      dup1\n      0x00\n      mstore\n      keccak256(0x00, 0x40)\n      0x00\n      swap2\n      pop\n      sload\n      swap1\n      0x0100\n      exp\n      swap1\n      div\n      0xff\n      and\n      dup2\n      jump\t// out\n        /* \"NewAisiki.sol\":11214:11324  function balanceOf(address account) public view returns (uint256) {\r... */\n    tag_66:\n        /* \"NewAisiki.sol\":11271:11278  uint256 */\n      0x00\n        /* \"NewAisiki.sol\":11298:11307  _balances */\n      0x01\n        /* \"NewAisiki.sol\":11298:11316  _balances[account] */\n      0x00\n        /* \"NewAisiki.sol\":11308:11315  account */\n      dup4\n        /* \"NewAisiki.sol\":11298:11316  _balances[account] */\n      0xffffffffffffffffffffffffffffffffffffffff\n      and\n      0xffffffffffffffffffffffffffffffffffffffff\n      and\n      dup2\n      mstore\n      0x20\n      add\n      swap1\n      dup2\n      mstore\n      0x20\n      add\n      0x00\n      keccak256\n      sload\n        /* \"NewAisiki.sol\":11291:11316  return _balances[account] */\n      swap1\n      pop\n        /* \"NewAisiki.sol\":11214:11324  function balanceOf(address account) public view returns (uint256) {\r... */\n      swap2\n      swap1\n      pop\n      jump\t// out\n        /* \"NewAisiki.sol\":7390:7598  function renounceOwnership() public onlyOwner {\r... */\n    tag_68:\n        /* \"NewAisiki.sol\":7321:7333  _msgSender() */\n      tag_139\n        /* \"NewAisiki.sol\":7321:7331  _msgSender */\n      tag_140\n        /* \"NewAisiki.sol\":7321:7333  _msgSender() */\n      jump\t// in\n    tag_139:\n        /* \"NewAisiki.sol\":7311:7333  _owner == _msgSender() */\n      0xffffffffffffffffffffffffffffffffffffffff\n      and\n        /* \"NewAisiki.sol\":7311:7317  _owner */\n      0x00\n      dup1\n      swap1\n      sload\n      swap1\n      0x0100\n      exp\n      swap1\n      div\n      0xffffffffffffffffffffffffffffffffffffffff\n      and\n        /* \"NewAisiki.sol\":7311:7333  _owner == _msgSender() */\n      0xffffffffffffffffffffffffffffffffffffffff\n      and\n      eq\n        /* \"NewAisiki.sol\":7303:7370  require(_owner == _msgSender(), \"Ownable: caller is not the owner\") */\n      tag_141\n      jumpi\n      mload(0x40)\n      0x08c379a000000000000000000000000000000000000000000000000000000000\n      dup2\n      mstore\n      0x04\n      add\n      dup1\n      dup1\n      0x20\n      add\n      dup3\n      dup2\n      sub\n      dup3\n      mstore\n      0x20\n      dup2\n      mstore\n      0x20\n      add\n      dup1\n      0x4f776e61626c653a2063616c6c6572206973206e6f7420746865206f776e6572\n      dup2\n      mstore\n      pop\n      0x20\n      add\n      swap2\n      pop\n      pop\n      mload(0x40)\n      dup1\n      swap2\n      sub\n      swap1\n      revert\n    tag_141:\n        /* \"NewAisiki.sol\":7462:7472  msg.sender */\n      caller\n        /* \"NewAisiki.sol\":7452:7472  _owner == msg.sender */\n      0xffffffffffffffffffffffffffffffffffffffff\n      and\n        /* \"NewAisiki.sol\":7452:7458  _owner */\n      0x00\n      dup1\n      swap1\n      sload\n      swap1\n      0x0100\n      exp\n      swap1\n      div\n      0xffffffffffffffffffffffffffffffffffffffff\n      and\n        /* \"NewAisiki.sol\":7452:7472  _owner == msg.sender */\n      0xffffffffffffffffffffffffffffffffffffffff\n      and\n      eq\n        /* \"NewAisiki.sol\":7443:7514  require( _owner == msg.sender,\"security guaranteed administrator only\") */\n      tag_143\n      jumpi\n      mload(0x40)\n      0x08c379a000000000000000000000000000000000000000000000000000000000\n      dup2\n      mstore\n      0x04\n      add\n      dup1\n      dup1\n      0x20\n      add\n      dup3\n      dup2\n      sub\n      dup3\n      mstore\n      0x26\n      dup2\n      mstore\n      0x20\n      add\n      dup1\n      data_946ee13d067f754cd2d5e9b196461736c826af8ee5bd08e34da236cdee2ac7c4\n      0x26\n      swap2\n      codecopy\n      0x40\n      add\n      swap2\n      pop\n      pop\n      mload(0x40)\n      dup1\n      swap2\n      sub\n      swap1\n      revert\n    tag_143:\n        /* \"NewAisiki.sol\":7563:7564  0 */\n      0x00\n        /* \"NewAisiki.sol\":7526:7566  OwnershipTransferred(_owner, address(0)) */\n      0xffffffffffffffffffffffffffffffffffffffff\n      and\n        /* \"NewAisiki.sol\":7547:7553  _owner */\n      0x00\n      dup1\n      swap1\n      sload\n      swap1\n      0x0100\n      exp\n      swap1\n      div\n      0xffffffffffffffffffffffffffffffffffffffff\n      and\n        /* \"NewAisiki.sol\":7526:7566  OwnershipTransferred(_owner, address(0)) */\n      0xffffffffffffffffffffffffffffffffffffffff\n      and\n      0x8be0079c531659141344cd1fd0a4f28419497f9722a3daafe3b4186f6b6457e0\n      mload(0x40)\n      mload(0x40)\n      dup1\n      swap2\n      sub\n      swap1\n      log3\n        /* \"NewAisiki.sol\":7590:7591  0 */\n      0x00\n        /* \"NewAisiki.sol\":7573:7579  _owner */\n      dup1\n      0x00\n        /* \"NewAisiki.sol\":7573:7592  _owner = address(0) */\n      0x0100\n      exp\n      dup2\n      sload\n      dup2\n      0xffffffffffffffffffffffffffffffffffffffff\n      mul\n      not\n      and\n      swap1\n      dup4\n      0xffffffffffffffffffffffffffffffffffffffff\n      and\n      mul\n      or\n      swap1\n      sstore\n      pop\n        /* \"NewAisiki.sol\":7390:7598  function renounceOwnership() public onlyOwner {\r... */\n      jump\t// out\n        /* \"NewAisiki.sol\":10881:10964  function getOwner() external view returns (address) {\r... */\n    tag_70:\n        /* \"NewAisiki.sol\":10924:10931  address */\n      0x00\n        /* \"NewAisiki.sol\":10951:10958  owner() */\n      tag_145\n        /* \"NewAisiki.sol\":10951:10956  owner */\n      tag_72\n        /* \"NewAisiki.sol\":10951:10958  owner() */\n      jump\t// in\n    tag_145:\n        /* \"NewAisiki.sol\":10944:10958  return owner() */\n      swap1\n      pop\n        /* \"NewAisiki.sol\":10881:10964  function getOwner() external view returns (address) {\r... */\n      swap1\n      jump\t// out\n        /* \"NewAisiki.sol\":7196:7269  function owner() public view returns (address) {\r... */\n    tag_72:\n        /* \"NewAisiki.sol\":7234:7241  address */\n      0x00\n        /* \"NewAisiki.sol\":7257:7263  _owner */\n      dup1\n      0x00\n      swap1\n      sload\n      swap1\n      0x0100\n      exp\n      swap1\n      div\n      0xffffffffffffffffffffffffffffffffffffffff\n      and\n        /* \"NewAisiki.sol\":7250:7263  return _owner */\n      swap1\n      pop\n        /* \"NewAisiki.sol\":7196:7269  function owner() public view returns (address) {\r... */\n      swap1\n      jump\t// out\n        /* \"NewAisiki.sol\":18498:18585  function symbol() public view returns (string memory) {\r... */\n    tag_74:\n        /* \"NewAisiki.sol\":18537:18550  string memory */\n      0x60\n        /* \"NewAisiki.sol\":18570:18577  _symbol */\n      0x08\n        /* \"NewAisiki.sol\":18563:18577  return _symbol */\n      dup1\n      sload\n      0x01\n      dup2\n      0x01\n      and\n      iszero\n      0x0100\n      mul\n      sub\n      and\n      0x02\n      swap1\n      div\n      dup1\n      0x1f\n      add\n      0x20\n      dup1\n      swap2\n      div\n      mul\n      0x20\n      add\n      mload(0x40)\n      swap1\n      dup2\n      add\n      0x40\n      mstore\n      dup1\n      swap3\n      swap2\n      swap1\n      dup2\n      dup2\n      mstore\n      0x20\n      add\n      dup3\n      dup1\n      sload\n      0x01\n      dup2\n      0x01\n      and\n      iszero\n      0x0100\n      mul\n      sub\n      and\n      0x02\n      swap1\n      div\n      dup1\n      iszero\n      tag_148\n      jumpi\n      dup1\n      0x1f\n      lt\n      tag_149\n      jumpi\n      0x0100\n      dup1\n      dup4\n      sload\n      div\n      mul\n      dup4\n      mstore\n      swap2\n      0x20\n      add\n      swap2\n      jump(tag_148)\n    tag_149:\n      dup3\n      add\n      swap2\n      swap1\n      0x00\n      mstore\n      keccak256(0x00, 0x20)\n      swap1\n    tag_150:\n      dup2\n      sload\n      dup2\n      mstore\n      swap1\n      0x01\n      add\n      swap1\n      0x20\n      add\n      dup1\n      dup4\n      gt\n      tag_150\n      jumpi\n      dup3\n      swap1\n      sub\n      0x1f\n      and\n      dup3\n      add\n      swap2\n    tag_148:\n      pop\n      pop\n      pop\n      pop\n      pop\n      swap1\n      pop\n        /* \"NewAisiki.sol\":18498:18585  function symbol() public view returns (string memory) {\r... */\n      swap1\n      jump\t// out\n        /* \"NewAisiki.sol\":10244:10353  function totalBalanceContract () public view returns (uint256) {\r... */\n    tag_80:\n        /* \"NewAisiki.sol\":10298:10305  uint256 */\n      0x00\n        /* \"NewAisiki.sol\":10325:10346  address(this).balance */\n      selfbalance\n        /* \"NewAisiki.sol\":10318:10346  return address(this).balance */\n      swap1\n      pop\n        /* \"NewAisiki.sol\":10244:10353  function totalBalanceContract () public view returns (uint256) {\r... */\n      swap1\n      jump\t// out\n        /* \"NewAisiki.sol\":14030:14246  function decreaseAllowance(address spender, uint256 subtractedValue) public returns (bool) {\r... */\n    tag_83:\n        /* \"NewAisiki.sol\":14115:14119  bool */\n      0x00\n        /* \"NewAisiki.sol\":14132:14216  _approve(msg.sender, spender, _allowances[msg.sender][spender].sub(subtractedValue)) */\n      tag_153\n        /* \"NewAisiki.sol\":14141:14151  msg.sender */\n      caller\n        /* \"NewAisiki.sol\":14153:14160  spender */\n      dup5\n        /* \"NewAisiki.sol\":14162:14215  _allowances[msg.sender][spender].sub(subtractedValue) */\n      tag_154\n        /* \"NewAisiki.sol\":14199:14214  subtractedValue */\n      dup6\n        /* \"NewAisiki.sol\":14162:14173  _allowances */\n      0x02\n        /* \"NewAisiki.sol\":14162:14185  _allowances[msg.sender] */\n      0x00\n        /* \"NewAisiki.sol\":14174:14184  msg.sender */\n      caller\n        /* \"NewAisiki.sol\":14162:14185  _allowances[msg.sender] */\n      0xffffffffffffffffffffffffffffffffffffffff\n      and\n      0xffffffffffffffffffffffffffffffffffffffff\n      and\n      dup2\n      mstore\n      0x20\n      add\n      swap1\n      dup2\n      mstore\n      0x20\n      add\n      0x00\n      keccak256\n        /* \"NewAisiki.sol\":14162:14194  _allowances[msg.sender][spender] */\n      0x00\n        /* \"NewAisiki.sol\":14186:14193  spender */\n      dup10\n        /* \"NewAisiki.sol\":14162:14194  _allowances[msg.sender][spender] */\n      0xffffffffffffffffffffffffffffffffffffffff\n      and\n      0xffffffffffffffffffffffffffffffffffffffff\n      and\n      dup2\n      mstore\n      0x20\n      add\n      swap1\n      dup2\n      mstore\n      0x20\n      add\n      0x00\n      keccak256\n      sload\n        /* \"NewAisiki.sol\":14162:14198  _allowances[msg.sender][spender].sub */\n      tag_126\n      swap1\n        /* \"NewAisiki.sol\":14162:14215  _allowances[msg.sender][spender].sub(subtractedValue) */\n      swap2\n      swap1\n      0xffffffff\n      and\n      jump\t// in\n    tag_154:\n        /* \"NewAisiki.sol\":14132:14140  _approve */\n      tag_119\n        /* \"NewAisiki.sol\":14132:14216  _approve(msg.sender, spender, _allowances[msg.sender][spender].sub(subtractedValue)) */\n      jump\t// in\n    tag_153:\n        /* \"NewAisiki.sol\":14234:14238  true */\n      0x01\n        /* \"NewAisiki.sol\":14227:14238  return true */\n      swap1\n      pop\n        /* \"NewAisiki.sol\":14030:14246  function decreaseAllowance(address spender, uint256 subtractedValue) public returns (bool) {\r... */\n      swap3\n      swap2\n      pop\n      pop\n      jump\t// out\n        /* \"NewAisiki.sol\":10394:10662  function sendToLiquidity (uint256 myAmount) public onlyOwner () {\r... */\n    tag_86:\n        /* \"NewAisiki.sol\":7321:7333  _msgSender() */\n      tag_156\n        /* \"NewAisiki.sol\":7321:7331  _msgSender */\n      tag_140\n        /* \"NewAisiki.sol\":7321:7333  _msgSender() */\n      jump\t// in\n    tag_156:\n        /* \"NewAisiki.sol\":7311:7333  _owner == _msgSender() */\n      0xffffffffffffffffffffffffffffffffffffffff\n      and\n        /* \"NewAisiki.sol\":7311:7317  _owner */\n      0x00\n      dup1\n      swap1\n      sload\n      swap1\n      0x0100\n      exp\n      swap1\n      div\n      0xffffffffffffffffffffffffffffffffffffffff\n      and\n        /* \"NewAisiki.sol\":7311:7333  _owner == _msgSender() */\n      0xffffffffffffffffffffffffffffffffffffffff\n      and\n      eq\n        /* \"NewAisiki.sol\":7303:7370  require(_owner == _msgSender(), \"Ownable: caller is not the owner\") */\n      tag_157\n      jumpi\n      mload(0x40)\n      0x08c379a000000000000000000000000000000000000000000000000000000000\n      dup2\n      mstore\n      0x04\n      add\n      dup1\n      dup1\n      0x20\n      add\n      dup3\n      dup2\n      sub\n      dup3\n      mstore\n      0x20\n      dup2\n      mstore\n      0x20\n      add\n      dup1\n      0x4f776e61626c653a2063616c6c6572206973206e6f7420746865206f776e6572\n      dup2\n      mstore\n      pop\n      0x20\n      add\n      swap2\n      pop\n      pop\n      mload(0x40)\n      dup1\n      swap2\n      sub\n      swap1\n      revert\n    tag_157:\n        /* \"NewAisiki.sol\":10488:10498  msg.sender */\n      caller\n        /* \"NewAisiki.sol\":10478:10498  _owner == msg.sender */\n      0xffffffffffffffffffffffffffffffffffffffff\n      and\n        /* \"NewAisiki.sol\":10478:10484  _owner */\n      0x00\n      dup1\n      swap1\n      sload\n      swap1\n      0x0100\n      exp\n      swap1\n      div\n      0xffffffffffffffffffffffffffffffffffffffff\n      and\n        /* \"NewAisiki.sol\":10478:10498  _owner == msg.sender */\n      0xffffffffffffffffffffffffffffffffffffffff\n      and\n      eq\n        /* \"NewAisiki.sol\":10469:10540  require( _owner == msg.sender,\"security guaranteed administrator only\") */\n      tag_159\n      jumpi\n      mload(0x40)\n      0x08c379a000000000000000000000000000000000000000000000000000000000\n      dup2\n      mstore\n      0x04\n      add\n      dup1\n      dup1\n      0x20\n      add\n      dup3\n      dup2\n      sub\n      dup3\n      mstore\n      0x26\n      dup2\n      mstore\n      0x20\n      add\n      dup1\n      data_946ee13d067f754cd2d5e9b196461736c826af8ee5bd08e34da236cdee2ac7c4\n      0x26\n      swap2\n      codecopy\n      0x40\n      add\n      swap2\n      pop\n      pop\n      mload(0x40)\n      dup1\n      swap2\n      sub\n      swap1\n      revert\n    tag_159:\n        /* \"NewAisiki.sol\":10584:10592  myAmount */\n      dup1\n        /* \"NewAisiki.sol\":10559:10580  address(this).balance */\n      selfbalance\n        /* \"NewAisiki.sol\":10559:10592  address(this).balance >= myAmount */\n      lt\n      iszero\n        /* \"NewAisiki.sol\":10551:10616  require(address(this).balance >= myAmount, \"insufficient funds.\") */\n      tag_160\n      jumpi\n      mload(0x40)\n      0x08c379a000000000000000000000000000000000000000000000000000000000\n      dup2\n      mstore\n      0x04\n      add\n      dup1\n      dup1\n      0x20\n      add\n      dup3\n      dup2\n      sub\n      dup3\n      mstore\n      0x13\n      dup2\n      mstore\n      0x20\n      add\n      dup1\n      0x696e73756666696369656e742066756e64732e00000000000000000000000000\n      dup2\n      mstore\n      pop\n      0x20\n      add\n      swap2\n      pop\n      pop\n      mload(0x40)\n      dup1\n      swap2\n      sub\n      swap1\n      revert\n    tag_160:\n        /* \"NewAisiki.sol\":10627:10637  msg.sender */\n      caller\n        /* \"NewAisiki.sol\":10627:10646  msg.sender.transfer */\n      0xffffffffffffffffffffffffffffffffffffffff\n      and\n        /* \"NewAisiki.sol\":10627:10656  msg.sender.transfer(myAmount) */\n      0x08fc\n        /* \"NewAisiki.sol\":10647:10655  myAmount */\n      dup3\n        /* \"NewAisiki.sol\":10627:10656  msg.sender.transfer(myAmount) */\n      swap1\n      dup2\n      iszero\n      mul\n      swap1\n      mload(0x40)\n      0x00\n      mload(0x40)\n      dup1\n      dup4\n      sub\n      dup2\n      dup6\n      dup9\n      dup9\n      call\n      swap4\n      pop\n      pop\n      pop\n      pop\n      iszero\n        /* \"--CODEGEN--\":8:17   */\n      dup1\n        /* \"--CODEGEN--\":5:7   */\n      iszero\n      tag_161\n      jumpi\n        /* \"--CODEGEN--\":45:61   */\n      returndatasize\n        /* \"--CODEGEN--\":42:43   */\n      0x00\n        /* \"--CODEGEN--\":39:40   */\n      dup1\n        /* \"--CODEGEN--\":24:62   */\n      returndatacopy\n        /* \"--CODEGEN--\":77:93   */\n      returndatasize\n        /* \"--CODEGEN--\":74:75   */\n      0x00\n        /* \"--CODEGEN--\":67:94   */\n      revert\n        /* \"--CODEGEN--\":5:7   */\n    tag_161:\n        /* \"NewAisiki.sol\":10627:10656  msg.sender.transfer(myAmount) */\n      pop\n        /* \"NewAisiki.sol\":10394:10662  function sendToLiquidity (uint256 myAmount) public onlyOwner () {\r... */\n      pop\n      jump\t// out\n        /* \"NewAisiki.sol\":20575:20719  function transfer(address to, uint256 amount) public returns (bool) {\r... */\n    tag_89:\n        /* \"NewAisiki.sol\":20637:20641  bool */\n      0x00\n        /* \"NewAisiki.sol\":20661:20701  super.transfer(to, _partialBurn(amount)) */\n      tag_163\n        /* \"NewAisiki.sol\":20676:20678  to */\n      dup4\n        /* \"NewAisiki.sol\":20680:20700  _partialBurn(amount) */\n      tag_164\n        /* \"NewAisiki.sol\":20693:20699  amount */\n      dup5\n        /* \"NewAisiki.sol\":20680:20692  _partialBurn */\n      tag_130\n        /* \"NewAisiki.sol\":20680:20700  _partialBurn(amount) */\n      jump\t// in\n    tag_164:\n        /* \"NewAisiki.sol\":20661:20675  super.transfer */\n      tag_165\n        /* \"NewAisiki.sol\":20661:20701  super.transfer(to, _partialBurn(amount)) */\n      jump\t// in\n    tag_163:\n        /* \"NewAisiki.sol\":20654:20701  return super.transfer(to, _partialBurn(amount)) */\n      swap1\n      pop\n        /* \"NewAisiki.sol\":20575:20719  function transfer(address to, uint256 amount) public returns (bool) {\r... */\n      swap3\n      swap2\n      pop\n      pop\n      jump\t// out\n        /* \"NewAisiki.sol\":10972:11151  function whaleNo(address account) public onlyOwner () {\r... */\n    tag_92:\n        /* \"NewAisiki.sol\":7321:7333  _msgSender() */\n      tag_167\n        /* \"NewAisiki.sol\":7321:7331  _msgSender */\n      tag_140\n        /* \"NewAisiki.sol\":7321:7333  _msgSender() */\n      jump\t// in\n    tag_167:\n        /* \"NewAisiki.sol\":7311:7333  _owner == _msgSender() */\n      0xffffffffffffffffffffffffffffffffffffffff\n      and\n        /* \"NewAisiki.sol\":7311:7317  _owner */\n      0x00\n      dup1\n      swap1\n      sload\n      swap1\n      0x0100\n      exp\n      swap1\n      div\n      0xffffffffffffffffffffffffffffffffffffffff\n      and\n        /* \"NewAisiki.sol\":7311:7333  _owner == _msgSender() */\n      0xffffffffffffffffffffffffffffffffffffffff\n      and\n      eq\n        /* \"NewAisiki.sol\":7303:7370  require(_owner == _msgSender(), \"Ownable: caller is not the owner\") */\n      tag_168\n      jumpi\n      mload(0x40)\n      0x08c379a000000000000000000000000000000000000000000000000000000000\n      dup2\n      mstore\n      0x04\n      add\n      dup1\n      dup1\n      0x20\n      add\n      dup3\n      dup2\n      sub\n      dup3\n      mstore\n      0x20\n      dup2\n      mstore\n      0x20\n      add\n      dup1\n      0x4f776e61626c653a2063616c6c6572206973206e6f7420746865206f776e6572\n      dup2\n      mstore\n      pop\n      0x20\n      add\n      swap2\n      pop\n      pop\n      mload(0x40)\n      dup1\n      swap2\n      sub\n      swap1\n      revert\n    tag_168:\n        /* \"NewAisiki.sol\":11056:11066  msg.sender */\n      caller\n        /* \"NewAisiki.sol\":11046:11066  _owner == msg.sender */\n      0xffffffffffffffffffffffffffffffffffffffff\n      and\n        /* \"NewAisiki.sol\":11046:11052  _owner */\n      0x00\n      dup1\n      swap1\n      sload\n      swap1\n      0x0100\n      exp\n      swap1\n      div\n      0xffffffffffffffffffffffffffffffffffffffff\n      and\n        /* \"NewAisiki.sol\":11046:11066  _owner == msg.sender */\n      0xffffffffffffffffffffffffffffffffffffffff\n      and\n      eq\n        /* \"NewAisiki.sol\":11037:11108  require( _owner == msg.sender,\"security guaranteed administrator only\") */\n      tag_170\n      jumpi\n      mload(0x40)\n      0x08c379a000000000000000000000000000000000000000000000000000000000\n      dup2\n      mstore\n      0x04\n      add\n      dup1\n      dup1\n      0x20\n      add\n      dup3\n      dup2\n      sub\n      dup3\n      mstore\n      0x26\n      dup2\n      mstore\n      0x20\n      add\n      dup1\n      data_946ee13d067f754cd2d5e9b196461736c826af8ee5bd08e34da236cdee2ac7c4\n      0x26\n      swap2\n      codecopy\n      0x40\n      add\n      swap2\n      pop\n      pop\n      mload(0x40)\n      dup1\n      swap2\n      sub\n      swap1\n      revert\n    tag_170:\n        /* \"NewAisiki.sol\":11140:11145  false */\n      0x00\n        /* \"NewAisiki.sol\":11119:11128  _itsWhale */\n      0x04\n        /* \"NewAisiki.sol\":11119:11137  _itsWhale[account] */\n      0x00\n        /* \"NewAisiki.sol\":11129:11136  account */\n      dup4\n        /* \"NewAisiki.sol\":11119:11137  _itsWhale[account] */\n      0xffffffffffffffffffffffffffffffffffffffff\n      and\n      0xffffffffffffffffffffffffffffffffffffffff\n      and\n      dup2\n      mstore\n      0x20\n      add\n      swap1\n      dup2\n      mstore\n      0x20\n      add\n      0x00\n      keccak256\n      0x00\n        /* \"NewAisiki.sol\":11119:11145  _itsWhale[account] = false */\n      0x0100\n      exp\n      dup2\n      sload\n      dup2\n      0xff\n      mul\n      not\n      and\n      swap1\n      dup4\n      iszero\n      iszero\n      mul\n      or\n      swap1\n      sstore\n      pop\n        /* \"NewAisiki.sol\":10972:11151  function whaleNo(address account) public onlyOwner () {\r... */\n      pop\n      jump\t// out\n        /* \"NewAisiki.sol\":6923:6944  address public _owner */\n    tag_94:\n      0x00\n      dup1\n      swap1\n      sload\n      swap1\n      0x0100\n      exp\n      swap1\n      div\n      0xffffffffffffffffffffffffffffffffffffffff\n      and\n      dup2\n      jump\t// out\n        /* \"NewAisiki.sol\":10692:10873  function whaleYes(address account) public onlyOwner () {\r... */\n    tag_97:\n        /* \"NewAisiki.sol\":7321:7333  _msgSender() */\n      tag_172\n        /* \"NewAisiki.sol\":7321:7331  _msgSender */\n      tag_140\n        /* \"NewAisiki.sol\":7321:7333  _msgSender() */\n      jump\t// in\n    tag_172:\n        /* \"NewAisiki.sol\":7311:7333  _owner == _msgSender() */\n      0xffffffffffffffffffffffffffffffffffffffff\n      and\n        /* \"NewAisiki.sol\":7311:7317  _owner */\n      0x00\n      dup1\n      swap1\n      sload\n      swap1\n      0x0100\n      exp\n      swap1\n      div\n      0xffffffffffffffffffffffffffffffffffffffff\n      and\n        /* \"NewAisiki.sol\":7311:7333  _owner == _msgSender() */\n      0xffffffffffffffffffffffffffffffffffffffff\n      and\n      eq\n        /* \"NewAisiki.sol\":7303:7370  require(_owner == _msgSender(), \"Ownable: caller is not the owner\") */\n      tag_173\n      jumpi\n      mload(0x40)\n      0x08c379a000000000000000000000000000000000000000000000000000000000\n      dup2\n      mstore\n      0x04\n      add\n      dup1\n      dup1\n      0x20\n      add\n      dup3\n      dup2\n      sub\n      dup3\n      mstore\n      0x20\n      dup2\n      mstore\n      0x20\n      add\n      dup1\n      0x4f776e61626c653a2063616c6c6572206973206e6f7420746865206f776e6572\n      dup2\n      mstore\n      pop\n      0x20\n      add\n      swap2\n      pop\n      pop\n      mload(0x40)\n      dup1\n      swap2\n      sub\n      swap1\n      revert\n    tag_173:\n        /* \"NewAisiki.sol\":10778:10788  msg.sender */\n      caller\n        /* \"NewAisiki.sol\":10768:10788  _owner == msg.sender */\n      0xffffffffffffffffffffffffffffffffffffffff\n      and\n        /* \"NewAisiki.sol\":10768:10774  _owner */\n      0x00\n      dup1\n      swap1\n      sload\n      swap1\n      0x0100\n      exp\n      swap1\n      div\n      0xffffffffffffffffffffffffffffffffffffffff\n      and\n        /* \"NewAisiki.sol\":10768:10788  _owner == msg.sender */\n      0xffffffffffffffffffffffffffffffffffffffff\n      and\n      eq\n        /* \"NewAisiki.sol\":10759:10830  require( _owner == msg.sender,\"security guaranteed administrator only\") */\n      tag_175\n      jumpi\n      mload(0x40)\n      0x08c379a000000000000000000000000000000000000000000000000000000000\n      dup2\n      mstore\n      0x04\n      add\n      dup1\n      dup1\n      0x20\n      add\n      dup3\n      dup2\n      sub\n      dup3\n      mstore\n      0x26\n      dup2\n      mstore\n      0x20\n      add\n      dup1\n      data_946ee13d067f754cd2d5e9b196461736c826af8ee5bd08e34da236cdee2ac7c4\n      0x26\n      swap2\n      codecopy\n      0x40\n      add\n      swap2\n      pop\n      pop\n      mload(0x40)\n      dup1\n      swap2\n      sub\n      swap1\n      revert\n    tag_175:\n        /* \"NewAisiki.sol\":10863:10867  true */\n      0x01\n        /* \"NewAisiki.sol\":10842:10851  _itsWhale */\n      0x04\n        /* \"NewAisiki.sol\":10842:10860  _itsWhale[account] */\n      0x00\n        /* \"NewAisiki.sol\":10852:10859  account */\n      dup4\n        /* \"NewAisiki.sol\":10842:10860  _itsWhale[account] */\n      0xffffffffffffffffffffffffffffffffffffffff\n      and\n      0xffffffffffffffffffffffffffffffffffffffff\n      and\n      dup2\n      mstore\n      0x20\n      add\n      swap1\n      dup2\n      mstore\n      0x20\n      add\n      0x00\n      keccak256\n      0x00\n        /* \"NewAisiki.sol\":10842:10867  _itsWhale[account] = true */\n      0x0100\n      exp\n      dup2\n      sload\n      dup2\n      0xff\n      mul\n      not\n      and\n      swap1\n      dup4\n      iszero\n      iszero\n      mul\n      or\n      swap1\n      sstore\n      pop\n        /* \"NewAisiki.sol\":10692:10873  function whaleYes(address account) public onlyOwner () {\r... */\n      pop\n      jump\t// out\n        /* \"NewAisiki.sol\":11756:11890  function allowance(address owner, address spender) public view returns (uint256) {\r... */\n    tag_100:\n        /* \"NewAisiki.sol\":11828:11835  uint256 */\n      0x00\n        /* \"NewAisiki.sol\":11855:11866  _allowances */\n      0x02\n        /* \"NewAisiki.sol\":11855:11873  _allowances[owner] */\n      0x00\n        /* \"NewAisiki.sol\":11867:11872  owner */\n      dup5\n        /* \"NewAisiki.sol\":11855:11873  _allowances[owner] */\n      0xffffffffffffffffffffffffffffffffffffffff\n      and\n      0xffffffffffffffffffffffffffffffffffffffff\n      and\n      dup2\n      mstore\n      0x20\n      add\n      swap1\n      dup2\n      mstore\n      0x20\n      add\n      0x00\n      keccak256\n        /* \"NewAisiki.sol\":11855:11882  _allowances[owner][spender] */\n      0x00\n        /* \"NewAisiki.sol\":11874:11881  spender */\n      dup4\n        /* \"NewAisiki.sol\":11855:11882  _allowances[owner][spender] */\n      0xffffffffffffffffffffffffffffffffffffffff\n      and\n      0xffffffffffffffffffffffffffffffffffffffff\n      and\n      dup2\n      mstore\n      0x20\n      add\n      swap1\n      dup2\n      mstore\n      0x20\n      add\n      0x00\n      keccak256\n      sload\n        /* \"NewAisiki.sol\":11848:11882  return _allowances[owner][spender] */\n      swap1\n      pop\n        /* \"NewAisiki.sol\":11756:11890  function allowance(address owner, address spender) public view returns (uint256) {\r... */\n      swap3\n      swap2\n      pop\n      pop\n      jump\t// out\n        /* \"NewAisiki.sol\":9620:9666  mapping (address => bool) public _holderInList */\n    tag_103:\n      mstore(0x20, 0x03)\n      dup1\n      0x00\n      mstore\n      keccak256(0x00, 0x40)\n      0x00\n      swap2\n      pop\n      sload\n      swap1\n      0x0100\n      exp\n      swap1\n      div\n      0xff\n      and\n      dup2\n      jump\t// out\n        /* \"NewAisiki.sol\":7604:7786  function transferOwnership(address newOwner) public onlyOwner {\r... */\n    tag_106:\n        /* \"NewAisiki.sol\":7321:7333  _msgSender() */\n      tag_178\n        /* \"NewAisiki.sol\":7321:7331  _msgSender */\n      tag_140\n        /* \"NewAisiki.sol\":7321:7333  _msgSender() */\n      jump\t// in\n    tag_178:\n        /* \"NewAisiki.sol\":7311:7333  _owner == _msgSender() */\n      0xffffffffffffffffffffffffffffffffffffffff\n      and\n        /* \"NewAisiki.sol\":7311:7317  _owner */\n      0x00\n      dup1\n      swap1\n      sload\n      swap1\n      0x0100\n      exp\n      swap1\n      div\n      0xffffffffffffffffffffffffffffffffffffffff\n      and\n        /* \"NewAisiki.sol\":7311:7333  _owner == _msgSender() */\n      0xffffffffffffffffffffffffffffffffffffffff\n      and\n      eq\n        /* \"NewAisiki.sol\":7303:7370  require(_owner == _msgSender(), \"Ownable: caller is not the owner\") */\n      tag_179\n      jumpi\n      mload(0x40)\n      0x08c379a000000000000000000000000000000000000000000000000000000000\n      dup2\n      mstore\n      0x04\n      add\n      dup1\n      dup1\n      0x20\n      add\n      dup3\n      dup2\n      sub\n      dup3\n      mstore\n      0x20\n      dup2\n      mstore\n      0x20\n      add\n      dup1\n      0x4f776e61626c653a2063616c6c6572206973206e6f7420746865206f776e6572\n      dup2\n      mstore\n      pop\n      0x20\n      add\n      swap2\n      pop\n      pop\n      mload(0x40)\n      dup1\n      swap2\n      sub\n      swap1\n      revert\n    tag_179:\n        /* \"NewAisiki.sol\":7693:7703  msg.sender */\n      caller\n        /* \"NewAisiki.sol\":7683:7703  _owner == msg.sender */\n      0xffffffffffffffffffffffffffffffffffffffff\n      and\n        /* \"NewAisiki.sol\":7683:7689  _owner */\n      0x00\n      dup1\n      swap1\n      sload\n      swap1\n      0x0100\n      exp\n      swap1\n      div\n      0xffffffffffffffffffffffffffffffffffffffff\n      and\n        /* \"NewAisiki.sol\":7683:7703  _owner == msg.sender */\n      0xffffffffffffffffffffffffffffffffffffffff\n      and\n      eq\n        /* \"NewAisiki.sol\":7674:7745  require( _owner == msg.sender,\"security guaranteed administrator only\") */\n      tag_181\n      jumpi\n      mload(0x40)\n      0x08c379a000000000000000000000000000000000000000000000000000000000\n      dup2\n      mstore\n      0x04\n      add\n      dup1\n      dup1\n      0x20\n      add\n      dup3\n      dup2\n      sub\n      dup3\n      mstore\n      0x26\n      dup2\n      mstore\n      0x20\n      add\n      dup1\n      data_946ee13d067f754cd2d5e9b196461736c826af8ee5bd08e34da236cdee2ac7c4\n      0x26\n      swap2\n      codecopy\n      0x40\n      add\n      swap2\n      pop\n      pop\n      mload(0x40)\n      dup1\n      swap2\n      sub\n      swap1\n      revert\n    tag_181:\n        /* \"NewAisiki.sol\":7752:7780  _transferOwnership(newOwner) */\n      tag_182\n        /* \"NewAisiki.sol\":7771:7779  newOwner */\n      dup2\n        /* \"NewAisiki.sol\":7752:7770  _transferOwnership */\n      tag_183\n        /* \"NewAisiki.sol\":7752:7780  _transferOwnership(newOwner) */\n      jump\t// in\n    tag_182:\n        /* \"NewAisiki.sol\":7604:7786  function transferOwnership(address newOwner) public onlyOwner {\r... */\n      pop\n      jump\t// out\n        /* \"NewAisiki.sol\":9765:9801  address payable[] public _mapHolders */\n    tag_109:\n      0x05\n      dup2\n      dup2\n      sload\n      dup2\n      lt\n      tag_184\n      jumpi\n      invalid\n    tag_184:\n      swap1\n      0x00\n      mstore\n      keccak256(0x00, 0x20)\n      add\n      0x00\n      swap2\n      pop\n      sload\n      swap1\n      0x0100\n      exp\n      swap1\n      div\n      0xffffffffffffffffffffffffffffffffffffffff\n      and\n      dup2\n      jump\t// out\n        /* \"NewAisiki.sol\":16097:16403  function _burn(address account, uint256 value) internal {\r... */\n    tag_112:\n        /* \"NewAisiki.sol\":16191:16192  0 */\n      0x00\n        /* \"NewAisiki.sol\":16172:16193  account != address(0) */\n      0xffffffffffffffffffffffffffffffffffffffff\n      and\n        /* \"NewAisiki.sol\":16172:16179  account */\n      dup3\n        /* \"NewAisiki.sol\":16172:16193  account != address(0) */\n      0xffffffffffffffffffffffffffffffffffffffff\n      and\n      eq\n      iszero\n        /* \"NewAisiki.sol\":16164:16231  require(account != address(0), \"ERC20: burn from the zero address\") */\n      tag_187\n      jumpi\n      mload(0x40)\n      0x08c379a000000000000000000000000000000000000000000000000000000000\n      dup2\n      mstore\n      0x04\n      add\n      dup1\n      dup1\n      0x20\n      add\n      dup3\n      dup2\n      sub\n      dup3\n      mstore\n      0x21\n      dup2\n      mstore\n      0x20\n      add\n      dup1\n      data_b16788493b576042bb52c50ed56189e0b250db113c7bfb1c3897d25cf9632d7f\n      0x21\n      swap2\n      codecopy\n      0x40\n      add\n      swap2\n      pop\n      pop\n      mload(0x40)\n      dup1\n      swap2\n      sub\n      swap1\n      revert\n    tag_187:\n        /* \"NewAisiki.sol\":16259:16282  _totalSupply.sub(value) */\n      tag_188\n        /* \"NewAisiki.sol\":16276:16281  value */\n      dup2\n        /* \"NewAisiki.sol\":16259:16271  _totalSupply */\n      sload(0x06)\n        /* \"NewAisiki.sol\":16259:16275  _totalSupply.sub */\n      tag_126\n      swap1\n        /* \"NewAisiki.sol\":16259:16282  _totalSupply.sub(value) */\n      swap2\n      swap1\n      0xffffffff\n      and\n      jump\t// in\n    tag_188:\n        /* \"NewAisiki.sol\":16244:16256  _totalSupply */\n      0x06\n        /* \"NewAisiki.sol\":16244:16282  _totalSupply = _totalSupply.sub(value) */\n      dup2\n      swap1\n      sstore\n      pop\n        /* \"NewAisiki.sol\":16314:16343  _balances[account].sub(value) */\n      tag_189\n        /* \"NewAisiki.sol\":16337:16342  value */\n      dup2\n        /* \"NewAisiki.sol\":16314:16323  _balances */\n      0x01\n        /* \"NewAisiki.sol\":16314:16332  _balances[account] */\n      0x00\n        /* \"NewAisiki.sol\":16324:16331  account */\n      dup6\n        /* \"NewAisiki.sol\":16314:16332  _balances[account] */\n      0xffffffffffffffffffffffffffffffffffffffff\n      and\n      0xffffffffffffffffffffffffffffffffffffffff\n      and\n      dup2\n      mstore\n      0x20\n      add\n      swap1\n      dup2\n      mstore\n      0x20\n      add\n      0x00\n      keccak256\n      sload\n        /* \"NewAisiki.sol\":16314:16336  _balances[account].sub */\n      tag_126\n      swap1\n        /* \"NewAisiki.sol\":16314:16343  _balances[account].sub(value) */\n      swap2\n      swap1\n      0xffffffff\n      and\n      jump\t// in\n    tag_189:\n        /* \"NewAisiki.sol\":16293:16302  _balances */\n      0x01\n        /* \"NewAisiki.sol\":16293:16311  _balances[account] */\n      0x00\n        /* \"NewAisiki.sol\":16303:16310  account */\n      dup5\n        /* \"NewAisiki.sol\":16293:16311  _balances[account] */\n      0xffffffffffffffffffffffffffffffffffffffff\n      and\n      0xffffffffffffffffffffffffffffffffffffffff\n      and\n      dup2\n      mstore\n      0x20\n      add\n      swap1\n      dup2\n      mstore\n      0x20\n      add\n      0x00\n      keccak256\n        /* \"NewAisiki.sol\":16293:16343  _balances[account] = _balances[account].sub(value) */\n      dup2\n      swap1\n      sstore\n      pop\n        /* \"NewAisiki.sol\":16385:16386  0 */\n      0x00\n        /* \"NewAisiki.sol\":16359:16395  Transfer(account, address(0), value) */\n      0xffffffffffffffffffffffffffffffffffffffff\n      and\n        /* \"NewAisiki.sol\":16368:16375  account */\n      dup3\n        /* \"NewAisiki.sol\":16359:16395  Transfer(account, address(0), value) */\n      0xffffffffffffffffffffffffffffffffffffffff\n      and\n      0xddf252ad1be2c89b69c2b068fc378daa952ba7f163c4a11628f55a4df523b3ef\n        /* \"NewAisiki.sol\":16389:16394  value */\n      dup4\n        /* \"NewAisiki.sol\":16359:16395  Transfer(account, address(0), value) */\n      mload(0x40)\n      dup1\n      dup3\n      dup2\n      mstore\n      0x20\n      add\n      swap2\n      pop\n      pop\n      mload(0x40)\n      dup1\n      swap2\n      sub\n      swap1\n      log3\n        /* \"NewAisiki.sol\":16097:16403  function _burn(address account, uint256 value) internal {\r... */\n      pop\n      pop\n      jump\t// out\n        /* \"NewAisiki.sol\":16843:17178  function _approve(address owner, address spender, uint256 value) internal {\r... */\n    tag_119:\n        /* \"NewAisiki.sol\":16953:16954  0 */\n      0x00\n        /* \"NewAisiki.sol\":16936:16955  owner != address(0) */\n      0xffffffffffffffffffffffffffffffffffffffff\n      and\n        /* \"NewAisiki.sol\":16936:16941  owner */\n      dup4\n        /* \"NewAisiki.sol\":16936:16955  owner != address(0) */\n      0xffffffffffffffffffffffffffffffffffffffff\n      and\n      eq\n      iszero\n        /* \"NewAisiki.sol\":16928:16996  require(owner != address(0), \"ERC20: approve from the zero address\") */\n      tag_191\n      jumpi\n      mload(0x40)\n      0x08c379a000000000000000000000000000000000000000000000000000000000\n      dup2\n      mstore\n      0x04\n      add\n      dup1\n      dup1\n      0x20\n      add\n      dup3\n      dup2\n      sub\n      dup3\n      mstore\n      0x24\n      dup2\n      mstore\n      0x20\n      add\n      dup1\n      data_c953f4879035ed60e766b34720f656aab5c697b141d924c283124ecedb91c208\n      0x24\n      swap2\n      codecopy\n      0x40\n      add\n      swap2\n      pop\n      pop\n      mload(0x40)\n      dup1\n      swap2\n      sub\n      swap1\n      revert\n    tag_191:\n        /* \"NewAisiki.sol\":17034:17035  0 */\n      0x00\n        /* \"NewAisiki.sol\":17015:17036  spender != address(0) */\n      0xffffffffffffffffffffffffffffffffffffffff\n      and\n        /* \"NewAisiki.sol\":17015:17022  spender */\n      dup3\n        /* \"NewAisiki.sol\":17015:17036  spender != address(0) */\n      0xffffffffffffffffffffffffffffffffffffffff\n      and\n      eq\n      iszero\n        /* \"NewAisiki.sol\":17007:17075  require(spender != address(0), \"ERC20: approve to the zero address\") */\n      tag_192\n      jumpi\n      mload(0x40)\n      0x08c379a000000000000000000000000000000000000000000000000000000000\n      dup2\n      mstore\n      0x04\n      add\n      dup1\n      dup1\n      0x20\n      add\n      dup3\n      dup2\n      sub\n      dup3\n      mstore\n      0x22\n      dup2\n      mstore\n      0x20\n      add\n      dup1\n      data_24883cc5fe64ace9d0df1893501ecb93c77180f0ff69cca79affb3c316dc8029\n      0x22\n      swap2\n      codecopy\n      0x40\n      add\n      swap2\n      pop\n      pop\n      mload(0x40)\n      dup1\n      swap2\n      sub\n      swap1\n      revert\n    tag_192:\n        /* \"NewAisiki.sol\":17118:17123  value */\n      dup1\n        /* \"NewAisiki.sol\":17088:17099  _allowances */\n      0x02\n        /* \"NewAisiki.sol\":17088:17106  _allowances[owner] */\n      0x00\n        /* \"NewAisiki.sol\":17100:17105  owner */\n      dup6\n        /* \"NewAisiki.sol\":17088:17106  _allowances[owner] */\n      0xffffffffffffffffffffffffffffffffffffffff\n      and\n      0xffffffffffffffffffffffffffffffffffffffff\n      and\n      dup2\n      mstore\n      0x20\n      add\n      swap1\n      dup2\n      mstore\n      0x20\n      add\n      0x00\n      keccak256\n        /* \"NewAisiki.sol\":17088:17115  _allowances[owner][spender] */\n      0x00\n        /* \"NewAisiki.sol\":17107:17114  spender */\n      dup5\n        /* \"NewAisiki.sol\":17088:17115  _allowances[owner][spender] */\n      0xffffffffffffffffffffffffffffffffffffffff\n      and\n      0xffffffffffffffffffffffffffffffffffffffff\n      and\n      dup2\n      mstore\n      0x20\n      add\n      swap1\n      dup2\n      mstore\n      0x20\n      add\n      0x00\n      keccak256\n        /* \"NewAisiki.sol\":17088:17123  _allowances[owner][spender] = value */\n      dup2\n      swap1\n      sstore\n      pop\n        /* \"NewAisiki.sol\":17155:17162  spender */\n      dup2\n        /* \"NewAisiki.sol\":17139:17170  Approval(owner, spender, value) */\n      0xffffffffffffffffffffffffffffffffffffffff\n      and\n        /* \"NewAisiki.sol\":17148:17153  owner */\n      dup4\n        /* \"NewAisiki.sol\":17139:17170  Approval(owner, spender, value) */\n      0xffffffffffffffffffffffffffffffffffffffff\n      and\n      0x8c5be1e5ebec7d5bd14f71427d1e84f3dd0314c0f7b2291e5b200ac8c7c3b925\n        /* \"NewAisiki.sol\":17164:17169  value */\n      dup4\n        /* \"NewAisiki.sol\":17139:17170  Approval(owner, spender, value) */\n      mload(0x40)\n      dup1\n      dup3\n      dup2\n      mstore\n      0x20\n      add\n      swap2\n      pop\n      pop\n      mload(0x40)\n      dup1\n      swap2\n      sub\n      swap1\n      log3\n        /* \"NewAisiki.sol\":16843:17178  function _approve(address owner, address spender, uint256 value) internal {\r... */\n      pop\n      pop\n      pop\n      jump\t// out\n        /* \"NewAisiki.sol\":14736:15175  function _transfer(address sender, address recipient, uint256 amount) internal {\r... */\n    tag_123:\n        /* \"NewAisiki.sol\":14852:14853  0 */\n      0x00\n        /* \"NewAisiki.sol\":14834:14854  sender != address(0) */\n      0xffffffffffffffffffffffffffffffffffffffff\n      and\n        /* \"NewAisiki.sol\":14834:14840  sender */\n      dup4\n        /* \"NewAisiki.sol\":14834:14854  sender != address(0) */\n      0xffffffffffffffffffffffffffffffffffffffff\n      and\n      eq\n      iszero\n        /* \"NewAisiki.sol\":14826:14896  require(sender != address(0), \"ERC20: transfer from the zero address\") */\n      tag_194\n      jumpi\n      mload(0x40)\n      0x08c379a000000000000000000000000000000000000000000000000000000000\n      dup2\n      mstore\n      0x04\n      add\n      dup1\n      dup1\n      0x20\n      add\n      dup3\n      dup2\n      sub\n      dup3\n      mstore\n      0x25\n      dup2\n      mstore\n      0x20\n      add\n      dup1\n      data_baecc556b46f4ed0f2b4cb599d60785ac8563dd2dc0a5bf12edea1c39e5e1fea\n      0x25\n      swap2\n      codecopy\n      0x40\n      add\n      swap2\n      pop\n      pop\n      mload(0x40)\n      dup1\n      swap2\n      sub\n      swap1\n      revert\n    tag_194:\n        /* \"NewAisiki.sol\":14936:14937  0 */\n      0x00\n        /* \"NewAisiki.sol\":14915:14938  recipient != address(0) */\n      0xffffffffffffffffffffffffffffffffffffffff\n      and\n        /* \"NewAisiki.sol\":14915:14924  recipient */\n      dup3\n        /* \"NewAisiki.sol\":14915:14938  recipient != address(0) */\n      0xffffffffffffffffffffffffffffffffffffffff\n      and\n      eq\n      iszero\n        /* \"NewAisiki.sol\":14907:14978  require(recipient != address(0), \"ERC20: transfer to the zero address\") */\n      tag_195\n      jumpi\n      mload(0x40)\n      0x08c379a000000000000000000000000000000000000000000000000000000000\n      dup2\n      mstore\n      0x04\n      add\n      dup1\n      dup1\n      0x20\n      add\n      dup3\n      dup2\n      sub\n      dup3\n      mstore\n      0x23\n      dup2\n      mstore\n      0x20\n      add\n      dup1\n      data_0557e210f7a69a685100a7e4e3d0a7024c546085cee28910fd17d0b081d9516f\n      0x23\n      swap2\n      codecopy\n      0x40\n      add\n      swap2\n      pop\n      pop\n      mload(0x40)\n      dup1\n      swap2\n      sub\n      swap1\n      revert\n    tag_195:\n        /* \"NewAisiki.sol\":15021:15050  _balances[sender].sub(amount) */\n      tag_196\n        /* \"NewAisiki.sol\":15043:15049  amount */\n      dup2\n        /* \"NewAisiki.sol\":15021:15030  _balances */\n      0x01\n        /* \"NewAisiki.sol\":15021:15038  _balances[sender] */\n      0x00\n        /* \"NewAisiki.sol\":15031:15037  sender */\n      dup7\n        /* \"NewAisiki.sol\":15021:15038  _balances[sender] */\n      0xffffffffffffffffffffffffffffffffffffffff\n      and\n      0xffffffffffffffffffffffffffffffffffffffff\n      and\n      dup2\n      mstore\n      0x20\n      add\n      swap1\n      dup2\n      mstore\n      0x20\n      add\n      0x00\n      keccak256\n      sload\n        /* \"NewAisiki.sol\":15021:15042  _balances[sender].sub */\n      tag_126\n      swap1\n        /* \"NewAisiki.sol\":15021:15050  _balances[sender].sub(amount) */\n      swap2\n      swap1\n      0xffffffff\n      and\n      jump\t// in\n    tag_196:\n        /* \"NewAisiki.sol\":15001:15010  _balances */\n      0x01\n        /* \"NewAisiki.sol\":15001:15018  _balances[sender] */\n      0x00\n        /* \"NewAisiki.sol\":15011:15017  sender */\n      dup6\n        /* \"NewAisiki.sol\":15001:15018  _balances[sender] */\n      0xffffffffffffffffffffffffffffffffffffffff\n      and\n      0xffffffffffffffffffffffffffffffffffffffff\n      and\n      dup2\n      mstore\n      0x20\n      add\n      swap1\n      dup2\n      mstore\n      0x20\n      add\n      0x00\n      keccak256\n        /* \"NewAisiki.sol\":15001:15050  _balances[sender] = _balances[sender].sub(amount) */\n      dup2\n      swap1\n      sstore\n      pop\n        /* \"NewAisiki.sol\":15084:15116  _balances[recipient].add(amount) */\n      tag_197\n        /* \"NewAisiki.sol\":15109:15115  amount */\n      dup2\n        /* \"NewAisiki.sol\":15084:15093  _balances */\n      0x01\n        /* \"NewAisiki.sol\":15084:15104  _balances[recipient] */\n      0x00\n        /* \"NewAisiki.sol\":15094:15103  recipient */\n      dup6\n        /* \"NewAisiki.sol\":15084:15104  _balances[recipient] */\n      0xffffffffffffffffffffffffffffffffffffffff\n      and\n      0xffffffffffffffffffffffffffffffffffffffff\n      and\n      dup2\n      mstore\n      0x20\n      add\n      swap1\n      dup2\n      mstore\n      0x20\n      add\n      0x00\n      keccak256\n      sload\n        /* \"NewAisiki.sol\":15084:15108  _balances[recipient].add */\n      tag_136\n      swap1\n        /* \"NewAisiki.sol\":15084:15116  _balances[recipient].add(amount) */\n      swap2\n      swap1\n      0xffffffff\n      and\n      jump\t// in\n    tag_197:\n        /* \"NewAisiki.sol\":15061:15070  _balances */\n      0x01\n        /* \"NewAisiki.sol\":15061:15081  _balances[recipient] */\n      0x00\n        /* \"NewAisiki.sol\":15071:15080  recipient */\n      dup5\n        /* \"NewAisiki.sol\":15061:15081  _balances[recipient] */\n      0xffffffffffffffffffffffffffffffffffffffff\n      and\n      0xffffffffffffffffffffffffffffffffffffffff\n      and\n      dup2\n      mstore\n      0x20\n      add\n      swap1\n      dup2\n      mstore\n      0x20\n      add\n      0x00\n      keccak256\n        /* \"NewAisiki.sol\":15061:15116  _balances[recipient] = _balances[recipient].add(amount) */\n      dup2\n      swap1\n      sstore\n      pop\n        /* \"NewAisiki.sol\":15149:15158  recipient */\n      dup2\n        /* \"NewAisiki.sol\":15132:15167  Transfer(sender, recipient, amount) */\n      0xffffffffffffffffffffffffffffffffffffffff\n      and\n        /* \"NewAisiki.sol\":15141:15147  sender */\n      dup4\n        /* \"NewAisiki.sol\":15132:15167  Transfer(sender, recipient, amount) */\n      0xffffffffffffffffffffffffffffffffffffffff\n      and\n      0xddf252ad1be2c89b69c2b068fc378daa952ba7f163c4a11628f55a4df523b3ef\n        /* \"NewAisiki.sol\":15160:15166  amount */\n      dup4\n        /* \"NewAisiki.sol\":15132:15167  Transfer(sender, recipient, amount) */\n      mload(0x40)\n      dup1\n      dup3\n      dup2\n      mstore\n      0x20\n      add\n      swap2\n      pop\n      pop\n      mload(0x40)\n      dup1\n      swap2\n      sub\n      swap1\n      log3\n        /* \"NewAisiki.sol\":14736:15175  function _transfer(address sender, address recipient, uint256 amount) internal {\r... */\n      pop\n      pop\n      pop\n      jump\t// out\n        /* \"NewAisiki.sol\":4568:4752  function sub(uint256 a, uint256 b) internal pure returns (uint256) {\r... */\n    tag_126:\n        /* \"NewAisiki.sol\":4626:4633  uint256 */\n      0x00\n        /* \"NewAisiki.sol\":4659:4660  a */\n      dup3\n        /* \"NewAisiki.sol\":4654:4655  b */\n      dup3\n        /* \"NewAisiki.sol\":4654:4660  b <= a */\n      gt\n      iszero\n        /* \"NewAisiki.sol\":4646:4695  require(b <= a, \"SafeMath: subtraction overflow\") */\n      tag_199\n      jumpi\n      mload(0x40)\n      0x08c379a000000000000000000000000000000000000000000000000000000000\n      dup2\n      mstore\n      0x04\n      add\n      dup1\n      dup1\n      0x20\n      add\n      dup3\n      dup2\n      sub\n      dup3\n      mstore\n      0x1e\n      dup2\n      mstore\n      0x20\n      add\n      dup1\n      0x536166654d6174683a207375627472616374696f6e206f766572666c6f770000\n      dup2\n      mstore\n      pop\n      0x20\n      add\n      swap2\n      pop\n      pop\n      mload(0x40)\n      dup1\n      swap2\n      sub\n      swap1\n      revert\n    tag_199:\n        /* \"NewAisiki.sol\":4706:4715  uint256 c */\n      0x00\n        /* \"NewAisiki.sol\":4722:4723  b */\n      dup3\n        /* \"NewAisiki.sol\":4718:4719  a */\n      dup5\n        /* \"NewAisiki.sol\":4718:4723  a - b */\n      sub\n        /* \"NewAisiki.sol\":4706:4723  uint256 c = a - b */\n      swap1\n      pop\n        /* \"NewAisiki.sol\":4743:4744  c */\n      dup1\n        /* \"NewAisiki.sol\":4736:4744  return c */\n      swap2\n      pop\n      pop\n        /* \"NewAisiki.sol\":4568:4752  function sub(uint256 a, uint256 b) internal pure returns (uint256) {\r... */\n      swap3\n      swap2\n      pop\n      pop\n      jump\t// out\n        /* \"NewAisiki.sol\":20904:21167  function _partialBurn(uint256 amount) internal returns (uint256) {\r... */\n    tag_130:\n        /* \"NewAisiki.sol\":20960:20967  uint256 */\n      0x00\n        /* \"NewAisiki.sol\":20980:20998  uint256 burnAmount */\n      dup1\n        /* \"NewAisiki.sol\":21001:21029  _calculateBurnAmount(amount) */\n      tag_201\n        /* \"NewAisiki.sol\":21022:21028  amount */\n      dup4\n        /* \"NewAisiki.sol\":21001:21021  _calculateBurnAmount */\n      tag_202\n        /* \"NewAisiki.sol\":21001:21029  _calculateBurnAmount(amount) */\n      jump\t// in\n    tag_201:\n        /* \"NewAisiki.sol\":20980:21029  uint256 burnAmount = _calculateBurnAmount(amount) */\n      swap1\n      pop\n        /* \"NewAisiki.sol\":21059:21060  0 */\n      0x00\n        /* \"NewAisiki.sol\":21046:21056  burnAmount */\n      dup2\n        /* \"NewAisiki.sol\":21046:21060  burnAmount > 0 */\n      gt\n        /* \"NewAisiki.sol\":21042:21118  if (burnAmount > 0) {\r... */\n      iszero\n      tag_203\n      jumpi\n        /* \"NewAisiki.sol\":21077:21106  _burn(msg.sender, burnAmount) */\n      tag_204\n        /* \"NewAisiki.sol\":21083:21093  msg.sender */\n      caller\n        /* \"NewAisiki.sol\":21095:21105  burnAmount */\n      dup3\n        /* \"NewAisiki.sol\":21077:21082  _burn */\n      tag_112\n        /* \"NewAisiki.sol\":21077:21106  _burn(msg.sender, burnAmount) */\n      jump\t// in\n    tag_204:\n        /* \"NewAisiki.sol\":21042:21118  if (burnAmount > 0) {\r... */\n    tag_203:\n        /* \"NewAisiki.sol\":21137:21159  amount.sub(burnAmount) */\n      tag_205\n        /* \"NewAisiki.sol\":21148:21158  burnAmount */\n      dup2\n        /* \"NewAisiki.sol\":21137:21143  amount */\n      dup5\n        /* \"NewAisiki.sol\":21137:21147  amount.sub */\n      tag_126\n      swap1\n        /* \"NewAisiki.sol\":21137:21159  amount.sub(burnAmount) */\n      swap2\n      swap1\n      0xffffffff\n      and\n      jump\t// in\n    tag_205:\n        /* \"NewAisiki.sol\":21130:21159  return amount.sub(burnAmount) */\n      swap2\n      pop\n      pop\n        /* \"NewAisiki.sol\":20904:21167  function _partialBurn(uint256 amount) internal returns (uint256) {\r... */\n      swap2\n      swap1\n      pop\n      jump\t// out\n        /* \"NewAisiki.sol\":4112:4293  function add(uint256 a, uint256 b) internal pure returns (uint256) {\r... */\n    tag_136:\n        /* \"NewAisiki.sol\":4170:4177  uint256 */\n      0x00\n        /* \"NewAisiki.sol\":4190:4199  uint256 c */\n      dup1\n        /* \"NewAisiki.sol\":4206:4207  b */\n      dup3\n        /* \"NewAisiki.sol\":4202:4203  a */\n      dup5\n        /* \"NewAisiki.sol\":4202:4207  a + b */\n      add\n        /* \"NewAisiki.sol\":4190:4207  uint256 c = a + b */\n      swap1\n      pop\n        /* \"NewAisiki.sol\":4231:4232  a */\n      dup4\n        /* \"NewAisiki.sol\":4226:4227  c */\n      dup2\n        /* \"NewAisiki.sol\":4226:4232  c >= a */\n      lt\n      iszero\n        /* \"NewAisiki.sol\":4218:4264  require(c >= a, \"SafeMath: addition overflow\") */\n      tag_207\n      jumpi\n      mload(0x40)\n      0x08c379a000000000000000000000000000000000000000000000000000000000\n      dup2\n      mstore\n      0x04\n      add\n      dup1\n      dup1\n      0x20\n      add\n      dup3\n      dup2\n      sub\n      dup3\n      mstore\n      0x1b\n      dup2\n      mstore\n      0x20\n      add\n      dup1\n      0x536166654d6174683a206164646974696f6e206f766572666c6f770000000000\n      dup2\n      mstore\n      pop\n      0x20\n      add\n      swap2\n      pop\n      pop\n      mload(0x40)\n      dup1\n      swap2\n      sub\n      swap1\n      revert\n    tag_207:\n        /* \"NewAisiki.sol\":4284:4285  c */\n      dup1\n        /* \"NewAisiki.sol\":4277:4285  return c */\n      swap2\n      pop\n      pop\n        /* \"NewAisiki.sol\":4112:4293  function add(uint256 a, uint256 b) internal pure returns (uint256) {\r... */\n      swap3\n      swap2\n      pop\n      pop\n      jump\t// out\n        /* \"NewAisiki.sol\":2869:2961  function _msgSender() internal view returns (address payable) {\r... */\n    tag_140:\n        /* \"NewAisiki.sol\":2914:2929  address payable */\n      0x00\n        /* \"NewAisiki.sol\":2945:2955  msg.sender */\n      caller\n        /* \"NewAisiki.sol\":2938:2955  return msg.sender */\n      swap1\n      pop\n        /* \"NewAisiki.sol\":2869:2961  function _msgSender() internal view returns (address payable) {\r... */\n      swap1\n      jump\t// out\n        /* \"NewAisiki.sol\":11537:11693  function transfer(address recipient, uint256 amount) public returns (bool) {\r... */\n    tag_165:\n        /* \"NewAisiki.sol\":11606:11610  bool */\n      0x00\n        /* \"NewAisiki.sol\":11623:11663  _transfer(msg.sender, recipient, amount) */\n      tag_210\n        /* \"NewAisiki.sol\":11633:11643  msg.sender */\n      caller\n        /* \"NewAisiki.sol\":11645:11654  recipient */\n      dup5\n        /* \"NewAisiki.sol\":11656:11662  amount */\n      dup5\n        /* \"NewAisiki.sol\":11623:11632  _transfer */\n      tag_123\n        /* \"NewAisiki.sol\":11623:11663  _transfer(msg.sender, recipient, amount) */\n      jump\t// in\n    tag_210:\n        /* \"NewAisiki.sol\":11681:11685  true */\n      0x01\n        /* \"NewAisiki.sol\":11674:11685  return true */\n      swap1\n      pop\n        /* \"NewAisiki.sol\":11537:11693  function transfer(address recipient, uint256 amount) public returns (bool) {\r... */\n      swap3\n      swap2\n      pop\n      pop\n      jump\t// out\n        /* \"NewAisiki.sol\":7792:8085  function _transferOwnership(address newOwner) internal {\r... */\n    tag_183:\n        /* \"NewAisiki.sol\":7873:7883  msg.sender */\n      caller\n        /* \"NewAisiki.sol\":7863:7883  _owner == msg.sender */\n      0xffffffffffffffffffffffffffffffffffffffff\n      and\n        /* \"NewAisiki.sol\":7863:7869  _owner */\n      0x00\n      dup1\n      swap1\n      sload\n      swap1\n      0x0100\n      exp\n      swap1\n      div\n      0xffffffffffffffffffffffffffffffffffffffff\n      and\n        /* \"NewAisiki.sol\":7863:7883  _owner == msg.sender */\n      0xffffffffffffffffffffffffffffffffffffffff\n      and\n      eq\n        /* \"NewAisiki.sol\":7854:7925  require( _owner == msg.sender,\"security guaranteed administrator only\") */\n      tag_212\n      jumpi\n      mload(0x40)\n      0x08c379a000000000000000000000000000000000000000000000000000000000\n      dup2\n      mstore\n      0x04\n      add\n      dup1\n      dup1\n      0x20\n      add\n      dup3\n      dup2\n      sub\n      dup3\n      mstore\n      0x26\n      dup2\n      mstore\n      0x20\n      add\n      dup1\n      data_946ee13d067f754cd2d5e9b196461736c826af8ee5bd08e34da236cdee2ac7c4\n      0x26\n      swap2\n      codecopy\n      0x40\n      add\n      swap2\n      pop\n      pop\n      mload(0x40)\n      dup1\n      swap2\n      sub\n      swap1\n      revert\n    tag_212:\n        /* \"NewAisiki.sol\":7960:7961  0 */\n      0x00\n        /* \"NewAisiki.sol\":7940:7962  newOwner != address(0) */\n      0xffffffffffffffffffffffffffffffffffffffff\n      and\n        /* \"NewAisiki.sol\":7940:7948  newOwner */\n      dup2\n        /* \"NewAisiki.sol\":7940:7962  newOwner != address(0) */\n      0xffffffffffffffffffffffffffffffffffffffff\n      and\n      eq\n      iszero\n        /* \"NewAisiki.sol\":7932:8005  require(newOwner != address(0), \"Ownable: new owner is the zero address\") */\n      tag_213\n      jumpi\n      mload(0x40)\n      0x08c379a000000000000000000000000000000000000000000000000000000000\n      dup2\n      mstore\n      0x04\n      add\n      dup1\n      dup1\n      0x20\n      add\n      dup3\n      dup2\n      sub\n      dup3\n      mstore\n      0x26\n      dup2\n      mstore\n      0x20\n      add\n      dup1\n      data_245f15ff17f551913a7a18385165551503906a406f905ac1c2437281a7cd0cfe\n      0x26\n      swap2\n      codecopy\n      0x40\n      add\n      swap2\n      pop\n      pop\n      mload(0x40)\n      dup1\n      swap2\n      sub\n      swap1\n      revert\n    tag_213:\n        /* \"NewAisiki.sol\":8046:8054  newOwner */\n      dup1\n        /* \"NewAisiki.sol\":8017:8055  OwnershipTransferred(_owner, newOwner) */\n      0xffffffffffffffffffffffffffffffffffffffff\n      and\n        /* \"NewAisiki.sol\":8038:8044  _owner */\n      0x00\n      dup1\n      swap1\n      sload\n      swap1\n      0x0100\n      exp\n      swap1\n      div\n      0xffffffffffffffffffffffffffffffffffffffff\n      and\n        /* \"NewAisiki.sol\":8017:8055  OwnershipTransferred(_owner, newOwner) */\n      0xffffffffffffffffffffffffffffffffffffffff\n      and\n      0x8be0079c531659141344cd1fd0a4f28419497f9722a3daafe3b4186f6b6457e0\n      mload(0x40)\n      mload(0x40)\n      dup1\n      swap2\n      sub\n      swap1\n      log3\n        /* \"NewAisiki.sol\":8071:8079  newOwner */\n      dup1\n        /* \"NewAisiki.sol\":8062:8068  _owner */\n      0x00\n      dup1\n        /* \"NewAisiki.sol\":8062:8079  _owner = newOwner */\n      0x0100\n      exp\n      dup2\n      sload\n      dup2\n      0xffffffffffffffffffffffffffffffffffffffff\n      mul\n      not\n      and\n      swap1\n      dup4\n      0xffffffffffffffffffffffffffffffffffffffff\n      and\n      mul\n      or\n      swap1\n      sstore\n      pop\n        /* \"NewAisiki.sol\":7792:8085  function _transferOwnership(address newOwner) internal {\r... */\n      pop\n      jump\t// out\n        /* \"NewAisiki.sol\":21175:21844  function _calculateBurnAmount(uint256 amount) internal view returns (uint256) {\r... */\n    tag_202:\n        /* \"NewAisiki.sol\":21244:21251  uint256 */\n      0x00\n        /* \"NewAisiki.sol\":21264:21282  uint256 burnAmount */\n      dup1\n        /* \"NewAisiki.sol\":21285:21286  0 */\n      0x00\n        /* \"NewAisiki.sol\":21264:21286  uint256 burnAmount = 0 */\n      swap1\n      pop\n        /* \"NewAisiki.sol\":21356:21370  _minimumSupply */\n      sload(0x0a)\n        /* \"NewAisiki.sol\":21340:21353  totalSupply() */\n      tag_215\n        /* \"NewAisiki.sol\":21340:21351  totalSupply */\n      tag_47\n        /* \"NewAisiki.sol\":21340:21353  totalSupply() */\n      jump\t// in\n    tag_215:\n        /* \"NewAisiki.sol\":21340:21370  totalSupply() > _minimumSupply */\n      gt\n        /* \"NewAisiki.sol\":21336:21807  if (totalSupply() > _minimumSupply) {\r... */\n      iszero\n      tag_216\n      jumpi\n        /* \"NewAisiki.sol\":21419:21421  10 */\n      0x0a\n        /* \"NewAisiki.sol\":21400:21415  amount.div(100) */\n      tag_217\n        /* \"NewAisiki.sol\":21411:21414  100 */\n      0x64\n        /* \"NewAisiki.sol\":21400:21406  amount */\n      dup6\n        /* \"NewAisiki.sol\":21400:21410  amount.div */\n      tag_218\n      swap1\n        /* \"NewAisiki.sol\":21400:21415  amount.div(100) */\n      swap2\n      swap1\n      0xffffffff\n      and\n      jump\t// in\n    tag_217:\n        /* \"NewAisiki.sol\":21400:21422  amount.div(100) * (10) */\n      mul\n        /* \"NewAisiki.sol\":21387:21422  burnAmount = amount.div(100) * (10) */\n      swap1\n      pop\n        /* \"NewAisiki.sol\":21437:21458  uint256 availableBurn */\n      0x00\n        /* \"NewAisiki.sol\":21461:21494  totalSupply().sub(_minimumSupply) */\n      tag_219\n        /* \"NewAisiki.sol\":21479:21493  _minimumSupply */\n      sload(0x0a)\n        /* \"NewAisiki.sol\":21461:21474  totalSupply() */\n      tag_220\n        /* \"NewAisiki.sol\":21461:21472  totalSupply */\n      tag_47\n        /* \"NewAisiki.sol\":21461:21474  totalSupply() */\n      jump\t// in\n    tag_220:\n        /* \"NewAisiki.sol\":21461:21478  totalSupply().sub */\n      tag_126\n      swap1\n        /* \"NewAisiki.sol\":21461:21494  totalSupply().sub(_minimumSupply) */\n      swap2\n      swap1\n      0xffffffff\n      and\n      jump\t// in\n    tag_219:\n        /* \"NewAisiki.sol\":21437:21494  uint256 availableBurn = totalSupply().sub(_minimumSupply) */\n      swap1\n      pop\n        /* \"NewAisiki.sol\":21526:21539  availableBurn */\n      dup1\n        /* \"NewAisiki.sol\":21513:21523  burnAmount */\n      dup3\n        /* \"NewAisiki.sol\":21513:21539  burnAmount > availableBurn */\n      gt\n        /* \"NewAisiki.sol\":21509:21602  if (burnAmount > availableBurn) {\r... */\n      iszero\n      tag_221\n      jumpi\n        /* \"NewAisiki.sol\":21573:21586  availableBurn */\n      dup1\n        /* \"NewAisiki.sol\":21560:21586  burnAmount = availableBurn */\n      swap2\n      pop\n        /* \"NewAisiki.sol\":21509:21602  if (burnAmount > availableBurn) {\r... */\n    tag_221:\n        /* \"NewAisiki.sol\":21689:21694  false */\n      0x00\n        /* \"NewAisiki.sol\":21664:21694  _itsWhale[msg.sender] == false */\n      iszero\n      iszero\n        /* \"NewAisiki.sol\":21664:21673  _itsWhale */\n      0x04\n        /* \"NewAisiki.sol\":21664:21685  _itsWhale[msg.sender] */\n      0x00\n        /* \"NewAisiki.sol\":21674:21684  msg.sender */\n      caller\n        /* \"NewAisiki.sol\":21664:21685  _itsWhale[msg.sender] */\n      0xffffffffffffffffffffffffffffffffffffffff\n      and\n      0xffffffffffffffffffffffffffffffffffffffff\n      and\n      dup2\n      mstore\n      0x20\n      add\n      swap1\n      dup2\n      mstore\n      0x20\n      add\n      0x00\n      keccak256\n      0x00\n      swap1\n      sload\n      swap1\n      0x0100\n      exp\n      swap1\n      div\n      0xff\n      and\n        /* \"NewAisiki.sol\":21664:21694  _itsWhale[msg.sender] == false */\n      iszero\n      iszero\n      eq\n        /* \"NewAisiki.sol\":21660:21796  if (_itsWhale[msg.sender] == false) {\r... */\n      iszero\n      tag_222\n      jumpi\n        /* \"NewAisiki.sol\":21733:21757  totalSupply().div(10000) */\n      tag_223\n        /* \"NewAisiki.sol\":21751:21756  10000 */\n      0x2710\n        /* \"NewAisiki.sol\":21733:21746  totalSupply() */\n      tag_224\n        /* \"NewAisiki.sol\":21733:21744  totalSupply */\n      tag_47\n        /* \"NewAisiki.sol\":21733:21746  totalSupply() */\n      jump\t// in\n    tag_224:\n        /* \"NewAisiki.sol\":21733:21750  totalSupply().div */\n      tag_218\n      swap1\n        /* \"NewAisiki.sol\":21733:21757  totalSupply().div(10000) */\n      swap2\n      swap1\n      0xffffffff\n      and\n      jump\t// in\n    tag_223:\n        /* \"NewAisiki.sol\":21723:21729  amount */\n      dup5\n        /* \"NewAisiki.sol\":21723:21757  amount <= totalSupply().div(10000) */\n      gt\n      iszero\n        /* \"NewAisiki.sol\":21715:21794  require(amount <= totalSupply().div(10000), \"Maximum transfer 0,01 New Aisiki\") */\n      tag_225\n      jumpi\n      mload(0x40)\n      0x08c379a000000000000000000000000000000000000000000000000000000000\n      dup2\n      mstore\n      0x04\n      add\n      dup1\n      dup1\n      0x20\n      add\n      dup3\n      dup2\n      sub\n      dup3\n      mstore\n      0x20\n      dup2\n      mstore\n      0x20\n      add\n      dup1\n      0x4d6178696d756d207472616e7366657220302c3031204e657720416973696b69\n      dup2\n      mstore\n      pop\n      0x20\n      add\n      swap2\n      pop\n      pop\n      mload(0x40)\n      dup1\n      swap2\n      sub\n      swap1\n      revert\n    tag_225:\n        /* \"NewAisiki.sol\":21660:21796  if (_itsWhale[msg.sender] == false) {\r... */\n    tag_222:\n        /* \"NewAisiki.sol\":21336:21807  if (totalSupply() > _minimumSupply) {\r... */\n      pop\n    tag_216:\n        /* \"NewAisiki.sol\":21826:21836  burnAmount */\n      dup1\n        /* \"NewAisiki.sol\":21819:21836  return burnAmount */\n      swap2\n      pop\n      pop\n        /* \"NewAisiki.sol\":21175:21844  function _calculateBurnAmount(uint256 amount) internal view returns (uint256) {\r... */\n      swap2\n      swap1\n      pop\n      jump\t// out\n        /* \"NewAisiki.sol\":5941:6274  function div(uint256 a, uint256 b) internal pure returns (uint256) {\r... */\n    tag_218:\n        /* \"NewAisiki.sol\":5999:6006  uint256 */\n      0x00\n        /* \"NewAisiki.sol\":6098:6099  0 */\n      dup1\n        /* \"NewAisiki.sol\":6094:6095  b */\n      dup3\n        /* \"NewAisiki.sol\":6094:6099  b > 0 */\n      gt\n        /* \"NewAisiki.sol\":6086:6130  require(b > 0, \"SafeMath: division by zero\") */\n      tag_227\n      jumpi\n      mload(0x40)\n      0x08c379a000000000000000000000000000000000000000000000000000000000\n      dup2\n      mstore\n      0x04\n      add\n      dup1\n      dup1\n      0x20\n      add\n      dup3\n      dup2\n      sub\n      dup3\n      mstore\n      0x1a\n      dup2\n      mstore\n      0x20\n      add\n      dup1\n      0x536166654d6174683a206469766973696f6e206279207a65726f000000000000\n      dup2\n      mstore\n      pop\n      0x20\n      add\n      swap2\n      pop\n      pop\n      mload(0x40)\n      dup1\n      swap2\n      sub\n      swap1\n      revert\n    tag_227:\n        /* \"NewAisiki.sol\":6141:6150  uint256 c */\n      0x00\n        /* \"NewAisiki.sol\":6157:6158  b */\n      dup3\n        /* \"NewAisiki.sol\":6153:6154  a */\n      dup5\n        /* \"NewAisiki.sol\":6153:6158  a / b */\n      dup2\n      tag_228\n      jumpi\n      invalid\n    tag_228:\n      div\n        /* \"NewAisiki.sol\":6141:6158  uint256 c = a / b */\n      swap1\n      pop\n        /* \"NewAisiki.sol\":6265:6266  c */\n      dup1\n        /* \"NewAisiki.sol\":6258:6266  return c */\n      swap2\n      pop\n      pop\n        /* \"NewAisiki.sol\":5941:6274  function div(uint256 a, uint256 b) internal pure returns (uint256) {\r... */\n      swap3\n      swap2\n      pop\n      pop\n      jump\t// out\n    stop\n    data_0557e210f7a69a685100a7e4e3d0a7024c546085cee28910fd17d0b081d9516f 45524332303a207472616e7366657220746f20746865207a65726f2061646472657373\n    data_245f15ff17f551913a7a18385165551503906a406f905ac1c2437281a7cd0cfe 4f776e61626c653a206e6577206f776e657220697320746865207a65726f2061646472657373\n    data_24883cc5fe64ace9d0df1893501ecb93c77180f0ff69cca79affb3c316dc8029 45524332303a20617070726f766520746f20746865207a65726f2061646472657373\n    data_946ee13d067f754cd2d5e9b196461736c826af8ee5bd08e34da236cdee2ac7c4 73656375726974792067756172616e746565642061646d696e6973747261746f72206f6e6c79\n    data_b16788493b576042bb52c50ed56189e0b250db113c7bfb1c3897d25cf9632d7f 45524332303a206275726e2066726f6d20746865207a65726f2061646472657373\n    data_baecc556b46f4ed0f2b4cb599d60785ac8563dd2dc0a5bf12edea1c39e5e1fea 45524332303a207472616e736665722066726f6d20746865207a65726f2061646472657373\n    data_c953f4879035ed60e766b34720f656aab5c697b141d924c283124ecedb91c208 45524332303a20617070726f76652066726f6d20746865207a65726f2061646472657373\n\n    auxdata: 0xa265627a7a723158200b2bdb72d00e749c82a5cdbc18ce14780bad960c29b64b9782fa8c39a5b70a5d64736f6c63430005110032\n}\n",
				"bytecode": {
					"linkReferences": {},
					"object": "60806040526af8277896582678ac000000600a553480156200002057600080fd5b506040518060400160405280600a81526020017f4e657720416973696b69000000000000000000000000000000000000000000008152506040518060400160405280600381526020017f4e414b000000000000000000000000000000000000000000000000000000000081525060126000620000a16200048c60201b60201c565b9050806000806101000a81548173ffffffffffffffffffffffffffffffffffffffff021916908373ffffffffffffffffffffffffffffffffffffffff1602179055508073ffffffffffffffffffffffffffffffffffffffff16600073ffffffffffffffffffffffffffffffffffffffff167f8be0079c531659141344cd1fd0a4f28419497f9722a3daafe3b4186f6b6457e060405160405180910390a3506001600460003373ffffffffffffffffffffffffffffffffffffffff1673ffffffffffffffffffffffffffffffffffffffff16815260200190815260200160002060006101000a81548160ff0219169083151502179055503373ffffffffffffffffffffffffffffffffffffffff16600073ffffffffffffffffffffffffffffffffffffffff167fddf252ad1be2c89b69c2b068fc378daa952ba7f163c4a11628f55a4df523b3ef6006546040518082815260200191505060405180910390a382600790805190602001906200021792919062000700565b5081600890805190602001906200023092919062000700565b5080600960006101000a81548160ff021916908360ff1602179055505050506200027d33620002646200049460201b60201c565b60ff16600a0a6413ca65120002620004ab60201b60201c565b620002bf7324b37aa84f317f7403d9b31e5772fc85d9aae6eb620002a66200049460201b60201c565b60ff16600a0a64010c388d0002620004ab60201b60201c565b62000300737e581eef3b07ea5dc3073cb01af8b373ce647258620002e86200049460201b60201c565b60ff16600a0a63b2d05e0002620004ab60201b60201c565b620003417388d0354ac0e470e6e1b90c2c480cb815115ea98b620003296200049460201b60201c565b60ff16600a0a63b2d05e0002620004ab60201b60201c565b6200038273640458301402bc1661c51c8e3c314fcfdd9ee31d6200036a6200049460201b60201c565b60ff16600a0a637735940002620004ab60201b60201c565b620003c373d6b4ab59294d42ab546f642594be0b128ee66dec620003ab6200049460201b60201c565b60ff16600a0a633b9aca0002620004ab60201b60201c565b62000404736e62d6cbed3ac34da355ccb18ba92f54c7bd5e9e620003ec6200049460201b60201c565b60ff16600a0a631dcd650002620004ab60201b60201c565b6200044573ed045e0bd6a3efd38b068de6f81a5d440d05fe666200042d6200049460201b60201c565b60ff16600a0a631dcd650002620004ab60201b60201c565b6200048673d988190457f1d776d71aa388428610ac0da653d76200046e6200049460201b60201c565b60ff16600a0a631dcd650002620004ab60201b60201c565b620007af565b600033905090565b6000600960009054906101000a900460ff16905090565b600073ffffffffffffffffffffffffffffffffffffffff168273ffffffffffffffffffffffffffffffffffffffff1614156200054f576040517f08c379a000000000000000000000000000000000000000000000000000000000815260040180806020018281038252601f8152602001807f45524332303a206d696e7420746f20746865207a65726f20616464726573730081525060200191505060405180910390fd5b6200056b816006546200067760201b62001fa11790919060201c565b600681905550620005ca81600160008573ffffffffffffffffffffffffffffffffffffffff1673ffffffffffffffffffffffffffffffffffffffff168152602001908152602001600020546200067760201b62001fa11790919060201c565b600160008473ffffffffffffffffffffffffffffffffffffffff1673ffffffffffffffffffffffffffffffffffffffff168152602001908152602001600020819055508173ffffffffffffffffffffffffffffffffffffffff16600073ffffffffffffffffffffffffffffffffffffffff167fddf252ad1be2c89b69c2b068fc378daa952ba7f163c4a11628f55a4df523b3ef836040518082815260200191505060405180910390a35050565b600080828401905083811015620006f6576040517f08c379a000000000000000000000000000000000000000000000000000000000815260040180806020018281038252601b8152602001807f536166654d6174683a206164646974696f6e206f766572666c6f77000000000081525060200191505060405180910390fd5b8091505092915050565b828054600181600116156101000203166002900490600052602060002090601f016020900481019282601f106200074357805160ff191683800117855562000774565b8280016001018555821562000774579182015b828111156200077357825182559160200191906001019062000756565b5b50905062000783919062000787565b5090565b620007ac91905b80821115620007a85760008160009055506001016200078e565b5090565b90565b61254380620007bf6000396000f3fe608060405234801561001057600080fd5b506004361061018e5760003560e01c80638da5cb5b116100de578063ac7f473611610097578063dd62ed3e11610071578063dd62ed3e1461083b578063f2e483cf146108b3578063f2fde38b1461090f578063ff105f1d146109535761018e565b8063ac7f473614610769578063b2bdfa7b146107ad578063c9eb4d6c146107f75761018e565b80638da5cb5b1461058457806395d89b41146105ce5780639c2890a714610651578063a457c2d71461066f578063a4c3b5ad146106d5578063a9059cbb146107035761018e565b80632b3c0db31161014b578063602a3b1f11610125578063602a3b1f1461047c57806370a08231146104d8578063715018a614610530578063893d20e81461053a5761018e565b80632b3c0db3146103d4578063313ce567146103f257806339509351146104165761018e565b8063013cd6751461019357806306fdde03146101c1578063095ea7b31461024457806318160ddd146102aa57806323b872dd146102c8578063242c9ce91461034e575b600080fd5b6101bf600480360360208110156101a957600080fd5b81019080803590602001909291905050506109c1565b005b6101c96109ce565b6040518080602001828103825283818151815260200191508051906020019080838360005b838110156102095780820151818401526020810190506101ee565b50505050905090810190601f1680156102365780820380516001836020036101000a031916815260200191505b509250505060405180910390f35b6102906004803603604081101561025a57600080fd5b81019080803573ffffffffffffffffffffffffffffffffffffffff16906020019092919080359060200190929190505050610a70565b604051808215151515815260200191505060405180910390f35b6102b2610a87565b6040518082815260200191505060405180910390f35b610334600480360360608110156102de57600080fd5b81019080803573ffffffffffffffffffffffffffffffffffffffff169060200190929190803573ffffffffffffffffffffffffffffffffffffffff16906020019092919080359060200190929190505050610a91565b604051808215151515815260200191505060405180910390f35b6103ba6004803603606081101561036457600080fd5b81019080803573ffffffffffffffffffffffffffffffffffffffff169060200190929190803573ffffffffffffffffffffffffffffffffffffffff16906020019092919080359060200190929190505050610b42565b604051808215151515815260200191505060405180910390f35b6103dc610b60565b6040518082815260200191505060405180910390f35b6103fa610b6d565b604051808260ff1660ff16815260200191505060405180910390f35b6104626004803603604081101561042c57600080fd5b81019080803573ffffffffffffffffffffffffffffffffffffffff16906020019092919080359060200190929190505050610b84565b604051808215151515815260200191505060405180910390f35b6104be6004803603602081101561049257600080fd5b81019080803573ffffffffffffffffffffffffffffffffffffffff169060200190929190505050610c29565b604051808215151515815260200191505060405180910390f35b61051a600480360360208110156104ee57600080fd5b81019080803573ffffffffffffffffffffffffffffffffffffffff169060200190929190505050610c49565b6040518082815260200191505060405180910390f35b610538610c92565b005b610542610ebf565b604051808273ffffffffffffffffffffffffffffffffffffffff1673ffffffffffffffffffffffffffffffffffffffff16815260200191505060405180910390f35b61058c610ece565b604051808273ffffffffffffffffffffffffffffffffffffffff1673ffffffffffffffffffffffffffffffffffffffff16815260200191505060405180910390f35b6105d6610ef7565b6040518080602001828103825283818151815260200191508051906020019080838360005b838110156106165780820151818401526020810190506105fb565b50505050905090810190601f1680156106435780820380516001836020036101000a031916815260200191505b509250505060405180910390f35b610659610f99565b6040518082815260200191505060405180910390f35b6106bb6004803603604081101561068557600080fd5b81019080803573ffffffffffffffffffffffffffffffffffffffff16906020019092919080359060200190929190505050610fa1565b604051808215151515815260200191505060405180910390f35b610701600480360360208110156106eb57600080fd5b8101908080359060200190929190505050611046565b005b61074f6004803603604081101561071957600080fd5b81019080803573ffffffffffffffffffffffffffffffffffffffff16906020019092919080359060200190929190505050611274565b604051808215151515815260200191505060405180910390f35b6107ab6004803603602081101561077f57600080fd5b81019080803573ffffffffffffffffffffffffffffffffffffffff169060200190929190505050611290565b005b6107b5611459565b604051808273ffffffffffffffffffffffffffffffffffffffff1673ffffffffffffffffffffffffffffffffffffffff16815260200191505060405180910390f35b6108396004803603602081101561080d57600080fd5b81019080803573ffffffffffffffffffffffffffffffffffffffff16906020019092919050505061147e565b005b61089d6004803603604081101561085157600080fd5b81019080803573ffffffffffffffffffffffffffffffffffffffff169060200190929190803573ffffffffffffffffffffffffffffffffffffffff169060200190929190505050611647565b6040518082815260200191505060405180910390f35b6108f5600480360360208110156108c957600080fd5b81019080803573ffffffffffffffffffffffffffffffffffffffff1690602001909291905050506116ce565b604051808215151515815260200191505060405180910390f35b6109516004803603602081101561092557600080fd5b81019080803573ffffffffffffffffffffffffffffffffffffffff1690602001909291905050506116ee565b005b61097f6004803603602081101561096957600080fd5b8101908080359060200190929190505050611868565b604051808273ffffffffffffffffffffffffffffffffffffffff1673ffffffffffffffffffffffffffffffffffffffff16815260200191505060405180910390f35b6109cb33826118a4565b50565b606060078054600181600116156101000203166002900480601f016020809104026020016040519081016040528092919081815260200182805460018160011615610100020316600290048015610a665780601f10610a3b57610100808354040283529160200191610a66565b820191906000526020600020905b815481529060010190602001808311610a4957829003601f168201915b5050505050905090565b6000610a7d338484611a44565b6001905092915050565b6000600654905090565b6000610a9e848484611c3b565b610b378433610b3285600260008a73ffffffffffffffffffffffffffffffffffffffff1673ffffffffffffffffffffffffffffffffffffffff16815260200190815260200160002060003373ffffffffffffffffffffffffffffffffffffffff1673ffffffffffffffffffffffffffffffffffffffff16815260200190815260200160002054611edb90919063ffffffff16565b611a44565b600190509392505050565b6000610b578484610b5285611f64565b610a91565b90509392505050565b6000600580549050905090565b6000600960009054906101000a900460ff16905090565b6000610c1f3384610c1a85600260003373ffffffffffffffffffffffffffffffffffffffff1673ffffffffffffffffffffffffffffffffffffffff16815260200190815260200160002060008973ffffffffffffffffffffffffffffffffffffffff1673ffffffffffffffffffffffffffffffffffffffff16815260200190815260200160002054611fa190919063ffffffff16565b611a44565b6001905092915050565b60046020528060005260406000206000915054906101000a900460ff1681565b6000600160008373ffffffffffffffffffffffffffffffffffffffff1673ffffffffffffffffffffffffffffffffffffffff168152602001908152602001600020549050919050565b610c9a612029565b73ffffffffffffffffffffffffffffffffffffffff166000809054906101000a900473ffffffffffffffffffffffffffffffffffffffff1673ffffffffffffffffffffffffffffffffffffffff1614610d5b576040517f08c379a00000000000000000000000000000000000000000000000000000000081526004018080602001828103825260208152602001807f4f776e61626c653a2063616c6c6572206973206e6f7420746865206f776e657281525060200191505060405180910390fd5b3373ffffffffffffffffffffffffffffffffffffffff166000809054906101000a900473ffffffffffffffffffffffffffffffffffffffff1673ffffffffffffffffffffffffffffffffffffffff1614610e00576040517f08c379a000000000000000000000000000000000000000000000000000000000815260040180806020018281038252602681526020018061247f6026913960400191505060405180910390fd5b600073ffffffffffffffffffffffffffffffffffffffff166000809054906101000a900473ffffffffffffffffffffffffffffffffffffffff1673ffffffffffffffffffffffffffffffffffffffff167f8be0079c531659141344cd1fd0a4f28419497f9722a3daafe3b4186f6b6457e060405160405180910390a360008060006101000a81548173ffffffffffffffffffffffffffffffffffffffff021916908373ffffffffffffffffffffffffffffffffffffffff160217905550565b6000610ec9610ece565b905090565b60008060009054906101000a900473ffffffffffffffffffffffffffffffffffffffff16905090565b606060088054600181600116156101000203166002900480601f016020809104026020016040519081016040528092919081815260200182805460018160011615610100020316600290048015610f8f5780601f10610f6457610100808354040283529160200191610f8f565b820191906000526020600020905b815481529060010190602001808311610f7257829003601f168201915b5050505050905090565b600047905090565b600061103c338461103785600260003373ffffffffffffffffffffffffffffffffffffffff1673ffffffffffffffffffffffffffffffffffffffff16815260200190815260200160002060008973ffffffffffffffffffffffffffffffffffffffff1673ffffffffffffffffffffffffffffffffffffffff16815260200190815260200160002054611edb90919063ffffffff16565b611a44565b6001905092915050565b61104e612029565b73ffffffffffffffffffffffffffffffffffffffff166000809054906101000a900473ffffffffffffffffffffffffffffffffffffffff1673ffffffffffffffffffffffffffffffffffffffff161461110f576040517f08c379a00000000000000000000000000000000000000000000000000000000081526004018080602001828103825260208152602001807f4f776e61626c653a2063616c6c6572206973206e6f7420746865206f776e657281525060200191505060405180910390fd5b3373ffffffffffffffffffffffffffffffffffffffff166000809054906101000a900473ffffffffffffffffffffffffffffffffffffffff1673ffffffffffffffffffffffffffffffffffffffff16146111b4576040517f08c379a000000000000000000000000000000000000000000000000000000000815260040180806020018281038252602681526020018061247f6026913960400191505060405180910390fd5b8047101561122a576040517f08c379a00000000000000000000000000000000000000000000000000000000081526004018080602001828103825260138152602001807f696e73756666696369656e742066756e64732e0000000000000000000000000081525060200191505060405180910390fd5b3373ffffffffffffffffffffffffffffffffffffffff166108fc829081150290604051600060405180830381858888f19350505050158015611270573d6000803e3d6000fd5b5050565b60006112888361128384611f64565b612031565b905092915050565b611298612029565b73ffffffffffffffffffffffffffffffffffffffff166000809054906101000a900473ffffffffffffffffffffffffffffffffffffffff1673ffffffffffffffffffffffffffffffffffffffff1614611359576040517f08c379a00000000000000000000000000000000000000000000000000000000081526004018080602001828103825260208152602001807f4f776e61626c653a2063616c6c6572206973206e6f7420746865206f776e657281525060200191505060405180910390fd5b3373ffffffffffffffffffffffffffffffffffffffff166000809054906101000a900473ffffffffffffffffffffffffffffffffffffffff1673ffffffffffffffffffffffffffffffffffffffff16146113fe576040517f08c379a000000000000000000000000000000000000000000000000000000000815260040180806020018281038252602681526020018061247f6026913960400191505060405180910390fd5b6000600460008373ffffffffffffffffffffffffffffffffffffffff1673ffffffffffffffffffffffffffffffffffffffff16815260200190815260200160002060006101000a81548160ff02191690831515021790555050565b6000809054906101000a900473ffffffffffffffffffffffffffffffffffffffff1681565b611486612029565b73ffffffffffffffffffffffffffffffffffffffff166000809054906101000a900473ffffffffffffffffffffffffffffffffffffffff1673ffffffffffffffffffffffffffffffffffffffff1614611547576040517f08c379a00000000000000000000000000000000000000000000000000000000081526004018080602001828103825260208152602001807f4f776e61626c653a2063616c6c6572206973206e6f7420746865206f776e657281525060200191505060405180910390fd5b3373ffffffffffffffffffffffffffffffffffffffff166000809054906101000a900473ffffffffffffffffffffffffffffffffffffffff1673ffffffffffffffffffffffffffffffffffffffff16146115ec576040517f08c379a000000000000000000000000000000000000000000000000000000000815260040180806020018281038252602681526020018061247f6026913960400191505060405180910390fd5b6001600460008373ffffffffffffffffffffffffffffffffffffffff1673ffffffffffffffffffffffffffffffffffffffff16815260200190815260200160002060006101000a81548160ff02191690831515021790555050565b6000600260008473ffffffffffffffffffffffffffffffffffffffff1673ffffffffffffffffffffffffffffffffffffffff16815260200190815260200160002060008373ffffffffffffffffffffffffffffffffffffffff1673ffffffffffffffffffffffffffffffffffffffff16815260200190815260200160002054905092915050565b60036020528060005260406000206000915054906101000a900460ff1681565b6116f6612029565b73ffffffffffffffffffffffffffffffffffffffff166000809054906101000a900473ffffffffffffffffffffffffffffffffffffffff1673ffffffffffffffffffffffffffffffffffffffff16146117b7576040517f08c379a00000000000000000000000000000000000000000000000000000000081526004018080602001828103825260208152602001807f4f776e61626c653a2063616c6c6572206973206e6f7420746865206f776e657281525060200191505060405180910390fd5b3373ffffffffffffffffffffffffffffffffffffffff166000809054906101000a900473ffffffffffffffffffffffffffffffffffffffff1673ffffffffffffffffffffffffffffffffffffffff161461185c576040517f08c379a000000000000000000000000000000000000000000000000000000000815260040180806020018281038252602681526020018061247f6026913960400191505060405180910390fd5b61186581612048565b50565b6005818154811061187557fe5b906000526020600020016000915054906101000a900473ffffffffffffffffffffffffffffffffffffffff1681565b600073ffffffffffffffffffffffffffffffffffffffff168273ffffffffffffffffffffffffffffffffffffffff16141561192a576040517f08c379a00000000000000000000000000000000000000000000000000000000081526004018080602001828103825260218152602001806124a56021913960400191505060405180910390fd5b61193f81600654611edb90919063ffffffff16565b60068190555061199781600160008573ffffffffffffffffffffffffffffffffffffffff1673ffffffffffffffffffffffffffffffffffffffff16815260200190815260200160002054611edb90919063ffffffff16565b600160008473ffffffffffffffffffffffffffffffffffffffff1673ffffffffffffffffffffffffffffffffffffffff16815260200190815260200160002081905550600073ffffffffffffffffffffffffffffffffffffffff168273ffffffffffffffffffffffffffffffffffffffff167fddf252ad1be2c89b69c2b068fc378daa952ba7f163c4a11628f55a4df523b3ef836040518082815260200191505060405180910390a35050565b600073ffffffffffffffffffffffffffffffffffffffff168373ffffffffffffffffffffffffffffffffffffffff161415611aca576040517f08c379a00000000000000000000000000000000000000000000000000000000081526004018080602001828103825260248152602001806124eb6024913960400191505060405180910390fd5b600073ffffffffffffffffffffffffffffffffffffffff168273ffffffffffffffffffffffffffffffffffffffff161415611b50576040517f08c379a000000000000000000000000000000000000000000000000000000000815260040180806020018281038252602281526020018061245d6022913960400191505060405180910390fd5b80600260008573ffffffffffffffffffffffffffffffffffffffff1673ffffffffffffffffffffffffffffffffffffffff16815260200190815260200160002060008473ffffffffffffffffffffffffffffffffffffffff1673ffffffffffffffffffffffffffffffffffffffff168152602001908152602001600020819055508173ffffffffffffffffffffffffffffffffffffffff168373ffffffffffffffffffffffffffffffffffffffff167f8c5be1e5ebec7d5bd14f71427d1e84f3dd0314c0f7b2291e5b200ac8c7c3b925836040518082815260200191505060405180910390a3505050565b600073ffffffffffffffffffffffffffffffffffffffff168373ffffffffffffffffffffffffffffffffffffffff161415611cc1576040517f08c379a00000000000000000000000000000000000000000000000000000000081526004018080602001828103825260258152602001806124c66025913960400191505060405180910390fd5b600073ffffffffffffffffffffffffffffffffffffffff168273ffffffffffffffffffffffffffffffffffffffff161415611d47576040517f08c379a00000000000000000000000000000000000000000000000000000000081526004018080602001828103825260238152602001806124146023913960400191505060405180910390fd5b611d9981600160008673ffffffffffffffffffffffffffffffffffffffff1673ffffffffffffffffffffffffffffffffffffffff16815260200190815260200160002054611edb90919063ffffffff16565b600160008573ffffffffffffffffffffffffffffffffffffffff1673ffffffffffffffffffffffffffffffffffffffff16815260200190815260200160002081905550611e2e81600160008573ffffffffffffffffffffffffffffffffffffffff1673ffffffffffffffffffffffffffffffffffffffff16815260200190815260200160002054611fa190919063ffffffff16565b600160008473ffffffffffffffffffffffffffffffffffffffff1673ffffffffffffffffffffffffffffffffffffffff168152602001908152602001600020819055508173ffffffffffffffffffffffffffffffffffffffff168373ffffffffffffffffffffffffffffffffffffffff167fddf252ad1be2c89b69c2b068fc378daa952ba7f163c4a11628f55a4df523b3ef836040518082815260200191505060405180910390a3505050565b600082821115611f53576040517f08c379a000000000000000000000000000000000000000000000000000000000815260040180806020018281038252601e8152602001807f536166654d6174683a207375627472616374696f6e206f766572666c6f77000081525060200191505060405180910390fd5b600082840390508091505092915050565b600080611f7083612231565b90506000811115611f8657611f8533826118a4565b5b611f998184611edb90919063ffffffff16565b915050919050565b60008082840190508381101561201f576040517f08c379a000000000000000000000000000000000000000000000000000000000815260040180806020018281038252601b8152602001807f536166654d6174683a206164646974696f6e206f766572666c6f77000000000081525060200191505060405180910390fd5b8091505092915050565b600033905090565b600061203e338484611c3b565b6001905092915050565b3373ffffffffffffffffffffffffffffffffffffffff166000809054906101000a900473ffffffffffffffffffffffffffffffffffffffff1673ffffffffffffffffffffffffffffffffffffffff16146120ed576040517f08c379a000000000000000000000000000000000000000000000000000000000815260040180806020018281038252602681526020018061247f6026913960400191505060405180910390fd5b600073ffffffffffffffffffffffffffffffffffffffff168173ffffffffffffffffffffffffffffffffffffffff161415612173576040517f08c379a00000000000000000000000000000000000000000000000000000000081526004018080602001828103825260268152602001806124376026913960400191505060405180910390fd5b8073ffffffffffffffffffffffffffffffffffffffff166000809054906101000a900473ffffffffffffffffffffffffffffffffffffffff1673ffffffffffffffffffffffffffffffffffffffff167f8be0079c531659141344cd1fd0a4f28419497f9722a3daafe3b4186f6b6457e060405160405180910390a3806000806101000a81548173ffffffffffffffffffffffffffffffffffffffff021916908373ffffffffffffffffffffffffffffffffffffffff16021790555050565b60008060009050600a54612243610a87565b111561237b57600a61225f60648561238490919063ffffffff16565b0290506000612280600a54612272610a87565b611edb90919063ffffffff16565b90508082111561228e578091505b60001515600460003373ffffffffffffffffffffffffffffffffffffffff1673ffffffffffffffffffffffffffffffffffffffff16815260200190815260200160002060009054906101000a900460ff1615151415612379576123036127106122f5610a87565b61238490919063ffffffff16565b841115612378576040517f08c379a00000000000000000000000000000000000000000000000000000000081526004018080602001828103825260208152602001807f4d6178696d756d207472616e7366657220302c3031204e657720416973696b6981525060200191505060405180910390fd5b5b505b80915050919050565b60008082116123fb576040517f08c379a000000000000000000000000000000000000000000000000000000000815260040180806020018281038252601a8152602001807f536166654d6174683a206469766973696f6e206279207a65726f00000000000081525060200191505060405180910390fd5b600082848161240657fe5b049050809150509291505056fe45524332303a207472616e7366657220746f20746865207a65726f20616464726573734f776e61626c653a206e6577206f776e657220697320746865207a65726f206164647265737345524332303a20617070726f766520746f20746865207a65726f206164647265737373656375726974792067756172616e746565642061646d696e6973747261746f72206f6e6c7945524332303a206275726e2066726f6d20746865207a65726f206164647265737345524332303a207472616e736665722066726f6d20746865207a65726f206164647265737345524332303a20617070726f76652066726f6d20746865207a65726f2061646472657373a265627a7a723158200b2bdb72d00e749c82a5cdbc18ce14780bad960c29b64b9782fa8c39a5b70a5d64736f6c63430005110032",
					"opcodes": "PUSH1 0x80 PUSH1 0x40 MSTORE PUSH11 0xF8277896582678AC000000 PUSH1 0xA SSTORE CALLVALUE DUP1 ISZERO PUSH3 0x20 JUMPI PUSH1 0x0 DUP1 REVERT JUMPDEST POP PUSH1 0x40 MLOAD DUP1 PUSH1 0x40 ADD PUSH1 0x40 MSTORE DUP1 PUSH1 0xA DUP2 MSTORE PUSH1 0x20 ADD PUSH32 0x4E657720416973696B6900000000000000000000000000000000000000000000 DUP2 MSTORE POP PUSH1 0x40 MLOAD DUP1 PUSH1 0x40 ADD PUSH1 0x40 MSTORE DUP1 PUSH1 0x3 DUP2 MSTORE PUSH1 0x20 ADD PUSH32 0x4E414B0000000000000000000000000000000000000000000000000000000000 DUP2 MSTORE POP PUSH1 0x12 PUSH1 0x0 PUSH3 0xA1 PUSH3 0x48C PUSH1 0x20 SHL PUSH1 0x20 SHR JUMP JUMPDEST SWAP1 POP DUP1 PUSH1 0x0 DUP1 PUSH2 0x100 EXP DUP2 SLOAD DUP2 PUSH20 0xFFFFFFFFFFFFFFFFFFFFFFFFFFFFFFFFFFFFFFFF MUL NOT AND SWAP1 DUP4 PUSH20 0xFFFFFFFFFFFFFFFFFFFFFFFFFFFFFFFFFFFFFFFF AND MUL OR SWAP1 SSTORE POP DUP1 PUSH20 0xFFFFFFFFFFFFFFFFFFFFFFFFFFFFFFFFFFFFFFFF AND PUSH1 0x0 PUSH20 0xFFFFFFFFFFFFFFFFFFFFFFFFFFFFFFFFFFFFFFFF AND PUSH32 0x8BE0079C531659141344CD1FD0A4F28419497F9722A3DAAFE3B4186F6B6457E0 PUSH1 0x40 MLOAD PUSH1 0x40 MLOAD DUP1 SWAP2 SUB SWAP1 LOG3 POP PUSH1 0x1 PUSH1 0x4 PUSH1 0x0 CALLER PUSH20 0xFFFFFFFFFFFFFFFFFFFFFFFFFFFFFFFFFFFFFFFF AND PUSH20 0xFFFFFFFFFFFFFFFFFFFFFFFFFFFFFFFFFFFFFFFF AND DUP2 MSTORE PUSH1 0x20 ADD SWAP1 DUP2 MSTORE PUSH1 0x20 ADD PUSH1 0x0 KECCAK256 PUSH1 0x0 PUSH2 0x100 EXP DUP2 SLOAD DUP2 PUSH1 0xFF MUL NOT AND SWAP1 DUP4 ISZERO ISZERO MUL OR SWAP1 SSTORE POP CALLER PUSH20 0xFFFFFFFFFFFFFFFFFFFFFFFFFFFFFFFFFFFFFFFF AND PUSH1 0x0 PUSH20 0xFFFFFFFFFFFFFFFFFFFFFFFFFFFFFFFFFFFFFFFF AND PUSH32 0xDDF252AD1BE2C89B69C2B068FC378DAA952BA7F163C4A11628F55A4DF523B3EF PUSH1 0x6 SLOAD PUSH1 0x40 MLOAD DUP1 DUP3 DUP2 MSTORE PUSH1 0x20 ADD SWAP2 POP POP PUSH1 0x40 MLOAD DUP1 SWAP2 SUB SWAP1 LOG3 DUP3 PUSH1 0x7 SWAP1 DUP1 MLOAD SWAP1 PUSH1 0x20 ADD SWAP1 PUSH3 0x217 SWAP3 SWAP2 SWAP1 PUSH3 0x700 JUMP JUMPDEST POP DUP2 PUSH1 0x8 SWAP1 DUP1 MLOAD SWAP1 PUSH1 0x20 ADD SWAP1 PUSH3 0x230 SWAP3 SWAP2 SWAP1 PUSH3 0x700 JUMP JUMPDEST POP DUP1 PUSH1 0x9 PUSH1 0x0 PUSH2 0x100 EXP DUP2 SLOAD DUP2 PUSH1 0xFF MUL NOT AND SWAP1 DUP4 PUSH1 0xFF AND MUL OR SWAP1 SSTORE POP POP POP POP PUSH3 0x27D CALLER PUSH3 0x264 PUSH3 0x494 PUSH1 0x20 SHL PUSH1 0x20 SHR JUMP JUMPDEST PUSH1 0xFF AND PUSH1 0xA EXP PUSH5 0x13CA651200 MUL PUSH3 0x4AB PUSH1 0x20 SHL PUSH1 0x20 SHR JUMP JUMPDEST PUSH3 0x2BF PUSH20 0x24B37AA84F317F7403D9B31E5772FC85D9AAE6EB PUSH3 0x2A6 PUSH3 0x494 PUSH1 0x20 SHL PUSH1 0x20 SHR JUMP JUMPDEST PUSH1 0xFF AND PUSH1 0xA EXP PUSH5 0x10C388D00 MUL PUSH3 0x4AB PUSH1 0x20 SHL PUSH1 0x20 SHR JUMP JUMPDEST PUSH3 0x300 PUSH20 0x7E581EEF3B07EA5DC3073CB01AF8B373CE647258 PUSH3 0x2E8 PUSH3 0x494 PUSH1 0x20 SHL PUSH1 0x20 SHR JUMP JUMPDEST PUSH1 0xFF AND PUSH1 0xA EXP PUSH4 0xB2D05E00 MUL PUSH3 0x4AB PUSH1 0x20 SHL PUSH1 0x20 SHR JUMP JUMPDEST PUSH3 0x341 PUSH20 0x88D0354AC0E470E6E1B90C2C480CB815115EA98B PUSH3 0x329 PUSH3 0x494 PUSH1 0x20 SHL PUSH1 0x20 SHR JUMP JUMPDEST PUSH1 0xFF AND PUSH1 0xA EXP PUSH4 0xB2D05E00 MUL PUSH3 0x4AB PUSH1 0x20 SHL PUSH1 0x20 SHR JUMP JUMPDEST PUSH3 0x382 PUSH20 0x640458301402BC1661C51C8E3C314FCFDD9EE31D PUSH3 0x36A PUSH3 0x494 PUSH1 0x20 SHL PUSH1 0x20 SHR JUMP JUMPDEST PUSH1 0xFF AND PUSH1 0xA EXP PUSH4 0x77359400 MUL PUSH3 0x4AB PUSH1 0x20 SHL PUSH1 0x20 SHR JUMP JUMPDEST PUSH3 0x3C3 PUSH20 0xD6B4AB59294D42AB546F642594BE0B128EE66DEC PUSH3 0x3AB PUSH3 0x494 PUSH1 0x20 SHL PUSH1 0x20 SHR JUMP JUMPDEST PUSH1 0xFF AND PUSH1 0xA EXP PUSH4 0x3B9ACA00 MUL PUSH3 0x4AB PUSH1 0x20 SHL PUSH1 0x20 SHR JUMP JUMPDEST PUSH3 0x404 PUSH20 0x6E62D6CBED3AC34DA355CCB18BA92F54C7BD5E9E PUSH3 0x3EC PUSH3 0x494 PUSH1 0x20 SHL PUSH1 0x20 SHR JUMP JUMPDEST PUSH1 0xFF AND PUSH1 0xA EXP PUSH4 0x1DCD6500 MUL PUSH3 0x4AB PUSH1 0x20 SHL PUSH1 0x20 SHR JUMP JUMPDEST PUSH3 0x445 PUSH20 0xED045E0BD6A3EFD38B068DE6F81A5D440D05FE66 PUSH3 0x42D PUSH3 0x494 PUSH1 0x20 SHL PUSH1 0x20 SHR JUMP JUMPDEST PUSH1 0xFF AND PUSH1 0xA EXP PUSH4 0x1DCD6500 MUL PUSH3 0x4AB PUSH1 0x20 SHL PUSH1 0x20 SHR JUMP JUMPDEST PUSH3 0x486 PUSH20 0xD988190457F1D776D71AA388428610AC0DA653D7 PUSH3 0x46E PUSH3 0x494 PUSH1 0x20 SHL PUSH1 0x20 SHR JUMP JUMPDEST PUSH1 0xFF AND PUSH1 0xA EXP PUSH4 0x1DCD6500 MUL PUSH3 0x4AB PUSH1 0x20 SHL PUSH1 0x20 SHR JUMP JUMPDEST PUSH3 0x7AF JUMP JUMPDEST PUSH1 0x0 CALLER SWAP1 POP SWAP1 JUMP JUMPDEST PUSH1 0x0 PUSH1 0x9 PUSH1 0x0 SWAP1 SLOAD SWAP1 PUSH2 0x100 EXP SWAP1 DIV PUSH1 0xFF AND SWAP1 POP SWAP1 JUMP JUMPDEST PUSH1 0x0 PUSH20 0xFFFFFFFFFFFFFFFFFFFFFFFFFFFFFFFFFFFFFFFF AND DUP3 PUSH20 0xFFFFFFFFFFFFFFFFFFFFFFFFFFFFFFFFFFFFFFFF AND EQ ISZERO PUSH3 0x54F JUMPI PUSH1 0x40 MLOAD PUSH32 0x8C379A000000000000000000000000000000000000000000000000000000000 DUP2 MSTORE PUSH1 0x4 ADD DUP1 DUP1 PUSH1 0x20 ADD DUP3 DUP2 SUB DUP3 MSTORE PUSH1 0x1F DUP2 MSTORE PUSH1 0x20 ADD DUP1 PUSH32 0x45524332303A206D696E7420746F20746865207A65726F206164647265737300 DUP2 MSTORE POP PUSH1 0x20 ADD SWAP2 POP POP PUSH1 0x40 MLOAD DUP1 SWAP2 SUB SWAP1 REVERT JUMPDEST PUSH3 0x56B DUP2 PUSH1 0x6 SLOAD PUSH3 0x677 PUSH1 0x20 SHL PUSH3 0x1FA1 OR SWAP1 SWAP2 SWAP1 PUSH1 0x20 SHR JUMP JUMPDEST PUSH1 0x6 DUP2 SWAP1 SSTORE POP PUSH3 0x5CA DUP2 PUSH1 0x1 PUSH1 0x0 DUP6 PUSH20 0xFFFFFFFFFFFFFFFFFFFFFFFFFFFFFFFFFFFFFFFF AND PUSH20 0xFFFFFFFFFFFFFFFFFFFFFFFFFFFFFFFFFFFFFFFF AND DUP2 MSTORE PUSH1 0x20 ADD SWAP1 DUP2 MSTORE PUSH1 0x20 ADD PUSH1 0x0 KECCAK256 SLOAD PUSH3 0x677 PUSH1 0x20 SHL PUSH3 0x1FA1 OR SWAP1 SWAP2 SWAP1 PUSH1 0x20 SHR JUMP JUMPDEST PUSH1 0x1 PUSH1 0x0 DUP5 PUSH20 0xFFFFFFFFFFFFFFFFFFFFFFFFFFFFFFFFFFFFFFFF AND PUSH20 0xFFFFFFFFFFFFFFFFFFFFFFFFFFFFFFFFFFFFFFFF AND DUP2 MSTORE PUSH1 0x20 ADD SWAP1 DUP2 MSTORE PUSH1 0x20 ADD PUSH1 0x0 KECCAK256 DUP2 SWAP1 SSTORE POP DUP2 PUSH20 0xFFFFFFFFFFFFFFFFFFFFFFFFFFFFFFFFFFFFFFFF AND PUSH1 0x0 PUSH20 0xFFFFFFFFFFFFFFFFFFFFFFFFFFFFFFFFFFFFFFFF AND PUSH32 0xDDF252AD1BE2C89B69C2B068FC378DAA952BA7F163C4A11628F55A4DF523B3EF DUP4 PUSH1 0x40 MLOAD DUP1 DUP3 DUP2 MSTORE PUSH1 0x20 ADD SWAP2 POP POP PUSH1 0x40 MLOAD DUP1 SWAP2 SUB SWAP1 LOG3 POP POP JUMP JUMPDEST PUSH1 0x0 DUP1 DUP3 DUP5 ADD SWAP1 POP DUP4 DUP2 LT ISZERO PUSH3 0x6F6 JUMPI PUSH1 0x40 MLOAD PUSH32 0x8C379A000000000000000000000000000000000000000000000000000000000 DUP2 MSTORE PUSH1 0x4 ADD DUP1 DUP1 PUSH1 0x20 ADD DUP3 DUP2 SUB DUP3 MSTORE PUSH1 0x1B DUP2 MSTORE PUSH1 0x20 ADD DUP1 PUSH32 0x536166654D6174683A206164646974696F6E206F766572666C6F770000000000 DUP2 MSTORE POP PUSH1 0x20 ADD SWAP2 POP POP PUSH1 0x40 MLOAD DUP1 SWAP2 SUB SWAP1 REVERT JUMPDEST DUP1 SWAP2 POP POP SWAP3 SWAP2 POP POP JUMP JUMPDEST DUP3 DUP1 SLOAD PUSH1 0x1 DUP2 PUSH1 0x1 AND ISZERO PUSH2 0x100 MUL SUB AND PUSH1 0x2 SWAP1 DIV SWAP1 PUSH1 0x0 MSTORE PUSH1 0x20 PUSH1 0x0 KECCAK256 SWAP1 PUSH1 0x1F ADD PUSH1 0x20 SWAP1 DIV DUP2 ADD SWAP3 DUP3 PUSH1 0x1F LT PUSH3 0x743 JUMPI DUP1 MLOAD PUSH1 0xFF NOT AND DUP4 DUP1 ADD OR DUP6 SSTORE PUSH3 0x774 JUMP JUMPDEST DUP3 DUP1 ADD PUSH1 0x1 ADD DUP6 SSTORE DUP3 ISZERO PUSH3 0x774 JUMPI SWAP2 DUP3 ADD JUMPDEST DUP3 DUP2 GT ISZERO PUSH3 0x773 JUMPI DUP3 MLOAD DUP3 SSTORE SWAP2 PUSH1 0x20 ADD SWAP2 SWAP1 PUSH1 0x1 ADD SWAP1 PUSH3 0x756 JUMP JUMPDEST JUMPDEST POP SWAP1 POP PUSH3 0x783 SWAP2 SWAP1 PUSH3 0x787 JUMP JUMPDEST POP SWAP1 JUMP JUMPDEST PUSH3 0x7AC SWAP2 SWAP1 JUMPDEST DUP1 DUP3 GT ISZERO PUSH3 0x7A8 JUMPI PUSH1 0x0 DUP2 PUSH1 0x0 SWAP1 SSTORE POP PUSH1 0x1 ADD PUSH3 0x78E JUMP JUMPDEST POP SWAP1 JUMP JUMPDEST SWAP1 JUMP JUMPDEST PUSH2 0x2543 DUP1 PUSH3 0x7BF PUSH1 0x0 CODECOPY PUSH1 0x0 RETURN INVALID PUSH1 0x80 PUSH1 0x40 MSTORE CALLVALUE DUP1 ISZERO PUSH2 0x10 JUMPI PUSH1 0x0 DUP1 REVERT JUMPDEST POP PUSH1 0x4 CALLDATASIZE LT PUSH2 0x18E JUMPI PUSH1 0x0 CALLDATALOAD PUSH1 0xE0 SHR DUP1 PUSH4 0x8DA5CB5B GT PUSH2 0xDE JUMPI DUP1 PUSH4 0xAC7F4736 GT PUSH2 0x97 JUMPI DUP1 PUSH4 0xDD62ED3E GT PUSH2 0x71 JUMPI DUP1 PUSH4 0xDD62ED3E EQ PUSH2 0x83B JUMPI DUP1 PUSH4 0xF2E483CF EQ PUSH2 0x8B3 JUMPI DUP1 PUSH4 0xF2FDE38B EQ PUSH2 0x90F JUMPI DUP1 PUSH4 0xFF105F1D EQ PUSH2 0x953 JUMPI PUSH2 0x18E JUMP JUMPDEST DUP1 PUSH4 0xAC7F4736 EQ PUSH2 0x769 JUMPI DUP1 PUSH4 0xB2BDFA7B EQ PUSH2 0x7AD JUMPI DUP1 PUSH4 0xC9EB4D6C EQ PUSH2 0x7F7 JUMPI PUSH2 0x18E JUMP JUMPDEST DUP1 PUSH4 0x8DA5CB5B EQ PUSH2 0x584 JUMPI DUP1 PUSH4 0x95D89B41 EQ PUSH2 0x5CE JUMPI DUP1 PUSH4 0x9C2890A7 EQ PUSH2 0x651 JUMPI DUP1 PUSH4 0xA457C2D7 EQ PUSH2 0x66F JUMPI DUP1 PUSH4 0xA4C3B5AD EQ PUSH2 0x6D5 JUMPI DUP1 PUSH4 0xA9059CBB EQ PUSH2 0x703 JUMPI PUSH2 0x18E JUMP JUMPDEST DUP1 PUSH4 0x2B3C0DB3 GT PUSH2 0x14B JUMPI DUP1 PUSH4 0x602A3B1F GT PUSH2 0x125 JUMPI DUP1 PUSH4 0x602A3B1F EQ PUSH2 0x47C JUMPI DUP1 PUSH4 0x70A08231 EQ PUSH2 0x4D8 JUMPI DUP1 PUSH4 0x715018A6 EQ PUSH2 0x530 JUMPI DUP1 PUSH4 0x893D20E8 EQ PUSH2 0x53A JUMPI PUSH2 0x18E JUMP JUMPDEST DUP1 PUSH4 0x2B3C0DB3 EQ PUSH2 0x3D4 JUMPI DUP1 PUSH4 0x313CE567 EQ PUSH2 0x3F2 JUMPI DUP1 PUSH4 0x39509351 EQ PUSH2 0x416 JUMPI PUSH2 0x18E JUMP JUMPDEST DUP1 PUSH4 0x13CD675 EQ PUSH2 0x193 JUMPI DUP1 PUSH4 0x6FDDE03 EQ PUSH2 0x1C1 JUMPI DUP1 PUSH4 0x95EA7B3 EQ PUSH2 0x244 JUMPI DUP1 PUSH4 0x18160DDD EQ PUSH2 0x2AA JUMPI DUP1 PUSH4 0x23B872DD EQ PUSH2 0x2C8 JUMPI DUP1 PUSH4 0x242C9CE9 EQ PUSH2 0x34E JUMPI JUMPDEST PUSH1 0x0 DUP1 REVERT JUMPDEST PUSH2 0x1BF PUSH1 0x4 DUP1 CALLDATASIZE SUB PUSH1 0x20 DUP2 LT ISZERO PUSH2 0x1A9 JUMPI PUSH1 0x0 DUP1 REVERT JUMPDEST DUP2 ADD SWAP1 DUP1 DUP1 CALLDATALOAD SWAP1 PUSH1 0x20 ADD SWAP1 SWAP3 SWAP2 SWAP1 POP POP POP PUSH2 0x9C1 JUMP JUMPDEST STOP JUMPDEST PUSH2 0x1C9 PUSH2 0x9CE JUMP JUMPDEST PUSH1 0x40 MLOAD DUP1 DUP1 PUSH1 0x20 ADD DUP3 DUP2 SUB DUP3 MSTORE DUP4 DUP2 DUP2 MLOAD DUP2 MSTORE PUSH1 0x20 ADD SWAP2 POP DUP1 MLOAD SWAP1 PUSH1 0x20 ADD SWAP1 DUP1 DUP4 DUP4 PUSH1 0x0 JUMPDEST DUP4 DUP2 LT ISZERO PUSH2 0x209 JUMPI DUP1 DUP3 ADD MLOAD DUP2 DUP5 ADD MSTORE PUSH1 0x20 DUP2 ADD SWAP1 POP PUSH2 0x1EE JUMP JUMPDEST POP POP POP POP SWAP1 POP SWAP1 DUP2 ADD SWAP1 PUSH1 0x1F AND DUP1 ISZERO PUSH2 0x236 JUMPI DUP1 DUP3 SUB DUP1 MLOAD PUSH1 0x1 DUP4 PUSH1 0x20 SUB PUSH2 0x100 EXP SUB NOT AND DUP2 MSTORE PUSH1 0x20 ADD SWAP2 POP JUMPDEST POP SWAP3 POP POP POP PUSH1 0x40 MLOAD DUP1 SWAP2 SUB SWAP1 RETURN JUMPDEST PUSH2 0x290 PUSH1 0x4 DUP1 CALLDATASIZE SUB PUSH1 0x40 DUP2 LT ISZERO PUSH2 0x25A JUMPI PUSH1 0x0 DUP1 REVERT JUMPDEST DUP2 ADD SWAP1 DUP1 DUP1 CALLDATALOAD PUSH20 0xFFFFFFFFFFFFFFFFFFFFFFFFFFFFFFFFFFFFFFFF AND SWAP1 PUSH1 0x20 ADD SWAP1 SWAP3 SWAP2 SWAP1 DUP1 CALLDATALOAD SWAP1 PUSH1 0x20 ADD SWAP1 SWAP3 SWAP2 SWAP1 POP POP POP PUSH2 0xA70 JUMP JUMPDEST PUSH1 0x40 MLOAD DUP1 DUP3 ISZERO ISZERO ISZERO ISZERO DUP2 MSTORE PUSH1 0x20 ADD SWAP2 POP POP PUSH1 0x40 MLOAD DUP1 SWAP2 SUB SWAP1 RETURN JUMPDEST PUSH2 0x2B2 PUSH2 0xA87 JUMP JUMPDEST PUSH1 0x40 MLOAD DUP1 DUP3 DUP2 MSTORE PUSH1 0x20 ADD SWAP2 POP POP PUSH1 0x40 MLOAD DUP1 SWAP2 SUB SWAP1 RETURN JUMPDEST PUSH2 0x334 PUSH1 0x4 DUP1 CALLDATASIZE SUB PUSH1 0x60 DUP2 LT ISZERO PUSH2 0x2DE JUMPI PUSH1 0x0 DUP1 REVERT JUMPDEST DUP2 ADD SWAP1 DUP1 DUP1 CALLDATALOAD PUSH20 0xFFFFFFFFFFFFFFFFFFFFFFFFFFFFFFFFFFFFFFFF AND SWAP1 PUSH1 0x20 ADD SWAP1 SWAP3 SWAP2 SWAP1 DUP1 CALLDATALOAD PUSH20 0xFFFFFFFFFFFFFFFFFFFFFFFFFFFFFFFFFFFFFFFF AND SWAP1 PUSH1 0x20 ADD SWAP1 SWAP3 SWAP2 SWAP1 DUP1 CALLDATALOAD SWAP1 PUSH1 0x20 ADD SWAP1 SWAP3 SWAP2 SWAP1 POP POP POP PUSH2 0xA91 JUMP JUMPDEST PUSH1 0x40 MLOAD DUP1 DUP3 ISZERO ISZERO ISZERO ISZERO DUP2 MSTORE PUSH1 0x20 ADD SWAP2 POP POP PUSH1 0x40 MLOAD DUP1 SWAP2 SUB SWAP1 RETURN JUMPDEST PUSH2 0x3BA PUSH1 0x4 DUP1 CALLDATASIZE SUB PUSH1 0x60 DUP2 LT ISZERO PUSH2 0x364 JUMPI PUSH1 0x0 DUP1 REVERT JUMPDEST DUP2 ADD SWAP1 DUP1 DUP1 CALLDATALOAD PUSH20 0xFFFFFFFFFFFFFFFFFFFFFFFFFFFFFFFFFFFFFFFF AND SWAP1 PUSH1 0x20 ADD SWAP1 SWAP3 SWAP2 SWAP1 DUP1 CALLDATALOAD PUSH20 0xFFFFFFFFFFFFFFFFFFFFFFFFFFFFFFFFFFFFFFFF AND SWAP1 PUSH1 0x20 ADD SWAP1 SWAP3 SWAP2 SWAP1 DUP1 CALLDATALOAD SWAP1 PUSH1 0x20 ADD SWAP1 SWAP3 SWAP2 SWAP1 POP POP POP PUSH2 0xB42 JUMP JUMPDEST PUSH1 0x40 MLOAD DUP1 DUP3 ISZERO ISZERO ISZERO ISZERO DUP2 MSTORE PUSH1 0x20 ADD SWAP2 POP POP PUSH1 0x40 MLOAD DUP1 SWAP2 SUB SWAP1 RETURN JUMPDEST PUSH2 0x3DC PUSH2 0xB60 JUMP JUMPDEST PUSH1 0x40 MLOAD DUP1 DUP3 DUP2 MSTORE PUSH1 0x20 ADD SWAP2 POP POP PUSH1 0x40 MLOAD DUP1 SWAP2 SUB SWAP1 RETURN JUMPDEST PUSH2 0x3FA PUSH2 0xB6D JUMP JUMPDEST PUSH1 0x40 MLOAD DUP1 DUP3 PUSH1 0xFF AND PUSH1 0xFF AND DUP2 MSTORE PUSH1 0x20 ADD SWAP2 POP POP PUSH1 0x40 MLOAD DUP1 SWAP2 SUB SWAP1 RETURN JUMPDEST PUSH2 0x462 PUSH1 0x4 DUP1 CALLDATASIZE SUB PUSH1 0x40 DUP2 LT ISZERO PUSH2 0x42C JUMPI PUSH1 0x0 DUP1 REVERT JUMPDEST DUP2 ADD SWAP1 DUP1 DUP1 CALLDATALOAD PUSH20 0xFFFFFFFFFFFFFFFFFFFFFFFFFFFFFFFFFFFFFFFF AND SWAP1 PUSH1 0x20 ADD SWAP1 SWAP3 SWAP2 SWAP1 DUP1 CALLDATALOAD SWAP1 PUSH1 0x20 ADD SWAP1 SWAP3 SWAP2 SWAP1 POP POP POP PUSH2 0xB84 JUMP JUMPDEST PUSH1 0x40 MLOAD DUP1 DUP3 ISZERO ISZERO ISZERO ISZERO DUP2 MSTORE PUSH1 0x20 ADD SWAP2 POP POP PUSH1 0x40 MLOAD DUP1 SWAP2 SUB SWAP1 RETURN JUMPDEST PUSH2 0x4BE PUSH1 0x4 DUP1 CALLDATASIZE SUB PUSH1 0x20 DUP2 LT ISZERO PUSH2 0x492 JUMPI PUSH1 0x0 DUP1 REVERT JUMPDEST DUP2 ADD SWAP1 DUP1 DUP1 CALLDATALOAD PUSH20 0xFFFFFFFFFFFFFFFFFFFFFFFFFFFFFFFFFFFFFFFF AND SWAP1 PUSH1 0x20 ADD SWAP1 SWAP3 SWAP2 SWAP1 POP POP POP PUSH2 0xC29 JUMP JUMPDEST PUSH1 0x40 MLOAD DUP1 DUP3 ISZERO ISZERO ISZERO ISZERO DUP2 MSTORE PUSH1 0x20 ADD SWAP2 POP POP PUSH1 0x40 MLOAD DUP1 SWAP2 SUB SWAP1 RETURN JUMPDEST PUSH2 0x51A PUSH1 0x4 DUP1 CALLDATASIZE SUB PUSH1 0x20 DUP2 LT ISZERO PUSH2 0x4EE JUMPI PUSH1 0x0 DUP1 REVERT JUMPDEST DUP2 ADD SWAP1 DUP1 DUP1 CALLDATALOAD PUSH20 0xFFFFFFFFFFFFFFFFFFFFFFFFFFFFFFFFFFFFFFFF AND SWAP1 PUSH1 0x20 ADD SWAP1 SWAP3 SWAP2 SWAP1 POP POP POP PUSH2 0xC49 JUMP JUMPDEST PUSH1 0x40 MLOAD DUP1 DUP3 DUP2 MSTORE PUSH1 0x20 ADD SWAP2 POP POP PUSH1 0x40 MLOAD DUP1 SWAP2 SUB SWAP1 RETURN JUMPDEST PUSH2 0x538 PUSH2 0xC92 JUMP JUMPDEST STOP JUMPDEST PUSH2 0x542 PUSH2 0xEBF JUMP JUMPDEST PUSH1 0x40 MLOAD DUP1 DUP3 PUSH20 0xFFFFFFFFFFFFFFFFFFFFFFFFFFFFFFFFFFFFFFFF AND PUSH20 0xFFFFFFFFFFFFFFFFFFFFFFFFFFFFFFFFFFFFFFFF AND DUP2 MSTORE PUSH1 0x20 ADD SWAP2 POP POP PUSH1 0x40 MLOAD DUP1 SWAP2 SUB SWAP1 RETURN JUMPDEST PUSH2 0x58C PUSH2 0xECE JUMP JUMPDEST PUSH1 0x40 MLOAD DUP1 DUP3 PUSH20 0xFFFFFFFFFFFFFFFFFFFFFFFFFFFFFFFFFFFFFFFF AND PUSH20 0xFFFFFFFFFFFFFFFFFFFFFFFFFFFFFFFFFFFFFFFF AND DUP2 MSTORE PUSH1 0x20 ADD SWAP2 POP POP PUSH1 0x40 MLOAD DUP1 SWAP2 SUB SWAP1 RETURN JUMPDEST PUSH2 0x5D6 PUSH2 0xEF7 JUMP JUMPDEST PUSH1 0x40 MLOAD DUP1 DUP1 PUSH1 0x20 ADD DUP3 DUP2 SUB DUP3 MSTORE DUP4 DUP2 DUP2 MLOAD DUP2 MSTORE PUSH1 0x20 ADD SWAP2 POP DUP1 MLOAD SWAP1 PUSH1 0x20 ADD SWAP1 DUP1 DUP4 DUP4 PUSH1 0x0 JUMPDEST DUP4 DUP2 LT ISZERO PUSH2 0x616 JUMPI DUP1 DUP3 ADD MLOAD DUP2 DUP5 ADD MSTORE PUSH1 0x20 DUP2 ADD SWAP1 POP PUSH2 0x5FB JUMP JUMPDEST POP POP POP POP SWAP1 POP SWAP1 DUP2 ADD SWAP1 PUSH1 0x1F AND DUP1 ISZERO PUSH2 0x643 JUMPI DUP1 DUP3 SUB DUP1 MLOAD PUSH1 0x1 DUP4 PUSH1 0x20 SUB PUSH2 0x100 EXP SUB NOT AND DUP2 MSTORE PUSH1 0x20 ADD SWAP2 POP JUMPDEST POP SWAP3 POP POP POP PUSH1 0x40 MLOAD DUP1 SWAP2 SUB SWAP1 RETURN JUMPDEST PUSH2 0x659 PUSH2 0xF99 JUMP JUMPDEST PUSH1 0x40 MLOAD DUP1 DUP3 DUP2 MSTORE PUSH1 0x20 ADD SWAP2 POP POP PUSH1 0x40 MLOAD DUP1 SWAP2 SUB SWAP1 RETURN JUMPDEST PUSH2 0x6BB PUSH1 0x4 DUP1 CALLDATASIZE SUB PUSH1 0x40 DUP2 LT ISZERO PUSH2 0x685 JUMPI PUSH1 0x0 DUP1 REVERT JUMPDEST DUP2 ADD SWAP1 DUP1 DUP1 CALLDATALOAD PUSH20 0xFFFFFFFFFFFFFFFFFFFFFFFFFFFFFFFFFFFFFFFF AND SWAP1 PUSH1 0x20 ADD SWAP1 SWAP3 SWAP2 SWAP1 DUP1 CALLDATALOAD SWAP1 PUSH1 0x20 ADD SWAP1 SWAP3 SWAP2 SWAP1 POP POP POP PUSH2 0xFA1 JUMP JUMPDEST PUSH1 0x40 MLOAD DUP1 DUP3 ISZERO ISZERO ISZERO ISZERO DUP2 MSTORE PUSH1 0x20 ADD SWAP2 POP POP PUSH1 0x40 MLOAD DUP1 SWAP2 SUB SWAP1 RETURN JUMPDEST PUSH2 0x701 PUSH1 0x4 DUP1 CALLDATASIZE SUB PUSH1 0x20 DUP2 LT ISZERO PUSH2 0x6EB JUMPI PUSH1 0x0 DUP1 REVERT JUMPDEST DUP2 ADD SWAP1 DUP1 DUP1 CALLDATALOAD SWAP1 PUSH1 0x20 ADD SWAP1 SWAP3 SWAP2 SWAP1 POP POP POP PUSH2 0x1046 JUMP JUMPDEST STOP JUMPDEST PUSH2 0x74F PUSH1 0x4 DUP1 CALLDATASIZE SUB PUSH1 0x40 DUP2 LT ISZERO PUSH2 0x719 JUMPI PUSH1 0x0 DUP1 REVERT JUMPDEST DUP2 ADD SWAP1 DUP1 DUP1 CALLDATALOAD PUSH20 0xFFFFFFFFFFFFFFFFFFFFFFFFFFFFFFFFFFFFFFFF AND SWAP1 PUSH1 0x20 ADD SWAP1 SWAP3 SWAP2 SWAP1 DUP1 CALLDATALOAD SWAP1 PUSH1 0x20 ADD SWAP1 SWAP3 SWAP2 SWAP1 POP POP POP PUSH2 0x1274 JUMP JUMPDEST PUSH1 0x40 MLOAD DUP1 DUP3 ISZERO ISZERO ISZERO ISZERO DUP2 MSTORE PUSH1 0x20 ADD SWAP2 POP POP PUSH1 0x40 MLOAD DUP1 SWAP2 SUB SWAP1 RETURN JUMPDEST PUSH2 0x7AB PUSH1 0x4 DUP1 CALLDATASIZE SUB PUSH1 0x20 DUP2 LT ISZERO PUSH2 0x77F JUMPI PUSH1 0x0 DUP1 REVERT JUMPDEST DUP2 ADD SWAP1 DUP1 DUP1 CALLDATALOAD PUSH20 0xFFFFFFFFFFFFFFFFFFFFFFFFFFFFFFFFFFFFFFFF AND SWAP1 PUSH1 0x20 ADD SWAP1 SWAP3 SWAP2 SWAP1 POP POP POP PUSH2 0x1290 JUMP JUMPDEST STOP JUMPDEST PUSH2 0x7B5 PUSH2 0x1459 JUMP JUMPDEST PUSH1 0x40 MLOAD DUP1 DUP3 PUSH20 0xFFFFFFFFFFFFFFFFFFFFFFFFFFFFFFFFFFFFFFFF AND PUSH20 0xFFFFFFFFFFFFFFFFFFFFFFFFFFFFFFFFFFFFFFFF AND DUP2 MSTORE PUSH1 0x20 ADD SWAP2 POP POP PUSH1 0x40 MLOAD DUP1 SWAP2 SUB SWAP1 RETURN JUMPDEST PUSH2 0x839 PUSH1 0x4 DUP1 CALLDATASIZE SUB PUSH1 0x20 DUP2 LT ISZERO PUSH2 0x80D JUMPI PUSH1 0x0 DUP1 REVERT JUMPDEST DUP2 ADD SWAP1 DUP1 DUP1 CALLDATALOAD PUSH20 0xFFFFFFFFFFFFFFFFFFFFFFFFFFFFFFFFFFFFFFFF AND SWAP1 PUSH1 0x20 ADD SWAP1 SWAP3 SWAP2 SWAP1 POP POP POP PUSH2 0x147E JUMP JUMPDEST STOP JUMPDEST PUSH2 0x89D PUSH1 0x4 DUP1 CALLDATASIZE SUB PUSH1 0x40 DUP2 LT ISZERO PUSH2 0x851 JUMPI PUSH1 0x0 DUP1 REVERT JUMPDEST DUP2 ADD SWAP1 DUP1 DUP1 CALLDATALOAD PUSH20 0xFFFFFFFFFFFFFFFFFFFFFFFFFFFFFFFFFFFFFFFF AND SWAP1 PUSH1 0x20 ADD SWAP1 SWAP3 SWAP2 SWAP1 DUP1 CALLDATALOAD PUSH20 0xFFFFFFFFFFFFFFFFFFFFFFFFFFFFFFFFFFFFFFFF AND SWAP1 PUSH1 0x20 ADD SWAP1 SWAP3 SWAP2 SWAP1 POP POP POP PUSH2 0x1647 JUMP JUMPDEST PUSH1 0x40 MLOAD DUP1 DUP3 DUP2 MSTORE PUSH1 0x20 ADD SWAP2 POP POP PUSH1 0x40 MLOAD DUP1 SWAP2 SUB SWAP1 RETURN JUMPDEST PUSH2 0x8F5 PUSH1 0x4 DUP1 CALLDATASIZE SUB PUSH1 0x20 DUP2 LT ISZERO PUSH2 0x8C9 JUMPI PUSH1 0x0 DUP1 REVERT JUMPDEST DUP2 ADD SWAP1 DUP1 DUP1 CALLDATALOAD PUSH20 0xFFFFFFFFFFFFFFFFFFFFFFFFFFFFFFFFFFFFFFFF AND SWAP1 PUSH1 0x20 ADD SWAP1 SWAP3 SWAP2 SWAP1 POP POP POP PUSH2 0x16CE JUMP JUMPDEST PUSH1 0x40 MLOAD DUP1 DUP3 ISZERO ISZERO ISZERO ISZERO DUP2 MSTORE PUSH1 0x20 ADD SWAP2 POP POP PUSH1 0x40 MLOAD DUP1 SWAP2 SUB SWAP1 RETURN JUMPDEST PUSH2 0x951 PUSH1 0x4 DUP1 CALLDATASIZE SUB PUSH1 0x20 DUP2 LT ISZERO PUSH2 0x925 JUMPI PUSH1 0x0 DUP1 REVERT JUMPDEST DUP2 ADD SWAP1 DUP1 DUP1 CALLDATALOAD PUSH20 0xFFFFFFFFFFFFFFFFFFFFFFFFFFFFFFFFFFFFFFFF AND SWAP1 PUSH1 0x20 ADD SWAP1 SWAP3 SWAP2 SWAP1 POP POP POP PUSH2 0x16EE JUMP JUMPDEST STOP JUMPDEST PUSH2 0x97F PUSH1 0x4 DUP1 CALLDATASIZE SUB PUSH1 0x20 DUP2 LT ISZERO PUSH2 0x969 JUMPI PUSH1 0x0 DUP1 REVERT JUMPDEST DUP2 ADD SWAP1 DUP1 DUP1 CALLDATALOAD SWAP1 PUSH1 0x20 ADD SWAP1 SWAP3 SWAP2 SWAP1 POP POP POP PUSH2 0x1868 JUMP JUMPDEST PUSH1 0x40 MLOAD DUP1 DUP3 PUSH20 0xFFFFFFFFFFFFFFFFFFFFFFFFFFFFFFFFFFFFFFFF AND PUSH20 0xFFFFFFFFFFFFFFFFFFFFFFFFFFFFFFFFFFFFFFFF AND DUP2 MSTORE PUSH1 0x20 ADD SWAP2 POP POP PUSH1 0x40 MLOAD DUP1 SWAP2 SUB SWAP1 RETURN JUMPDEST PUSH2 0x9CB CALLER DUP3 PUSH2 0x18A4 JUMP JUMPDEST POP JUMP JUMPDEST PUSH1 0x60 PUSH1 0x7 DUP1 SLOAD PUSH1 0x1 DUP2 PUSH1 0x1 AND ISZERO PUSH2 0x100 MUL SUB AND PUSH1 0x2 SWAP1 DIV DUP1 PUSH1 0x1F ADD PUSH1 0x20 DUP1 SWAP2 DIV MUL PUSH1 0x20 ADD PUSH1 0x40 MLOAD SWAP1 DUP2 ADD PUSH1 0x40 MSTORE DUP1 SWAP3 SWAP2 SWAP1 DUP2 DUP2 MSTORE PUSH1 0x20 ADD DUP3 DUP1 SLOAD PUSH1 0x1 DUP2 PUSH1 0x1 AND ISZERO PUSH2 0x100 MUL SUB AND PUSH1 0x2 SWAP1 DIV DUP1 ISZERO PUSH2 0xA66 JUMPI DUP1 PUSH1 0x1F LT PUSH2 0xA3B JUMPI PUSH2 0x100 DUP1 DUP4 SLOAD DIV MUL DUP4 MSTORE SWAP2 PUSH1 0x20 ADD SWAP2 PUSH2 0xA66 JUMP JUMPDEST DUP3 ADD SWAP2 SWAP1 PUSH1 0x0 MSTORE PUSH1 0x20 PUSH1 0x0 KECCAK256 SWAP1 JUMPDEST DUP2 SLOAD DUP2 MSTORE SWAP1 PUSH1 0x1 ADD SWAP1 PUSH1 0x20 ADD DUP1 DUP4 GT PUSH2 0xA49 JUMPI DUP3 SWAP1 SUB PUSH1 0x1F AND DUP3 ADD SWAP2 JUMPDEST POP POP POP POP POP SWAP1 POP SWAP1 JUMP JUMPDEST PUSH1 0x0 PUSH2 0xA7D CALLER DUP5 DUP5 PUSH2 0x1A44 JUMP JUMPDEST PUSH1 0x1 SWAP1 POP SWAP3 SWAP2 POP POP JUMP JUMPDEST PUSH1 0x0 PUSH1 0x6 SLOAD SWAP1 POP SWAP1 JUMP JUMPDEST PUSH1 0x0 PUSH2 0xA9E DUP5 DUP5 DUP5 PUSH2 0x1C3B JUMP JUMPDEST PUSH2 0xB37 DUP5 CALLER PUSH2 0xB32 DUP6 PUSH1 0x2 PUSH1 0x0 DUP11 PUSH20 0xFFFFFFFFFFFFFFFFFFFFFFFFFFFFFFFFFFFFFFFF AND PUSH20 0xFFFFFFFFFFFFFFFFFFFFFFFFFFFFFFFFFFFFFFFF AND DUP2 MSTORE PUSH1 0x20 ADD SWAP1 DUP2 MSTORE PUSH1 0x20 ADD PUSH1 0x0 KECCAK256 PUSH1 0x0 CALLER PUSH20 0xFFFFFFFFFFFFFFFFFFFFFFFFFFFFFFFFFFFFFFFF AND PUSH20 0xFFFFFFFFFFFFFFFFFFFFFFFFFFFFFFFFFFFFFFFF AND DUP2 MSTORE PUSH1 0x20 ADD SWAP1 DUP2 MSTORE PUSH1 0x20 ADD PUSH1 0x0 KECCAK256 SLOAD PUSH2 0x1EDB SWAP1 SWAP2 SWAP1 PUSH4 0xFFFFFFFF AND JUMP JUMPDEST PUSH2 0x1A44 JUMP JUMPDEST PUSH1 0x1 SWAP1 POP SWAP4 SWAP3 POP POP POP JUMP JUMPDEST PUSH1 0x0 PUSH2 0xB57 DUP5 DUP5 PUSH2 0xB52 DUP6 PUSH2 0x1F64 JUMP JUMPDEST PUSH2 0xA91 JUMP JUMPDEST SWAP1 POP SWAP4 SWAP3 POP POP POP JUMP JUMPDEST PUSH1 0x0 PUSH1 0x5 DUP1 SLOAD SWAP1 POP SWAP1 POP SWAP1 JUMP JUMPDEST PUSH1 0x0 PUSH1 0x9 PUSH1 0x0 SWAP1 SLOAD SWAP1 PUSH2 0x100 EXP SWAP1 DIV PUSH1 0xFF AND SWAP1 POP SWAP1 JUMP JUMPDEST PUSH1 0x0 PUSH2 0xC1F CALLER DUP5 PUSH2 0xC1A DUP6 PUSH1 0x2 PUSH1 0x0 CALLER PUSH20 0xFFFFFFFFFFFFFFFFFFFFFFFFFFFFFFFFFFFFFFFF AND PUSH20 0xFFFFFFFFFFFFFFFFFFFFFFFFFFFFFFFFFFFFFFFF AND DUP2 MSTORE PUSH1 0x20 ADD SWAP1 DUP2 MSTORE PUSH1 0x20 ADD PUSH1 0x0 KECCAK256 PUSH1 0x0 DUP10 PUSH20 0xFFFFFFFFFFFFFFFFFFFFFFFFFFFFFFFFFFFFFFFF AND PUSH20 0xFFFFFFFFFFFFFFFFFFFFFFFFFFFFFFFFFFFFFFFF AND DUP2 MSTORE PUSH1 0x20 ADD SWAP1 DUP2 MSTORE PUSH1 0x20 ADD PUSH1 0x0 KECCAK256 SLOAD PUSH2 0x1FA1 SWAP1 SWAP2 SWAP1 PUSH4 0xFFFFFFFF AND JUMP JUMPDEST PUSH2 0x1A44 JUMP JUMPDEST PUSH1 0x1 SWAP1 POP SWAP3 SWAP2 POP POP JUMP JUMPDEST PUSH1 0x4 PUSH1 0x20 MSTORE DUP1 PUSH1 0x0 MSTORE PUSH1 0x40 PUSH1 0x0 KECCAK256 PUSH1 0x0 SWAP2 POP SLOAD SWAP1 PUSH2 0x100 EXP SWAP1 DIV PUSH1 0xFF AND DUP2 JUMP JUMPDEST PUSH1 0x0 PUSH1 0x1 PUSH1 0x0 DUP4 PUSH20 0xFFFFFFFFFFFFFFFFFFFFFFFFFFFFFFFFFFFFFFFF AND PUSH20 0xFFFFFFFFFFFFFFFFFFFFFFFFFFFFFFFFFFFFFFFF AND DUP2 MSTORE PUSH1 0x20 ADD SWAP1 DUP2 MSTORE PUSH1 0x20 ADD PUSH1 0x0 KECCAK256 SLOAD SWAP1 POP SWAP2 SWAP1 POP JUMP JUMPDEST PUSH2 0xC9A PUSH2 0x2029 JUMP JUMPDEST PUSH20 0xFFFFFFFFFFFFFFFFFFFFFFFFFFFFFFFFFFFFFFFF AND PUSH1 0x0 DUP1 SWAP1 SLOAD SWAP1 PUSH2 0x100 EXP SWAP1 DIV PUSH20 0xFFFFFFFFFFFFFFFFFFFFFFFFFFFFFFFFFFFFFFFF AND PUSH20 0xFFFFFFFFFFFFFFFFFFFFFFFFFFFFFFFFFFFFFFFF AND EQ PUSH2 0xD5B JUMPI PUSH1 0x40 MLOAD PUSH32 0x8C379A000000000000000000000000000000000000000000000000000000000 DUP2 MSTORE PUSH1 0x4 ADD DUP1 DUP1 PUSH1 0x20 ADD DUP3 DUP2 SUB DUP3 MSTORE PUSH1 0x20 DUP2 MSTORE PUSH1 0x20 ADD DUP1 PUSH32 0x4F776E61626C653A2063616C6C6572206973206E6F7420746865206F776E6572 DUP2 MSTORE POP PUSH1 0x20 ADD SWAP2 POP POP PUSH1 0x40 MLOAD DUP1 SWAP2 SUB SWAP1 REVERT JUMPDEST CALLER PUSH20 0xFFFFFFFFFFFFFFFFFFFFFFFFFFFFFFFFFFFFFFFF AND PUSH1 0x0 DUP1 SWAP1 SLOAD SWAP1 PUSH2 0x100 EXP SWAP1 DIV PUSH20 0xFFFFFFFFFFFFFFFFFFFFFFFFFFFFFFFFFFFFFFFF AND PUSH20 0xFFFFFFFFFFFFFFFFFFFFFFFFFFFFFFFFFFFFFFFF AND EQ PUSH2 0xE00 JUMPI PUSH1 0x40 MLOAD PUSH32 0x8C379A000000000000000000000000000000000000000000000000000000000 DUP2 MSTORE PUSH1 0x4 ADD DUP1 DUP1 PUSH1 0x20 ADD DUP3 DUP2 SUB DUP3 MSTORE PUSH1 0x26 DUP2 MSTORE PUSH1 0x20 ADD DUP1 PUSH2 0x247F PUSH1 0x26 SWAP2 CODECOPY PUSH1 0x40 ADD SWAP2 POP POP PUSH1 0x40 MLOAD DUP1 SWAP2 SUB SWAP1 REVERT JUMPDEST PUSH1 0x0 PUSH20 0xFFFFFFFFFFFFFFFFFFFFFFFFFFFFFFFFFFFFFFFF AND PUSH1 0x0 DUP1 SWAP1 SLOAD SWAP1 PUSH2 0x100 EXP SWAP1 DIV PUSH20 0xFFFFFFFFFFFFFFFFFFFFFFFFFFFFFFFFFFFFFFFF AND PUSH20 0xFFFFFFFFFFFFFFFFFFFFFFFFFFFFFFFFFFFFFFFF AND PUSH32 0x8BE0079C531659141344CD1FD0A4F28419497F9722A3DAAFE3B4186F6B6457E0 PUSH1 0x40 MLOAD PUSH1 0x40 MLOAD DUP1 SWAP2 SUB SWAP1 LOG3 PUSH1 0x0 DUP1 PUSH1 0x0 PUSH2 0x100 EXP DUP2 SLOAD DUP2 PUSH20 0xFFFFFFFFFFFFFFFFFFFFFFFFFFFFFFFFFFFFFFFF MUL NOT AND SWAP1 DUP4 PUSH20 0xFFFFFFFFFFFFFFFFFFFFFFFFFFFFFFFFFFFFFFFF AND MUL OR SWAP1 SSTORE POP JUMP JUMPDEST PUSH1 0x0 PUSH2 0xEC9 PUSH2 0xECE JUMP JUMPDEST SWAP1 POP SWAP1 JUMP JUMPDEST PUSH1 0x0 DUP1 PUSH1 0x0 SWAP1 SLOAD SWAP1 PUSH2 0x100 EXP SWAP1 DIV PUSH20 0xFFFFFFFFFFFFFFFFFFFFFFFFFFFFFFFFFFFFFFFF AND SWAP1 POP SWAP1 JUMP JUMPDEST PUSH1 0x60 PUSH1 0x8 DUP1 SLOAD PUSH1 0x1 DUP2 PUSH1 0x1 AND ISZERO PUSH2 0x100 MUL SUB AND PUSH1 0x2 SWAP1 DIV DUP1 PUSH1 0x1F ADD PUSH1 0x20 DUP1 SWAP2 DIV MUL PUSH1 0x20 ADD PUSH1 0x40 MLOAD SWAP1 DUP2 ADD PUSH1 0x40 MSTORE DUP1 SWAP3 SWAP2 SWAP1 DUP2 DUP2 MSTORE PUSH1 0x20 ADD DUP3 DUP1 SLOAD PUSH1 0x1 DUP2 PUSH1 0x1 AND ISZERO PUSH2 0x100 MUL SUB AND PUSH1 0x2 SWAP1 DIV DUP1 ISZERO PUSH2 0xF8F JUMPI DUP1 PUSH1 0x1F LT PUSH2 0xF64 JUMPI PUSH2 0x100 DUP1 DUP4 SLOAD DIV MUL DUP4 MSTORE SWAP2 PUSH1 0x20 ADD SWAP2 PUSH2 0xF8F JUMP JUMPDEST DUP3 ADD SWAP2 SWAP1 PUSH1 0x0 MSTORE PUSH1 0x20 PUSH1 0x0 KECCAK256 SWAP1 JUMPDEST DUP2 SLOAD DUP2 MSTORE SWAP1 PUSH1 0x1 ADD SWAP1 PUSH1 0x20 ADD DUP1 DUP4 GT PUSH2 0xF72 JUMPI DUP3 SWAP1 SUB PUSH1 0x1F AND DUP3 ADD SWAP2 JUMPDEST POP POP POP POP POP SWAP1 POP SWAP1 JUMP JUMPDEST PUSH1 0x0 SELFBALANCE SWAP1 POP SWAP1 JUMP JUMPDEST PUSH1 0x0 PUSH2 0x103C CALLER DUP5 PUSH2 0x1037 DUP6 PUSH1 0x2 PUSH1 0x0 CALLER PUSH20 0xFFFFFFFFFFFFFFFFFFFFFFFFFFFFFFFFFFFFFFFF AND PUSH20 0xFFFFFFFFFFFFFFFFFFFFFFFFFFFFFFFFFFFFFFFF AND DUP2 MSTORE PUSH1 0x20 ADD SWAP1 DUP2 MSTORE PUSH1 0x20 ADD PUSH1 0x0 KECCAK256 PUSH1 0x0 DUP10 PUSH20 0xFFFFFFFFFFFFFFFFFFFFFFFFFFFFFFFFFFFFFFFF AND PUSH20 0xFFFFFFFFFFFFFFFFFFFFFFFFFFFFFFFFFFFFFFFF AND DUP2 MSTORE PUSH1 0x20 ADD SWAP1 DUP2 MSTORE PUSH1 0x20 ADD PUSH1 0x0 KECCAK256 SLOAD PUSH2 0x1EDB SWAP1 SWAP2 SWAP1 PUSH4 0xFFFFFFFF AND JUMP JUMPDEST PUSH2 0x1A44 JUMP JUMPDEST PUSH1 0x1 SWAP1 POP SWAP3 SWAP2 POP POP JUMP JUMPDEST PUSH2 0x104E PUSH2 0x2029 JUMP JUMPDEST PUSH20 0xFFFFFFFFFFFFFFFFFFFFFFFFFFFFFFFFFFFFFFFF AND PUSH1 0x0 DUP1 SWAP1 SLOAD SWAP1 PUSH2 0x100 EXP SWAP1 DIV PUSH20 0xFFFFFFFFFFFFFFFFFFFFFFFFFFFFFFFFFFFFFFFF AND PUSH20 0xFFFFFFFFFFFFFFFFFFFFFFFFFFFFFFFFFFFFFFFF AND EQ PUSH2 0x110F JUMPI PUSH1 0x40 MLOAD PUSH32 0x8C379A000000000000000000000000000000000000000000000000000000000 DUP2 MSTORE PUSH1 0x4 ADD DUP1 DUP1 PUSH1 0x20 ADD DUP3 DUP2 SUB DUP3 MSTORE PUSH1 0x20 DUP2 MSTORE PUSH1 0x20 ADD DUP1 PUSH32 0x4F776E61626C653A2063616C6C6572206973206E6F7420746865206F776E6572 DUP2 MSTORE POP PUSH1 0x20 ADD SWAP2 POP POP PUSH1 0x40 MLOAD DUP1 SWAP2 SUB SWAP1 REVERT JUMPDEST CALLER PUSH20 0xFFFFFFFFFFFFFFFFFFFFFFFFFFFFFFFFFFFFFFFF AND PUSH1 0x0 DUP1 SWAP1 SLOAD SWAP1 PUSH2 0x100 EXP SWAP1 DIV PUSH20 0xFFFFFFFFFFFFFFFFFFFFFFFFFFFFFFFFFFFFFFFF AND PUSH20 0xFFFFFFFFFFFFFFFFFFFFFFFFFFFFFFFFFFFFFFFF AND EQ PUSH2 0x11B4 JUMPI PUSH1 0x40 MLOAD PUSH32 0x8C379A000000000000000000000000000000000000000000000000000000000 DUP2 MSTORE PUSH1 0x4 ADD DUP1 DUP1 PUSH1 0x20 ADD DUP3 DUP2 SUB DUP3 MSTORE PUSH1 0x26 DUP2 MSTORE PUSH1 0x20 ADD DUP1 PUSH2 0x247F PUSH1 0x26 SWAP2 CODECOPY PUSH1 0x40 ADD SWAP2 POP POP PUSH1 0x40 MLOAD DUP1 SWAP2 SUB SWAP1 REVERT JUMPDEST DUP1 SELFBALANCE LT ISZERO PUSH2 0x122A JUMPI PUSH1 0x40 MLOAD PUSH32 0x8C379A000000000000000000000000000000000000000000000000000000000 DUP2 MSTORE PUSH1 0x4 ADD DUP1 DUP1 PUSH1 0x20 ADD DUP3 DUP2 SUB DUP3 MSTORE PUSH1 0x13 DUP2 MSTORE PUSH1 0x20 ADD DUP1 PUSH32 0x696E73756666696369656E742066756E64732E00000000000000000000000000 DUP2 MSTORE POP PUSH1 0x20 ADD SWAP2 POP POP PUSH1 0x40 MLOAD DUP1 SWAP2 SUB SWAP1 REVERT JUMPDEST CALLER PUSH20 0xFFFFFFFFFFFFFFFFFFFFFFFFFFFFFFFFFFFFFFFF AND PUSH2 0x8FC DUP3 SWAP1 DUP2 ISZERO MUL SWAP1 PUSH1 0x40 MLOAD PUSH1 0x0 PUSH1 0x40 MLOAD DUP1 DUP4 SUB DUP2 DUP6 DUP9 DUP9 CALL SWAP4 POP POP POP POP ISZERO DUP1 ISZERO PUSH2 0x1270 JUMPI RETURNDATASIZE PUSH1 0x0 DUP1 RETURNDATACOPY RETURNDATASIZE PUSH1 0x0 REVERT JUMPDEST POP POP JUMP JUMPDEST PUSH1 0x0 PUSH2 0x1288 DUP4 PUSH2 0x1283 DUP5 PUSH2 0x1F64 JUMP JUMPDEST PUSH2 0x2031 JUMP JUMPDEST SWAP1 POP SWAP3 SWAP2 POP POP JUMP JUMPDEST PUSH2 0x1298 PUSH2 0x2029 JUMP JUMPDEST PUSH20 0xFFFFFFFFFFFFFFFFFFFFFFFFFFFFFFFFFFFFFFFF AND PUSH1 0x0 DUP1 SWAP1 SLOAD SWAP1 PUSH2 0x100 EXP SWAP1 DIV PUSH20 0xFFFFFFFFFFFFFFFFFFFFFFFFFFFFFFFFFFFFFFFF AND PUSH20 0xFFFFFFFFFFFFFFFFFFFFFFFFFFFFFFFFFFFFFFFF AND EQ PUSH2 0x1359 JUMPI PUSH1 0x40 MLOAD PUSH32 0x8C379A000000000000000000000000000000000000000000000000000000000 DUP2 MSTORE PUSH1 0x4 ADD DUP1 DUP1 PUSH1 0x20 ADD DUP3 DUP2 SUB DUP3 MSTORE PUSH1 0x20 DUP2 MSTORE PUSH1 0x20 ADD DUP1 PUSH32 0x4F776E61626C653A2063616C6C6572206973206E6F7420746865206F776E6572 DUP2 MSTORE POP PUSH1 0x20 ADD SWAP2 POP POP PUSH1 0x40 MLOAD DUP1 SWAP2 SUB SWAP1 REVERT JUMPDEST CALLER PUSH20 0xFFFFFFFFFFFFFFFFFFFFFFFFFFFFFFFFFFFFFFFF AND PUSH1 0x0 DUP1 SWAP1 SLOAD SWAP1 PUSH2 0x100 EXP SWAP1 DIV PUSH20 0xFFFFFFFFFFFFFFFFFFFFFFFFFFFFFFFFFFFFFFFF AND PUSH20 0xFFFFFFFFFFFFFFFFFFFFFFFFFFFFFFFFFFFFFFFF AND EQ PUSH2 0x13FE JUMPI PUSH1 0x40 MLOAD PUSH32 0x8C379A000000000000000000000000000000000000000000000000000000000 DUP2 MSTORE PUSH1 0x4 ADD DUP1 DUP1 PUSH1 0x20 ADD DUP3 DUP2 SUB DUP3 MSTORE PUSH1 0x26 DUP2 MSTORE PUSH1 0x20 ADD DUP1 PUSH2 0x247F PUSH1 0x26 SWAP2 CODECOPY PUSH1 0x40 ADD SWAP2 POP POP PUSH1 0x40 MLOAD DUP1 SWAP2 SUB SWAP1 REVERT JUMPDEST PUSH1 0x0 PUSH1 0x4 PUSH1 0x0 DUP4 PUSH20 0xFFFFFFFFFFFFFFFFFFFFFFFFFFFFFFFFFFFFFFFF AND PUSH20 0xFFFFFFFFFFFFFFFFFFFFFFFFFFFFFFFFFFFFFFFF AND DUP2 MSTORE PUSH1 0x20 ADD SWAP1 DUP2 MSTORE PUSH1 0x20 ADD PUSH1 0x0 KECCAK256 PUSH1 0x0 PUSH2 0x100 EXP DUP2 SLOAD DUP2 PUSH1 0xFF MUL NOT AND SWAP1 DUP4 ISZERO ISZERO MUL OR SWAP1 SSTORE POP POP JUMP JUMPDEST PUSH1 0x0 DUP1 SWAP1 SLOAD SWAP1 PUSH2 0x100 EXP SWAP1 DIV PUSH20 0xFFFFFFFFFFFFFFFFFFFFFFFFFFFFFFFFFFFFFFFF AND DUP2 JUMP JUMPDEST PUSH2 0x1486 PUSH2 0x2029 JUMP JUMPDEST PUSH20 0xFFFFFFFFFFFFFFFFFFFFFFFFFFFFFFFFFFFFFFFF AND PUSH1 0x0 DUP1 SWAP1 SLOAD SWAP1 PUSH2 0x100 EXP SWAP1 DIV PUSH20 0xFFFFFFFFFFFFFFFFFFFFFFFFFFFFFFFFFFFFFFFF AND PUSH20 0xFFFFFFFFFFFFFFFFFFFFFFFFFFFFFFFFFFFFFFFF AND EQ PUSH2 0x1547 JUMPI PUSH1 0x40 MLOAD PUSH32 0x8C379A000000000000000000000000000000000000000000000000000000000 DUP2 MSTORE PUSH1 0x4 ADD DUP1 DUP1 PUSH1 0x20 ADD DUP3 DUP2 SUB DUP3 MSTORE PUSH1 0x20 DUP2 MSTORE PUSH1 0x20 ADD DUP1 PUSH32 0x4F776E61626C653A2063616C6C6572206973206E6F7420746865206F776E6572 DUP2 MSTORE POP PUSH1 0x20 ADD SWAP2 POP POP PUSH1 0x40 MLOAD DUP1 SWAP2 SUB SWAP1 REVERT JUMPDEST CALLER PUSH20 0xFFFFFFFFFFFFFFFFFFFFFFFFFFFFFFFFFFFFFFFF AND PUSH1 0x0 DUP1 SWAP1 SLOAD SWAP1 PUSH2 0x100 EXP SWAP1 DIV PUSH20 0xFFFFFFFFFFFFFFFFFFFFFFFFFFFFFFFFFFFFFFFF AND PUSH20 0xFFFFFFFFFFFFFFFFFFFFFFFFFFFFFFFFFFFFFFFF AND EQ PUSH2 0x15EC JUMPI PUSH1 0x40 MLOAD PUSH32 0x8C379A000000000000000000000000000000000000000000000000000000000 DUP2 MSTORE PUSH1 0x4 ADD DUP1 DUP1 PUSH1 0x20 ADD DUP3 DUP2 SUB DUP3 MSTORE PUSH1 0x26 DUP2 MSTORE PUSH1 0x20 ADD DUP1 PUSH2 0x247F PUSH1 0x26 SWAP2 CODECOPY PUSH1 0x40 ADD SWAP2 POP POP PUSH1 0x40 MLOAD DUP1 SWAP2 SUB SWAP1 REVERT JUMPDEST PUSH1 0x1 PUSH1 0x4 PUSH1 0x0 DUP4 PUSH20 0xFFFFFFFFFFFFFFFFFFFFFFFFFFFFFFFFFFFFFFFF AND PUSH20 0xFFFFFFFFFFFFFFFFFFFFFFFFFFFFFFFFFFFFFFFF AND DUP2 MSTORE PUSH1 0x20 ADD SWAP1 DUP2 MSTORE PUSH1 0x20 ADD PUSH1 0x0 KECCAK256 PUSH1 0x0 PUSH2 0x100 EXP DUP2 SLOAD DUP2 PUSH1 0xFF MUL NOT AND SWAP1 DUP4 ISZERO ISZERO MUL OR SWAP1 SSTORE POP POP JUMP JUMPDEST PUSH1 0x0 PUSH1 0x2 PUSH1 0x0 DUP5 PUSH20 0xFFFFFFFFFFFFFFFFFFFFFFFFFFFFFFFFFFFFFFFF AND PUSH20 0xFFFFFFFFFFFFFFFFFFFFFFFFFFFFFFFFFFFFFFFF AND DUP2 MSTORE PUSH1 0x20 ADD SWAP1 DUP2 MSTORE PUSH1 0x20 ADD PUSH1 0x0 KECCAK256 PUSH1 0x0 DUP4 PUSH20 0xFFFFFFFFFFFFFFFFFFFFFFFFFFFFFFFFFFFFFFFF AND PUSH20 0xFFFFFFFFFFFFFFFFFFFFFFFFFFFFFFFFFFFFFFFF AND DUP2 MSTORE PUSH1 0x20 ADD SWAP1 DUP2 MSTORE PUSH1 0x20 ADD PUSH1 0x0 KECCAK256 SLOAD SWAP1 POP SWAP3 SWAP2 POP POP JUMP JUMPDEST PUSH1 0x3 PUSH1 0x20 MSTORE DUP1 PUSH1 0x0 MSTORE PUSH1 0x40 PUSH1 0x0 KECCAK256 PUSH1 0x0 SWAP2 POP SLOAD SWAP1 PUSH2 0x100 EXP SWAP1 DIV PUSH1 0xFF AND DUP2 JUMP JUMPDEST PUSH2 0x16F6 PUSH2 0x2029 JUMP JUMPDEST PUSH20 0xFFFFFFFFFFFFFFFFFFFFFFFFFFFFFFFFFFFFFFFF AND PUSH1 0x0 DUP1 SWAP1 SLOAD SWAP1 PUSH2 0x100 EXP SWAP1 DIV PUSH20 0xFFFFFFFFFFFFFFFFFFFFFFFFFFFFFFFFFFFFFFFF AND PUSH20 0xFFFFFFFFFFFFFFFFFFFFFFFFFFFFFFFFFFFFFFFF AND EQ PUSH2 0x17B7 JUMPI PUSH1 0x40 MLOAD PUSH32 0x8C379A000000000000000000000000000000000000000000000000000000000 DUP2 MSTORE PUSH1 0x4 ADD DUP1 DUP1 PUSH1 0x20 ADD DUP3 DUP2 SUB DUP3 MSTORE PUSH1 0x20 DUP2 MSTORE PUSH1 0x20 ADD DUP1 PUSH32 0x4F776E61626C653A2063616C6C6572206973206E6F7420746865206F776E6572 DUP2 MSTORE POP PUSH1 0x20 ADD SWAP2 POP POP PUSH1 0x40 MLOAD DUP1 SWAP2 SUB SWAP1 REVERT JUMPDEST CALLER PUSH20 0xFFFFFFFFFFFFFFFFFFFFFFFFFFFFFFFFFFFFFFFF AND PUSH1 0x0 DUP1 SWAP1 SLOAD SWAP1 PUSH2 0x100 EXP SWAP1 DIV PUSH20 0xFFFFFFFFFFFFFFFFFFFFFFFFFFFFFFFFFFFFFFFF AND PUSH20 0xFFFFFFFFFFFFFFFFFFFFFFFFFFFFFFFFFFFFFFFF AND EQ PUSH2 0x185C JUMPI PUSH1 0x40 MLOAD PUSH32 0x8C379A000000000000000000000000000000000000000000000000000000000 DUP2 MSTORE PUSH1 0x4 ADD DUP1 DUP1 PUSH1 0x20 ADD DUP3 DUP2 SUB DUP3 MSTORE PUSH1 0x26 DUP2 MSTORE PUSH1 0x20 ADD DUP1 PUSH2 0x247F PUSH1 0x26 SWAP2 CODECOPY PUSH1 0x40 ADD SWAP2 POP POP PUSH1 0x40 MLOAD DUP1 SWAP2 SUB SWAP1 REVERT JUMPDEST PUSH2 0x1865 DUP2 PUSH2 0x2048 JUMP JUMPDEST POP JUMP JUMPDEST PUSH1 0x5 DUP2 DUP2 SLOAD DUP2 LT PUSH2 0x1875 JUMPI INVALID JUMPDEST SWAP1 PUSH1 0x0 MSTORE PUSH1 0x20 PUSH1 0x0 KECCAK256 ADD PUSH1 0x0 SWAP2 POP SLOAD SWAP1 PUSH2 0x100 EXP SWAP1 DIV PUSH20 0xFFFFFFFFFFFFFFFFFFFFFFFFFFFFFFFFFFFFFFFF AND DUP2 JUMP JUMPDEST PUSH1 0x0 PUSH20 0xFFFFFFFFFFFFFFFFFFFFFFFFFFFFFFFFFFFFFFFF AND DUP3 PUSH20 0xFFFFFFFFFFFFFFFFFFFFFFFFFFFFFFFFFFFFFFFF AND EQ ISZERO PUSH2 0x192A JUMPI PUSH1 0x40 MLOAD PUSH32 0x8C379A000000000000000000000000000000000000000000000000000000000 DUP2 MSTORE PUSH1 0x4 ADD DUP1 DUP1 PUSH1 0x20 ADD DUP3 DUP2 SUB DUP3 MSTORE PUSH1 0x21 DUP2 MSTORE PUSH1 0x20 ADD DUP1 PUSH2 0x24A5 PUSH1 0x21 SWAP2 CODECOPY PUSH1 0x40 ADD SWAP2 POP POP PUSH1 0x40 MLOAD DUP1 SWAP2 SUB SWAP1 REVERT JUMPDEST PUSH2 0x193F DUP2 PUSH1 0x6 SLOAD PUSH2 0x1EDB SWAP1 SWAP2 SWAP1 PUSH4 0xFFFFFFFF AND JUMP JUMPDEST PUSH1 0x6 DUP2 SWAP1 SSTORE POP PUSH2 0x1997 DUP2 PUSH1 0x1 PUSH1 0x0 DUP6 PUSH20 0xFFFFFFFFFFFFFFFFFFFFFFFFFFFFFFFFFFFFFFFF AND PUSH20 0xFFFFFFFFFFFFFFFFFFFFFFFFFFFFFFFFFFFFFFFF AND DUP2 MSTORE PUSH1 0x20 ADD SWAP1 DUP2 MSTORE PUSH1 0x20 ADD PUSH1 0x0 KECCAK256 SLOAD PUSH2 0x1EDB SWAP1 SWAP2 SWAP1 PUSH4 0xFFFFFFFF AND JUMP JUMPDEST PUSH1 0x1 PUSH1 0x0 DUP5 PUSH20 0xFFFFFFFFFFFFFFFFFFFFFFFFFFFFFFFFFFFFFFFF AND PUSH20 0xFFFFFFFFFFFFFFFFFFFFFFFFFFFFFFFFFFFFFFFF AND DUP2 MSTORE PUSH1 0x20 ADD SWAP1 DUP2 MSTORE PUSH1 0x20 ADD PUSH1 0x0 KECCAK256 DUP2 SWAP1 SSTORE POP PUSH1 0x0 PUSH20 0xFFFFFFFFFFFFFFFFFFFFFFFFFFFFFFFFFFFFFFFF AND DUP3 PUSH20 0xFFFFFFFFFFFFFFFFFFFFFFFFFFFFFFFFFFFFFFFF AND PUSH32 0xDDF252AD1BE2C89B69C2B068FC378DAA952BA7F163C4A11628F55A4DF523B3EF DUP4 PUSH1 0x40 MLOAD DUP1 DUP3 DUP2 MSTORE PUSH1 0x20 ADD SWAP2 POP POP PUSH1 0x40 MLOAD DUP1 SWAP2 SUB SWAP1 LOG3 POP POP JUMP JUMPDEST PUSH1 0x0 PUSH20 0xFFFFFFFFFFFFFFFFFFFFFFFFFFFFFFFFFFFFFFFF AND DUP4 PUSH20 0xFFFFFFFFFFFFFFFFFFFFFFFFFFFFFFFFFFFFFFFF AND EQ ISZERO PUSH2 0x1ACA JUMPI PUSH1 0x40 MLOAD PUSH32 0x8C379A000000000000000000000000000000000000000000000000000000000 DUP2 MSTORE PUSH1 0x4 ADD DUP1 DUP1 PUSH1 0x20 ADD DUP3 DUP2 SUB DUP3 MSTORE PUSH1 0x24 DUP2 MSTORE PUSH1 0x20 ADD DUP1 PUSH2 0x24EB PUSH1 0x24 SWAP2 CODECOPY PUSH1 0x40 ADD SWAP2 POP POP PUSH1 0x40 MLOAD DUP1 SWAP2 SUB SWAP1 REVERT JUMPDEST PUSH1 0x0 PUSH20 0xFFFFFFFFFFFFFFFFFFFFFFFFFFFFFFFFFFFFFFFF AND DUP3 PUSH20 0xFFFFFFFFFFFFFFFFFFFFFFFFFFFFFFFFFFFFFFFF AND EQ ISZERO PUSH2 0x1B50 JUMPI PUSH1 0x40 MLOAD PUSH32 0x8C379A000000000000000000000000000000000000000000000000000000000 DUP2 MSTORE PUSH1 0x4 ADD DUP1 DUP1 PUSH1 0x20 ADD DUP3 DUP2 SUB DUP3 MSTORE PUSH1 0x22 DUP2 MSTORE PUSH1 0x20 ADD DUP1 PUSH2 0x245D PUSH1 0x22 SWAP2 CODECOPY PUSH1 0x40 ADD SWAP2 POP POP PUSH1 0x40 MLOAD DUP1 SWAP2 SUB SWAP1 REVERT JUMPDEST DUP1 PUSH1 0x2 PUSH1 0x0 DUP6 PUSH20 0xFFFFFFFFFFFFFFFFFFFFFFFFFFFFFFFFFFFFFFFF AND PUSH20 0xFFFFFFFFFFFFFFFFFFFFFFFFFFFFFFFFFFFFFFFF AND DUP2 MSTORE PUSH1 0x20 ADD SWAP1 DUP2 MSTORE PUSH1 0x20 ADD PUSH1 0x0 KECCAK256 PUSH1 0x0 DUP5 PUSH20 0xFFFFFFFFFFFFFFFFFFFFFFFFFFFFFFFFFFFFFFFF AND PUSH20 0xFFFFFFFFFFFFFFFFFFFFFFFFFFFFFFFFFFFFFFFF AND DUP2 MSTORE PUSH1 0x20 ADD SWAP1 DUP2 MSTORE PUSH1 0x20 ADD PUSH1 0x0 KECCAK256 DUP2 SWAP1 SSTORE POP DUP2 PUSH20 0xFFFFFFFFFFFFFFFFFFFFFFFFFFFFFFFFFFFFFFFF AND DUP4 PUSH20 0xFFFFFFFFFFFFFFFFFFFFFFFFFFFFFFFFFFFFFFFF AND PUSH32 0x8C5BE1E5EBEC7D5BD14F71427D1E84F3DD0314C0F7B2291E5B200AC8C7C3B925 DUP4 PUSH1 0x40 MLOAD DUP1 DUP3 DUP2 MSTORE PUSH1 0x20 ADD SWAP2 POP POP PUSH1 0x40 MLOAD DUP1 SWAP2 SUB SWAP1 LOG3 POP POP POP JUMP JUMPDEST PUSH1 0x0 PUSH20 0xFFFFFFFFFFFFFFFFFFFFFFFFFFFFFFFFFFFFFFFF AND DUP4 PUSH20 0xFFFFFFFFFFFFFFFFFFFFFFFFFFFFFFFFFFFFFFFF AND EQ ISZERO PUSH2 0x1CC1 JUMPI PUSH1 0x40 MLOAD PUSH32 0x8C379A000000000000000000000000000000000000000000000000000000000 DUP2 MSTORE PUSH1 0x4 ADD DUP1 DUP1 PUSH1 0x20 ADD DUP3 DUP2 SUB DUP3 MSTORE PUSH1 0x25 DUP2 MSTORE PUSH1 0x20 ADD DUP1 PUSH2 0x24C6 PUSH1 0x25 SWAP2 CODECOPY PUSH1 0x40 ADD SWAP2 POP POP PUSH1 0x40 MLOAD DUP1 SWAP2 SUB SWAP1 REVERT JUMPDEST PUSH1 0x0 PUSH20 0xFFFFFFFFFFFFFFFFFFFFFFFFFFFFFFFFFFFFFFFF AND DUP3 PUSH20 0xFFFFFFFFFFFFFFFFFFFFFFFFFFFFFFFFFFFFFFFF AND EQ ISZERO PUSH2 0x1D47 JUMPI PUSH1 0x40 MLOAD PUSH32 0x8C379A000000000000000000000000000000000000000000000000000000000 DUP2 MSTORE PUSH1 0x4 ADD DUP1 DUP1 PUSH1 0x20 ADD DUP3 DUP2 SUB DUP3 MSTORE PUSH1 0x23 DUP2 MSTORE PUSH1 0x20 ADD DUP1 PUSH2 0x2414 PUSH1 0x23 SWAP2 CODECOPY PUSH1 0x40 ADD SWAP2 POP POP PUSH1 0x40 MLOAD DUP1 SWAP2 SUB SWAP1 REVERT JUMPDEST PUSH2 0x1D99 DUP2 PUSH1 0x1 PUSH1 0x0 DUP7 PUSH20 0xFFFFFFFFFFFFFFFFFFFFFFFFFFFFFFFFFFFFFFFF AND PUSH20 0xFFFFFFFFFFFFFFFFFFFFFFFFFFFFFFFFFFFFFFFF AND DUP2 MSTORE PUSH1 0x20 ADD SWAP1 DUP2 MSTORE PUSH1 0x20 ADD PUSH1 0x0 KECCAK256 SLOAD PUSH2 0x1EDB SWAP1 SWAP2 SWAP1 PUSH4 0xFFFFFFFF AND JUMP JUMPDEST PUSH1 0x1 PUSH1 0x0 DUP6 PUSH20 0xFFFFFFFFFFFFFFFFFFFFFFFFFFFFFFFFFFFFFFFF AND PUSH20 0xFFFFFFFFFFFFFFFFFFFFFFFFFFFFFFFFFFFFFFFF AND DUP2 MSTORE PUSH1 0x20 ADD SWAP1 DUP2 MSTORE PUSH1 0x20 ADD PUSH1 0x0 KECCAK256 DUP2 SWAP1 SSTORE POP PUSH2 0x1E2E DUP2 PUSH1 0x1 PUSH1 0x0 DUP6 PUSH20 0xFFFFFFFFFFFFFFFFFFFFFFFFFFFFFFFFFFFFFFFF AND PUSH20 0xFFFFFFFFFFFFFFFFFFFFFFFFFFFFFFFFFFFFFFFF AND DUP2 MSTORE PUSH1 0x20 ADD SWAP1 DUP2 MSTORE PUSH1 0x20 ADD PUSH1 0x0 KECCAK256 SLOAD PUSH2 0x1FA1 SWAP1 SWAP2 SWAP1 PUSH4 0xFFFFFFFF AND JUMP JUMPDEST PUSH1 0x1 PUSH1 0x0 DUP5 PUSH20 0xFFFFFFFFFFFFFFFFFFFFFFFFFFFFFFFFFFFFFFFF AND PUSH20 0xFFFFFFFFFFFFFFFFFFFFFFFFFFFFFFFFFFFFFFFF AND DUP2 MSTORE PUSH1 0x20 ADD SWAP1 DUP2 MSTORE PUSH1 0x20 ADD PUSH1 0x0 KECCAK256 DUP2 SWAP1 SSTORE POP DUP2 PUSH20 0xFFFFFFFFFFFFFFFFFFFFFFFFFFFFFFFFFFFFFFFF AND DUP4 PUSH20 0xFFFFFFFFFFFFFFFFFFFFFFFFFFFFFFFFFFFFFFFF AND PUSH32 0xDDF252AD1BE2C89B69C2B068FC378DAA952BA7F163C4A11628F55A4DF523B3EF DUP4 PUSH1 0x40 MLOAD DUP1 DUP3 DUP2 MSTORE PUSH1 0x20 ADD SWAP2 POP POP PUSH1 0x40 MLOAD DUP1 SWAP2 SUB SWAP1 LOG3 POP POP POP JUMP JUMPDEST PUSH1 0x0 DUP3 DUP3 GT ISZERO PUSH2 0x1F53 JUMPI PUSH1 0x40 MLOAD PUSH32 0x8C379A000000000000000000000000000000000000000000000000000000000 DUP2 MSTORE PUSH1 0x4 ADD DUP1 DUP1 PUSH1 0x20 ADD DUP3 DUP2 SUB DUP3 MSTORE PUSH1 0x1E DUP2 MSTORE PUSH1 0x20 ADD DUP1 PUSH32 0x536166654D6174683A207375627472616374696F6E206F766572666C6F770000 DUP2 MSTORE POP PUSH1 0x20 ADD SWAP2 POP POP PUSH1 0x40 MLOAD DUP1 SWAP2 SUB SWAP1 REVERT JUMPDEST PUSH1 0x0 DUP3 DUP5 SUB SWAP1 POP DUP1 SWAP2 POP POP SWAP3 SWAP2 POP POP JUMP JUMPDEST PUSH1 0x0 DUP1 PUSH2 0x1F70 DUP4 PUSH2 0x2231 JUMP JUMPDEST SWAP1 POP PUSH1 0x0 DUP2 GT ISZERO PUSH2 0x1F86 JUMPI PUSH2 0x1F85 CALLER DUP3 PUSH2 0x18A4 JUMP JUMPDEST JUMPDEST PUSH2 0x1F99 DUP2 DUP5 PUSH2 0x1EDB SWAP1 SWAP2 SWAP1 PUSH4 0xFFFFFFFF AND JUMP JUMPDEST SWAP2 POP POP SWAP2 SWAP1 POP JUMP JUMPDEST PUSH1 0x0 DUP1 DUP3 DUP5 ADD SWAP1 POP DUP4 DUP2 LT ISZERO PUSH2 0x201F JUMPI PUSH1 0x40 MLOAD PUSH32 0x8C379A000000000000000000000000000000000000000000000000000000000 DUP2 MSTORE PUSH1 0x4 ADD DUP1 DUP1 PUSH1 0x20 ADD DUP3 DUP2 SUB DUP3 MSTORE PUSH1 0x1B DUP2 MSTORE PUSH1 0x20 ADD DUP1 PUSH32 0x536166654D6174683A206164646974696F6E206F766572666C6F770000000000 DUP2 MSTORE POP PUSH1 0x20 ADD SWAP2 POP POP PUSH1 0x40 MLOAD DUP1 SWAP2 SUB SWAP1 REVERT JUMPDEST DUP1 SWAP2 POP POP SWAP3 SWAP2 POP POP JUMP JUMPDEST PUSH1 0x0 CALLER SWAP1 POP SWAP1 JUMP JUMPDEST PUSH1 0x0 PUSH2 0x203E CALLER DUP5 DUP5 PUSH2 0x1C3B JUMP JUMPDEST PUSH1 0x1 SWAP1 POP SWAP3 SWAP2 POP POP JUMP JUMPDEST CALLER PUSH20 0xFFFFFFFFFFFFFFFFFFFFFFFFFFFFFFFFFFFFFFFF AND PUSH1 0x0 DUP1 SWAP1 SLOAD SWAP1 PUSH2 0x100 EXP SWAP1 DIV PUSH20 0xFFFFFFFFFFFFFFFFFFFFFFFFFFFFFFFFFFFFFFFF AND PUSH20 0xFFFFFFFFFFFFFFFFFFFFFFFFFFFFFFFFFFFFFFFF AND EQ PUSH2 0x20ED JUMPI PUSH1 0x40 MLOAD PUSH32 0x8C379A000000000000000000000000000000000000000000000000000000000 DUP2 MSTORE PUSH1 0x4 ADD DUP1 DUP1 PUSH1 0x20 ADD DUP3 DUP2 SUB DUP3 MSTORE PUSH1 0x26 DUP2 MSTORE PUSH1 0x20 ADD DUP1 PUSH2 0x247F PUSH1 0x26 SWAP2 CODECOPY PUSH1 0x40 ADD SWAP2 POP POP PUSH1 0x40 MLOAD DUP1 SWAP2 SUB SWAP1 REVERT JUMPDEST PUSH1 0x0 PUSH20 0xFFFFFFFFFFFFFFFFFFFFFFFFFFFFFFFFFFFFFFFF AND DUP2 PUSH20 0xFFFFFFFFFFFFFFFFFFFFFFFFFFFFFFFFFFFFFFFF AND EQ ISZERO PUSH2 0x2173 JUMPI PUSH1 0x40 MLOAD PUSH32 0x8C379A000000000000000000000000000000000000000000000000000000000 DUP2 MSTORE PUSH1 0x4 ADD DUP1 DUP1 PUSH1 0x20 ADD DUP3 DUP2 SUB DUP3 MSTORE PUSH1 0x26 DUP2 MSTORE PUSH1 0x20 ADD DUP1 PUSH2 0x2437 PUSH1 0x26 SWAP2 CODECOPY PUSH1 0x40 ADD SWAP2 POP POP PUSH1 0x40 MLOAD DUP1 SWAP2 SUB SWAP1 REVERT JUMPDEST DUP1 PUSH20 0xFFFFFFFFFFFFFFFFFFFFFFFFFFFFFFFFFFFFFFFF AND PUSH1 0x0 DUP1 SWAP1 SLOAD SWAP1 PUSH2 0x100 EXP SWAP1 DIV PUSH20 0xFFFFFFFFFFFFFFFFFFFFFFFFFFFFFFFFFFFFFFFF AND PUSH20 0xFFFFFFFFFFFFFFFFFFFFFFFFFFFFFFFFFFFFFFFF AND PUSH32 0x8BE0079C531659141344CD1FD0A4F28419497F9722A3DAAFE3B4186F6B6457E0 PUSH1 0x40 MLOAD PUSH1 0x40 MLOAD DUP1 SWAP2 SUB SWAP1 LOG3 DUP1 PUSH1 0x0 DUP1 PUSH2 0x100 EXP DUP2 SLOAD DUP2 PUSH20 0xFFFFFFFFFFFFFFFFFFFFFFFFFFFFFFFFFFFFFFFF MUL NOT AND SWAP1 DUP4 PUSH20 0xFFFFFFFFFFFFFFFFFFFFFFFFFFFFFFFFFFFFFFFF AND MUL OR SWAP1 SSTORE POP POP JUMP JUMPDEST PUSH1 0x0 DUP1 PUSH1 0x0 SWAP1 POP PUSH1 0xA SLOAD PUSH2 0x2243 PUSH2 0xA87 JUMP JUMPDEST GT ISZERO PUSH2 0x237B JUMPI PUSH1 0xA PUSH2 0x225F PUSH1 0x64 DUP6 PUSH2 0x2384 SWAP1 SWAP2 SWAP1 PUSH4 0xFFFFFFFF AND JUMP JUMPDEST MUL SWAP1 POP PUSH1 0x0 PUSH2 0x2280 PUSH1 0xA SLOAD PUSH2 0x2272 PUSH2 0xA87 JUMP JUMPDEST PUSH2 0x1EDB SWAP1 SWAP2 SWAP1 PUSH4 0xFFFFFFFF AND JUMP JUMPDEST SWAP1 POP DUP1 DUP3 GT ISZERO PUSH2 0x228E JUMPI DUP1 SWAP2 POP JUMPDEST PUSH1 0x0 ISZERO ISZERO PUSH1 0x4 PUSH1 0x0 CALLER PUSH20 0xFFFFFFFFFFFFFFFFFFFFFFFFFFFFFFFFFFFFFFFF AND PUSH20 0xFFFFFFFFFFFFFFFFFFFFFFFFFFFFFFFFFFFFFFFF AND DUP2 MSTORE PUSH1 0x20 ADD SWAP1 DUP2 MSTORE PUSH1 0x20 ADD PUSH1 0x0 KECCAK256 PUSH1 0x0 SWAP1 SLOAD SWAP1 PUSH2 0x100 EXP SWAP1 DIV PUSH1 0xFF AND ISZERO ISZERO EQ ISZERO PUSH2 0x2379 JUMPI PUSH2 0x2303 PUSH2 0x2710 PUSH2 0x22F5 PUSH2 0xA87 JUMP JUMPDEST PUSH2 0x2384 SWAP1 SWAP2 SWAP1 PUSH4 0xFFFFFFFF AND JUMP JUMPDEST DUP5 GT ISZERO PUSH2 0x2378 JUMPI PUSH1 0x40 MLOAD PUSH32 0x8C379A000000000000000000000000000000000000000000000000000000000 DUP2 MSTORE PUSH1 0x4 ADD DUP1 DUP1 PUSH1 0x20 ADD DUP3 DUP2 SUB DUP3 MSTORE PUSH1 0x20 DUP2 MSTORE PUSH1 0x20 ADD DUP1 PUSH32 0x4D6178696D756D207472616E7366657220302C3031204E657720416973696B69 DUP2 MSTORE POP PUSH1 0x20 ADD SWAP2 POP POP PUSH1 0x40 MLOAD DUP1 SWAP2 SUB SWAP1 REVERT JUMPDEST JUMPDEST POP JUMPDEST DUP1 SWAP2 POP POP SWAP2 SWAP1 POP JUMP JUMPDEST PUSH1 0x0 DUP1 DUP3 GT PUSH2 0x23FB JUMPI PUSH1 0x40 MLOAD PUSH32 0x8C379A000000000000000000000000000000000000000000000000000000000 DUP2 MSTORE PUSH1 0x4 ADD DUP1 DUP1 PUSH1 0x20 ADD DUP3 DUP2 SUB DUP3 MSTORE PUSH1 0x1A DUP2 MSTORE PUSH1 0x20 ADD DUP1 PUSH32 0x536166654D6174683A206469766973696F6E206279207A65726F000000000000 DUP2 MSTORE POP PUSH1 0x20 ADD SWAP2 POP POP PUSH1 0x40 MLOAD DUP1 SWAP2 SUB SWAP1 REVERT JUMPDEST PUSH1 0x0 DUP3 DUP5 DUP2 PUSH2 0x2406 JUMPI INVALID JUMPDEST DIV SWAP1 POP DUP1 SWAP2 POP POP SWAP3 SWAP2 POP POP JUMP INVALID GASLIMIT MSTORE NUMBER ORIGIN ADDRESS GASPRICE KECCAK256 PUSH21 0x72616E7366657220746F20746865207A65726F2061 PUSH5 0x6472657373 0x4F PUSH24 0x6E61626C653A206E6577206F776E65722069732074686520 PUSH27 0x65726F206164647265737345524332303A20617070726F76652074 PUSH16 0x20746865207A65726F20616464726573 PUSH20 0x73656375726974792067756172616E7465656420 PUSH2 0x646D PUSH10 0x6E6973747261746F7220 PUSH16 0x6E6C7945524332303A206275726E2066 PUSH19 0x6F6D20746865207A65726F2061646472657373 GASLIMIT MSTORE NUMBER ORIGIN ADDRESS GASPRICE KECCAK256 PUSH21 0x72616E736665722066726F6D20746865207A65726F KECCAK256 PUSH2 0x6464 PUSH19 0x65737345524332303A20617070726F76652066 PUSH19 0x6F6D20746865207A65726F2061646472657373 LOG2 PUSH6 0x627A7A723158 KECCAK256 SIGNEXTEND 0x2B 0xDB PUSH19 0xD00E749C82A5CDBC18CE14780BAD960C29B64B SWAP8 DUP3 STATICCALL DUP13 CODECOPY 0xA5 0xB7 EXP 0x5D PUSH5 0x736F6C6343 STOP SDIV GT STOP ORIGIN "
				},
				"gasEstimates": {
					"creation": {
						"codeDepositCost": "1907800",
						"executionCost": "infinite",
						"totalCost": "infinite"
					},
					"external": {
						"_burnFrom(address,address,uint256)": "infinite",
						"_holderInList(address)": "1272",
						"_itsWhale(address)": "1251",
						"_mapHolders(uint256)": "2127",
						"_owner()": "1120",
						"allowance(address,address)": "1365",
						"approve(address,uint256)": "infinite",
						"balanceOf(address)": "1263",
						"decimals()": "1129",
						"decreaseAllowance(address,uint256)": "infinite",
						"destroyer(uint256)": "infinite",
						"getOwner()": "1207",
						"getTotalHolders()": "1067",
						"increaseAllowance(address,uint256)": "infinite",
						"name()": "infinite",
						"owner()": "1084",
						"renounceOwnership()": "infinite",
						"sendToLiquidity(uint256)": "infinite",
						"symbol()": "infinite",
						"totalBalanceContract()": "282",
						"totalSupply()": "1103",
						"transfer(address,uint256)": "infinite",
						"transferFrom(address,address,uint256)": "infinite",
						"transferOwnership(address)": "infinite",
						"whaleNo(address)": "infinite",
						"whaleYes(address)": "infinite"
					},
					"internal": {
						"_calculateBurnAmount(uint256)": "infinite",
						"_partialBurn(uint256)": "infinite"
					}
				},
				"methodIdentifiers": {
					"_burnFrom(address,address,uint256)": "242c9ce9",
					"_holderInList(address)": "f2e483cf",
					"_itsWhale(address)": "602a3b1f",
					"_mapHolders(uint256)": "ff105f1d",
					"_owner()": "b2bdfa7b",
					"allowance(address,address)": "dd62ed3e",
					"approve(address,uint256)": "095ea7b3",
					"balanceOf(address)": "70a08231",
					"decimals()": "313ce567",
					"decreaseAllowance(address,uint256)": "a457c2d7",
					"destroyer(uint256)": "013cd675",
					"getOwner()": "893d20e8",
					"getTotalHolders()": "2b3c0db3",
					"increaseAllowance(address,uint256)": "39509351",
					"name()": "06fdde03",
					"owner()": "8da5cb5b",
					"renounceOwnership()": "715018a6",
					"sendToLiquidity(uint256)": "a4c3b5ad",
					"symbol()": "95d89b41",
					"totalBalanceContract()": "9c2890a7",
					"totalSupply()": "18160ddd",
					"transfer(address,uint256)": "a9059cbb",
					"transferFrom(address,address,uint256)": "23b872dd",
					"transferOwnership(address)": "f2fde38b",
					"whaleNo(address)": "ac7f4736",
					"whaleYes(address)": "c9eb4d6c"
				}
			},
			"storageLayout": {
				"storage": [
					{
						"astId": 229,
						"contract": "NewAisiki.sol:NAisiki",
						"label": "_owner",
						"offset": 0,
						"slot": "0",
						"type": "t_address"
					},
					{
						"astId": 369,
						"contract": "NewAisiki.sol:NAisiki",
						"label": "_balances",
						"offset": 0,
						"slot": "1",
						"type": "t_mapping(t_address,t_uint256)"
					},
					{
						"astId": 375,
						"contract": "NewAisiki.sol:NAisiki",
						"label": "_allowances",
						"offset": 0,
						"slot": "2",
						"type": "t_mapping(t_address,t_mapping(t_address,t_uint256))"
					},
					{
						"astId": 379,
						"contract": "NewAisiki.sol:NAisiki",
						"label": "_holderInList",
						"offset": 0,
						"slot": "3",
						"type": "t_mapping(t_address,t_bool)"
					},
					{
						"astId": 383,
						"contract": "NewAisiki.sol:NAisiki",
						"label": "_itsWhale",
						"offset": 0,
						"slot": "4",
						"type": "t_mapping(t_address,t_bool)"
					},
					{
						"astId": 386,
						"contract": "NewAisiki.sol:NAisiki",
						"label": "_mapHolders",
						"offset": 0,
						"slot": "5",
						"type": "t_array(t_address_payable)dyn_storage"
					},
					{
						"astId": 388,
						"contract": "NewAisiki.sol:NAisiki",
						"label": "_totalSupply",
						"offset": 0,
						"slot": "6",
						"type": "t_uint256"
					},
					{
						"astId": 908,
						"contract": "NewAisiki.sol:NAisiki",
						"label": "_name",
						"offset": 0,
						"slot": "7",
						"type": "t_string_storage"
					},
					{
						"astId": 910,
						"contract": "NewAisiki.sol:NAisiki",
						"label": "_symbol",
						"offset": 0,
						"slot": "8",
						"type": "t_string_storage"
					},
					{
						"astId": 912,
						"contract": "NewAisiki.sol:NAisiki",
						"label": "_decimals",
						"offset": 0,
						"slot": "9",
						"type": "t_uint8"
					},
					{
						"astId": 971,
						"contract": "NewAisiki.sol:NAisiki",
						"label": "_minimumSupply",
						"offset": 0,
						"slot": "10",
						"type": "t_uint256"
					}
				],
				"types": {
					"t_address": {
						"encoding": "inplace",
						"label": "address",
						"numberOfBytes": "20"
					},
					"t_address_payable": {
						"encoding": "inplace",
						"label": "address payable",
						"numberOfBytes": "20"
					},
					"t_array(t_address_payable)dyn_storage": {
						"base": "t_address_payable",
						"encoding": "dynamic_array",
						"label": "address payable[]",
						"numberOfBytes": "32"
					},
					"t_bool": {
						"encoding": "inplace",
						"label": "bool",
						"numberOfBytes": "1"
					},
					"t_mapping(t_address,t_bool)": {
						"encoding": "mapping",
						"key": "t_address",
						"label": "mapping(address => bool)",
						"numberOfBytes": "32",
						"value": "t_bool"
					},
					"t_mapping(t_address,t_mapping(t_address,t_uint256))": {
						"encoding": "mapping",
						"key": "t_address",
						"label": "mapping(address => mapping(address => uint256))",
						"numberOfBytes": "32",
						"value": "t_mapping(t_address,t_uint256)"
					},
					"t_mapping(t_address,t_uint256)": {
						"encoding": "mapping",
						"key": "t_address",
						"label": "mapping(address => uint256)",
						"numberOfBytes": "32",
						"value": "t_uint256"
					},
					"t_string_storage": {
						"encoding": "bytes",
						"label": "string",
						"numberOfBytes": "32"
					},
					"t_uint256": {
						"encoding": "inplace",
						"label": "uint256",
						"numberOfBytes": "32"
					},
					"t_uint8": {
						"encoding": "inplace",
						"label": "uint8",
						"numberOfBytes": "1"
					}
				}
			},
			"userdoc": {
				"methods": {}
			}
		}
	}
}