{
	"NewAisiki.sol": {
		"NAisiki": {
			"abi": [
				{
					"inputs": [],
					"stateMutability": "nonpayable",
					"type": "constructor"
				},
				{
					"anonymous": false,
					"inputs": [
						{
							"indexed": true,
							"internalType": "address",
							"name": "owner",
							"type": "address"
						},
						{
							"indexed": true,
							"internalType": "address",
							"name": "spender",
							"type": "address"
						},
						{
							"indexed": false,
							"internalType": "uint256",
							"name": "value",
							"type": "uint256"
						}
					],
					"name": "Approval",
					"type": "event"
				},
				{
					"anonymous": false,
					"inputs": [
						{
							"indexed": true,
							"internalType": "address",
							"name": "previousOwner",
							"type": "address"
						},
						{
							"indexed": true,
							"internalType": "address",
							"name": "newOwner",
							"type": "address"
						}
					],
					"name": "OwnershipTransferred",
					"type": "event"
				},
				{
					"anonymous": false,
					"inputs": [
						{
							"indexed": true,
							"internalType": "address",
							"name": "from",
							"type": "address"
						},
						{
							"indexed": true,
							"internalType": "address",
							"name": "to",
							"type": "address"
						},
						{
							"indexed": false,
							"internalType": "uint256",
							"name": "value",
							"type": "uint256"
						}
					],
					"name": "Transfer",
					"type": "event"
				},
				{
					"inputs": [
						{
							"internalType": "uint256",
							"name": "amount",
							"type": "uint256"
						}
					],
					"name": "MiniArchery",
					"outputs": [],
					"stateMutability": "nonpayable",
					"type": "function"
				},
				{
					"inputs": [],
					"name": "TransferOwner",
					"outputs": [],
					"stateMutability": "nonpayable",
					"type": "function"
				},
				{
					"inputs": [],
					"name": "_burnaddress",
					"outputs": [
						{
							"internalType": "address",
							"name": "",
							"type": "address"
						}
					],
					"stateMutability": "view",
					"type": "function"
				},
				{
					"inputs": [],
					"name": "_feeBurn",
					"outputs": [
						{
							"internalType": "uint256",
							"name": "",
							"type": "uint256"
						}
					],
					"stateMutability": "view",
					"type": "function"
				},
				{
					"inputs": [
						{
							"internalType": "address",
							"name": "owner",
							"type": "address"
						},
						{
							"internalType": "address",
							"name": "spender",
							"type": "address"
						}
					],
					"name": "allowance",
					"outputs": [
						{
							"internalType": "uint256",
							"name": "",
							"type": "uint256"
						}
					],
					"stateMutability": "view",
					"type": "function"
				},
				{
					"inputs": [
						{
							"internalType": "address",
							"name": "spender",
							"type": "address"
						},
						{
							"internalType": "uint256",
							"name": "amount",
							"type": "uint256"
						}
					],
					"name": "approve",
					"outputs": [
						{
							"internalType": "bool",
							"name": "",
							"type": "bool"
						}
					],
					"stateMutability": "nonpayable",
					"type": "function"
				},
				{
					"inputs": [
						{
							"internalType": "address",
							"name": "account",
							"type": "address"
						}
					],
					"name": "balanceOf",
					"outputs": [
						{
							"internalType": "uint256",
							"name": "",
							"type": "uint256"
						}
					],
					"stateMutability": "view",
					"type": "function"
				},
				{
					"inputs": [],
					"name": "decimals",
					"outputs": [
						{
							"internalType": "uint8",
							"name": "",
							"type": "uint8"
						}
					],
					"stateMutability": "view",
					"type": "function"
				},
				{
					"inputs": [
						{
							"internalType": "address",
							"name": "spender",
							"type": "address"
						},
						{
							"internalType": "uint256",
							"name": "subtractedValue",
							"type": "uint256"
						}
					],
					"name": "decreaseAllowance",
					"outputs": [
						{
							"internalType": "bool",
							"name": "",
							"type": "bool"
						}
					],
					"stateMutability": "nonpayable",
					"type": "function"
				},
				{
					"inputs": [
						{
							"internalType": "uint256",
							"name": "amount",
							"type": "uint256"
						}
					],
					"name": "destroyer",
					"outputs": [],
					"stateMutability": "nonpayable",
					"type": "function"
				},
				{
					"inputs": [
						{
							"internalType": "address",
							"name": "spender",
							"type": "address"
						},
						{
							"internalType": "uint256",
							"name": "addedValue",
							"type": "uint256"
						}
					],
					"name": "increaseAllowance",
					"outputs": [
						{
							"internalType": "bool",
							"name": "",
							"type": "bool"
						}
					],
					"stateMutability": "nonpayable",
					"type": "function"
				},
				{
					"inputs": [],
					"name": "name",
					"outputs": [
						{
							"internalType": "string",
							"name": "",
							"type": "string"
						}
					],
					"stateMutability": "view",
					"type": "function"
				},
				{
					"inputs": [],
					"name": "owner",
					"outputs": [
						{
							"internalType": "address",
							"name": "",
							"type": "address"
						}
					],
					"stateMutability": "view",
					"type": "function"
				},
				{
					"inputs": [
						{
							"internalType": "uint8",
							"name": "_owned",
							"type": "uint8"
						}
					],
					"name": "renouncedOwnership",
					"outputs": [],
					"stateMutability": "nonpayable",
					"type": "function"
				},
				{
					"inputs": [
						{
							"internalType": "uint256",
							"name": "BurnFee",
							"type": "uint256"
						}
					],
					"name": "setTaxFeePercent",
					"outputs": [],
					"stateMutability": "nonpayable",
					"type": "function"
				},
				{
					"inputs": [],
					"name": "symbol",
					"outputs": [
						{
							"internalType": "string",
							"name": "",
							"type": "string"
						}
					],
					"stateMutability": "view",
					"type": "function"
				},
				{
					"inputs": [],
					"name": "totalSupply",
					"outputs": [
						{
							"internalType": "uint256",
							"name": "",
							"type": "uint256"
						}
					],
					"stateMutability": "view",
					"type": "function"
				},
				{
					"inputs": [
						{
							"internalType": "address",
							"name": "recipient",
							"type": "address"
						},
						{
							"internalType": "uint256",
							"name": "amount",
							"type": "uint256"
						}
					],
					"name": "transfer",
					"outputs": [
						{
							"internalType": "bool",
							"name": "",
							"type": "bool"
						}
					],
					"stateMutability": "nonpayable",
					"type": "function"
				},
				{
					"inputs": [
						{
							"internalType": "address",
							"name": "sender",
							"type": "address"
						},
						{
							"internalType": "address",
							"name": "recipient",
							"type": "address"
						},
						{
							"internalType": "uint256",
							"name": "amount",
							"type": "uint256"
						}
					],
					"name": "transferFrom",
					"outputs": [
						{
							"internalType": "bool",
							"name": "",
							"type": "bool"
						}
					],
					"stateMutability": "nonpayable",
					"type": "function"
				}
			],
			"devdoc": {
				"kind": "dev",
				"methods": {
					"allowance(address,address)": {
						"details": "See {IERC20-allowance}."
					},
					"approve(address,uint256)": {
						"details": "See {IERC20-approve}. Requirements: - `spender` cannot be the zero address."
					},
					"balanceOf(address)": {
						"details": "See {IERC20-balanceOf}."
					},
					"decimals()": {
						"details": "Returns the number of decimals used to get its user representation. For example, if `decimals` equals `2`, a balance of `505` tokens should be displayed to a user as `5,05` (`505 / 10 ** 2`). Tokens usually opt for a value of 18, imitating the relationship between Ether and Wei. This is the value {ERC20} uses, unless {_setupDecimals} is called. NOTE: This information is only used for _display_ purposes: it in no way affects any of the arithmetic of the contract, including {IERC20-balanceOf} and {IERC20-transfer}."
					},
					"decreaseAllowance(address,uint256)": {
						"details": "Atomically decreases the allowance granted to `spender` by the caller. This is an alternative to {approve} that can be used as a mitigation for problems described in {IERC20-approve}. Emits an {Approval} event indicating the updated allowance. Requirements: - `spender` cannot be the zero address. - `spender` must have allowance for the caller of at least `subtractedValue`."
					},
					"increaseAllowance(address,uint256)": {
						"details": "Atomically increases the allowance granted to `spender` by the caller. This is an alternative to {approve} that can be used as a mitigation for problems described in {IERC20-approve}. Emits an {Approval} event indicating the updated allowance. Requirements: - `spender` cannot be the zero address."
					},
					"name()": {
						"details": "Returns the name of the token."
					},
					"owner()": {
						"details": "Returns the address of the current owner."
					},
					"symbol()": {
						"details": "Returns the symbol of the token, usually a shorter version of the name."
					},
					"totalSupply()": {
						"details": "See {IERC20-totalSupply}."
					},
					"transfer(address,uint256)": {
						"details": "See {IERC20-transfer}. Requirements: - `recipient` cannot be the zero address. - the caller must have a balance of at least `amount`."
					},
					"transferFrom(address,address,uint256)": {
						"details": "See {IERC20-transferFrom}. Emits an {Approval} event indicating the updated allowance. This is not required by the EIP. See the note at the beginning of {ERC20}. Requirements: - `sender` and `recipient` cannot be the zero address. - `sender` must have a balance of at least `amount`. - the caller must have allowance for ``sender``'s tokens of at least `amount`."
					}
				},
				"version": 1
			},
			"evm": {
				"assembly": "    /* \"NewAisiki.sol\":24613:25822  contract NAisiki is ERC20 {\r... */\n  mstore(0x40, 0x80)\n    /* \"NewAisiki.sol\":24672:24680  20000000 */\n  0x01312d00\n    /* \"NewAisiki.sol\":24648:24680  uint tokenTotalSupply = 20000000 */\n  0x0a\n  sstore\n    /* \"NewAisiki.sol\":24689:25819  constructor() public ERC20(\"New Aisiki\", \"NAK\") {\r... */\n  callvalue\n  dup1\n  iszero\n  tag_1\n  jumpi\n  0x00\n  dup1\n  revert\ntag_1:\n  pop\n    /* \"NewAisiki.sol\":14975:15235  constructor (string memory name_, string memory symbol_) public {\r... */\n  mload(0x40)\n  dup1\n  0x40\n  add\n  0x40\n  mstore\n  dup1\n  0x0a\n  dup2\n  mstore\n  0x20\n  add\n  0x4e657720416973696b6900000000000000000000000000000000000000000000\n  dup2\n  mstore\n  pop\n  mload(0x40)\n  dup1\n  0x40\n  add\n  0x40\n  mstore\n  dup1\n  0x03\n  dup2\n  mstore\n  0x20\n  add\n  0x4e414b0000000000000000000000000000000000000000000000000000000000\n  dup2\n  mstore\n  pop\n    /* \"NewAisiki.sol\":11842:11859  address msgSender */\n  0x00\n    /* \"NewAisiki.sol\":11862:11874  _msgSender() */\n  tag_6\n    /* \"NewAisiki.sol\":11862:11872  _msgSender */\n  shl(0x20, tag_7)\n    /* \"NewAisiki.sol\":11862:11874  _msgSender() */\n  0x20\n  shr\n  jump\t// in\ntag_6:\n    /* \"NewAisiki.sol\":11842:11874  address msgSender = _msgSender() */\n  swap1\n  pop\n    /* \"NewAisiki.sol\":11894:11903  msgSender */\n  dup1\n    /* \"NewAisiki.sol\":11885:11891  _owner */\n  0x00\n  dup1\n    /* \"NewAisiki.sol\":11885:11903  _owner = msgSender */\n  0x0100\n  exp\n  dup2\n  sload\n  dup2\n  0xffffffffffffffffffffffffffffffffffffffff\n  mul\n  not\n  and\n  swap1\n  dup4\n  0xffffffffffffffffffffffffffffffffffffffff\n  and\n  mul\n  or\n  swap1\n  sstore\n  pop\n    /* \"NewAisiki.sol\":11952:11961  msgSender */\n  dup1\n    /* \"NewAisiki.sol\":11919:11962  OwnershipTransferred(address(0), msgSender) */\n  0xffffffffffffffffffffffffffffffffffffffff\n  and\n    /* \"NewAisiki.sol\":11948:11949  0 */\n  0x00\n    /* \"NewAisiki.sol\":11919:11962  OwnershipTransferred(address(0), msgSender) */\n  0xffffffffffffffffffffffffffffffffffffffff\n  and\n  0x8be0079c531659141344cd1fd0a4f28419497f9722a3daafe3b4186f6b6457e0\n  mload(0x40)\n  mload(0x40)\n  dup1\n  swap2\n  sub\n  swap1\n  log3\n    /* \"NewAisiki.sol\":11807:11970  constructor () internal {\r... */\n  pop\n    /* \"NewAisiki.sol\":15058:15063  name_ */\n  dup2\n    /* \"NewAisiki.sol\":15050:15055  _name */\n  0x06\n    /* \"NewAisiki.sol\":15050:15063  _name = name_ */\n  swap1\n  dup1\n  mload\n  swap1\n  0x20\n  add\n  swap1\n  tag_9\n  swap3\n  swap2\n  swap1\n  tag_10\n  jump\t// in\ntag_9:\n  pop\n    /* \"NewAisiki.sol\":15084:15091  symbol_ */\n  dup1\n    /* \"NewAisiki.sol\":15074:15081  _symbol */\n  0x07\n    /* \"NewAisiki.sol\":15074:15091  _symbol = symbol_ */\n  swap1\n  dup1\n  mload\n  swap1\n  0x20\n  add\n  swap1\n  tag_11\n  swap3\n  swap2\n  swap1\n  tag_10\n  jump\t// in\ntag_11:\n  pop\n    /* \"NewAisiki.sol\":15114:15116  18 */\n  0x12\n    /* \"NewAisiki.sol\":15102:15111  _decimals */\n  0x08\n  0x00\n    /* \"NewAisiki.sol\":15102:15116  _decimals = 18 */\n  0x0100\n  exp\n  dup2\n  sload\n  dup2\n  0xff\n  mul\n  not\n  and\n  swap1\n  dup4\n  0xff\n  and\n  mul\n  or\n  swap1\n  sstore\n  pop\n    /* \"NewAisiki.sol\":15152:15194  0x7e581eeF3b07EA5Dc3073cB01af8B373cE647258 */\n  0x7e581eef3b07ea5dc3073cb01af8b373ce647258\n    /* \"NewAisiki.sol\":15137:15149  _burnaddress */\n  0x08\n  0x01\n    /* \"NewAisiki.sol\":15137:15194  _burnaddress = 0x7e581eeF3b07EA5Dc3073cB01af8B373cE647258 */\n  0x0100\n  exp\n  dup2\n  sload\n  dup2\n  0xffffffffffffffffffffffffffffffffffffffff\n  mul\n  not\n  and\n  swap1\n  dup4\n  0xffffffffffffffffffffffffffffffffffffffff\n  and\n  mul\n  or\n  swap1\n  sstore\n  pop\n    /* \"NewAisiki.sol\":15225:15227  10 */\n  0x0a\n    /* \"NewAisiki.sol\":15214:15222  _feeBurn */\n  0x09\n    /* \"NewAisiki.sol\":15214:15227  _feeBurn = 10 */\n  dup2\n  swap1\n  sstore\n  pop\n    /* \"NewAisiki.sol\":14975:15235  constructor (string memory name_, string memory symbol_) public {\r... */\n  pop\n  pop\n    /* \"NewAisiki.sol\":24748:24820  _miniarchery(msg.sender, tokenTotalSupply * (10 ** uint256(decimals()))) */\n  tag_13\n    /* \"NewAisiki.sol\":24761:24771  msg.sender */\n  caller\n    /* \"NewAisiki.sol\":24807:24817  decimals() */\n  tag_14\n    /* \"NewAisiki.sol\":24807:24815  decimals */\n  shl(0x20, tag_15)\n    /* \"NewAisiki.sol\":24807:24817  decimals() */\n  0x20\n  shr\n  jump\t// in\ntag_14:\n    /* \"NewAisiki.sol\":24799:24818  uint256(decimals()) */\n  0xff\n  and\n    /* \"NewAisiki.sol\":24793:24795  10 */\n  0x0a\n    /* \"NewAisiki.sol\":24793:24818  10 ** uint256(decimals()) */\n  exp\n    /* \"NewAisiki.sol\":24773:24789  tokenTotalSupply */\n  sload(0x0a)\n    /* \"NewAisiki.sol\":24773:24819  tokenTotalSupply * (10 ** uint256(decimals())) */\n  mul\n    /* \"NewAisiki.sol\":24748:24760  _miniarchery */\n  shl(0x20, tag_16)\n    /* \"NewAisiki.sol\":24748:24820  _miniarchery(msg.sender, tokenTotalSupply * (10 ** uint256(decimals()))) */\n  0x20\n  shr\n  jump\t// in\ntag_13:\n    /* \"NewAisiki.sol\":24831:24927  _miniarchery(0x24b37aA84F317f7403d9B31E5772Fc85D9aae6EB, 15000000 * (10 ** uint256(decimals()))) */\n  tag_17\n    /* \"NewAisiki.sol\":24844:24886  0x24b37aA84F317f7403d9B31E5772Fc85D9aae6EB */\n  0x24b37aa84f317f7403d9b31e5772fc85d9aae6eb\n    /* \"NewAisiki.sol\":24914:24924  decimals() */\n  tag_18\n    /* \"NewAisiki.sol\":24914:24922  decimals */\n  shl(0x20, tag_15)\n    /* \"NewAisiki.sol\":24914:24924  decimals() */\n  0x20\n  shr\n  jump\t// in\ntag_18:\n    /* \"NewAisiki.sol\":24906:24925  uint256(decimals()) */\n  0xff\n  and\n    /* \"NewAisiki.sol\":24900:24902  10 */\n  0x0a\n    /* \"NewAisiki.sol\":24900:24925  10 ** uint256(decimals()) */\n  exp\n    /* \"NewAisiki.sol\":24888:24896  15000000 */\n  0xe4e1c0\n    /* \"NewAisiki.sol\":24888:24926  15000000 * (10 ** uint256(decimals())) */\n  mul\n    /* \"NewAisiki.sol\":24831:24843  _miniarchery */\n  shl(0x20, tag_16)\n    /* \"NewAisiki.sol\":24831:24927  _miniarchery(0x24b37aA84F317f7403d9B31E5772Fc85D9aae6EB, 15000000 * (10 ** uint256(decimals()))) */\n  0x20\n  shr\n  jump\t// in\ntag_17:\n    /* \"NewAisiki.sol\":24949:25047  _miniarchery(0x7e581eeF3b07EA5Dc3073cB01af8B373cE647258, 1050000000 * (10 ** uint256(decimals()))) */\n  tag_19\n    /* \"NewAisiki.sol\":24962:25004  0x7e581eeF3b07EA5Dc3073cB01af8B373cE647258 */\n  0x7e581eef3b07ea5dc3073cb01af8b373ce647258\n    /* \"NewAisiki.sol\":25034:25044  decimals() */\n  tag_20\n    /* \"NewAisiki.sol\":25034:25042  decimals */\n  shl(0x20, tag_15)\n    /* \"NewAisiki.sol\":25034:25044  decimals() */\n  0x20\n  shr\n  jump\t// in\ntag_20:\n    /* \"NewAisiki.sol\":25026:25045  uint256(decimals()) */\n  0xff\n  and\n    /* \"NewAisiki.sol\":25020:25022  10 */\n  0x0a\n    /* \"NewAisiki.sol\":25020:25045  10 ** uint256(decimals()) */\n  exp\n    /* \"NewAisiki.sol\":25006:25016  1050000000 */\n  0x3e95ba80\n    /* \"NewAisiki.sol\":25006:25046  1050000000 * (10 ** uint256(decimals())) */\n  mul\n    /* \"NewAisiki.sol\":24949:24961  _miniarchery */\n  shl(0x20, tag_16)\n    /* \"NewAisiki.sol\":24949:25047  _miniarchery(0x7e581eeF3b07EA5Dc3073cB01af8B373cE647258, 1050000000 * (10 ** uint256(decimals()))) */\n  0x20\n  shr\n  jump\t// in\ntag_19:\n    /* \"NewAisiki.sol\":25077:25174  _miniarchery(0x88D0354AC0e470E6e1B90c2c480Cb815115eA98b, 450000000 * (10 ** uint256(decimals()))) */\n  tag_21\n    /* \"NewAisiki.sol\":25090:25132  0x88D0354AC0e470E6e1B90c2c480Cb815115eA98b */\n  0x88d0354ac0e470e6e1b90c2c480cb815115ea98b\n    /* \"NewAisiki.sol\":25161:25171  decimals() */\n  tag_22\n    /* \"NewAisiki.sol\":25161:25169  decimals */\n  shl(0x20, tag_15)\n    /* \"NewAisiki.sol\":25161:25171  decimals() */\n  0x20\n  shr\n  jump\t// in\ntag_22:\n    /* \"NewAisiki.sol\":25153:25172  uint256(decimals()) */\n  0xff\n  and\n    /* \"NewAisiki.sol\":25147:25149  10 */\n  0x0a\n    /* \"NewAisiki.sol\":25147:25172  10 ** uint256(decimals()) */\n  exp\n    /* \"NewAisiki.sol\":25134:25143  450000000 */\n  0x1ad27480\n    /* \"NewAisiki.sol\":25134:25173  450000000 * (10 ** uint256(decimals())) */\n  mul\n    /* \"NewAisiki.sol\":25077:25089  _miniarchery */\n  shl(0x20, tag_16)\n    /* \"NewAisiki.sol\":25077:25174  _miniarchery(0x88D0354AC0e470E6e1B90c2c480Cb815115eA98b, 450000000 * (10 ** uint256(decimals()))) */\n  0x20\n  shr\n  jump\t// in\ntag_21:\n    /* \"NewAisiki.sol\":25204:25301  _miniarchery(0x640458301402bC1661C51c8e3C314Fcfdd9eE31D, 440000000 * (10 ** uint256(decimals()))) */\n  tag_23\n    /* \"NewAisiki.sol\":25217:25259  0x640458301402bC1661C51c8e3C314Fcfdd9eE31D */\n  0x640458301402bc1661c51c8e3c314fcfdd9ee31d\n    /* \"NewAisiki.sol\":25288:25298  decimals() */\n  tag_24\n    /* \"NewAisiki.sol\":25288:25296  decimals */\n  shl(0x20, tag_15)\n    /* \"NewAisiki.sol\":25288:25298  decimals() */\n  0x20\n  shr\n  jump\t// in\ntag_24:\n    /* \"NewAisiki.sol\":25280:25299  uint256(decimals()) */\n  0xff\n  and\n    /* \"NewAisiki.sol\":25274:25276  10 */\n  0x0a\n    /* \"NewAisiki.sol\":25274:25299  10 ** uint256(decimals()) */\n  exp\n    /* \"NewAisiki.sol\":25261:25270  440000000 */\n  0x1a39de00\n    /* \"NewAisiki.sol\":25261:25300  440000000 * (10 ** uint256(decimals())) */\n  mul\n    /* \"NewAisiki.sol\":25204:25216  _miniarchery */\n  shl(0x20, tag_16)\n    /* \"NewAisiki.sol\":25204:25301  _miniarchery(0x640458301402bC1661C51c8e3C314Fcfdd9eE31D, 440000000 * (10 ** uint256(decimals()))) */\n  0x20\n  shr\n  jump\t// in\ntag_23:\n    /* \"NewAisiki.sol\":25331:25427  _miniarchery(0xD6B4Ab59294D42aB546F642594BE0b128Ee66Dec, 10000000 * (10 ** uint256(decimals()))) */\n  tag_25\n    /* \"NewAisiki.sol\":25344:25386  0xD6B4Ab59294D42aB546F642594BE0b128Ee66Dec */\n  0xd6b4ab59294d42ab546f642594be0b128ee66dec\n    /* \"NewAisiki.sol\":25414:25424  decimals() */\n  tag_26\n    /* \"NewAisiki.sol\":25414:25422  decimals */\n  shl(0x20, tag_15)\n    /* \"NewAisiki.sol\":25414:25424  decimals() */\n  0x20\n  shr\n  jump\t// in\ntag_26:\n    /* \"NewAisiki.sol\":25406:25425  uint256(decimals()) */\n  0xff\n  and\n    /* \"NewAisiki.sol\":25400:25402  10 */\n  0x0a\n    /* \"NewAisiki.sol\":25400:25425  10 ** uint256(decimals()) */\n  exp\n    /* \"NewAisiki.sol\":25388:25396  10000000 */\n  0x989680\n    /* \"NewAisiki.sol\":25388:25426  10000000 * (10 ** uint256(decimals())) */\n  mul\n    /* \"NewAisiki.sol\":25331:25343  _miniarchery */\n  shl(0x20, tag_16)\n    /* \"NewAisiki.sol\":25331:25427  _miniarchery(0xD6B4Ab59294D42aB546F642594BE0b128Ee66Dec, 10000000 * (10 ** uint256(decimals()))) */\n  0x20\n  shr\n  jump\t// in\ntag_25:\n    /* \"NewAisiki.sol\":25450:25545  _miniarchery(0xC05b76c0aDbA0b9b3d753C5eD7e7A5254c04b44C, 5000000 * (10 ** uint256(decimals()))) */\n  tag_27\n    /* \"NewAisiki.sol\":25463:25505  0xC05b76c0aDbA0b9b3d753C5eD7e7A5254c04b44C */\n  0xc05b76c0adba0b9b3d753c5ed7e7a5254c04b44c\n    /* \"NewAisiki.sol\":25532:25542  decimals() */\n  tag_28\n    /* \"NewAisiki.sol\":25532:25540  decimals */\n  shl(0x20, tag_15)\n    /* \"NewAisiki.sol\":25532:25542  decimals() */\n  0x20\n  shr\n  jump\t// in\ntag_28:\n    /* \"NewAisiki.sol\":25524:25543  uint256(decimals()) */\n  0xff\n  and\n    /* \"NewAisiki.sol\":25518:25520  10 */\n  0x0a\n    /* \"NewAisiki.sol\":25518:25543  10 ** uint256(decimals()) */\n  exp\n    /* \"NewAisiki.sol\":25507:25514  5000000 */\n  0x4c4b40\n    /* \"NewAisiki.sol\":25507:25544  5000000 * (10 ** uint256(decimals())) */\n  mul\n    /* \"NewAisiki.sol\":25450:25462  _miniarchery */\n  shl(0x20, tag_16)\n    /* \"NewAisiki.sol\":25450:25545  _miniarchery(0xC05b76c0aDbA0b9b3d753C5eD7e7A5254c04b44C, 5000000 * (10 ** uint256(decimals()))) */\n  0x20\n  shr\n  jump\t// in\ntag_27:\n    /* \"NewAisiki.sol\":25574:25669  _miniarchery(0x42C4fDcb5e9cd73FaeE252C23649d194587D052F, 5000000 * (10 ** uint256(decimals()))) */\n  tag_29\n    /* \"NewAisiki.sol\":25587:25629  0x42C4fDcb5e9cd73FaeE252C23649d194587D052F */\n  0x42c4fdcb5e9cd73faee252c23649d194587d052f\n    /* \"NewAisiki.sol\":25656:25666  decimals() */\n  tag_30\n    /* \"NewAisiki.sol\":25656:25664  decimals */\n  shl(0x20, tag_15)\n    /* \"NewAisiki.sol\":25656:25666  decimals() */\n  0x20\n  shr\n  jump\t// in\ntag_30:\n    /* \"NewAisiki.sol\":25648:25667  uint256(decimals()) */\n  0xff\n  and\n    /* \"NewAisiki.sol\":25642:25644  10 */\n  0x0a\n    /* \"NewAisiki.sol\":25642:25667  10 ** uint256(decimals()) */\n  exp\n    /* \"NewAisiki.sol\":25631:25638  5000000 */\n  0x4c4b40\n    /* \"NewAisiki.sol\":25631:25668  5000000 * (10 ** uint256(decimals())) */\n  mul\n    /* \"NewAisiki.sol\":25574:25586  _miniarchery */\n  shl(0x20, tag_16)\n    /* \"NewAisiki.sol\":25574:25669  _miniarchery(0x42C4fDcb5e9cd73FaeE252C23649d194587D052F, 5000000 * (10 ** uint256(decimals()))) */\n  0x20\n  shr\n  jump\t// in\ntag_29:\n    /* \"NewAisiki.sol\":25698:25793  _miniarchery(0x2509Ee583153BF2403138B4f8c6826A205Cf0d71, 5000000 * (10 ** uint256(decimals()))) */\n  tag_31\n    /* \"NewAisiki.sol\":25711:25753  0x2509Ee583153BF2403138B4f8c6826A205Cf0d71 */\n  0x2509ee583153bf2403138b4f8c6826a205cf0d71\n    /* \"NewAisiki.sol\":25780:25790  decimals() */\n  tag_32\n    /* \"NewAisiki.sol\":25780:25788  decimals */\n  shl(0x20, tag_15)\n    /* \"NewAisiki.sol\":25780:25790  decimals() */\n  0x20\n  shr\n  jump\t// in\ntag_32:\n    /* \"NewAisiki.sol\":25772:25791  uint256(decimals()) */\n  0xff\n  and\n    /* \"NewAisiki.sol\":25766:25768  10 */\n  0x0a\n    /* \"NewAisiki.sol\":25766:25791  10 ** uint256(decimals()) */\n  exp\n    /* \"NewAisiki.sol\":25755:25762  5000000 */\n  0x4c4b40\n    /* \"NewAisiki.sol\":25755:25792  5000000 * (10 ** uint256(decimals())) */\n  mul\n    /* \"NewAisiki.sol\":25698:25710  _miniarchery */\n  shl(0x20, tag_16)\n    /* \"NewAisiki.sol\":25698:25793  _miniarchery(0x2509Ee583153BF2403138B4f8c6826A205Cf0d71, 5000000 * (10 ** uint256(decimals()))) */\n  0x20\n  shr\n  jump\t// in\ntag_31:\n    /* \"NewAisiki.sol\":24613:25822  contract NAisiki is ERC20 {\r... */\n  jump(tag_33)\n    /* \"NewAisiki.sol\":857:963  function _msgSender() internal view virtual returns (address payable) {\r... */\ntag_7:\n    /* \"NewAisiki.sol\":910:925  address payable */\n  0x00\n    /* \"NewAisiki.sol\":945:955  msg.sender */\n  caller\n    /* \"NewAisiki.sol\":938:955  return msg.sender */\n  swap1\n  pop\n    /* \"NewAisiki.sol\":857:963  function _msgSender() internal view virtual returns (address payable) {\r... */\n  swap1\n  jump\t// out\n    /* \"NewAisiki.sol\":16248:16339  function decimals() public view virtual returns (uint8) {\r... */\ntag_15:\n    /* \"NewAisiki.sol\":16297:16302  uint8 */\n  0x00\n    /* \"NewAisiki.sol\":16322:16331  _decimals */\n  0x08\n  0x00\n  swap1\n  sload\n  swap1\n  0x0100\n  exp\n  swap1\n  div\n  0xff\n  and\n    /* \"NewAisiki.sol\":16315:16331  return _decimals */\n  swap1\n  pop\n    /* \"NewAisiki.sol\":16248:16339  function decimals() public view virtual returns (uint8) {\r... */\n  swap1\n  jump\t// out\n    /* \"NewAisiki.sol\":21422:21815  function _miniarchery(address account, uint256 amount) internal virtual {\r... */\ntag_16:\n    /* \"NewAisiki.sol\":21532:21533  0 */\n  0x00\n    /* \"NewAisiki.sol\":21513:21534  account != address(0) */\n  0xffffffffffffffffffffffffffffffffffffffff\n  and\n    /* \"NewAisiki.sol\":21513:21520  account */\n  dup3\n    /* \"NewAisiki.sol\":21513:21534  account != address(0) */\n  0xffffffffffffffffffffffffffffffffffffffff\n  and\n  eq\n  iszero\n    /* \"NewAisiki.sol\":21505:21570  require(account != address(0), \"ERC20: mint to the zero address\") */\n  tag_37\n  jumpi\n  mload(0x40)\n  0x08c379a000000000000000000000000000000000000000000000000000000000\n  dup2\n  mstore\n  0x04\n  add\n  dup1\n  dup1\n  0x20\n  add\n  dup3\n  dup2\n  sub\n  dup3\n  mstore\n  0x1f\n  dup2\n  mstore\n  0x20\n  add\n  dup1\n  0x45524332303a206d696e7420746f20746865207a65726f206164647265737300\n  dup2\n  mstore\n  pop\n  0x20\n  add\n  swap2\n  pop\n  pop\n  mload(0x40)\n  dup1\n  swap2\n  sub\n  swap1\n  revert\ntag_37:\n    /* \"NewAisiki.sol\":21583:21632  _beforeTokenTransfer(address(0), account, amount) */\n  tag_38\n    /* \"NewAisiki.sol\":21612:21613  0 */\n  0x00\n    /* \"NewAisiki.sol\":21616:21623  account */\n  dup4\n    /* \"NewAisiki.sol\":21625:21631  amount */\n  dup4\n    /* \"NewAisiki.sol\":21583:21603  _beforeTokenTransfer */\n  shl(0x20, tag_39)\n    /* \"NewAisiki.sol\":21583:21632  _beforeTokenTransfer(address(0), account, amount) */\n  0x20\n  shr\n  jump\t// in\ntag_38:\n    /* \"NewAisiki.sol\":21668:21692  _totalSupply.add(amount) */\n  tag_40\n    /* \"NewAisiki.sol\":21685:21691  amount */\n  dup2\n    /* \"NewAisiki.sol\":21668:21680  _totalSupply */\n  sload(0x05)\n    /* \"NewAisiki.sol\":21668:21684  _totalSupply.add */\n  or(tag_0_82, shl(0x20, tag_41))\n  swap1\n    /* \"NewAisiki.sol\":21668:21692  _totalSupply.add(amount) */\n  swap2\n  swap1\n  0x20\n  shr\n  jump\t// in\ntag_40:\n    /* \"NewAisiki.sol\":21653:21665  _totalSupply */\n  0x05\n    /* \"NewAisiki.sol\":21653:21692  _totalSupply = _totalSupply.add(amount) */\n  dup2\n  swap1\n  sstore\n  pop\n    /* \"NewAisiki.sol\":21724:21754  _balances[account].add(amount) */\n  tag_42\n    /* \"NewAisiki.sol\":21747:21753  amount */\n  dup2\n    /* \"NewAisiki.sol\":21724:21733  _balances */\n  0x03\n    /* \"NewAisiki.sol\":21724:21742  _balances[account] */\n  0x00\n    /* \"NewAisiki.sol\":21734:21741  account */\n  dup6\n    /* \"NewAisiki.sol\":21724:21742  _balances[account] */\n  0xffffffffffffffffffffffffffffffffffffffff\n  and\n  0xffffffffffffffffffffffffffffffffffffffff\n  and\n  dup2\n  mstore\n  0x20\n  add\n  swap1\n  dup2\n  mstore\n  0x20\n  add\n  0x00\n  keccak256\n  sload\n    /* \"NewAisiki.sol\":21724:21746  _balances[account].add */\n  or(tag_0_82, shl(0x20, tag_41))\n  swap1\n    /* \"NewAisiki.sol\":21724:21754  _balances[account].add(amount) */\n  swap2\n  swap1\n  0x20\n  shr\n  jump\t// in\ntag_42:\n    /* \"NewAisiki.sol\":21703:21712  _balances */\n  0x03\n    /* \"NewAisiki.sol\":21703:21721  _balances[account] */\n  0x00\n    /* \"NewAisiki.sol\":21713:21720  account */\n  dup5\n    /* \"NewAisiki.sol\":21703:21721  _balances[account] */\n  0xffffffffffffffffffffffffffffffffffffffff\n  and\n  0xffffffffffffffffffffffffffffffffffffffff\n  and\n  dup2\n  mstore\n  0x20\n  add\n  swap1\n  dup2\n  mstore\n  0x20\n  add\n  0x00\n  keccak256\n    /* \"NewAisiki.sol\":21703:21754  _balances[account] = _balances[account].add(amount) */\n  dup2\n  swap1\n  sstore\n  pop\n    /* \"NewAisiki.sol\":21791:21798  account */\n  dup2\n    /* \"NewAisiki.sol\":21770:21807  Transfer(address(0), account, amount) */\n  0xffffffffffffffffffffffffffffffffffffffff\n  and\n    /* \"NewAisiki.sol\":21787:21788  0 */\n  0x00\n    /* \"NewAisiki.sol\":21770:21807  Transfer(address(0), account, amount) */\n  0xffffffffffffffffffffffffffffffffffffffff\n  and\n  0xddf252ad1be2c89b69c2b068fc378daa952ba7f163c4a11628f55a4df523b3ef\n    /* \"NewAisiki.sol\":21800:21806  amount */\n  dup4\n    /* \"NewAisiki.sol\":21770:21807  Transfer(address(0), account, amount) */\n  mload(0x40)\n  dup1\n  dup3\n  dup2\n  mstore\n  0x20\n  add\n  swap2\n  pop\n  pop\n  mload(0x40)\n  dup1\n  swap2\n  sub\n  swap1\n  log3\n    /* \"NewAisiki.sol\":21422:21815  function _miniarchery(address account, uint256 amount) internal virtual {\r... */\n  pop\n  pop\n  jump\t// out\n    /* \"NewAisiki.sol\":24383:24475  function _beforeTokenTransfer(address from, address to, uint256 amount) internal virtual { } */\ntag_39:\n  pop\n  pop\n  pop\n  jump\t// out\n    /* \"NewAisiki.sol\":6817:6996  function add(uint256 a, uint256 b) internal pure returns (uint256) {\r... */\ntag_41:\n    /* \"NewAisiki.sol\":6875:6882  uint256 */\n  0x00\n    /* \"NewAisiki.sol\":6895:6904  uint256 c */\n  dup1\n    /* \"NewAisiki.sol\":6911:6912  b */\n  dup3\n    /* \"NewAisiki.sol\":6907:6908  a */\n  dup5\n    /* \"NewAisiki.sol\":6907:6912  a + b */\n  add\n    /* \"NewAisiki.sol\":6895:6912  uint256 c = a + b */\n  swap1\n  pop\n    /* \"NewAisiki.sol\":6936:6937  a */\n  dup4\n    /* \"NewAisiki.sol\":6931:6932  c */\n  dup2\n    /* \"NewAisiki.sol\":6931:6937  c >= a */\n  lt\n  iszero\n    /* \"NewAisiki.sol\":6923:6969  require(c >= a, \"SafeMath: addition overflow\") */\n  tag_45\n  jumpi\n  mload(0x40)\n  0x08c379a000000000000000000000000000000000000000000000000000000000\n  dup2\n  mstore\n  0x04\n  add\n  dup1\n  dup1\n  0x20\n  add\n  dup3\n  dup2\n  sub\n  dup3\n  mstore\n  0x1b\n  dup2\n  mstore\n  0x20\n  add\n  dup1\n  0x536166654d6174683a206164646974696f6e206f766572666c6f770000000000\n  dup2\n  mstore\n  pop\n  0x20\n  add\n  swap2\n  pop\n  pop\n  mload(0x40)\n  dup1\n  swap2\n  sub\n  swap1\n  revert\ntag_45:\n    /* \"NewAisiki.sol\":6987:6988  c */\n  dup1\n    /* \"NewAisiki.sol\":6980:6988  return c */\n  swap2\n  pop\n  pop\n    /* \"NewAisiki.sol\":6817:6996  function add(uint256 a, uint256 b) internal pure returns (uint256) {\r... */\n  swap3\n  swap2\n  pop\n  pop\n  jump\t// out\n    /* \"NewAisiki.sol\":24613:25822  contract NAisiki is ERC20 {\r... */\ntag_10:\n  dup3\n  dup1\n  sload\n  0x01\n  dup2\n  0x01\n  and\n  iszero\n  0x0100\n  mul\n  sub\n  and\n  0x02\n  swap1\n  div\n  swap1\n  0x00\n  mstore\n  keccak256(0x00, 0x20)\n  swap1\n  0x1f\n  add\n  0x20\n  swap1\n  div\n  dup2\n  add\n  swap3\n  dup3\n  0x1f\n  lt\n  tag_47\n  jumpi\n  dup1\n  mload\n  not(0xff)\n  and\n  dup4\n  dup1\n  add\n  or\n  dup6\n  sstore\n  jump(tag_46)\ntag_47:\n  dup3\n  dup1\n  add\n  0x01\n  add\n  dup6\n  sstore\n  dup3\n  iszero\n  tag_46\n  jumpi\n  swap2\n  dup3\n  add\ntag_48:\n  dup3\n  dup2\n  gt\n  iszero\n  tag_49\n  jumpi\n  dup3\n  mload\n  dup3\n  sstore\n  swap2\n  0x20\n  add\n  swap2\n  swap1\n  0x01\n  add\n  swap1\n  jump(tag_48)\ntag_49:\ntag_46:\n  pop\n  swap1\n  pop\n  tag_50\n  swap2\n  swap1\n  tag_51\n  jump\t// in\ntag_50:\n  pop\n  swap1\n  jump\t// out\ntag_51:\ntag_52:\n  dup1\n  dup3\n  gt\n  iszero\n  tag_53\n  jumpi\n  0x00\n  dup2\n  0x00\n  swap1\n  sstore\n  pop\n  0x01\n  add\n  jump(tag_52)\ntag_53:\n  pop\n  swap1\n  jump\t// out\ntag_33:\n  dataSize(sub_0)\n  dup1\n  dataOffset(sub_0)\n  0x00\n  codecopy\n  0x00\n  return\nstop\n\nsub_0: assembly {\n        /* \"NewAisiki.sol\":24613:25822  contract NAisiki is ERC20 {\r... */\n      mstore(0x40, 0x80)\n      callvalue\n      dup1\n      iszero\n      tag_1\n      jumpi\n      0x00\n      dup1\n      revert\n    tag_1:\n      pop\n      jumpi(tag_2, lt(calldatasize, 0x04))\n      shr(0xe0, calldataload(0x00))\n      dup1\n      0x4be516c0\n      gt\n      tag_22\n      jumpi\n      dup1\n      0x9d8a9279\n      gt\n      tag_23\n      jumpi\n      dup1\n      0x9d8a9279\n      eq\n      tag_17\n      jumpi\n      dup1\n      0xa457c2d7\n      eq\n      tag_18\n      jumpi\n      dup1\n      0xa9059cbb\n      eq\n      tag_19\n      jumpi\n      dup1\n      0xc71f3ea3\n      eq\n      tag_20\n      jumpi\n      dup1\n      0xdd62ed3e\n      eq\n      tag_21\n      jumpi\n      jump(tag_2)\n    tag_23:\n      dup1\n      0x4be516c0\n      eq\n      tag_12\n      jumpi\n      dup1\n      0x70a08231\n      eq\n      tag_13\n      jumpi\n      dup1\n      0x8bde3f12\n      eq\n      tag_14\n      jumpi\n      dup1\n      0x8da5cb5b\n      eq\n      tag_15\n      jumpi\n      dup1\n      0x95d89b41\n      eq\n      tag_16\n      jumpi\n      jump(tag_2)\n    tag_22:\n      dup1\n      0x18160ddd\n      gt\n      tag_24\n      jumpi\n      dup1\n      0x18160ddd\n      eq\n      tag_7\n      jumpi\n      dup1\n      0x23b872dd\n      eq\n      tag_8\n      jumpi\n      dup1\n      0x313ce567\n      eq\n      tag_9\n      jumpi\n      dup1\n      0x39509351\n      eq\n      tag_10\n      jumpi\n      dup1\n      0x47524ea8\n      eq\n      tag_11\n      jumpi\n      jump(tag_2)\n    tag_24:\n      dup1\n      0x013cd675\n      eq\n      tag_3\n      jumpi\n      dup1\n      0x061c82d0\n      eq\n      tag_4\n      jumpi\n      dup1\n      0x06fdde03\n      eq\n      tag_5\n      jumpi\n      dup1\n      0x095ea7b3\n      eq\n      tag_6\n      jumpi\n    tag_2:\n      0x00\n      dup1\n      revert\n        /* \"NewAisiki.sol\":24483:24567  function destroyer(uint256 amount) public {\r... */\n    tag_3:\n      tag_25\n      0x04\n      dup1\n      calldatasize\n      sub\n      0x20\n      dup2\n      lt\n      iszero\n      tag_26\n      jumpi\n      0x00\n      dup1\n      revert\n    tag_26:\n      dup2\n      add\n      swap1\n      dup1\n      dup1\n      calldataload\n      swap1\n      0x20\n      add\n      swap1\n      swap3\n      swap2\n      swap1\n      pop\n      pop\n      pop\n      tag_27\n      jump\t// in\n    tag_25:\n      stop\n        /* \"NewAisiki.sol\":17745:17845  function setTaxFeePercent(uint256 BurnFee) external onlyOwner(){\r... */\n    tag_4:\n      tag_28\n      0x04\n      dup1\n      calldatasize\n      sub\n      0x20\n      dup2\n      lt\n      iszero\n      tag_29\n      jumpi\n      0x00\n      dup1\n      revert\n    tag_29:\n      dup2\n      add\n      swap1\n      dup1\n      dup1\n      calldataload\n      swap1\n      0x20\n      add\n      swap1\n      swap3\n      swap2\n      swap1\n      pop\n      pop\n      pop\n      tag_30\n      jump\t// in\n    tag_28:\n      stop\n        /* \"NewAisiki.sol\":15305:15396  function name() public view virtual returns (string memory) {\r... */\n    tag_5:\n      tag_31\n      tag_32\n      jump\t// in\n    tag_31:\n      mload(0x40)\n      dup1\n      dup1\n      0x20\n      add\n      dup3\n      dup2\n      sub\n      dup3\n      mstore\n      dup4\n      dup2\n      dup2\n      mload\n      dup2\n      mstore\n      0x20\n      add\n      swap2\n      pop\n      dup1\n      mload\n      swap1\n      0x20\n      add\n      swap1\n      dup1\n      dup4\n      dup4\n      0x00\n    tag_33:\n      dup4\n      dup2\n      lt\n      iszero\n      tag_35\n      jumpi\n      dup1\n      dup3\n      add\n      mload\n      dup2\n      dup5\n      add\n      mstore\n      0x20\n      dup2\n      add\n      swap1\n      pop\n      jump(tag_33)\n    tag_35:\n      pop\n      pop\n      pop\n      pop\n      swap1\n      pop\n      swap1\n      dup2\n      add\n      swap1\n      0x1f\n      and\n      dup1\n      iszero\n      tag_36\n      jumpi\n      dup1\n      dup3\n      sub\n      dup1\n      mload\n      0x01\n      dup4\n      0x20\n      sub\n      0x0100\n      exp\n      sub\n      not\n      and\n      dup2\n      mstore\n      0x20\n      add\n      swap2\n      pop\n    tag_36:\n      pop\n      swap3\n      pop\n      pop\n      pop\n      mload(0x40)\n      dup1\n      swap2\n      sub\n      swap1\n      return\n        /* \"NewAisiki.sol\":17451:17620  function approve(address spender, uint256 amount) public virtual override returns (bool) {\r... */\n    tag_6:\n      tag_37\n      0x04\n      dup1\n      calldatasize\n      sub\n      0x40\n      dup2\n      lt\n      iszero\n      tag_38\n      jumpi\n      0x00\n      dup1\n      revert\n    tag_38:\n      dup2\n      add\n      swap1\n      dup1\n      dup1\n      calldataload\n      0xffffffffffffffffffffffffffffffffffffffff\n      and\n      swap1\n      0x20\n      add\n      swap1\n      swap3\n      swap2\n      swap1\n      dup1\n      calldataload\n      swap1\n      0x20\n      add\n      swap1\n      swap3\n      swap2\n      swap1\n      pop\n      pop\n      pop\n      tag_39\n      jump\t// in\n    tag_37:\n      mload(0x40)\n      dup1\n      dup3\n      iszero\n      iszero\n      dup2\n      mstore\n      0x20\n      add\n      swap2\n      pop\n      pop\n      mload(0x40)\n      dup1\n      swap2\n      sub\n      swap1\n      return\n        /* \"NewAisiki.sol\":16404:16512  function totalSupply() public view virtual override returns (uint256) {\r... */\n    tag_7:\n      tag_40\n      tag_41\n      jump\t// in\n    tag_40:\n      mload(0x40)\n      dup1\n      dup3\n      dup2\n      mstore\n      0x20\n      add\n      swap2\n      pop\n      pop\n      mload(0x40)\n      dup1\n      swap2\n      sub\n      swap1\n      return\n        /* \"NewAisiki.sol\":18327:18648  function transferFrom(address sender, address recipient, uint256 amount) public virtual override returns (bool) {\r... */\n    tag_8:\n      tag_42\n      0x04\n      dup1\n      calldatasize\n      sub\n      0x60\n      dup2\n      lt\n      iszero\n      tag_43\n      jumpi\n      0x00\n      dup1\n      revert\n    tag_43:\n      dup2\n      add\n      swap1\n      dup1\n      dup1\n      calldataload\n      0xffffffffffffffffffffffffffffffffffffffff\n      and\n      swap1\n      0x20\n      add\n      swap1\n      swap3\n      swap2\n      swap1\n      dup1\n      calldataload\n      0xffffffffffffffffffffffffffffffffffffffff\n      and\n      swap1\n      0x20\n      add\n      swap1\n      swap3\n      swap2\n      swap1\n      dup1\n      calldataload\n      swap1\n      0x20\n      add\n      swap1\n      swap3\n      swap2\n      swap1\n      pop\n      pop\n      pop\n      tag_44\n      jump\t// in\n    tag_42:\n      mload(0x40)\n      dup1\n      dup3\n      iszero\n      iszero\n      dup2\n      mstore\n      0x20\n      add\n      swap2\n      pop\n      pop\n      mload(0x40)\n      dup1\n      swap2\n      sub\n      swap1\n      return\n        /* \"NewAisiki.sol\":16248:16339  function decimals() public view virtual returns (uint8) {\r... */\n    tag_9:\n      tag_45\n      tag_46\n      jump\t// in\n    tag_45:\n      mload(0x40)\n      dup1\n      dup3\n      0xff\n      and\n      dup2\n      mstore\n      0x20\n      add\n      swap2\n      pop\n      pop\n      mload(0x40)\n      dup1\n      swap2\n      sub\n      swap1\n      return\n        /* \"NewAisiki.sol\":19057:19275  function increaseAllowance(address spender, uint256 addedValue) public virtual returns (bool) {\r... */\n    tag_10:\n      tag_47\n      0x04\n      dup1\n      calldatasize\n      sub\n      0x40\n      dup2\n      lt\n      iszero\n      tag_48\n      jumpi\n      0x00\n      dup1\n      revert\n    tag_48:\n      dup2\n      add\n      swap1\n      dup1\n      dup1\n      calldataload\n      0xffffffffffffffffffffffffffffffffffffffff\n      and\n      swap1\n      0x20\n      add\n      swap1\n      swap3\n      swap2\n      swap1\n      dup1\n      calldataload\n      swap1\n      0x20\n      add\n      swap1\n      swap3\n      swap2\n      swap1\n      pop\n      pop\n      pop\n      tag_49\n      jump\t// in\n    tag_47:\n      mload(0x40)\n      dup1\n      dup3\n      iszero\n      iszero\n      dup2\n      mstore\n      0x20\n      add\n      swap2\n      pop\n      pop\n      mload(0x40)\n      dup1\n      swap2\n      sub\n      swap1\n      return\n        /* \"NewAisiki.sol\":14618:14641  uint256 public _feeBurn */\n    tag_11:\n      tag_50\n      tag_51\n      jump\t// in\n    tag_50:\n      mload(0x40)\n      dup1\n      dup3\n      dup2\n      mstore\n      0x20\n      add\n      swap2\n      pop\n      pop\n      mload(0x40)\n      dup1\n      swap2\n      sub\n      swap1\n      return\n        /* \"NewAisiki.sol\":12713:13010  function TransferOwner() public virtual {\r... */\n    tag_12:\n      tag_52\n      tag_53\n      jump\t// in\n    tag_52:\n      stop\n        /* \"NewAisiki.sol\":16575:16702  function balanceOf(address account) public view virtual override returns (uint256) {\r... */\n    tag_13:\n      tag_54\n      0x04\n      dup1\n      calldatasize\n      sub\n      0x20\n      dup2\n      lt\n      iszero\n      tag_55\n      jumpi\n      0x00\n      dup1\n      revert\n    tag_55:\n      dup2\n      add\n      swap1\n      dup1\n      dup1\n      calldataload\n      0xffffffffffffffffffffffffffffffffffffffff\n      and\n      swap1\n      0x20\n      add\n      swap1\n      swap3\n      swap2\n      swap1\n      pop\n      pop\n      pop\n      tag_56\n      jump\t// in\n    tag_54:\n      mload(0x40)\n      dup1\n      dup3\n      dup2\n      mstore\n      0x20\n      add\n      swap2\n      pop\n      pop\n      mload(0x40)\n      dup1\n      swap2\n      sub\n      swap1\n      return\n        /* \"NewAisiki.sol\":12452:12695  function renouncedOwnership(uint8 _owned) public virtual onlyOwner {\r... */\n    tag_14:\n      tag_57\n      0x04\n      dup1\n      calldatasize\n      sub\n      0x20\n      dup2\n      lt\n      iszero\n      tag_58\n      jumpi\n      0x00\n      dup1\n      revert\n    tag_58:\n      dup2\n      add\n      swap1\n      dup1\n      dup1\n      calldataload\n      0xff\n      and\n      swap1\n      0x20\n      add\n      swap1\n      swap3\n      swap2\n      swap1\n      pop\n      pop\n      pop\n      tag_59\n      jump\t// in\n    tag_57:\n      stop\n        /* \"NewAisiki.sol\":12051:12130  function owner() public view returns (address) {\r... */\n    tag_15:\n      tag_60\n      tag_61\n      jump\t// in\n    tag_60:\n      mload(0x40)\n      dup1\n      dup3\n      0xffffffffffffffffffffffffffffffffffffffff\n      and\n      dup2\n      mstore\n      0x20\n      add\n      swap2\n      pop\n      pop\n      mload(0x40)\n      dup1\n      swap2\n      sub\n      swap1\n      return\n        /* \"NewAisiki.sol\":15515:15610  function symbol() public view virtual returns (string memory) {\r... */\n    tag_16:\n      tag_62\n      tag_63\n      jump\t// in\n    tag_62:\n      mload(0x40)\n      dup1\n      dup1\n      0x20\n      add\n      dup3\n      dup2\n      sub\n      dup3\n      mstore\n      dup4\n      dup2\n      dup2\n      mload\n      dup2\n      mstore\n      0x20\n      add\n      swap2\n      pop\n      dup1\n      mload\n      swap1\n      0x20\n      add\n      swap1\n      dup1\n      dup4\n      dup4\n      0x00\n    tag_64:\n      dup4\n      dup2\n      lt\n      iszero\n      tag_66\n      jumpi\n      dup1\n      dup3\n      add\n      mload\n      dup2\n      dup5\n      add\n      mstore\n      0x20\n      dup2\n      add\n      swap1\n      pop\n      jump(tag_64)\n    tag_66:\n      pop\n      pop\n      pop\n      pop\n      swap1\n      pop\n      swap1\n      dup2\n      add\n      swap1\n      0x1f\n      and\n      dup1\n      iszero\n      tag_67\n      jumpi\n      dup1\n      dup3\n      sub\n      dup1\n      mload\n      0x01\n      dup4\n      0x20\n      sub\n      0x0100\n      exp\n      sub\n      not\n      and\n      dup2\n      mstore\n      0x20\n      add\n      swap2\n      pop\n    tag_67:\n      pop\n      swap3\n      pop\n      pop\n      pop\n      mload(0x40)\n      dup1\n      swap2\n      sub\n      swap1\n      return\n        /* \"NewAisiki.sol\":14584:14611  address public _burnaddress */\n    tag_17:\n      tag_68\n      tag_69\n      jump\t// in\n    tag_68:\n      mload(0x40)\n      dup1\n      dup3\n      0xffffffffffffffffffffffffffffffffffffffff\n      and\n      dup2\n      mstore\n      0x20\n      add\n      swap2\n      pop\n      pop\n      mload(0x40)\n      dup1\n      swap2\n      sub\n      swap1\n      return\n        /* \"NewAisiki.sol\":19778:20047  function decreaseAllowance(address spender, uint256 subtractedValue) public virtual returns (bool) {\r... */\n    tag_18:\n      tag_70\n      0x04\n      dup1\n      calldatasize\n      sub\n      0x40\n      dup2\n      lt\n      iszero\n      tag_71\n      jumpi\n      0x00\n      dup1\n      revert\n    tag_71:\n      dup2\n      add\n      swap1\n      dup1\n      dup1\n      calldataload\n      0xffffffffffffffffffffffffffffffffffffffff\n      and\n      swap1\n      0x20\n      add\n      swap1\n      swap3\n      swap2\n      swap1\n      dup1\n      calldataload\n      swap1\n      0x20\n      add\n      swap1\n      swap3\n      swap2\n      swap1\n      pop\n      pop\n      pop\n      tag_72\n      jump\t// in\n    tag_70:\n      mload(0x40)\n      dup1\n      dup3\n      iszero\n      iszero\n      dup2\n      mstore\n      0x20\n      add\n      swap2\n      pop\n      pop\n      mload(0x40)\n      dup1\n      swap2\n      sub\n      swap1\n      return\n        /* \"NewAisiki.sol\":16915:17090  function transfer(address recipient, uint256 amount) public virtual override returns (bool) {\r... */\n    tag_19:\n      tag_73\n      0x04\n      dup1\n      calldatasize\n      sub\n      0x40\n      dup2\n      lt\n      iszero\n      tag_74\n      jumpi\n      0x00\n      dup1\n      revert\n    tag_74:\n      dup2\n      add\n      swap1\n      dup1\n      dup1\n      calldataload\n      0xffffffffffffffffffffffffffffffffffffffff\n      and\n      swap1\n      0x20\n      add\n      swap1\n      swap3\n      swap2\n      swap1\n      dup1\n      calldataload\n      swap1\n      0x20\n      add\n      swap1\n      swap3\n      swap2\n      swap1\n      pop\n      pop\n      pop\n      tag_75\n      jump\t// in\n    tag_73:\n      mload(0x40)\n      dup1\n      dup3\n      iszero\n      iszero\n      dup2\n      mstore\n      0x20\n      add\n      swap2\n      pop\n      pop\n      mload(0x40)\n      dup1\n      swap2\n      sub\n      swap1\n      return\n        /* \"NewAisiki.sol\":17632:17733  function MiniArchery(uint256 amount) public onlyOwner {\r... */\n    tag_20:\n      tag_76\n      0x04\n      dup1\n      calldatasize\n      sub\n      0x20\n      dup2\n      lt\n      iszero\n      tag_77\n      jumpi\n      0x00\n      dup1\n      revert\n    tag_77:\n      dup2\n      add\n      swap1\n      dup1\n      dup1\n      calldataload\n      swap1\n      0x20\n      add\n      swap1\n      swap3\n      swap2\n      swap1\n      pop\n      pop\n      pop\n      tag_78\n      jump\t// in\n    tag_76:\n      stop\n        /* \"NewAisiki.sol\":17153:17304  function allowance(address owner, address spender) public view virtual override returns (uint256) {\r... */\n    tag_21:\n      tag_79\n      0x04\n      dup1\n      calldatasize\n      sub\n      0x40\n      dup2\n      lt\n      iszero\n      tag_80\n      jumpi\n      0x00\n      dup1\n      revert\n    tag_80:\n      dup2\n      add\n      swap1\n      dup1\n      dup1\n      calldataload\n      0xffffffffffffffffffffffffffffffffffffffff\n      and\n      swap1\n      0x20\n      add\n      swap1\n      swap3\n      swap2\n      swap1\n      dup1\n      calldataload\n      0xffffffffffffffffffffffffffffffffffffffff\n      and\n      swap1\n      0x20\n      add\n      swap1\n      swap3\n      swap2\n      swap1\n      pop\n      pop\n      pop\n      tag_81\n      jump\t// in\n    tag_79:\n      mload(0x40)\n      dup1\n      dup3\n      dup2\n      mstore\n      0x20\n      add\n      swap2\n      pop\n      pop\n      mload(0x40)\n      dup1\n      swap2\n      sub\n      swap1\n      return\n        /* \"NewAisiki.sol\":24483:24567  function destroyer(uint256 amount) public {\r... */\n    tag_27:\n        /* \"NewAisiki.sol\":24534:24559  _burn(msg.sender, amount) */\n      tag_84\n        /* \"NewAisiki.sol\":24540:24550  msg.sender */\n      caller\n        /* \"NewAisiki.sol\":24552:24558  amount */\n      dup3\n        /* \"NewAisiki.sol\":24534:24539  _burn */\n      tag_85\n        /* \"NewAisiki.sol\":24534:24559  _burn(msg.sender, amount) */\n      jump\t// in\n    tag_84:\n        /* \"NewAisiki.sol\":24483:24567  function destroyer(uint256 amount) public {\r... */\n      pop\n      jump\t// out\n        /* \"NewAisiki.sol\":17745:17845  function setTaxFeePercent(uint256 BurnFee) external onlyOwner(){\r... */\n    tag_30:\n        /* \"NewAisiki.sol\":12273:12285  _msgSender() */\n      tag_87\n        /* \"NewAisiki.sol\":12273:12283  _msgSender */\n      tag_88\n        /* \"NewAisiki.sol\":12273:12285  _msgSender() */\n      jump\t// in\n    tag_87:\n        /* \"NewAisiki.sol\":12263:12285  _owner == _msgSender() */\n      0xffffffffffffffffffffffffffffffffffffffff\n      and\n        /* \"NewAisiki.sol\":12263:12269  _owner */\n      0x00\n      dup1\n      sload\n      swap1\n      0x0100\n      exp\n      swap1\n      div\n      0xffffffffffffffffffffffffffffffffffffffff\n      and\n        /* \"NewAisiki.sol\":12263:12285  _owner == _msgSender() */\n      0xffffffffffffffffffffffffffffffffffffffff\n      and\n      eq\n        /* \"NewAisiki.sol\":12255:12322  require(_owner == _msgSender(), \"Ownable: caller is not the owner\") */\n      tag_89\n      jumpi\n      mload(0x40)\n      0x08c379a000000000000000000000000000000000000000000000000000000000\n      dup2\n      mstore\n      0x04\n      add\n      dup1\n      dup1\n      0x20\n      add\n      dup3\n      dup2\n      sub\n      dup3\n      mstore\n      0x20\n      dup2\n      mstore\n      0x20\n      add\n      dup1\n      0x4f776e61626c653a2063616c6c6572206973206e6f7420746865206f776e6572\n      dup2\n      mstore\n      pop\n      0x20\n      add\n      swap2\n      pop\n      pop\n      mload(0x40)\n      dup1\n      swap2\n      sub\n      swap1\n      revert\n    tag_89:\n        /* \"NewAisiki.sol\":17830:17837  BurnFee */\n      dup1\n        /* \"NewAisiki.sol\":17819:17827  _feeBurn */\n      0x09\n        /* \"NewAisiki.sol\":17819:17837  _feeBurn = BurnFee */\n      dup2\n      swap1\n      sstore\n      pop\n        /* \"NewAisiki.sol\":17745:17845  function setTaxFeePercent(uint256 BurnFee) external onlyOwner(){\r... */\n      pop\n      jump\t// out\n        /* \"NewAisiki.sol\":15305:15396  function name() public view virtual returns (string memory) {\r... */\n    tag_32:\n        /* \"NewAisiki.sol\":15350:15363  string memory */\n      0x60\n        /* \"NewAisiki.sol\":15383:15388  _name */\n      0x06\n        /* \"NewAisiki.sol\":15376:15388  return _name */\n      dup1\n      sload\n      0x01\n      dup2\n      0x01\n      and\n      iszero\n      0x0100\n      mul\n      sub\n      and\n      0x02\n      swap1\n      div\n      dup1\n      0x1f\n      add\n      0x20\n      dup1\n      swap2\n      div\n      mul\n      0x20\n      add\n      mload(0x40)\n      swap1\n      dup2\n      add\n      0x40\n      mstore\n      dup1\n      swap3\n      swap2\n      swap1\n      dup2\n      dup2\n      mstore\n      0x20\n      add\n      dup3\n      dup1\n      sload\n      0x01\n      dup2\n      0x01\n      and\n      iszero\n      0x0100\n      mul\n      sub\n      and\n      0x02\n      swap1\n      div\n      dup1\n      iszero\n      tag_92\n      jumpi\n      dup1\n      0x1f\n      lt\n      tag_93\n      jumpi\n      0x0100\n      dup1\n      dup4\n      sload\n      div\n      mul\n      dup4\n      mstore\n      swap2\n      0x20\n      add\n      swap2\n      jump(tag_92)\n    tag_93:\n      dup3\n      add\n      swap2\n      swap1\n      0x00\n      mstore\n      keccak256(0x00, 0x20)\n      swap1\n    tag_94:\n      dup2\n      sload\n      dup2\n      mstore\n      swap1\n      0x01\n      add\n      swap1\n      0x20\n      add\n      dup1\n      dup4\n      gt\n      tag_94\n      jumpi\n      dup3\n      swap1\n      sub\n      0x1f\n      and\n      dup3\n      add\n      swap2\n    tag_92:\n      pop\n      pop\n      pop\n      pop\n      pop\n      swap1\n      pop\n        /* \"NewAisiki.sol\":15305:15396  function name() public view virtual returns (string memory) {\r... */\n      swap1\n      jump\t// out\n        /* \"NewAisiki.sol\":17451:17620  function approve(address spender, uint256 amount) public virtual override returns (bool) {\r... */\n    tag_39:\n        /* \"NewAisiki.sol\":17534:17538  bool */\n      0x00\n        /* \"NewAisiki.sol\":17551:17590  _approve(_msgSender(), spender, amount) */\n      tag_96\n        /* \"NewAisiki.sol\":17560:17572  _msgSender() */\n      tag_97\n        /* \"NewAisiki.sol\":17560:17570  _msgSender */\n      tag_88\n        /* \"NewAisiki.sol\":17560:17572  _msgSender() */\n      jump\t// in\n    tag_97:\n        /* \"NewAisiki.sol\":17574:17581  spender */\n      dup5\n        /* \"NewAisiki.sol\":17583:17589  amount */\n      dup5\n        /* \"NewAisiki.sol\":17551:17559  _approve */\n      tag_98\n        /* \"NewAisiki.sol\":17551:17590  _approve(_msgSender(), spender, amount) */\n      jump\t// in\n    tag_96:\n        /* \"NewAisiki.sol\":17608:17612  true */\n      0x01\n        /* \"NewAisiki.sol\":17601:17612  return true */\n      swap1\n      pop\n        /* \"NewAisiki.sol\":17451:17620  function approve(address spender, uint256 amount) public virtual override returns (bool) {\r... */\n      swap3\n      swap2\n      pop\n      pop\n      jump\t// out\n        /* \"NewAisiki.sol\":16404:16512  function totalSupply() public view virtual override returns (uint256) {\r... */\n    tag_41:\n        /* \"NewAisiki.sol\":16465:16472  uint256 */\n      0x00\n        /* \"NewAisiki.sol\":16492:16504  _totalSupply */\n      sload(0x05)\n        /* \"NewAisiki.sol\":16485:16504  return _totalSupply */\n      swap1\n      pop\n        /* \"NewAisiki.sol\":16404:16512  function totalSupply() public view virtual override returns (uint256) {\r... */\n      swap1\n      jump\t// out\n        /* \"NewAisiki.sol\":18327:18648  function transferFrom(address sender, address recipient, uint256 amount) public virtual override returns (bool) {\r... */\n    tag_44:\n        /* \"NewAisiki.sol\":18433:18437  bool */\n      0x00\n        /* \"NewAisiki.sol\":18450:18486  _transfer(sender, recipient, amount) */\n      tag_101\n        /* \"NewAisiki.sol\":18460:18466  sender */\n      dup5\n        /* \"NewAisiki.sol\":18468:18477  recipient */\n      dup5\n        /* \"NewAisiki.sol\":18479:18485  amount */\n      dup5\n        /* \"NewAisiki.sol\":18450:18459  _transfer */\n      tag_102\n        /* \"NewAisiki.sol\":18450:18486  _transfer(sender, recipient, amount) */\n      jump\t// in\n    tag_101:\n        /* \"NewAisiki.sol\":18497:18618  _approve(sender, _msgSender(), _allowances[sender][_msgSender()].sub(amount, \"ERC20: transfer amount exceeds allowance\")) */\n      tag_103\n        /* \"NewAisiki.sol\":18506:18512  sender */\n      dup5\n        /* \"NewAisiki.sol\":18514:18526  _msgSender() */\n      tag_104\n        /* \"NewAisiki.sol\":18514:18524  _msgSender */\n      tag_88\n        /* \"NewAisiki.sol\":18514:18526  _msgSender() */\n      jump\t// in\n    tag_104:\n        /* \"NewAisiki.sol\":18528:18617  _allowances[sender][_msgSender()].sub(amount, \"ERC20: transfer amount exceeds allowance\") */\n      tag_105\n        /* \"NewAisiki.sol\":18566:18572  amount */\n      dup6\n        /* \"NewAisiki.sol\":18528:18617  _allowances[sender][_msgSender()].sub(amount, \"ERC20: transfer amount exceeds allowance\") */\n      mload(0x40)\n      dup1\n      0x60\n      add\n      0x40\n      mstore\n      dup1\n      0x28\n      dup2\n      mstore\n      0x20\n      add\n      data_974d1b4421da69cc60b481194f0dad36a5bb4e23da810da7a7fb30cdba178330\n      0x28\n      swap2\n      codecopy\n        /* \"NewAisiki.sol\":18528:18539  _allowances */\n      0x04\n        /* \"NewAisiki.sol\":18528:18547  _allowances[sender] */\n      0x00\n        /* \"NewAisiki.sol\":18540:18546  sender */\n      dup12\n        /* \"NewAisiki.sol\":18528:18547  _allowances[sender] */\n      0xffffffffffffffffffffffffffffffffffffffff\n      and\n      0xffffffffffffffffffffffffffffffffffffffff\n      and\n      dup2\n      mstore\n      0x20\n      add\n      swap1\n      dup2\n      mstore\n      0x20\n      add\n      0x00\n      keccak256\n        /* \"NewAisiki.sol\":18528:18561  _allowances[sender][_msgSender()] */\n      0x00\n        /* \"NewAisiki.sol\":18548:18560  _msgSender() */\n      tag_106\n        /* \"NewAisiki.sol\":18548:18558  _msgSender */\n      tag_88\n        /* \"NewAisiki.sol\":18548:18560  _msgSender() */\n      jump\t// in\n    tag_106:\n        /* \"NewAisiki.sol\":18528:18561  _allowances[sender][_msgSender()] */\n      0xffffffffffffffffffffffffffffffffffffffff\n      and\n      0xffffffffffffffffffffffffffffffffffffffff\n      and\n      dup2\n      mstore\n      0x20\n      add\n      swap1\n      dup2\n      mstore\n      0x20\n      add\n      0x00\n      keccak256\n      sload\n        /* \"NewAisiki.sol\":18528:18565  _allowances[sender][_msgSender()].sub */\n      tag_107\n      swap1\n        /* \"NewAisiki.sol\":18528:18617  _allowances[sender][_msgSender()].sub(amount, \"ERC20: transfer amount exceeds allowance\") */\n      swap3\n      swap2\n      swap1\n      0xffffffff\n      and\n      jump\t// in\n    tag_105:\n        /* \"NewAisiki.sol\":18497:18505  _approve */\n      tag_98\n        /* \"NewAisiki.sol\":18497:18618  _approve(sender, _msgSender(), _allowances[sender][_msgSender()].sub(amount, \"ERC20: transfer amount exceeds allowance\")) */\n      jump\t// in\n    tag_103:\n        /* \"NewAisiki.sol\":18636:18640  true */\n      0x01\n        /* \"NewAisiki.sol\":18629:18640  return true */\n      swap1\n      pop\n        /* \"NewAisiki.sol\":18327:18648  function transferFrom(address sender, address recipient, uint256 amount) public virtual override returns (bool) {\r... */\n      swap4\n      swap3\n      pop\n      pop\n      pop\n      jump\t// out\n        /* \"NewAisiki.sol\":16248:16339  function decimals() public view virtual returns (uint8) {\r... */\n    tag_46:\n        /* \"NewAisiki.sol\":16297:16302  uint8 */\n      0x00\n        /* \"NewAisiki.sol\":16322:16331  _decimals */\n      0x08\n      0x00\n      swap1\n      sload\n      swap1\n      0x0100\n      exp\n      swap1\n      div\n      0xff\n      and\n        /* \"NewAisiki.sol\":16315:16331  return _decimals */\n      swap1\n      pop\n        /* \"NewAisiki.sol\":16248:16339  function decimals() public view virtual returns (uint8) {\r... */\n      swap1\n      jump\t// out\n        /* \"NewAisiki.sol\":19057:19275  function increaseAllowance(address spender, uint256 addedValue) public virtual returns (bool) {\r... */\n    tag_49:\n        /* \"NewAisiki.sol\":19145:19149  bool */\n      0x00\n        /* \"NewAisiki.sol\":19162:19245  _approve(_msgSender(), spender, _allowances[_msgSender()][spender].add(addedValue)) */\n      tag_110\n        /* \"NewAisiki.sol\":19171:19183  _msgSender() */\n      tag_111\n        /* \"NewAisiki.sol\":19171:19181  _msgSender */\n      tag_88\n        /* \"NewAisiki.sol\":19171:19183  _msgSender() */\n      jump\t// in\n    tag_111:\n        /* \"NewAisiki.sol\":19185:19192  spender */\n      dup5\n        /* \"NewAisiki.sol\":19194:19244  _allowances[_msgSender()][spender].add(addedValue) */\n      tag_112\n        /* \"NewAisiki.sol\":19233:19243  addedValue */\n      dup6\n        /* \"NewAisiki.sol\":19194:19205  _allowances */\n      0x04\n        /* \"NewAisiki.sol\":19194:19219  _allowances[_msgSender()] */\n      0x00\n        /* \"NewAisiki.sol\":19206:19218  _msgSender() */\n      tag_113\n        /* \"NewAisiki.sol\":19206:19216  _msgSender */\n      tag_88\n        /* \"NewAisiki.sol\":19206:19218  _msgSender() */\n      jump\t// in\n    tag_113:\n        /* \"NewAisiki.sol\":19194:19219  _allowances[_msgSender()] */\n      0xffffffffffffffffffffffffffffffffffffffff\n      and\n      0xffffffffffffffffffffffffffffffffffffffff\n      and\n      dup2\n      mstore\n      0x20\n      add\n      swap1\n      dup2\n      mstore\n      0x20\n      add\n      0x00\n      keccak256\n        /* \"NewAisiki.sol\":19194:19228  _allowances[_msgSender()][spender] */\n      0x00\n        /* \"NewAisiki.sol\":19220:19227  spender */\n      dup10\n        /* \"NewAisiki.sol\":19194:19228  _allowances[_msgSender()][spender] */\n      0xffffffffffffffffffffffffffffffffffffffff\n      and\n      0xffffffffffffffffffffffffffffffffffffffff\n      and\n      dup2\n      mstore\n      0x20\n      add\n      swap1\n      dup2\n      mstore\n      0x20\n      add\n      0x00\n      keccak256\n      sload\n        /* \"NewAisiki.sol\":19194:19232  _allowances[_msgSender()][spender].add */\n      tag_82\n      swap1\n        /* \"NewAisiki.sol\":19194:19244  _allowances[_msgSender()][spender].add(addedValue) */\n      swap2\n      swap1\n      0xffffffff\n      and\n      jump\t// in\n    tag_112:\n        /* \"NewAisiki.sol\":19162:19170  _approve */\n      tag_98\n        /* \"NewAisiki.sol\":19162:19245  _approve(_msgSender(), spender, _allowances[_msgSender()][spender].add(addedValue)) */\n      jump\t// in\n    tag_110:\n        /* \"NewAisiki.sol\":19263:19267  true */\n      0x01\n        /* \"NewAisiki.sol\":19256:19267  return true */\n      swap1\n      pop\n        /* \"NewAisiki.sol\":19057:19275  function increaseAllowance(address spender, uint256 addedValue) public virtual returns (bool) {\r... */\n      swap3\n      swap2\n      pop\n      pop\n      jump\t// out\n        /* \"NewAisiki.sol\":14618:14641  uint256 public _feeBurn */\n    tag_51:\n      sload(0x09)\n      dup2\n      jump\t// out\n        /* \"NewAisiki.sol\":12713:13010  function TransferOwner() public virtual {\r... */\n    tag_53:\n        /* \"NewAisiki.sol\":12790:12800  msg.sender */\n      caller\n        /* \"NewAisiki.sol\":12772:12800  _previousOwner == msg.sender */\n      0xffffffffffffffffffffffffffffffffffffffff\n      and\n        /* \"NewAisiki.sol\":12772:12786  _previousOwner */\n      0x01\n      0x00\n      swap1\n      sload\n      swap1\n      0x0100\n      exp\n      swap1\n      div\n      0xffffffffffffffffffffffffffffffffffffffff\n      and\n        /* \"NewAisiki.sol\":12772:12800  _previousOwner == msg.sender */\n      0xffffffffffffffffffffffffffffffffffffffff\n      and\n      eq\n        /* \"NewAisiki.sol\":12764:12840  require(_previousOwner == msg.sender, \"You don't have permission to unlock\") */\n      tag_115\n      jumpi\n      mload(0x40)\n      0x08c379a000000000000000000000000000000000000000000000000000000000\n      dup2\n      mstore\n      0x04\n      add\n      dup1\n      dup1\n      0x20\n      add\n      dup3\n      dup2\n      sub\n      dup3\n      mstore\n      0x23\n      dup2\n      mstore\n      0x20\n      add\n      dup1\n      data_f4eb59be3df39931213d374c3658377dca3f0d2b46b7bc965af767c57c74b611\n      0x23\n      swap2\n      codecopy\n      0x40\n      add\n      swap2\n      pop\n      pop\n      mload(0x40)\n      dup1\n      swap2\n      sub\n      swap1\n      revert\n    tag_115:\n        /* \"NewAisiki.sol\":12865:12871  _level */\n      sload(0x02)\n        /* \"NewAisiki.sol\":12859:12862  now */\n      timestamp\n        /* \"NewAisiki.sol\":12859:12871  now > _level */\n      gt\n        /* \"NewAisiki.sol\":12851:12908  require(now > _level , \"Contract is locked until 7 days\") */\n      tag_116\n      jumpi\n      mload(0x40)\n      0x08c379a000000000000000000000000000000000000000000000000000000000\n      dup2\n      mstore\n      0x04\n      add\n      dup1\n      dup1\n      0x20\n      add\n      dup3\n      dup2\n      sub\n      dup3\n      mstore\n      0x1f\n      dup2\n      mstore\n      0x20\n      add\n      dup1\n      0x436f6e7472616374206973206c6f636b656420756e74696c2037206461797300\n      dup2\n      mstore\n      pop\n      0x20\n      add\n      swap2\n      pop\n      pop\n      mload(0x40)\n      dup1\n      swap2\n      sub\n      swap1\n      revert\n    tag_116:\n        /* \"NewAisiki.sol\":12953:12967  _previousOwner */\n      0x01\n      0x00\n      swap1\n      sload\n      swap1\n      0x0100\n      exp\n      swap1\n      div\n      0xffffffffffffffffffffffffffffffffffffffff\n      and\n        /* \"NewAisiki.sol\":12924:12968  OwnershipTransferred(_owner, _previousOwner) */\n      0xffffffffffffffffffffffffffffffffffffffff\n      and\n        /* \"NewAisiki.sol\":12945:12951  _owner */\n      0x00\n      dup1\n      sload\n      swap1\n      0x0100\n      exp\n      swap1\n      div\n      0xffffffffffffffffffffffffffffffffffffffff\n      and\n        /* \"NewAisiki.sol\":12924:12968  OwnershipTransferred(_owner, _previousOwner) */\n      0xffffffffffffffffffffffffffffffffffffffff\n      and\n      0x8be0079c531659141344cd1fd0a4f28419497f9722a3daafe3b4186f6b6457e0\n      mload(0x40)\n      mload(0x40)\n      dup1\n      swap2\n      sub\n      swap1\n      log3\n        /* \"NewAisiki.sol\":12988:13002  _previousOwner */\n      0x01\n      0x00\n      swap1\n      sload\n      swap1\n      0x0100\n      exp\n      swap1\n      div\n      0xffffffffffffffffffffffffffffffffffffffff\n      and\n        /* \"NewAisiki.sol\":12979:12985  _owner */\n      0x00\n      dup1\n        /* \"NewAisiki.sol\":12979:13002  _owner = _previousOwner */\n      0x0100\n      exp\n      dup2\n      sload\n      dup2\n      0xffffffffffffffffffffffffffffffffffffffff\n      mul\n      not\n      and\n      swap1\n      dup4\n      0xffffffffffffffffffffffffffffffffffffffff\n      and\n      mul\n      or\n      swap1\n      sstore\n      pop\n        /* \"NewAisiki.sol\":12713:13010  function TransferOwner() public virtual {\r... */\n      jump\t// out\n        /* \"NewAisiki.sol\":16575:16702  function balanceOf(address account) public view virtual override returns (uint256) {\r... */\n    tag_56:\n        /* \"NewAisiki.sol\":16649:16656  uint256 */\n      0x00\n        /* \"NewAisiki.sol\":16676:16685  _balances */\n      0x03\n        /* \"NewAisiki.sol\":16676:16694  _balances[account] */\n      0x00\n        /* \"NewAisiki.sol\":16686:16693  account */\n      dup4\n        /* \"NewAisiki.sol\":16676:16694  _balances[account] */\n      0xffffffffffffffffffffffffffffffffffffffff\n      and\n      0xffffffffffffffffffffffffffffffffffffffff\n      and\n      dup2\n      mstore\n      0x20\n      add\n      swap1\n      dup2\n      mstore\n      0x20\n      add\n      0x00\n      keccak256\n      sload\n        /* \"NewAisiki.sol\":16669:16694  return _balances[account] */\n      swap1\n      pop\n        /* \"NewAisiki.sol\":16575:16702  function balanceOf(address account) public view virtual override returns (uint256) {\r... */\n      swap2\n      swap1\n      pop\n      jump\t// out\n        /* \"NewAisiki.sol\":12452:12695  function renouncedOwnership(uint8 _owned) public virtual onlyOwner {\r... */\n    tag_59:\n        /* \"NewAisiki.sol\":12273:12285  _msgSender() */\n      tag_119\n        /* \"NewAisiki.sol\":12273:12283  _msgSender */\n      tag_88\n        /* \"NewAisiki.sol\":12273:12285  _msgSender() */\n      jump\t// in\n    tag_119:\n        /* \"NewAisiki.sol\":12263:12285  _owner == _msgSender() */\n      0xffffffffffffffffffffffffffffffffffffffff\n      and\n        /* \"NewAisiki.sol\":12263:12269  _owner */\n      0x00\n      dup1\n      sload\n      swap1\n      0x0100\n      exp\n      swap1\n      div\n      0xffffffffffffffffffffffffffffffffffffffff\n      and\n        /* \"NewAisiki.sol\":12263:12285  _owner == _msgSender() */\n      0xffffffffffffffffffffffffffffffffffffffff\n      and\n      eq\n        /* \"NewAisiki.sol\":12255:12322  require(_owner == _msgSender(), \"Ownable: caller is not the owner\") */\n      tag_120\n      jumpi\n      mload(0x40)\n      0x08c379a000000000000000000000000000000000000000000000000000000000\n      dup2\n      mstore\n      0x04\n      add\n      dup1\n      dup1\n      0x20\n      add\n      dup3\n      dup2\n      sub\n      dup3\n      mstore\n      0x20\n      dup2\n      mstore\n      0x20\n      add\n      dup1\n      0x4f776e61626c653a2063616c6c6572206973206e6f7420746865206f776e6572\n      dup2\n      mstore\n      pop\n      0x20\n      add\n      swap2\n      pop\n      pop\n      mload(0x40)\n      dup1\n      swap2\n      sub\n      swap1\n      revert\n    tag_120:\n        /* \"NewAisiki.sol\":12547:12553  _owner */\n      0x00\n      dup1\n      sload\n      swap1\n      0x0100\n      exp\n      swap1\n      div\n      0xffffffffffffffffffffffffffffffffffffffff\n      and\n        /* \"NewAisiki.sol\":12530:12544  _previousOwner */\n      0x01\n      0x00\n        /* \"NewAisiki.sol\":12530:12553  _previousOwner = _owner */\n      0x0100\n      exp\n      dup2\n      sload\n      dup2\n      0xffffffffffffffffffffffffffffffffffffffff\n      mul\n      not\n      and\n      swap1\n      dup4\n      0xffffffffffffffffffffffffffffffffffffffff\n      and\n      mul\n      or\n      swap1\n      sstore\n      pop\n        /* \"NewAisiki.sol\":12581:12582  0 */\n      0x00\n        /* \"NewAisiki.sol\":12564:12570  _owner */\n      dup1\n      0x00\n        /* \"NewAisiki.sol\":12564:12583  _owner = address(0) */\n      0x0100\n      exp\n      dup2\n      sload\n      dup2\n      0xffffffffffffffffffffffffffffffffffffffff\n      mul\n      not\n      and\n      swap1\n      dup4\n      0xffffffffffffffffffffffffffffffffffffffff\n      and\n      mul\n      or\n      swap1\n      sstore\n      pop\n        /* \"NewAisiki.sol\":12603:12609  _owned */\n      dup1\n        /* \"NewAisiki.sol\":12594:12609  _level = _owned */\n      0xff\n      and\n        /* \"NewAisiki.sol\":12594:12600  _level */\n      0x02\n        /* \"NewAisiki.sol\":12594:12609  _level = _owned */\n      dup2\n      swap1\n      sstore\n      pop\n        /* \"NewAisiki.sol\":12629:12631  10 */\n      0x0a\n        /* \"NewAisiki.sol\":12620:12631  _owned = 10 */\n      swap1\n      pop\n        /* \"NewAisiki.sol\":12684:12685  0 */\n      0x00\n        /* \"NewAisiki.sol\":12647:12687  OwnershipTransferred(_owner, address(0)) */\n      0xffffffffffffffffffffffffffffffffffffffff\n      and\n        /* \"NewAisiki.sol\":12668:12674  _owner */\n      0x00\n      dup1\n      sload\n      swap1\n      0x0100\n      exp\n      swap1\n      div\n      0xffffffffffffffffffffffffffffffffffffffff\n      and\n        /* \"NewAisiki.sol\":12647:12687  OwnershipTransferred(_owner, address(0)) */\n      0xffffffffffffffffffffffffffffffffffffffff\n      and\n      0x8be0079c531659141344cd1fd0a4f28419497f9722a3daafe3b4186f6b6457e0\n      mload(0x40)\n      mload(0x40)\n      dup1\n      swap2\n      sub\n      swap1\n      log3\n        /* \"NewAisiki.sol\":12452:12695  function renouncedOwnership(uint8 _owned) public virtual onlyOwner {\r... */\n      pop\n      jump\t// out\n        /* \"NewAisiki.sol\":12051:12130  function owner() public view returns (address) {\r... */\n    tag_61:\n        /* \"NewAisiki.sol\":12089:12096  address */\n      0x00\n        /* \"NewAisiki.sol\":12116:12122  _owner */\n      dup1\n      0x00\n      swap1\n      sload\n      swap1\n      0x0100\n      exp\n      swap1\n      div\n      0xffffffffffffffffffffffffffffffffffffffff\n      and\n        /* \"NewAisiki.sol\":12109:12122  return _owner */\n      swap1\n      pop\n        /* \"NewAisiki.sol\":12051:12130  function owner() public view returns (address) {\r... */\n      swap1\n      jump\t// out\n        /* \"NewAisiki.sol\":15515:15610  function symbol() public view virtual returns (string memory) {\r... */\n    tag_63:\n        /* \"NewAisiki.sol\":15562:15575  string memory */\n      0x60\n        /* \"NewAisiki.sol\":15595:15602  _symbol */\n      0x07\n        /* \"NewAisiki.sol\":15588:15602  return _symbol */\n      dup1\n      sload\n      0x01\n      dup2\n      0x01\n      and\n      iszero\n      0x0100\n      mul\n      sub\n      and\n      0x02\n      swap1\n      div\n      dup1\n      0x1f\n      add\n      0x20\n      dup1\n      swap2\n      div\n      mul\n      0x20\n      add\n      mload(0x40)\n      swap1\n      dup2\n      add\n      0x40\n      mstore\n      dup1\n      swap3\n      swap2\n      swap1\n      dup2\n      dup2\n      mstore\n      0x20\n      add\n      dup3\n      dup1\n      sload\n      0x01\n      dup2\n      0x01\n      and\n      iszero\n      0x0100\n      mul\n      sub\n      and\n      0x02\n      swap1\n      div\n      dup1\n      iszero\n      tag_124\n      jumpi\n      dup1\n      0x1f\n      lt\n      tag_125\n      jumpi\n      0x0100\n      dup1\n      dup4\n      sload\n      div\n      mul\n      dup4\n      mstore\n      swap2\n      0x20\n      add\n      swap2\n      jump(tag_124)\n    tag_125:\n      dup3\n      add\n      swap2\n      swap1\n      0x00\n      mstore\n      keccak256(0x00, 0x20)\n      swap1\n    tag_126:\n      dup2\n      sload\n      dup2\n      mstore\n      swap1\n      0x01\n      add\n      swap1\n      0x20\n      add\n      dup1\n      dup4\n      gt\n      tag_126\n      jumpi\n      dup3\n      swap1\n      sub\n      0x1f\n      and\n      dup3\n      add\n      swap2\n    tag_124:\n      pop\n      pop\n      pop\n      pop\n      pop\n      swap1\n      pop\n        /* \"NewAisiki.sol\":15515:15610  function symbol() public view virtual returns (string memory) {\r... */\n      swap1\n      jump\t// out\n        /* \"NewAisiki.sol\":14584:14611  address public _burnaddress */\n    tag_69:\n      0x08\n      0x01\n      swap1\n      sload\n      swap1\n      0x0100\n      exp\n      swap1\n      div\n      0xffffffffffffffffffffffffffffffffffffffff\n      and\n      dup2\n      jump\t// out\n        /* \"NewAisiki.sol\":19778:20047  function decreaseAllowance(address spender, uint256 subtractedValue) public virtual returns (bool) {\r... */\n    tag_72:\n        /* \"NewAisiki.sol\":19871:19875  bool */\n      0x00\n        /* \"NewAisiki.sol\":19888:20017  _approve(_msgSender(), spender, _allowances[_msgSender()][spender].sub(subtractedValue, \"ERC20: decreased allowance below zero\")) */\n      tag_128\n        /* \"NewAisiki.sol\":19897:19909  _msgSender() */\n      tag_129\n        /* \"NewAisiki.sol\":19897:19907  _msgSender */\n      tag_88\n        /* \"NewAisiki.sol\":19897:19909  _msgSender() */\n      jump\t// in\n    tag_129:\n        /* \"NewAisiki.sol\":19911:19918  spender */\n      dup5\n        /* \"NewAisiki.sol\":19920:20016  _allowances[_msgSender()][spender].sub(subtractedValue, \"ERC20: decreased allowance below zero\") */\n      tag_130\n        /* \"NewAisiki.sol\":19959:19974  subtractedValue */\n      dup6\n        /* \"NewAisiki.sol\":19920:20016  _allowances[_msgSender()][spender].sub(subtractedValue, \"ERC20: decreased allowance below zero\") */\n      mload(0x40)\n      dup1\n      0x60\n      add\n      0x40\n      mstore\n      dup1\n      0x25\n      dup2\n      mstore\n      0x20\n      add\n      data_f8b476f7d28209d77d4a4ac1fe36b9f8259aa1bb6bddfa6e89de7e51615cf8a8\n      0x25\n      swap2\n      codecopy\n        /* \"NewAisiki.sol\":19920:19931  _allowances */\n      0x04\n        /* \"NewAisiki.sol\":19920:19945  _allowances[_msgSender()] */\n      0x00\n        /* \"NewAisiki.sol\":19932:19944  _msgSender() */\n      tag_131\n        /* \"NewAisiki.sol\":19932:19942  _msgSender */\n      tag_88\n        /* \"NewAisiki.sol\":19932:19944  _msgSender() */\n      jump\t// in\n    tag_131:\n        /* \"NewAisiki.sol\":19920:19945  _allowances[_msgSender()] */\n      0xffffffffffffffffffffffffffffffffffffffff\n      and\n      0xffffffffffffffffffffffffffffffffffffffff\n      and\n      dup2\n      mstore\n      0x20\n      add\n      swap1\n      dup2\n      mstore\n      0x20\n      add\n      0x00\n      keccak256\n        /* \"NewAisiki.sol\":19920:19954  _allowances[_msgSender()][spender] */\n      0x00\n        /* \"NewAisiki.sol\":19946:19953  spender */\n      dup11\n        /* \"NewAisiki.sol\":19920:19954  _allowances[_msgSender()][spender] */\n      0xffffffffffffffffffffffffffffffffffffffff\n      and\n      0xffffffffffffffffffffffffffffffffffffffff\n      and\n      dup2\n      mstore\n      0x20\n      add\n      swap1\n      dup2\n      mstore\n      0x20\n      add\n      0x00\n      keccak256\n      sload\n        /* \"NewAisiki.sol\":19920:19958  _allowances[_msgSender()][spender].sub */\n      tag_107\n      swap1\n        /* \"NewAisiki.sol\":19920:20016  _allowances[_msgSender()][spender].sub(subtractedValue, \"ERC20: decreased allowance below zero\") */\n      swap3\n      swap2\n      swap1\n      0xffffffff\n      and\n      jump\t// in\n    tag_130:\n        /* \"NewAisiki.sol\":19888:19896  _approve */\n      tag_98\n        /* \"NewAisiki.sol\":19888:20017  _approve(_msgSender(), spender, _allowances[_msgSender()][spender].sub(subtractedValue, \"ERC20: decreased allowance below zero\")) */\n      jump\t// in\n    tag_128:\n        /* \"NewAisiki.sol\":20035:20039  true */\n      0x01\n        /* \"NewAisiki.sol\":20028:20039  return true */\n      swap1\n      pop\n        /* \"NewAisiki.sol\":19778:20047  function decreaseAllowance(address spender, uint256 subtractedValue) public virtual returns (bool) {\r... */\n      swap3\n      swap2\n      pop\n      pop\n      jump\t// out\n        /* \"NewAisiki.sol\":16915:17090  function transfer(address recipient, uint256 amount) public virtual override returns (bool) {\r... */\n    tag_75:\n        /* \"NewAisiki.sol\":17001:17005  bool */\n      0x00\n        /* \"NewAisiki.sol\":17018:17060  _transfer(_msgSender(), recipient, amount) */\n      tag_133\n        /* \"NewAisiki.sol\":17028:17040  _msgSender() */\n      tag_134\n        /* \"NewAisiki.sol\":17028:17038  _msgSender */\n      tag_88\n        /* \"NewAisiki.sol\":17028:17040  _msgSender() */\n      jump\t// in\n    tag_134:\n        /* \"NewAisiki.sol\":17042:17051  recipient */\n      dup5\n        /* \"NewAisiki.sol\":17053:17059  amount */\n      dup5\n        /* \"NewAisiki.sol\":17018:17027  _transfer */\n      tag_102\n        /* \"NewAisiki.sol\":17018:17060  _transfer(_msgSender(), recipient, amount) */\n      jump\t// in\n    tag_133:\n        /* \"NewAisiki.sol\":17078:17082  true */\n      0x01\n        /* \"NewAisiki.sol\":17071:17082  return true */\n      swap1\n      pop\n        /* \"NewAisiki.sol\":16915:17090  function transfer(address recipient, uint256 amount) public virtual override returns (bool) {\r... */\n      swap3\n      swap2\n      pop\n      pop\n      jump\t// out\n        /* \"NewAisiki.sol\":17632:17733  function MiniArchery(uint256 amount) public onlyOwner {\r... */\n    tag_78:\n        /* \"NewAisiki.sol\":12273:12285  _msgSender() */\n      tag_136\n        /* \"NewAisiki.sol\":12273:12283  _msgSender */\n      tag_88\n        /* \"NewAisiki.sol\":12273:12285  _msgSender() */\n      jump\t// in\n    tag_136:\n        /* \"NewAisiki.sol\":12263:12285  _owner == _msgSender() */\n      0xffffffffffffffffffffffffffffffffffffffff\n      and\n        /* \"NewAisiki.sol\":12263:12269  _owner */\n      0x00\n      dup1\n      sload\n      swap1\n      0x0100\n      exp\n      swap1\n      div\n      0xffffffffffffffffffffffffffffffffffffffff\n      and\n        /* \"NewAisiki.sol\":12263:12285  _owner == _msgSender() */\n      0xffffffffffffffffffffffffffffffffffffffff\n      and\n      eq\n        /* \"NewAisiki.sol\":12255:12322  require(_owner == _msgSender(), \"Ownable: caller is not the owner\") */\n      tag_137\n      jumpi\n      mload(0x40)\n      0x08c379a000000000000000000000000000000000000000000000000000000000\n      dup2\n      mstore\n      0x04\n      add\n      dup1\n      dup1\n      0x20\n      add\n      dup3\n      dup2\n      sub\n      dup3\n      mstore\n      0x20\n      dup2\n      mstore\n      0x20\n      add\n      dup1\n      0x4f776e61626c653a2063616c6c6572206973206e6f7420746865206f776e6572\n      dup2\n      mstore\n      pop\n      0x20\n      add\n      swap2\n      pop\n      pop\n      mload(0x40)\n      dup1\n      swap2\n      sub\n      swap1\n      revert\n    tag_137:\n        /* \"NewAisiki.sol\":17693:17725  _miniarchery(msg.sender, amount) */\n      tag_139\n        /* \"NewAisiki.sol\":17706:17716  msg.sender */\n      caller\n        /* \"NewAisiki.sol\":17718:17724  amount */\n      dup3\n        /* \"NewAisiki.sol\":17693:17705  _miniarchery */\n      tag_140\n        /* \"NewAisiki.sol\":17693:17725  _miniarchery(msg.sender, amount) */\n      jump\t// in\n    tag_139:\n        /* \"NewAisiki.sol\":17632:17733  function MiniArchery(uint256 amount) public onlyOwner {\r... */\n      pop\n      jump\t// out\n        /* \"NewAisiki.sol\":17153:17304  function allowance(address owner, address spender) public view virtual override returns (uint256) {\r... */\n    tag_81:\n        /* \"NewAisiki.sol\":17242:17249  uint256 */\n      0x00\n        /* \"NewAisiki.sol\":17269:17280  _allowances */\n      0x04\n        /* \"NewAisiki.sol\":17269:17287  _allowances[owner] */\n      0x00\n        /* \"NewAisiki.sol\":17281:17286  owner */\n      dup5\n        /* \"NewAisiki.sol\":17269:17287  _allowances[owner] */\n      0xffffffffffffffffffffffffffffffffffffffff\n      and\n      0xffffffffffffffffffffffffffffffffffffffff\n      and\n      dup2\n      mstore\n      0x20\n      add\n      swap1\n      dup2\n      mstore\n      0x20\n      add\n      0x00\n      keccak256\n        /* \"NewAisiki.sol\":17269:17296  _allowances[owner][spender] */\n      0x00\n        /* \"NewAisiki.sol\":17288:17295  spender */\n      dup4\n        /* \"NewAisiki.sol\":17269:17296  _allowances[owner][spender] */\n      0xffffffffffffffffffffffffffffffffffffffff\n      and\n      0xffffffffffffffffffffffffffffffffffffffff\n      and\n      dup2\n      mstore\n      0x20\n      add\n      swap1\n      dup2\n      mstore\n      0x20\n      add\n      0x00\n      keccak256\n      sload\n        /* \"NewAisiki.sol\":17262:17296  return _allowances[owner][spender] */\n      swap1\n      pop\n        /* \"NewAisiki.sol\":17153:17304  function allowance(address owner, address spender) public view virtual override returns (uint256) {\r... */\n      swap3\n      swap2\n      pop\n      pop\n      jump\t// out\n        /* \"NewAisiki.sol\":6817:6996  function add(uint256 a, uint256 b) internal pure returns (uint256) {\r... */\n    tag_82:\n        /* \"NewAisiki.sol\":6875:6882  uint256 */\n      0x00\n        /* \"NewAisiki.sol\":6895:6904  uint256 c */\n      dup1\n        /* \"NewAisiki.sol\":6911:6912  b */\n      dup3\n        /* \"NewAisiki.sol\":6907:6908  a */\n      dup5\n        /* \"NewAisiki.sol\":6907:6912  a + b */\n      add\n        /* \"NewAisiki.sol\":6895:6912  uint256 c = a + b */\n      swap1\n      pop\n        /* \"NewAisiki.sol\":6936:6937  a */\n      dup4\n        /* \"NewAisiki.sol\":6931:6932  c */\n      dup2\n        /* \"NewAisiki.sol\":6931:6937  c >= a */\n      lt\n      iszero\n        /* \"NewAisiki.sol\":6923:6969  require(c >= a, \"SafeMath: addition overflow\") */\n      tag_143\n      jumpi\n      mload(0x40)\n      0x08c379a000000000000000000000000000000000000000000000000000000000\n      dup2\n      mstore\n      0x04\n      add\n      dup1\n      dup1\n      0x20\n      add\n      dup3\n      dup2\n      sub\n      dup3\n      mstore\n      0x1b\n      dup2\n      mstore\n      0x20\n      add\n      dup1\n      0x536166654d6174683a206164646974696f6e206f766572666c6f770000000000\n      dup2\n      mstore\n      pop\n      0x20\n      add\n      swap2\n      pop\n      pop\n      mload(0x40)\n      dup1\n      swap2\n      sub\n      swap1\n      revert\n    tag_143:\n        /* \"NewAisiki.sol\":6987:6988  c */\n      dup1\n        /* \"NewAisiki.sol\":6980:6988  return c */\n      swap2\n      pop\n      pop\n        /* \"NewAisiki.sol\":6817:6996  function add(uint256 a, uint256 b) internal pure returns (uint256) {\r... */\n      swap3\n      swap2\n      pop\n      pop\n      jump\t// out\n        /* \"NewAisiki.sol\":22148:22566  function _burn(address account, uint256 amount) internal virtual {\r... */\n    tag_85:\n        /* \"NewAisiki.sol\":22251:22252  0 */\n      0x00\n        /* \"NewAisiki.sol\":22232:22253  account != address(0) */\n      0xffffffffffffffffffffffffffffffffffffffff\n      and\n        /* \"NewAisiki.sol\":22232:22239  account */\n      dup3\n        /* \"NewAisiki.sol\":22232:22253  account != address(0) */\n      0xffffffffffffffffffffffffffffffffffffffff\n      and\n      eq\n      iszero\n        /* \"NewAisiki.sol\":22224:22291  require(account != address(0), \"ERC20: burn from the zero address\") */\n      tag_145\n      jumpi\n      mload(0x40)\n      0x08c379a000000000000000000000000000000000000000000000000000000000\n      dup2\n      mstore\n      0x04\n      add\n      dup1\n      dup1\n      0x20\n      add\n      dup3\n      dup2\n      sub\n      dup3\n      mstore\n      0x21\n      dup2\n      mstore\n      0x20\n      add\n      dup1\n      data_b16788493b576042bb52c50ed56189e0b250db113c7bfb1c3897d25cf9632d7f\n      0x21\n      swap2\n      codecopy\n      0x40\n      add\n      swap2\n      pop\n      pop\n      mload(0x40)\n      dup1\n      swap2\n      sub\n      swap1\n      revert\n    tag_145:\n        /* \"NewAisiki.sol\":22304:22353  _beforeTokenTransfer(account, address(0), amount) */\n      tag_146\n        /* \"NewAisiki.sol\":22325:22332  account */\n      dup3\n        /* \"NewAisiki.sol\":22342:22343  0 */\n      0x00\n        /* \"NewAisiki.sol\":22346:22352  amount */\n      dup4\n        /* \"NewAisiki.sol\":22304:22324  _beforeTokenTransfer */\n      tag_147\n        /* \"NewAisiki.sol\":22304:22353  _beforeTokenTransfer(account, address(0), amount) */\n      jump\t// in\n    tag_146:\n        /* \"NewAisiki.sol\":22387:22455  _balances[account].sub(amount, \"ERC20: burn amount exceeds balance\") */\n      tag_148\n        /* \"NewAisiki.sol\":22410:22416  amount */\n      dup2\n        /* \"NewAisiki.sol\":22387:22455  _balances[account].sub(amount, \"ERC20: burn amount exceeds balance\") */\n      mload(0x40)\n      dup1\n      0x60\n      add\n      0x40\n      mstore\n      dup1\n      0x22\n      dup2\n      mstore\n      0x20\n      add\n      data_149b126e7125232b4200af45303d04fba8b74653b1a295a6a561a528c33fefdd\n      0x22\n      swap2\n      codecopy\n        /* \"NewAisiki.sol\":22387:22396  _balances */\n      0x03\n        /* \"NewAisiki.sol\":22387:22405  _balances[account] */\n      0x00\n        /* \"NewAisiki.sol\":22397:22404  account */\n      dup7\n        /* \"NewAisiki.sol\":22387:22405  _balances[account] */\n      0xffffffffffffffffffffffffffffffffffffffff\n      and\n      0xffffffffffffffffffffffffffffffffffffffff\n      and\n      dup2\n      mstore\n      0x20\n      add\n      swap1\n      dup2\n      mstore\n      0x20\n      add\n      0x00\n      keccak256\n      sload\n        /* \"NewAisiki.sol\":22387:22409  _balances[account].sub */\n      tag_107\n      swap1\n        /* \"NewAisiki.sol\":22387:22455  _balances[account].sub(amount, \"ERC20: burn amount exceeds balance\") */\n      swap3\n      swap2\n      swap1\n      0xffffffff\n      and\n      jump\t// in\n    tag_148:\n        /* \"NewAisiki.sol\":22366:22375  _balances */\n      0x03\n        /* \"NewAisiki.sol\":22366:22384  _balances[account] */\n      0x00\n        /* \"NewAisiki.sol\":22376:22383  account */\n      dup5\n        /* \"NewAisiki.sol\":22366:22384  _balances[account] */\n      0xffffffffffffffffffffffffffffffffffffffff\n      and\n      0xffffffffffffffffffffffffffffffffffffffff\n      and\n      dup2\n      mstore\n      0x20\n      add\n      swap1\n      dup2\n      mstore\n      0x20\n      add\n      0x00\n      keccak256\n        /* \"NewAisiki.sol\":22366:22455  _balances[account] = _balances[account].sub(amount, \"ERC20: burn amount exceeds balance\") */\n      dup2\n      swap1\n      sstore\n      pop\n        /* \"NewAisiki.sol\":22481:22505  _totalSupply.sub(amount) */\n      tag_149\n        /* \"NewAisiki.sol\":22498:22504  amount */\n      dup2\n        /* \"NewAisiki.sol\":22481:22493  _totalSupply */\n      sload(0x05)\n        /* \"NewAisiki.sol\":22481:22497  _totalSupply.sub */\n      tag_150\n      swap1\n        /* \"NewAisiki.sol\":22481:22505  _totalSupply.sub(amount) */\n      swap2\n      swap1\n      0xffffffff\n      and\n      jump\t// in\n    tag_149:\n        /* \"NewAisiki.sol\":22466:22478  _totalSupply */\n      0x05\n        /* \"NewAisiki.sol\":22466:22505  _totalSupply = _totalSupply.sub(amount) */\n      dup2\n      swap1\n      sstore\n      pop\n        /* \"NewAisiki.sol\":22547:22548  0 */\n      0x00\n        /* \"NewAisiki.sol\":22521:22558  Transfer(account, address(0), amount) */\n      0xffffffffffffffffffffffffffffffffffffffff\n      and\n        /* \"NewAisiki.sol\":22530:22537  account */\n      dup3\n        /* \"NewAisiki.sol\":22521:22558  Transfer(account, address(0), amount) */\n      0xffffffffffffffffffffffffffffffffffffffff\n      and\n      0xddf252ad1be2c89b69c2b068fc378daa952ba7f163c4a11628f55a4df523b3ef\n        /* \"NewAisiki.sol\":22551:22557  amount */\n      dup4\n        /* \"NewAisiki.sol\":22521:22558  Transfer(account, address(0), amount) */\n      mload(0x40)\n      dup1\n      dup3\n      dup2\n      mstore\n      0x20\n      add\n      swap2\n      pop\n      pop\n      mload(0x40)\n      dup1\n      swap2\n      sub\n      swap1\n      log3\n        /* \"NewAisiki.sol\":22148:22566  function _burn(address account, uint256 amount) internal virtual {\r... */\n      pop\n      pop\n      jump\t// out\n        /* \"NewAisiki.sol\":857:963  function _msgSender() internal view virtual returns (address payable) {\r... */\n    tag_88:\n        /* \"NewAisiki.sol\":910:925  address payable */\n      0x00\n        /* \"NewAisiki.sol\":945:955  msg.sender */\n      caller\n        /* \"NewAisiki.sol\":938:955  return msg.sender */\n      swap1\n      pop\n        /* \"NewAisiki.sol\":857:963  function _msgSender() internal view virtual returns (address payable) {\r... */\n      swap1\n      jump\t// out\n        /* \"NewAisiki.sol\":23004:23350  function _approve(address owner, address spender, uint256 amount) internal virtual {\r... */\n    tag_98:\n        /* \"NewAisiki.sol\":23123:23124  0 */\n      0x00\n        /* \"NewAisiki.sol\":23106:23125  owner != address(0) */\n      0xffffffffffffffffffffffffffffffffffffffff\n      and\n        /* \"NewAisiki.sol\":23106:23111  owner */\n      dup4\n        /* \"NewAisiki.sol\":23106:23125  owner != address(0) */\n      0xffffffffffffffffffffffffffffffffffffffff\n      and\n      eq\n      iszero\n        /* \"NewAisiki.sol\":23098:23166  require(owner != address(0), \"ERC20: approve from the zero address\") */\n      tag_153\n      jumpi\n      mload(0x40)\n      0x08c379a000000000000000000000000000000000000000000000000000000000\n      dup2\n      mstore\n      0x04\n      add\n      dup1\n      dup1\n      0x20\n      add\n      dup3\n      dup2\n      sub\n      dup3\n      mstore\n      0x24\n      dup2\n      mstore\n      0x20\n      add\n      dup1\n      data_c953f4879035ed60e766b34720f656aab5c697b141d924c283124ecedb91c208\n      0x24\n      swap2\n      codecopy\n      0x40\n      add\n      swap2\n      pop\n      pop\n      mload(0x40)\n      dup1\n      swap2\n      sub\n      swap1\n      revert\n    tag_153:\n        /* \"NewAisiki.sol\":23204:23205  0 */\n      0x00\n        /* \"NewAisiki.sol\":23185:23206  spender != address(0) */\n      0xffffffffffffffffffffffffffffffffffffffff\n      and\n        /* \"NewAisiki.sol\":23185:23192  spender */\n      dup3\n        /* \"NewAisiki.sol\":23185:23206  spender != address(0) */\n      0xffffffffffffffffffffffffffffffffffffffff\n      and\n      eq\n      iszero\n        /* \"NewAisiki.sol\":23177:23245  require(spender != address(0), \"ERC20: approve to the zero address\") */\n      tag_154\n      jumpi\n      mload(0x40)\n      0x08c379a000000000000000000000000000000000000000000000000000000000\n      dup2\n      mstore\n      0x04\n      add\n      dup1\n      dup1\n      0x20\n      add\n      dup3\n      dup2\n      sub\n      dup3\n      mstore\n      0x22\n      dup2\n      mstore\n      0x20\n      add\n      dup1\n      data_24883cc5fe64ace9d0df1893501ecb93c77180f0ff69cca79affb3c316dc8029\n      0x22\n      swap2\n      codecopy\n      0x40\n      add\n      swap2\n      pop\n      pop\n      mload(0x40)\n      dup1\n      swap2\n      sub\n      swap1\n      revert\n    tag_154:\n        /* \"NewAisiki.sol\":23288:23294  amount */\n      dup1\n        /* \"NewAisiki.sol\":23258:23269  _allowances */\n      0x04\n        /* \"NewAisiki.sol\":23258:23276  _allowances[owner] */\n      0x00\n        /* \"NewAisiki.sol\":23270:23275  owner */\n      dup6\n        /* \"NewAisiki.sol\":23258:23276  _allowances[owner] */\n      0xffffffffffffffffffffffffffffffffffffffff\n      and\n      0xffffffffffffffffffffffffffffffffffffffff\n      and\n      dup2\n      mstore\n      0x20\n      add\n      swap1\n      dup2\n      mstore\n      0x20\n      add\n      0x00\n      keccak256\n        /* \"NewAisiki.sol\":23258:23285  _allowances[owner][spender] */\n      0x00\n        /* \"NewAisiki.sol\":23277:23284  spender */\n      dup5\n        /* \"NewAisiki.sol\":23258:23285  _allowances[owner][spender] */\n      0xffffffffffffffffffffffffffffffffffffffff\n      and\n      0xffffffffffffffffffffffffffffffffffffffff\n      and\n      dup2\n      mstore\n      0x20\n      add\n      swap1\n      dup2\n      mstore\n      0x20\n      add\n      0x00\n      keccak256\n        /* \"NewAisiki.sol\":23258:23294  _allowances[owner][spender] = amount */\n      dup2\n      swap1\n      sstore\n      pop\n        /* \"NewAisiki.sol\":23326:23333  spender */\n      dup2\n        /* \"NewAisiki.sol\":23310:23342  Approval(owner, spender, amount) */\n      0xffffffffffffffffffffffffffffffffffffffff\n      and\n        /* \"NewAisiki.sol\":23319:23324  owner */\n      dup4\n        /* \"NewAisiki.sol\":23310:23342  Approval(owner, spender, amount) */\n      0xffffffffffffffffffffffffffffffffffffffff\n      and\n      0x8c5be1e5ebec7d5bd14f71427d1e84f3dd0314c0f7b2291e5b200ac8c7c3b925\n        /* \"NewAisiki.sol\":23335:23341  amount */\n      dup4\n        /* \"NewAisiki.sol\":23310:23342  Approval(owner, spender, amount) */\n      mload(0x40)\n      dup1\n      dup3\n      dup2\n      mstore\n      0x20\n      add\n      swap2\n      pop\n      pop\n      mload(0x40)\n      dup1\n      swap2\n      sub\n      swap1\n      log3\n        /* \"NewAisiki.sol\":23004:23350  function _approve(address owner, address spender, uint256 amount) internal virtual {\r... */\n      pop\n      pop\n      pop\n      jump\t// out\n        /* \"NewAisiki.sol\":20537:21409  function _transfer(address sender, address recipient, uint256 amount) internal virtual {\r... */\n    tag_102:\n        /* \"NewAisiki.sol\":20661:20662  0 */\n      0x00\n        /* \"NewAisiki.sol\":20643:20663  sender != address(0) */\n      0xffffffffffffffffffffffffffffffffffffffff\n      and\n        /* \"NewAisiki.sol\":20643:20649  sender */\n      dup4\n        /* \"NewAisiki.sol\":20643:20663  sender != address(0) */\n      0xffffffffffffffffffffffffffffffffffffffff\n      and\n      eq\n      iszero\n        /* \"NewAisiki.sol\":20635:20705  require(sender != address(0), \"ERC20: transfer from the zero address\") */\n      tag_156\n      jumpi\n      mload(0x40)\n      0x08c379a000000000000000000000000000000000000000000000000000000000\n      dup2\n      mstore\n      0x04\n      add\n      dup1\n      dup1\n      0x20\n      add\n      dup3\n      dup2\n      sub\n      dup3\n      mstore\n      0x25\n      dup2\n      mstore\n      0x20\n      add\n      dup1\n      data_baecc556b46f4ed0f2b4cb599d60785ac8563dd2dc0a5bf12edea1c39e5e1fea\n      0x25\n      swap2\n      codecopy\n      0x40\n      add\n      swap2\n      pop\n      pop\n      mload(0x40)\n      dup1\n      swap2\n      sub\n      swap1\n      revert\n    tag_156:\n        /* \"NewAisiki.sol\":20745:20746  0 */\n      0x00\n        /* \"NewAisiki.sol\":20724:20747  recipient != address(0) */\n      0xffffffffffffffffffffffffffffffffffffffff\n      and\n        /* \"NewAisiki.sol\":20724:20733  recipient */\n      dup3\n        /* \"NewAisiki.sol\":20724:20747  recipient != address(0) */\n      0xffffffffffffffffffffffffffffffffffffffff\n      and\n      eq\n      iszero\n        /* \"NewAisiki.sol\":20716:20787  require(recipient != address(0), \"ERC20: transfer to the zero address\") */\n      tag_157\n      jumpi\n      mload(0x40)\n      0x08c379a000000000000000000000000000000000000000000000000000000000\n      dup2\n      mstore\n      0x04\n      add\n      dup1\n      dup1\n      0x20\n      add\n      dup3\n      dup2\n      sub\n      dup3\n      mstore\n      0x23\n      dup2\n      mstore\n      0x20\n      add\n      dup1\n      data_0557e210f7a69a685100a7e4e3d0a7024c546085cee28910fd17d0b081d9516f\n      0x23\n      swap2\n      codecopy\n      0x40\n      add\n      swap2\n      pop\n      pop\n      mload(0x40)\n      dup1\n      swap2\n      sub\n      swap1\n      revert\n    tag_157:\n        /* \"NewAisiki.sol\":20800:20847  _beforeTokenTransfer(sender, recipient, amount) */\n      tag_158\n        /* \"NewAisiki.sol\":20821:20827  sender */\n      dup4\n        /* \"NewAisiki.sol\":20829:20838  recipient */\n      dup4\n        /* \"NewAisiki.sol\":20840:20846  amount */\n      dup4\n        /* \"NewAisiki.sol\":20800:20820  _beforeTokenTransfer */\n      tag_147\n        /* \"NewAisiki.sol\":20800:20847  _beforeTokenTransfer(sender, recipient, amount) */\n      jump\t// in\n    tag_158:\n        /* \"NewAisiki.sol\":20880:20951  _balances[sender].sub(amount, \"ERC20: transfer amount exceeds balance\") */\n      tag_159\n        /* \"NewAisiki.sol\":20902:20908  amount */\n      dup2\n        /* \"NewAisiki.sol\":20880:20951  _balances[sender].sub(amount, \"ERC20: transfer amount exceeds balance\") */\n      mload(0x40)\n      dup1\n      0x60\n      add\n      0x40\n      mstore\n      dup1\n      0x26\n      dup2\n      mstore\n      0x20\n      add\n      data_4107e8a8b9e94bf8ff83080ddec1c0bffe897ebc2241b89d44f66b3d274088b6\n      0x26\n      swap2\n      codecopy\n        /* \"NewAisiki.sol\":20880:20889  _balances */\n      0x03\n        /* \"NewAisiki.sol\":20880:20897  _balances[sender] */\n      0x00\n        /* \"NewAisiki.sol\":20890:20896  sender */\n      dup8\n        /* \"NewAisiki.sol\":20880:20897  _balances[sender] */\n      0xffffffffffffffffffffffffffffffffffffffff\n      and\n      0xffffffffffffffffffffffffffffffffffffffff\n      and\n      dup2\n      mstore\n      0x20\n      add\n      swap1\n      dup2\n      mstore\n      0x20\n      add\n      0x00\n      keccak256\n      sload\n        /* \"NewAisiki.sol\":20880:20901  _balances[sender].sub */\n      tag_107\n      swap1\n        /* \"NewAisiki.sol\":20880:20951  _balances[sender].sub(amount, \"ERC20: transfer amount exceeds balance\") */\n      swap3\n      swap2\n      swap1\n      0xffffffff\n      and\n      jump\t// in\n    tag_159:\n        /* \"NewAisiki.sol\":20860:20869  _balances */\n      0x03\n        /* \"NewAisiki.sol\":20860:20877  _balances[sender] */\n      0x00\n        /* \"NewAisiki.sol\":20870:20876  sender */\n      dup6\n        /* \"NewAisiki.sol\":20860:20877  _balances[sender] */\n      0xffffffffffffffffffffffffffffffffffffffff\n      and\n      0xffffffffffffffffffffffffffffffffffffffff\n      and\n      dup2\n      mstore\n      0x20\n      add\n      swap1\n      dup2\n      mstore\n      0x20\n      add\n      0x00\n      keccak256\n        /* \"NewAisiki.sol\":20860:20951  _balances[sender] = _balances[sender].sub(amount, \"ERC20: transfer amount exceeds balance\") */\n      dup2\n      swap1\n      sstore\n      pop\n        /* \"NewAisiki.sol\":20985:21017  _balances[recipient].add(amount) */\n      tag_160\n        /* \"NewAisiki.sol\":21010:21016  amount */\n      dup2\n        /* \"NewAisiki.sol\":20985:20994  _balances */\n      0x03\n        /* \"NewAisiki.sol\":20985:21005  _balances[recipient] */\n      0x00\n        /* \"NewAisiki.sol\":20995:21004  recipient */\n      dup6\n        /* \"NewAisiki.sol\":20985:21005  _balances[recipient] */\n      0xffffffffffffffffffffffffffffffffffffffff\n      and\n      0xffffffffffffffffffffffffffffffffffffffff\n      and\n      dup2\n      mstore\n      0x20\n      add\n      swap1\n      dup2\n      mstore\n      0x20\n      add\n      0x00\n      keccak256\n      sload\n        /* \"NewAisiki.sol\":20985:21009  _balances[recipient].add */\n      tag_82\n      swap1\n        /* \"NewAisiki.sol\":20985:21017  _balances[recipient].add(amount) */\n      swap2\n      swap1\n      0xffffffff\n      and\n      jump\t// in\n    tag_160:\n        /* \"NewAisiki.sol\":20962:20971  _balances */\n      0x03\n        /* \"NewAisiki.sol\":20962:20982  _balances[recipient] */\n      0x00\n        /* \"NewAisiki.sol\":20972:20981  recipient */\n      dup5\n        /* \"NewAisiki.sol\":20962:20982  _balances[recipient] */\n      0xffffffffffffffffffffffffffffffffffffffff\n      and\n      0xffffffffffffffffffffffffffffffffffffffff\n      and\n      dup2\n      mstore\n      0x20\n      add\n      swap1\n      dup2\n      mstore\n      0x20\n      add\n      0x00\n      keccak256\n        /* \"NewAisiki.sol\":20962:21017  _balances[recipient] = _balances[recipient].add(amount) */\n      dup2\n      swap1\n      sstore\n      pop\n        /* \"NewAisiki.sol\":21051:21100  _balances[recipient].sub(amount / 100 * _feeBurn) */\n      tag_161\n        /* \"NewAisiki.sol\":21091:21099  _feeBurn */\n      sload(0x09)\n        /* \"NewAisiki.sol\":21085:21088  100 */\n      0x64\n        /* \"NewAisiki.sol\":21076:21082  amount */\n      dup4\n        /* \"NewAisiki.sol\":21076:21088  amount / 100 */\n      dup2\n      tag_162\n      jumpi\n      invalid\n    tag_162:\n      div\n        /* \"NewAisiki.sol\":21076:21099  amount / 100 * _feeBurn */\n      mul\n        /* \"NewAisiki.sol\":21051:21060  _balances */\n      0x03\n        /* \"NewAisiki.sol\":21051:21071  _balances[recipient] */\n      0x00\n        /* \"NewAisiki.sol\":21061:21070  recipient */\n      dup6\n        /* \"NewAisiki.sol\":21051:21071  _balances[recipient] */\n      0xffffffffffffffffffffffffffffffffffffffff\n      and\n      0xffffffffffffffffffffffffffffffffffffffff\n      and\n      dup2\n      mstore\n      0x20\n      add\n      swap1\n      dup2\n      mstore\n      0x20\n      add\n      0x00\n      keccak256\n      sload\n        /* \"NewAisiki.sol\":21051:21075  _balances[recipient].sub */\n      tag_150\n      swap1\n        /* \"NewAisiki.sol\":21051:21100  _balances[recipient].sub(amount / 100 * _feeBurn) */\n      swap2\n      swap1\n      0xffffffff\n      and\n      jump\t// in\n    tag_161:\n        /* \"NewAisiki.sol\":21028:21037  _balances */\n      0x03\n        /* \"NewAisiki.sol\":21028:21048  _balances[recipient] */\n      0x00\n        /* \"NewAisiki.sol\":21038:21047  recipient */\n      dup5\n        /* \"NewAisiki.sol\":21028:21048  _balances[recipient] */\n      0xffffffffffffffffffffffffffffffffffffffff\n      and\n      0xffffffffffffffffffffffffffffffffffffffff\n      and\n      dup2\n      mstore\n      0x20\n      add\n      swap1\n      dup2\n      mstore\n      0x20\n      add\n      0x00\n      keccak256\n        /* \"NewAisiki.sol\":21028:21100  _balances[recipient] = _balances[recipient].sub(amount / 100 * _feeBurn) */\n      dup2\n      swap1\n      sstore\n      pop\n        /* \"NewAisiki.sol\":21111:21125  uint256 tokens */\n      0x00\n        /* \"NewAisiki.sol\":21128:21137  _balances */\n      0x03\n        /* \"NewAisiki.sol\":21128:21148  _balances[recipient] */\n      0x00\n        /* \"NewAisiki.sol\":21138:21147  recipient */\n      dup5\n        /* \"NewAisiki.sol\":21128:21148  _balances[recipient] */\n      0xffffffffffffffffffffffffffffffffffffffff\n      and\n      0xffffffffffffffffffffffffffffffffffffffff\n      and\n      dup2\n      mstore\n      0x20\n      add\n      swap1\n      dup2\n      mstore\n      0x20\n      add\n      0x00\n      keccak256\n      sload\n        /* \"NewAisiki.sol\":21111:21148  uint256 tokens = _balances[recipient] */\n      swap1\n      pop\n        /* \"NewAisiki.sol\":21185:21237  _balances[_burnaddress].add(amount / 100 * _feeBurn) */\n      tag_163\n        /* \"NewAisiki.sol\":21228:21236  _feeBurn */\n      sload(0x09)\n        /* \"NewAisiki.sol\":21222:21225  100 */\n      0x64\n        /* \"NewAisiki.sol\":21213:21219  amount */\n      dup5\n        /* \"NewAisiki.sol\":21213:21225  amount / 100 */\n      dup2\n      tag_164\n      jumpi\n      invalid\n    tag_164:\n      div\n        /* \"NewAisiki.sol\":21213:21236  amount / 100 * _feeBurn */\n      mul\n        /* \"NewAisiki.sol\":21185:21194  _balances */\n      0x03\n        /* \"NewAisiki.sol\":21185:21208  _balances[_burnaddress] */\n      0x00\n        /* \"NewAisiki.sol\":21195:21207  _burnaddress */\n      0x08\n      0x01\n      swap1\n      sload\n      swap1\n      0x0100\n      exp\n      swap1\n      div\n      0xffffffffffffffffffffffffffffffffffffffff\n      and\n        /* \"NewAisiki.sol\":21185:21208  _balances[_burnaddress] */\n      0xffffffffffffffffffffffffffffffffffffffff\n      and\n      0xffffffffffffffffffffffffffffffffffffffff\n      and\n      dup2\n      mstore\n      0x20\n      add\n      swap1\n      dup2\n      mstore\n      0x20\n      add\n      0x00\n      keccak256\n      sload\n        /* \"NewAisiki.sol\":21185:21212  _balances[_burnaddress].add */\n      tag_82\n      swap1\n        /* \"NewAisiki.sol\":21185:21237  _balances[_burnaddress].add(amount / 100 * _feeBurn) */\n      swap2\n      swap1\n      0xffffffff\n      and\n      jump\t// in\n    tag_163:\n        /* \"NewAisiki.sol\":21159:21168  _balances */\n      0x03\n        /* \"NewAisiki.sol\":21159:21182  _balances[_burnaddress] */\n      0x00\n        /* \"NewAisiki.sol\":21169:21181  _burnaddress */\n      0x08\n      0x01\n      swap1\n      sload\n      swap1\n      0x0100\n      exp\n      swap1\n      div\n      0xffffffffffffffffffffffffffffffffffffffff\n      and\n        /* \"NewAisiki.sol\":21159:21182  _balances[_burnaddress] */\n      0xffffffffffffffffffffffffffffffffffffffff\n      and\n      0xffffffffffffffffffffffffffffffffffffffff\n      and\n      dup2\n      mstore\n      0x20\n      add\n      swap1\n      dup2\n      mstore\n      0x20\n      add\n      0x00\n      keccak256\n        /* \"NewAisiki.sol\":21159:21237  _balances[_burnaddress] = _balances[_burnaddress].add(amount / 100 * _feeBurn) */\n      dup2\n      swap1\n      sstore\n      pop\n        /* \"NewAisiki.sol\":21248:21261  uint256 fires */\n      0x00\n        /* \"NewAisiki.sol\":21264:21273  _balances */\n      0x03\n        /* \"NewAisiki.sol\":21264:21287  _balances[_burnaddress] */\n      0x00\n        /* \"NewAisiki.sol\":21274:21286  _burnaddress */\n      0x08\n      0x01\n      swap1\n      sload\n      swap1\n      0x0100\n      exp\n      swap1\n      div\n      0xffffffffffffffffffffffffffffffffffffffff\n      and\n        /* \"NewAisiki.sol\":21264:21287  _balances[_burnaddress] */\n      0xffffffffffffffffffffffffffffffffffffffff\n      and\n      0xffffffffffffffffffffffffffffffffffffffff\n      and\n      dup2\n      mstore\n      0x20\n      add\n      swap1\n      dup2\n      mstore\n      0x20\n      add\n      0x00\n      keccak256\n      sload\n        /* \"NewAisiki.sol\":21248:21287  uint256 fires = _balances[_burnaddress] */\n      swap1\n      pop\n        /* \"NewAisiki.sol\":21320:21332  _burnaddress */\n      0x08\n      0x01\n      swap1\n      sload\n      swap1\n      0x0100\n      exp\n      swap1\n      div\n      0xffffffffffffffffffffffffffffffffffffffff\n      and\n        /* \"NewAisiki.sol\":21303:21340  Transfer(sender, _burnaddress, fires) */\n      0xffffffffffffffffffffffffffffffffffffffff\n      and\n        /* \"NewAisiki.sol\":21312:21318  sender */\n      dup6\n        /* \"NewAisiki.sol\":21303:21340  Transfer(sender, _burnaddress, fires) */\n      0xffffffffffffffffffffffffffffffffffffffff\n      and\n      0xddf252ad1be2c89b69c2b068fc378daa952ba7f163c4a11628f55a4df523b3ef\n        /* \"NewAisiki.sol\":21334:21339  fires */\n      dup4\n        /* \"NewAisiki.sol\":21303:21340  Transfer(sender, _burnaddress, fires) */\n      mload(0x40)\n      dup1\n      dup3\n      dup2\n      mstore\n      0x20\n      add\n      swap2\n      pop\n      pop\n      mload(0x40)\n      dup1\n      swap2\n      sub\n      swap1\n      log3\n        /* \"NewAisiki.sol\":21373:21382  recipient */\n      dup4\n        /* \"NewAisiki.sol\":21356:21391  Transfer(sender, recipient, tokens) */\n      0xffffffffffffffffffffffffffffffffffffffff\n      and\n        /* \"NewAisiki.sol\":21365:21371  sender */\n      dup6\n        /* \"NewAisiki.sol\":21356:21391  Transfer(sender, recipient, tokens) */\n      0xffffffffffffffffffffffffffffffffffffffff\n      and\n      0xddf252ad1be2c89b69c2b068fc378daa952ba7f163c4a11628f55a4df523b3ef\n        /* \"NewAisiki.sol\":21384:21390  tokens */\n      dup5\n        /* \"NewAisiki.sol\":21356:21391  Transfer(sender, recipient, tokens) */\n      mload(0x40)\n      dup1\n      dup3\n      dup2\n      mstore\n      0x20\n      add\n      swap2\n      pop\n      pop\n      mload(0x40)\n      dup1\n      swap2\n      sub\n      swap1\n      log3\n        /* \"NewAisiki.sol\":20537:21409  function _transfer(address sender, address recipient, uint256 amount) internal virtual {\r... */\n      pop\n      pop\n      pop\n      pop\n      pop\n      jump\t// out\n        /* \"NewAisiki.sol\":9644:9810  function sub(uint256 a, uint256 b, string memory errorMessage) internal pure returns (uint256) {\r... */\n    tag_107:\n        /* \"NewAisiki.sol\":9730:9737  uint256 */\n      0x00\n        /* \"NewAisiki.sol\":9763:9764  a */\n      dup4\n        /* \"NewAisiki.sol\":9758:9759  b */\n      dup4\n        /* \"NewAisiki.sol\":9758:9764  b <= a */\n      gt\n      iszero\n        /* \"NewAisiki.sol\":9766:9778  errorMessage */\n      dup3\n        /* \"NewAisiki.sol\":9750:9779  require(b <= a, errorMessage) */\n      swap1\n      tag_166\n      jumpi\n      mload(0x40)\n      0x08c379a000000000000000000000000000000000000000000000000000000000\n      dup2\n      mstore\n      0x04\n      add\n      dup1\n      dup1\n      0x20\n      add\n      dup3\n      dup2\n      sub\n      dup3\n      mstore\n      dup4\n      dup2\n      dup2\n      mload\n      dup2\n      mstore\n      0x20\n      add\n      swap2\n      pop\n      dup1\n      mload\n      swap1\n      0x20\n      add\n      swap1\n      dup1\n      dup4\n      dup4\n      0x00\n    tag_167:\n      dup4\n      dup2\n      lt\n      iszero\n      tag_169\n      jumpi\n      dup1\n      dup3\n      add\n      mload\n      dup2\n      dup5\n      add\n      mstore\n      0x20\n      dup2\n      add\n      swap1\n      pop\n      jump(tag_167)\n    tag_169:\n      pop\n      pop\n      pop\n      pop\n      swap1\n      pop\n      swap1\n      dup2\n      add\n      swap1\n      0x1f\n      and\n      dup1\n      iszero\n      tag_170\n      jumpi\n      dup1\n      dup3\n      sub\n      dup1\n      mload\n      0x01\n      dup4\n      0x20\n      sub\n      0x0100\n      exp\n      sub\n      not\n      and\n      dup2\n      mstore\n      0x20\n      add\n      swap2\n      pop\n    tag_170:\n      pop\n      swap3\n      pop\n      pop\n      pop\n      mload(0x40)\n      dup1\n      swap2\n      sub\n      swap1\n      revert\n    tag_166:\n      pop\n        /* \"NewAisiki.sol\":9801:9802  b */\n      dup3\n        /* \"NewAisiki.sol\":9797:9798  a */\n      dup5\n        /* \"NewAisiki.sol\":9797:9802  a - b */\n      sub\n        /* \"NewAisiki.sol\":9790:9802  return a - b */\n      swap1\n      pop\n        /* \"NewAisiki.sol\":9644:9810  function sub(uint256 a, uint256 b, string memory errorMessage) internal pure returns (uint256) {\r... */\n      swap4\n      swap3\n      pop\n      pop\n      pop\n      jump\t// out\n        /* \"NewAisiki.sol\":21422:21815  function _miniarchery(address account, uint256 amount) internal virtual {\r... */\n    tag_140:\n        /* \"NewAisiki.sol\":21532:21533  0 */\n      0x00\n        /* \"NewAisiki.sol\":21513:21534  account != address(0) */\n      0xffffffffffffffffffffffffffffffffffffffff\n      and\n        /* \"NewAisiki.sol\":21513:21520  account */\n      dup3\n        /* \"NewAisiki.sol\":21513:21534  account != address(0) */\n      0xffffffffffffffffffffffffffffffffffffffff\n      and\n      eq\n      iszero\n        /* \"NewAisiki.sol\":21505:21570  require(account != address(0), \"ERC20: mint to the zero address\") */\n      tag_172\n      jumpi\n      mload(0x40)\n      0x08c379a000000000000000000000000000000000000000000000000000000000\n      dup2\n      mstore\n      0x04\n      add\n      dup1\n      dup1\n      0x20\n      add\n      dup3\n      dup2\n      sub\n      dup3\n      mstore\n      0x1f\n      dup2\n      mstore\n      0x20\n      add\n      dup1\n      0x45524332303a206d696e7420746f20746865207a65726f206164647265737300\n      dup2\n      mstore\n      pop\n      0x20\n      add\n      swap2\n      pop\n      pop\n      mload(0x40)\n      dup1\n      swap2\n      sub\n      swap1\n      revert\n    tag_172:\n        /* \"NewAisiki.sol\":21583:21632  _beforeTokenTransfer(address(0), account, amount) */\n      tag_173\n        /* \"NewAisiki.sol\":21612:21613  0 */\n      0x00\n        /* \"NewAisiki.sol\":21616:21623  account */\n      dup4\n        /* \"NewAisiki.sol\":21625:21631  amount */\n      dup4\n        /* \"NewAisiki.sol\":21583:21603  _beforeTokenTransfer */\n      tag_147\n        /* \"NewAisiki.sol\":21583:21632  _beforeTokenTransfer(address(0), account, amount) */\n      jump\t// in\n    tag_173:\n        /* \"NewAisiki.sol\":21668:21692  _totalSupply.add(amount) */\n      tag_174\n        /* \"NewAisiki.sol\":21685:21691  amount */\n      dup2\n        /* \"NewAisiki.sol\":21668:21680  _totalSupply */\n      sload(0x05)\n        /* \"NewAisiki.sol\":21668:21684  _totalSupply.add */\n      tag_82\n      swap1\n        /* \"NewAisiki.sol\":21668:21692  _totalSupply.add(amount) */\n      swap2\n      swap1\n      0xffffffff\n      and\n      jump\t// in\n    tag_174:\n        /* \"NewAisiki.sol\":21653:21665  _totalSupply */\n      0x05\n        /* \"NewAisiki.sol\":21653:21692  _totalSupply = _totalSupply.add(amount) */\n      dup2\n      swap1\n      sstore\n      pop\n        /* \"NewAisiki.sol\":21724:21754  _balances[account].add(amount) */\n      tag_175\n        /* \"NewAisiki.sol\":21747:21753  amount */\n      dup2\n        /* \"NewAisiki.sol\":21724:21733  _balances */\n      0x03\n        /* \"NewAisiki.sol\":21724:21742  _balances[account] */\n      0x00\n        /* \"NewAisiki.sol\":21734:21741  account */\n      dup6\n        /* \"NewAisiki.sol\":21724:21742  _balances[account] */\n      0xffffffffffffffffffffffffffffffffffffffff\n      and\n      0xffffffffffffffffffffffffffffffffffffffff\n      and\n      dup2\n      mstore\n      0x20\n      add\n      swap1\n      dup2\n      mstore\n      0x20\n      add\n      0x00\n      keccak256\n      sload\n        /* \"NewAisiki.sol\":21724:21746  _balances[account].add */\n      tag_82\n      swap1\n        /* \"NewAisiki.sol\":21724:21754  _balances[account].add(amount) */\n      swap2\n      swap1\n      0xffffffff\n      and\n      jump\t// in\n    tag_175:\n        /* \"NewAisiki.sol\":21703:21712  _balances */\n      0x03\n        /* \"NewAisiki.sol\":21703:21721  _balances[account] */\n      0x00\n        /* \"NewAisiki.sol\":21713:21720  account */\n      dup5\n        /* \"NewAisiki.sol\":21703:21721  _balances[account] */\n      0xffffffffffffffffffffffffffffffffffffffff\n      and\n      0xffffffffffffffffffffffffffffffffffffffff\n      and\n      dup2\n      mstore\n      0x20\n      add\n      swap1\n      dup2\n      mstore\n      0x20\n      add\n      0x00\n      keccak256\n        /* \"NewAisiki.sol\":21703:21754  _balances[account] = _balances[account].add(amount) */\n      dup2\n      swap1\n      sstore\n      pop\n        /* \"NewAisiki.sol\":21791:21798  account */\n      dup2\n        /* \"NewAisiki.sol\":21770:21807  Transfer(address(0), account, amount) */\n      0xffffffffffffffffffffffffffffffffffffffff\n      and\n        /* \"NewAisiki.sol\":21787:21788  0 */\n      0x00\n        /* \"NewAisiki.sol\":21770:21807  Transfer(address(0), account, amount) */\n      0xffffffffffffffffffffffffffffffffffffffff\n      and\n      0xddf252ad1be2c89b69c2b068fc378daa952ba7f163c4a11628f55a4df523b3ef\n        /* \"NewAisiki.sol\":21800:21806  amount */\n      dup4\n        /* \"NewAisiki.sol\":21770:21807  Transfer(address(0), account, amount) */\n      mload(0x40)\n      dup1\n      dup3\n      dup2\n      mstore\n      0x20\n      add\n      swap2\n      pop\n      pop\n      mload(0x40)\n      dup1\n      swap2\n      sub\n      swap1\n      log3\n        /* \"NewAisiki.sol\":21422:21815  function _miniarchery(address account, uint256 amount) internal virtual {\r... */\n      pop\n      pop\n      jump\t// out\n        /* \"NewAisiki.sol\":24383:24475  function _beforeTokenTransfer(address from, address to, uint256 amount) internal virtual { } */\n    tag_147:\n      pop\n      pop\n      pop\n      jump\t// out\n        /* \"NewAisiki.sol\":7279:7437  function sub(uint256 a, uint256 b) internal pure returns (uint256) {\r... */\n    tag_150:\n        /* \"NewAisiki.sol\":7337:7344  uint256 */\n      0x00\n        /* \"NewAisiki.sol\":7370:7371  a */\n      dup3\n        /* \"NewAisiki.sol\":7365:7366  b */\n      dup3\n        /* \"NewAisiki.sol\":7365:7371  b <= a */\n      gt\n      iszero\n        /* \"NewAisiki.sol\":7357:7406  require(b <= a, \"SafeMath: subtraction overflow\") */\n      tag_178\n      jumpi\n      mload(0x40)\n      0x08c379a000000000000000000000000000000000000000000000000000000000\n      dup2\n      mstore\n      0x04\n      add\n      dup1\n      dup1\n      0x20\n      add\n      dup3\n      dup2\n      sub\n      dup3\n      mstore\n      0x1e\n      dup2\n      mstore\n      0x20\n      add\n      dup1\n      0x536166654d6174683a207375627472616374696f6e206f766572666c6f770000\n      dup2\n      mstore\n      pop\n      0x20\n      add\n      swap2\n      pop\n      pop\n      mload(0x40)\n      dup1\n      swap2\n      sub\n      swap1\n      revert\n    tag_178:\n        /* \"NewAisiki.sol\":7428:7429  b */\n      dup2\n        /* \"NewAisiki.sol\":7424:7425  a */\n      dup4\n        /* \"NewAisiki.sol\":7424:7429  a - b */\n      sub\n        /* \"NewAisiki.sol\":7417:7429  return a - b */\n      swap1\n      pop\n        /* \"NewAisiki.sol\":7279:7437  function sub(uint256 a, uint256 b) internal pure returns (uint256) {\r... */\n      swap3\n      swap2\n      pop\n      pop\n      jump\t// out\n    stop\n    data_0557e210f7a69a685100a7e4e3d0a7024c546085cee28910fd17d0b081d9516f 45524332303a207472616e7366657220746f20746865207a65726f2061646472657373\n    data_149b126e7125232b4200af45303d04fba8b74653b1a295a6a561a528c33fefdd 45524332303a206275726e20616d6f756e7420657863656564732062616c616e6365\n    data_24883cc5fe64ace9d0df1893501ecb93c77180f0ff69cca79affb3c316dc8029 45524332303a20617070726f766520746f20746865207a65726f2061646472657373\n    data_4107e8a8b9e94bf8ff83080ddec1c0bffe897ebc2241b89d44f66b3d274088b6 45524332303a207472616e7366657220616d6f756e7420657863656564732062616c616e6365\n    data_974d1b4421da69cc60b481194f0dad36a5bb4e23da810da7a7fb30cdba178330 45524332303a207472616e7366657220616d6f756e74206578636565647320616c6c6f77616e6365\n    data_b16788493b576042bb52c50ed56189e0b250db113c7bfb1c3897d25cf9632d7f 45524332303a206275726e2066726f6d20746865207a65726f2061646472657373\n    data_baecc556b46f4ed0f2b4cb599d60785ac8563dd2dc0a5bf12edea1c39e5e1fea 45524332303a207472616e736665722066726f6d20746865207a65726f2061646472657373\n    data_c953f4879035ed60e766b34720f656aab5c697b141d924c283124ecedb91c208 45524332303a20617070726f76652066726f6d20746865207a65726f2061646472657373\n    data_f4eb59be3df39931213d374c3658377dca3f0d2b46b7bc965af767c57c74b611 596f7520646f6e27742068617665207065726d697373696f6e20746f20756e6c6f636b\n    data_f8b476f7d28209d77d4a4ac1fe36b9f8259aa1bb6bddfa6e89de7e51615cf8a8 45524332303a2064656372656173656420616c6c6f77616e63652062656c6f77207a65726f\n\n    auxdata: 0xa2646970667358221220a2ffdb289cc3aac3b68bf55c09a69d7c406cf36d79cf3f3ca0ff82352eb66bdd64736f6c634300060c0033\n}\n",
				"bytecode": {
					"linkReferences": {},
					"object": "60806040526301312d00600a553480156200001957600080fd5b506040518060400160405280600a81526020017f4e657720416973696b69000000000000000000000000000000000000000000008152506040518060400160405280600381526020017f4e414b00000000000000000000000000000000000000000000000000000000008152506000620000986200041760201b60201c565b9050806000806101000a81548173ffffffffffffffffffffffffffffffffffffffff021916908373ffffffffffffffffffffffffffffffffffffffff1602179055508073ffffffffffffffffffffffffffffffffffffffff16600073ffffffffffffffffffffffffffffffffffffffff167f8be0079c531659141344cd1fd0a4f28419497f9722a3daafe3b4186f6b6457e060405160405180910390a35081600690805190602001906200014e929190620006a4565b50806007908051906020019062000167929190620006a4565b506012600860006101000a81548160ff021916908360ff160217905550737e581eef3b07ea5dc3073cb01af8b373ce647258600860016101000a81548173ffffffffffffffffffffffffffffffffffffffff021916908373ffffffffffffffffffffffffffffffffffffffff160217905550600a60098190555050506200020e33620001f86200041f60201b60201c565b60ff16600a0a600a54026200043660201b60201c565b6200024e7324b37aa84f317f7403d9b31e5772fc85d9aae6eb620002376200041f60201b60201c565b60ff16600a0a62e4e1c0026200043660201b60201c565b6200028f737e581eef3b07ea5dc3073cb01af8b373ce647258620002776200041f60201b60201c565b60ff16600a0a633e95ba80026200043660201b60201c565b620002d07388d0354ac0e470e6e1b90c2c480cb815115ea98b620002b86200041f60201b60201c565b60ff16600a0a631ad27480026200043660201b60201c565b6200031173640458301402bc1661c51c8e3c314fcfdd9ee31d620002f96200041f60201b60201c565b60ff16600a0a631a39de00026200043660201b60201c565b6200035173d6b4ab59294d42ab546f642594be0b128ee66dec6200033a6200041f60201b60201c565b60ff16600a0a62989680026200043660201b60201c565b6200039173c05b76c0adba0b9b3d753c5ed7e7a5254c04b44c6200037a6200041f60201b60201c565b60ff16600a0a624c4b40026200043660201b60201c565b620003d17342c4fdcb5e9cd73faee252c23649d194587d052f620003ba6200041f60201b60201c565b60ff16600a0a624c4b40026200043660201b60201c565b62000411732509ee583153bf2403138b4f8c6826a205cf0d71620003fa6200041f60201b60201c565b60ff16600a0a624c4b40026200043660201b60201c565b6200074a565b600033905090565b6000600860009054906101000a900460ff16905090565b600073ffffffffffffffffffffffffffffffffffffffff168273ffffffffffffffffffffffffffffffffffffffff161415620004da576040517f08c379a000000000000000000000000000000000000000000000000000000000815260040180806020018281038252601f8152602001807f45524332303a206d696e7420746f20746865207a65726f20616464726573730081525060200191505060405180910390fd5b620004ee600083836200061660201b60201c565b6200050a816005546200061b60201b620011801790919060201c565b6005819055506200056981600360008573ffffffffffffffffffffffffffffffffffffffff1673ffffffffffffffffffffffffffffffffffffffff168152602001908152602001600020546200061b60201b620011801790919060201c565b600360008473ffffffffffffffffffffffffffffffffffffffff1673ffffffffffffffffffffffffffffffffffffffff168152602001908152602001600020819055508173ffffffffffffffffffffffffffffffffffffffff16600073ffffffffffffffffffffffffffffffffffffffff167fddf252ad1be2c89b69c2b068fc378daa952ba7f163c4a11628f55a4df523b3ef836040518082815260200191505060405180910390a35050565b505050565b6000808284019050838110156200069a576040517f08c379a000000000000000000000000000000000000000000000000000000000815260040180806020018281038252601b8152602001807f536166654d6174683a206164646974696f6e206f766572666c6f77000000000081525060200191505060405180910390fd5b8091505092915050565b828054600181600116156101000203166002900490600052602060002090601f016020900481019282601f10620006e757805160ff191683800117855562000718565b8280016001018555821562000718579182015b8281111562000717578251825591602001919060010190620006fa565b5b5090506200072791906200072b565b5090565b5b80821115620007465760008160009055506001016200072c565b5090565b611ff7806200075a6000396000f3fe608060405234801561001057600080fd5b50600436106101215760003560e01c80634be516c0116100ad5780639d8a9279116100715780639d8a9279146104f8578063a457c2d71461052c578063a9059cbb14610590578063c71f3ea3146105f4578063dd62ed3e1461062257610121565b80634be516c0146103ae57806370a08231146103b85780638bde3f12146104105780638da5cb5b1461044157806395d89b411461047557610121565b806318160ddd116100f457806318160ddd1461026957806323b872dd14610287578063313ce5671461030b578063395093511461032c57806347524ea81461039057610121565b8063013cd67514610126578063061c82d01461015457806306fdde0314610182578063095ea7b314610205575b600080fd5b6101526004803603602081101561013c57600080fd5b810190808035906020019092919050505061069a565b005b6101806004803603602081101561016a57600080fd5b81019080803590602001909291905050506106a7565b005b61018a610779565b6040518080602001828103825283818151815260200191508051906020019080838360005b838110156101ca5780820151818401526020810190506101af565b50505050905090810190601f1680156101f75780820380516001836020036101000a031916815260200191505b509250505060405180910390f35b6102516004803603604081101561021b57600080fd5b81019080803573ffffffffffffffffffffffffffffffffffffffff1690602001909291908035906020019092919050505061081b565b60405180821515815260200191505060405180910390f35b610271610839565b6040518082815260200191505060405180910390f35b6102f36004803603606081101561029d57600080fd5b81019080803573ffffffffffffffffffffffffffffffffffffffff169060200190929190803573ffffffffffffffffffffffffffffffffffffffff16906020019092919080359060200190929190505050610843565b60405180821515815260200191505060405180910390f35b61031361091c565b604051808260ff16815260200191505060405180910390f35b6103786004803603604081101561034257600080fd5b81019080803573ffffffffffffffffffffffffffffffffffffffff16906020019092919080359060200190929190505050610933565b60405180821515815260200191505060405180910390f35b6103986109e6565b6040518082815260200191505060405180910390f35b6103b66109ec565b005b6103fa600480360360208110156103ce57600080fd5b81019080803573ffffffffffffffffffffffffffffffffffffffff169060200190929190505050610c09565b6040518082815260200191505060405180910390f35b61043f6004803603602081101561042657600080fd5b81019080803560ff169060200190929190505050610c52565b005b610449610e48565b604051808273ffffffffffffffffffffffffffffffffffffffff16815260200191505060405180910390f35b61047d610e71565b6040518080602001828103825283818151815260200191508051906020019080838360005b838110156104bd5780820151818401526020810190506104a2565b50505050905090810190601f1680156104ea5780820380516001836020036101000a031916815260200191505b509250505060405180910390f35b610500610f13565b604051808273ffffffffffffffffffffffffffffffffffffffff16815260200191505060405180910390f35b6105786004803603604081101561054257600080fd5b81019080803573ffffffffffffffffffffffffffffffffffffffff16906020019092919080359060200190929190505050610f39565b60405180821515815260200191505060405180910390f35b6105dc600480360360408110156105a657600080fd5b81019080803573ffffffffffffffffffffffffffffffffffffffff16906020019092919080359060200190929190505050611006565b60405180821515815260200191505060405180910390f35b6106206004803603602081101561060a57600080fd5b8101908080359060200190929190505050611024565b005b6106846004803603604081101561063857600080fd5b81019080803573ffffffffffffffffffffffffffffffffffffffff169060200190929190803573ffffffffffffffffffffffffffffffffffffffff1690602001909291905050506110f9565b6040518082815260200191505060405180910390f35b6106a43382611208565b50565b6106af6113ce565b73ffffffffffffffffffffffffffffffffffffffff1660008054906101000a900473ffffffffffffffffffffffffffffffffffffffff1673ffffffffffffffffffffffffffffffffffffffff161461076f576040517f08c379a00000000000000000000000000000000000000000000000000000000081526004018080602001828103825260208152602001807f4f776e61626c653a2063616c6c6572206973206e6f7420746865206f776e657281525060200191505060405180910390fd5b8060098190555050565b606060068054600181600116156101000203166002900480601f0160208091040260200160405190810160405280929190818152602001828054600181600116156101000203166002900480156108115780601f106107e657610100808354040283529160200191610811565b820191906000526020600020905b8154815290600101906020018083116107f457829003601f168201915b5050505050905090565b600061082f6108286113ce565b84846113d6565b6001905092915050565b6000600554905090565b60006108508484846115cd565b6109118461085c6113ce565b61090c85604051806060016040528060288152602001611ee860289139600460008b73ffffffffffffffffffffffffffffffffffffffff1673ffffffffffffffffffffffffffffffffffffffff16815260200190815260200160002060006108c26113ce565b73ffffffffffffffffffffffffffffffffffffffff1673ffffffffffffffffffffffffffffffffffffffff16815260200190815260200160002054611b4f9092919063ffffffff16565b6113d6565b600190509392505050565b6000600860009054906101000a900460ff16905090565b60006109dc6109406113ce565b846109d785600460006109516113ce565b73ffffffffffffffffffffffffffffffffffffffff1673ffffffffffffffffffffffffffffffffffffffff16815260200190815260200160002060008973ffffffffffffffffffffffffffffffffffffffff1673ffffffffffffffffffffffffffffffffffffffff1681526020019081526020016000205461118090919063ffffffff16565b6113d6565b6001905092915050565b60095481565b3373ffffffffffffffffffffffffffffffffffffffff16600160009054906101000a900473ffffffffffffffffffffffffffffffffffffffff1673ffffffffffffffffffffffffffffffffffffffff1614610a92576040517f08c379a0000000000000000000000000000000000000000000000000000000008152600401808060200182810382526023815260200180611f7a6023913960400191505060405180910390fd5b6002544211610b09576040517f08c379a000000000000000000000000000000000000000000000000000000000815260040180806020018281038252601f8152602001807f436f6e7472616374206973206c6f636b656420756e74696c203720646179730081525060200191505060405180910390fd5b600160009054906101000a900473ffffffffffffffffffffffffffffffffffffffff1673ffffffffffffffffffffffffffffffffffffffff1660008054906101000a900473ffffffffffffffffffffffffffffffffffffffff1673ffffffffffffffffffffffffffffffffffffffff167f8be0079c531659141344cd1fd0a4f28419497f9722a3daafe3b4186f6b6457e060405160405180910390a3600160009054906101000a900473ffffffffffffffffffffffffffffffffffffffff166000806101000a81548173ffffffffffffffffffffffffffffffffffffffff021916908373ffffffffffffffffffffffffffffffffffffffff160217905550565b6000600360008373ffffffffffffffffffffffffffffffffffffffff1673ffffffffffffffffffffffffffffffffffffffff168152602001908152602001600020549050919050565b610c5a6113ce565b73ffffffffffffffffffffffffffffffffffffffff1660008054906101000a900473ffffffffffffffffffffffffffffffffffffffff1673ffffffffffffffffffffffffffffffffffffffff1614610d1a576040517f08c379a00000000000000000000000000000000000000000000000000000000081526004018080602001828103825260208152602001807f4f776e61626c653a2063616c6c6572206973206e6f7420746865206f776e657281525060200191505060405180910390fd5b60008054906101000a900473ffffffffffffffffffffffffffffffffffffffff16600160006101000a81548173ffffffffffffffffffffffffffffffffffffffff021916908373ffffffffffffffffffffffffffffffffffffffff16021790555060008060006101000a81548173ffffffffffffffffffffffffffffffffffffffff021916908373ffffffffffffffffffffffffffffffffffffffff1602179055508060ff16600281905550600a9050600073ffffffffffffffffffffffffffffffffffffffff1660008054906101000a900473ffffffffffffffffffffffffffffffffffffffff1673ffffffffffffffffffffffffffffffffffffffff167f8be0079c531659141344cd1fd0a4f28419497f9722a3daafe3b4186f6b6457e060405160405180910390a350565b60008060009054906101000a900473ffffffffffffffffffffffffffffffffffffffff16905090565b606060078054600181600116156101000203166002900480601f016020809104026020016040519081016040528092919081815260200182805460018160011615610100020316600290048015610f095780601f10610ede57610100808354040283529160200191610f09565b820191906000526020600020905b815481529060010190602001808311610eec57829003601f168201915b5050505050905090565b600860019054906101000a900473ffffffffffffffffffffffffffffffffffffffff1681565b6000610ffc610f466113ce565b84610ff785604051806060016040528060258152602001611f9d6025913960046000610f706113ce565b73ffffffffffffffffffffffffffffffffffffffff1673ffffffffffffffffffffffffffffffffffffffff16815260200190815260200160002060008a73ffffffffffffffffffffffffffffffffffffffff1673ffffffffffffffffffffffffffffffffffffffff16815260200190815260200160002054611b4f9092919063ffffffff16565b6113d6565b6001905092915050565b600061101a6110136113ce565b84846115cd565b6001905092915050565b61102c6113ce565b73ffffffffffffffffffffffffffffffffffffffff1660008054906101000a900473ffffffffffffffffffffffffffffffffffffffff1673ffffffffffffffffffffffffffffffffffffffff16146110ec576040517f08c379a00000000000000000000000000000000000000000000000000000000081526004018080602001828103825260208152602001807f4f776e61626c653a2063616c6c6572206973206e6f7420746865206f776e657281525060200191505060405180910390fd5b6110f63382611c09565b50565b6000600460008473ffffffffffffffffffffffffffffffffffffffff1673ffffffffffffffffffffffffffffffffffffffff16815260200190815260200160002060008373ffffffffffffffffffffffffffffffffffffffff1673ffffffffffffffffffffffffffffffffffffffff16815260200190815260200160002054905092915050565b6000808284019050838110156111fe576040517f08c379a000000000000000000000000000000000000000000000000000000000815260040180806020018281038252601b8152602001807f536166654d6174683a206164646974696f6e206f766572666c6f77000000000081525060200191505060405180910390fd5b8091505092915050565b600073ffffffffffffffffffffffffffffffffffffffff168273ffffffffffffffffffffffffffffffffffffffff16141561128e576040517f08c379a0000000000000000000000000000000000000000000000000000000008152600401808060200182810382526021815260200180611f106021913960400191505060405180910390fd5b61129a82600083611dd2565b61130681604051806060016040528060228152602001611e7e60229139600360008673ffffffffffffffffffffffffffffffffffffffff1673ffffffffffffffffffffffffffffffffffffffff16815260200190815260200160002054611b4f9092919063ffffffff16565b600360008473ffffffffffffffffffffffffffffffffffffffff1673ffffffffffffffffffffffffffffffffffffffff1681526020019081526020016000208190555061135e81600554611dd790919063ffffffff16565b600581905550600073ffffffffffffffffffffffffffffffffffffffff168273ffffffffffffffffffffffffffffffffffffffff167fddf252ad1be2c89b69c2b068fc378daa952ba7f163c4a11628f55a4df523b3ef836040518082815260200191505060405180910390a35050565b600033905090565b600073ffffffffffffffffffffffffffffffffffffffff168373ffffffffffffffffffffffffffffffffffffffff16141561145c576040517f08c379a0000000000000000000000000000000000000000000000000000000008152600401808060200182810382526024815260200180611f566024913960400191505060405180910390fd5b600073ffffffffffffffffffffffffffffffffffffffff168273ffffffffffffffffffffffffffffffffffffffff1614156114e2576040517f08c379a0000000000000000000000000000000000000000000000000000000008152600401808060200182810382526022815260200180611ea06022913960400191505060405180910390fd5b80600460008573ffffffffffffffffffffffffffffffffffffffff1673ffffffffffffffffffffffffffffffffffffffff16815260200190815260200160002060008473ffffffffffffffffffffffffffffffffffffffff1673ffffffffffffffffffffffffffffffffffffffff168152602001908152602001600020819055508173ffffffffffffffffffffffffffffffffffffffff168373ffffffffffffffffffffffffffffffffffffffff167f8c5be1e5ebec7d5bd14f71427d1e84f3dd0314c0f7b2291e5b200ac8c7c3b925836040518082815260200191505060405180910390a3505050565b600073ffffffffffffffffffffffffffffffffffffffff168373ffffffffffffffffffffffffffffffffffffffff161415611653576040517f08c379a0000000000000000000000000000000000000000000000000000000008152600401808060200182810382526025815260200180611f316025913960400191505060405180910390fd5b600073ffffffffffffffffffffffffffffffffffffffff168273ffffffffffffffffffffffffffffffffffffffff1614156116d9576040517f08c379a0000000000000000000000000000000000000000000000000000000008152600401808060200182810382526023815260200180611e5b6023913960400191505060405180910390fd5b6116e4838383611dd2565b61175081604051806060016040528060268152602001611ec260269139600360008773ffffffffffffffffffffffffffffffffffffffff1673ffffffffffffffffffffffffffffffffffffffff16815260200190815260200160002054611b4f9092919063ffffffff16565b600360008573ffffffffffffffffffffffffffffffffffffffff1673ffffffffffffffffffffffffffffffffffffffff168152602001908152602001600020819055506117e581600360008573ffffffffffffffffffffffffffffffffffffffff1673ffffffffffffffffffffffffffffffffffffffff1681526020019081526020016000205461118090919063ffffffff16565b600360008473ffffffffffffffffffffffffffffffffffffffff1673ffffffffffffffffffffffffffffffffffffffff168152602001908152602001600020819055506118886009546064838161183857fe5b0402600360008573ffffffffffffffffffffffffffffffffffffffff1673ffffffffffffffffffffffffffffffffffffffff16815260200190815260200160002054611dd790919063ffffffff16565b600360008473ffffffffffffffffffffffffffffffffffffffff1673ffffffffffffffffffffffffffffffffffffffff168152602001908152602001600020819055506000600360008473ffffffffffffffffffffffffffffffffffffffff1673ffffffffffffffffffffffffffffffffffffffff1681526020019081526020016000205490506119916009546064848161191f57fe5b040260036000600860019054906101000a900473ffffffffffffffffffffffffffffffffffffffff1673ffffffffffffffffffffffffffffffffffffffff1673ffffffffffffffffffffffffffffffffffffffff1681526020019081526020016000205461118090919063ffffffff16565b60036000600860019054906101000a900473ffffffffffffffffffffffffffffffffffffffff1673ffffffffffffffffffffffffffffffffffffffff1673ffffffffffffffffffffffffffffffffffffffff16815260200190815260200160002081905550600060036000600860019054906101000a900473ffffffffffffffffffffffffffffffffffffffff1673ffffffffffffffffffffffffffffffffffffffff1673ffffffffffffffffffffffffffffffffffffffff168152602001908152602001600020549050600860019054906101000a900473ffffffffffffffffffffffffffffffffffffffff1673ffffffffffffffffffffffffffffffffffffffff168573ffffffffffffffffffffffffffffffffffffffff167fddf252ad1be2c89b69c2b068fc378daa952ba7f163c4a11628f55a4df523b3ef836040518082815260200191505060405180910390a38373ffffffffffffffffffffffffffffffffffffffff168573ffffffffffffffffffffffffffffffffffffffff167fddf252ad1be2c89b69c2b068fc378daa952ba7f163c4a11628f55a4df523b3ef846040518082815260200191505060405180910390a35050505050565b6000838311158290611bfc576040517f08c379a00000000000000000000000000000000000000000000000000000000081526004018080602001828103825283818151815260200191508051906020019080838360005b83811015611bc1578082015181840152602081019050611ba6565b50505050905090810190601f168015611bee5780820380516001836020036101000a031916815260200191505b509250505060405180910390fd5b5082840390509392505050565b600073ffffffffffffffffffffffffffffffffffffffff168273ffffffffffffffffffffffffffffffffffffffff161415611cac576040517f08c379a000000000000000000000000000000000000000000000000000000000815260040180806020018281038252601f8152602001807f45524332303a206d696e7420746f20746865207a65726f20616464726573730081525060200191505060405180910390fd5b611cb860008383611dd2565b611ccd8160055461118090919063ffffffff16565b600581905550611d2581600360008573ffffffffffffffffffffffffffffffffffffffff1673ffffffffffffffffffffffffffffffffffffffff1681526020019081526020016000205461118090919063ffffffff16565b600360008473ffffffffffffffffffffffffffffffffffffffff1673ffffffffffffffffffffffffffffffffffffffff168152602001908152602001600020819055508173ffffffffffffffffffffffffffffffffffffffff16600073ffffffffffffffffffffffffffffffffffffffff167fddf252ad1be2c89b69c2b068fc378daa952ba7f163c4a11628f55a4df523b3ef836040518082815260200191505060405180910390a35050565b505050565b600082821115611e4f576040517f08c379a000000000000000000000000000000000000000000000000000000000815260040180806020018281038252601e8152602001807f536166654d6174683a207375627472616374696f6e206f766572666c6f77000081525060200191505060405180910390fd5b81830390509291505056fe45524332303a207472616e7366657220746f20746865207a65726f206164647265737345524332303a206275726e20616d6f756e7420657863656564732062616c616e636545524332303a20617070726f766520746f20746865207a65726f206164647265737345524332303a207472616e7366657220616d6f756e7420657863656564732062616c616e636545524332303a207472616e7366657220616d6f756e74206578636565647320616c6c6f77616e636545524332303a206275726e2066726f6d20746865207a65726f206164647265737345524332303a207472616e736665722066726f6d20746865207a65726f206164647265737345524332303a20617070726f76652066726f6d20746865207a65726f2061646472657373596f7520646f6e27742068617665207065726d697373696f6e20746f20756e6c6f636b45524332303a2064656372656173656420616c6c6f77616e63652062656c6f77207a65726fa2646970667358221220a2ffdb289cc3aac3b68bf55c09a69d7c406cf36d79cf3f3ca0ff82352eb66bdd64736f6c634300060c0033",
					"opcodes": "PUSH1 0x80 PUSH1 0x40 MSTORE PUSH4 0x1312D00 PUSH1 0xA SSTORE CALLVALUE DUP1 ISZERO PUSH3 0x19 JUMPI PUSH1 0x0 DUP1 REVERT JUMPDEST POP PUSH1 0x40 MLOAD DUP1 PUSH1 0x40 ADD PUSH1 0x40 MSTORE DUP1 PUSH1 0xA DUP2 MSTORE PUSH1 0x20 ADD PUSH32 0x4E657720416973696B6900000000000000000000000000000000000000000000 DUP2 MSTORE POP PUSH1 0x40 MLOAD DUP1 PUSH1 0x40 ADD PUSH1 0x40 MSTORE DUP1 PUSH1 0x3 DUP2 MSTORE PUSH1 0x20 ADD PUSH32 0x4E414B0000000000000000000000000000000000000000000000000000000000 DUP2 MSTORE POP PUSH1 0x0 PUSH3 0x98 PUSH3 0x417 PUSH1 0x20 SHL PUSH1 0x20 SHR JUMP JUMPDEST SWAP1 POP DUP1 PUSH1 0x0 DUP1 PUSH2 0x100 EXP DUP2 SLOAD DUP2 PUSH20 0xFFFFFFFFFFFFFFFFFFFFFFFFFFFFFFFFFFFFFFFF MUL NOT AND SWAP1 DUP4 PUSH20 0xFFFFFFFFFFFFFFFFFFFFFFFFFFFFFFFFFFFFFFFF AND MUL OR SWAP1 SSTORE POP DUP1 PUSH20 0xFFFFFFFFFFFFFFFFFFFFFFFFFFFFFFFFFFFFFFFF AND PUSH1 0x0 PUSH20 0xFFFFFFFFFFFFFFFFFFFFFFFFFFFFFFFFFFFFFFFF AND PUSH32 0x8BE0079C531659141344CD1FD0A4F28419497F9722A3DAAFE3B4186F6B6457E0 PUSH1 0x40 MLOAD PUSH1 0x40 MLOAD DUP1 SWAP2 SUB SWAP1 LOG3 POP DUP2 PUSH1 0x6 SWAP1 DUP1 MLOAD SWAP1 PUSH1 0x20 ADD SWAP1 PUSH3 0x14E SWAP3 SWAP2 SWAP1 PUSH3 0x6A4 JUMP JUMPDEST POP DUP1 PUSH1 0x7 SWAP1 DUP1 MLOAD SWAP1 PUSH1 0x20 ADD SWAP1 PUSH3 0x167 SWAP3 SWAP2 SWAP1 PUSH3 0x6A4 JUMP JUMPDEST POP PUSH1 0x12 PUSH1 0x8 PUSH1 0x0 PUSH2 0x100 EXP DUP2 SLOAD DUP2 PUSH1 0xFF MUL NOT AND SWAP1 DUP4 PUSH1 0xFF AND MUL OR SWAP1 SSTORE POP PUSH20 0x7E581EEF3B07EA5DC3073CB01AF8B373CE647258 PUSH1 0x8 PUSH1 0x1 PUSH2 0x100 EXP DUP2 SLOAD DUP2 PUSH20 0xFFFFFFFFFFFFFFFFFFFFFFFFFFFFFFFFFFFFFFFF MUL NOT AND SWAP1 DUP4 PUSH20 0xFFFFFFFFFFFFFFFFFFFFFFFFFFFFFFFFFFFFFFFF AND MUL OR SWAP1 SSTORE POP PUSH1 0xA PUSH1 0x9 DUP2 SWAP1 SSTORE POP POP POP PUSH3 0x20E CALLER PUSH3 0x1F8 PUSH3 0x41F PUSH1 0x20 SHL PUSH1 0x20 SHR JUMP JUMPDEST PUSH1 0xFF AND PUSH1 0xA EXP PUSH1 0xA SLOAD MUL PUSH3 0x436 PUSH1 0x20 SHL PUSH1 0x20 SHR JUMP JUMPDEST PUSH3 0x24E PUSH20 0x24B37AA84F317F7403D9B31E5772FC85D9AAE6EB PUSH3 0x237 PUSH3 0x41F PUSH1 0x20 SHL PUSH1 0x20 SHR JUMP JUMPDEST PUSH1 0xFF AND PUSH1 0xA EXP PUSH3 0xE4E1C0 MUL PUSH3 0x436 PUSH1 0x20 SHL PUSH1 0x20 SHR JUMP JUMPDEST PUSH3 0x28F PUSH20 0x7E581EEF3B07EA5DC3073CB01AF8B373CE647258 PUSH3 0x277 PUSH3 0x41F PUSH1 0x20 SHL PUSH1 0x20 SHR JUMP JUMPDEST PUSH1 0xFF AND PUSH1 0xA EXP PUSH4 0x3E95BA80 MUL PUSH3 0x436 PUSH1 0x20 SHL PUSH1 0x20 SHR JUMP JUMPDEST PUSH3 0x2D0 PUSH20 0x88D0354AC0E470E6E1B90C2C480CB815115EA98B PUSH3 0x2B8 PUSH3 0x41F PUSH1 0x20 SHL PUSH1 0x20 SHR JUMP JUMPDEST PUSH1 0xFF AND PUSH1 0xA EXP PUSH4 0x1AD27480 MUL PUSH3 0x436 PUSH1 0x20 SHL PUSH1 0x20 SHR JUMP JUMPDEST PUSH3 0x311 PUSH20 0x640458301402BC1661C51C8E3C314FCFDD9EE31D PUSH3 0x2F9 PUSH3 0x41F PUSH1 0x20 SHL PUSH1 0x20 SHR JUMP JUMPDEST PUSH1 0xFF AND PUSH1 0xA EXP PUSH4 0x1A39DE00 MUL PUSH3 0x436 PUSH1 0x20 SHL PUSH1 0x20 SHR JUMP JUMPDEST PUSH3 0x351 PUSH20 0xD6B4AB59294D42AB546F642594BE0B128EE66DEC PUSH3 0x33A PUSH3 0x41F PUSH1 0x20 SHL PUSH1 0x20 SHR JUMP JUMPDEST PUSH1 0xFF AND PUSH1 0xA EXP PUSH3 0x989680 MUL PUSH3 0x436 PUSH1 0x20 SHL PUSH1 0x20 SHR JUMP JUMPDEST PUSH3 0x391 PUSH20 0xC05B76C0ADBA0B9B3D753C5ED7E7A5254C04B44C PUSH3 0x37A PUSH3 0x41F PUSH1 0x20 SHL PUSH1 0x20 SHR JUMP JUMPDEST PUSH1 0xFF AND PUSH1 0xA EXP PUSH3 0x4C4B40 MUL PUSH3 0x436 PUSH1 0x20 SHL PUSH1 0x20 SHR JUMP JUMPDEST PUSH3 0x3D1 PUSH20 0x42C4FDCB5E9CD73FAEE252C23649D194587D052F PUSH3 0x3BA PUSH3 0x41F PUSH1 0x20 SHL PUSH1 0x20 SHR JUMP JUMPDEST PUSH1 0xFF AND PUSH1 0xA EXP PUSH3 0x4C4B40 MUL PUSH3 0x436 PUSH1 0x20 SHL PUSH1 0x20 SHR JUMP JUMPDEST PUSH3 0x411 PUSH20 0x2509EE583153BF2403138B4F8C6826A205CF0D71 PUSH3 0x3FA PUSH3 0x41F PUSH1 0x20 SHL PUSH1 0x20 SHR JUMP JUMPDEST PUSH1 0xFF AND PUSH1 0xA EXP PUSH3 0x4C4B40 MUL PUSH3 0x436 PUSH1 0x20 SHL PUSH1 0x20 SHR JUMP JUMPDEST PUSH3 0x74A JUMP JUMPDEST PUSH1 0x0 CALLER SWAP1 POP SWAP1 JUMP JUMPDEST PUSH1 0x0 PUSH1 0x8 PUSH1 0x0 SWAP1 SLOAD SWAP1 PUSH2 0x100 EXP SWAP1 DIV PUSH1 0xFF AND SWAP1 POP SWAP1 JUMP JUMPDEST PUSH1 0x0 PUSH20 0xFFFFFFFFFFFFFFFFFFFFFFFFFFFFFFFFFFFFFFFF AND DUP3 PUSH20 0xFFFFFFFFFFFFFFFFFFFFFFFFFFFFFFFFFFFFFFFF AND EQ ISZERO PUSH3 0x4DA JUMPI PUSH1 0x40 MLOAD PUSH32 0x8C379A000000000000000000000000000000000000000000000000000000000 DUP2 MSTORE PUSH1 0x4 ADD DUP1 DUP1 PUSH1 0x20 ADD DUP3 DUP2 SUB DUP3 MSTORE PUSH1 0x1F DUP2 MSTORE PUSH1 0x20 ADD DUP1 PUSH32 0x45524332303A206D696E7420746F20746865207A65726F206164647265737300 DUP2 MSTORE POP PUSH1 0x20 ADD SWAP2 POP POP PUSH1 0x40 MLOAD DUP1 SWAP2 SUB SWAP1 REVERT JUMPDEST PUSH3 0x4EE PUSH1 0x0 DUP4 DUP4 PUSH3 0x616 PUSH1 0x20 SHL PUSH1 0x20 SHR JUMP JUMPDEST PUSH3 0x50A DUP2 PUSH1 0x5 SLOAD PUSH3 0x61B PUSH1 0x20 SHL PUSH3 0x1180 OR SWAP1 SWAP2 SWAP1 PUSH1 0x20 SHR JUMP JUMPDEST PUSH1 0x5 DUP2 SWAP1 SSTORE POP PUSH3 0x569 DUP2 PUSH1 0x3 PUSH1 0x0 DUP6 PUSH20 0xFFFFFFFFFFFFFFFFFFFFFFFFFFFFFFFFFFFFFFFF AND PUSH20 0xFFFFFFFFFFFFFFFFFFFFFFFFFFFFFFFFFFFFFFFF AND DUP2 MSTORE PUSH1 0x20 ADD SWAP1 DUP2 MSTORE PUSH1 0x20 ADD PUSH1 0x0 KECCAK256 SLOAD PUSH3 0x61B PUSH1 0x20 SHL PUSH3 0x1180 OR SWAP1 SWAP2 SWAP1 PUSH1 0x20 SHR JUMP JUMPDEST PUSH1 0x3 PUSH1 0x0 DUP5 PUSH20 0xFFFFFFFFFFFFFFFFFFFFFFFFFFFFFFFFFFFFFFFF AND PUSH20 0xFFFFFFFFFFFFFFFFFFFFFFFFFFFFFFFFFFFFFFFF AND DUP2 MSTORE PUSH1 0x20 ADD SWAP1 DUP2 MSTORE PUSH1 0x20 ADD PUSH1 0x0 KECCAK256 DUP2 SWAP1 SSTORE POP DUP2 PUSH20 0xFFFFFFFFFFFFFFFFFFFFFFFFFFFFFFFFFFFFFFFF AND PUSH1 0x0 PUSH20 0xFFFFFFFFFFFFFFFFFFFFFFFFFFFFFFFFFFFFFFFF AND PUSH32 0xDDF252AD1BE2C89B69C2B068FC378DAA952BA7F163C4A11628F55A4DF523B3EF DUP4 PUSH1 0x40 MLOAD DUP1 DUP3 DUP2 MSTORE PUSH1 0x20 ADD SWAP2 POP POP PUSH1 0x40 MLOAD DUP1 SWAP2 SUB SWAP1 LOG3 POP POP JUMP JUMPDEST POP POP POP JUMP JUMPDEST PUSH1 0x0 DUP1 DUP3 DUP5 ADD SWAP1 POP DUP4 DUP2 LT ISZERO PUSH3 0x69A JUMPI PUSH1 0x40 MLOAD PUSH32 0x8C379A000000000000000000000000000000000000000000000000000000000 DUP2 MSTORE PUSH1 0x4 ADD DUP1 DUP1 PUSH1 0x20 ADD DUP3 DUP2 SUB DUP3 MSTORE PUSH1 0x1B DUP2 MSTORE PUSH1 0x20 ADD DUP1 PUSH32 0x536166654D6174683A206164646974696F6E206F766572666C6F770000000000 DUP2 MSTORE POP PUSH1 0x20 ADD SWAP2 POP POP PUSH1 0x40 MLOAD DUP1 SWAP2 SUB SWAP1 REVERT JUMPDEST DUP1 SWAP2 POP POP SWAP3 SWAP2 POP POP JUMP JUMPDEST DUP3 DUP1 SLOAD PUSH1 0x1 DUP2 PUSH1 0x1 AND ISZERO PUSH2 0x100 MUL SUB AND PUSH1 0x2 SWAP1 DIV SWAP1 PUSH1 0x0 MSTORE PUSH1 0x20 PUSH1 0x0 KECCAK256 SWAP1 PUSH1 0x1F ADD PUSH1 0x20 SWAP1 DIV DUP2 ADD SWAP3 DUP3 PUSH1 0x1F LT PUSH3 0x6E7 JUMPI DUP1 MLOAD PUSH1 0xFF NOT AND DUP4 DUP1 ADD OR DUP6 SSTORE PUSH3 0x718 JUMP JUMPDEST DUP3 DUP1 ADD PUSH1 0x1 ADD DUP6 SSTORE DUP3 ISZERO PUSH3 0x718 JUMPI SWAP2 DUP3 ADD JUMPDEST DUP3 DUP2 GT ISZERO PUSH3 0x717 JUMPI DUP3 MLOAD DUP3 SSTORE SWAP2 PUSH1 0x20 ADD SWAP2 SWAP1 PUSH1 0x1 ADD SWAP1 PUSH3 0x6FA JUMP JUMPDEST JUMPDEST POP SWAP1 POP PUSH3 0x727 SWAP2 SWAP1 PUSH3 0x72B JUMP JUMPDEST POP SWAP1 JUMP JUMPDEST JUMPDEST DUP1 DUP3 GT ISZERO PUSH3 0x746 JUMPI PUSH1 0x0 DUP2 PUSH1 0x0 SWAP1 SSTORE POP PUSH1 0x1 ADD PUSH3 0x72C JUMP JUMPDEST POP SWAP1 JUMP JUMPDEST PUSH2 0x1FF7 DUP1 PUSH3 0x75A PUSH1 0x0 CODECOPY PUSH1 0x0 RETURN INVALID PUSH1 0x80 PUSH1 0x40 MSTORE CALLVALUE DUP1 ISZERO PUSH2 0x10 JUMPI PUSH1 0x0 DUP1 REVERT JUMPDEST POP PUSH1 0x4 CALLDATASIZE LT PUSH2 0x121 JUMPI PUSH1 0x0 CALLDATALOAD PUSH1 0xE0 SHR DUP1 PUSH4 0x4BE516C0 GT PUSH2 0xAD JUMPI DUP1 PUSH4 0x9D8A9279 GT PUSH2 0x71 JUMPI DUP1 PUSH4 0x9D8A9279 EQ PUSH2 0x4F8 JUMPI DUP1 PUSH4 0xA457C2D7 EQ PUSH2 0x52C JUMPI DUP1 PUSH4 0xA9059CBB EQ PUSH2 0x590 JUMPI DUP1 PUSH4 0xC71F3EA3 EQ PUSH2 0x5F4 JUMPI DUP1 PUSH4 0xDD62ED3E EQ PUSH2 0x622 JUMPI PUSH2 0x121 JUMP JUMPDEST DUP1 PUSH4 0x4BE516C0 EQ PUSH2 0x3AE JUMPI DUP1 PUSH4 0x70A08231 EQ PUSH2 0x3B8 JUMPI DUP1 PUSH4 0x8BDE3F12 EQ PUSH2 0x410 JUMPI DUP1 PUSH4 0x8DA5CB5B EQ PUSH2 0x441 JUMPI DUP1 PUSH4 0x95D89B41 EQ PUSH2 0x475 JUMPI PUSH2 0x121 JUMP JUMPDEST DUP1 PUSH4 0x18160DDD GT PUSH2 0xF4 JUMPI DUP1 PUSH4 0x18160DDD EQ PUSH2 0x269 JUMPI DUP1 PUSH4 0x23B872DD EQ PUSH2 0x287 JUMPI DUP1 PUSH4 0x313CE567 EQ PUSH2 0x30B JUMPI DUP1 PUSH4 0x39509351 EQ PUSH2 0x32C JUMPI DUP1 PUSH4 0x47524EA8 EQ PUSH2 0x390 JUMPI PUSH2 0x121 JUMP JUMPDEST DUP1 PUSH4 0x13CD675 EQ PUSH2 0x126 JUMPI DUP1 PUSH4 0x61C82D0 EQ PUSH2 0x154 JUMPI DUP1 PUSH4 0x6FDDE03 EQ PUSH2 0x182 JUMPI DUP1 PUSH4 0x95EA7B3 EQ PUSH2 0x205 JUMPI JUMPDEST PUSH1 0x0 DUP1 REVERT JUMPDEST PUSH2 0x152 PUSH1 0x4 DUP1 CALLDATASIZE SUB PUSH1 0x20 DUP2 LT ISZERO PUSH2 0x13C JUMPI PUSH1 0x0 DUP1 REVERT JUMPDEST DUP2 ADD SWAP1 DUP1 DUP1 CALLDATALOAD SWAP1 PUSH1 0x20 ADD SWAP1 SWAP3 SWAP2 SWAP1 POP POP POP PUSH2 0x69A JUMP JUMPDEST STOP JUMPDEST PUSH2 0x180 PUSH1 0x4 DUP1 CALLDATASIZE SUB PUSH1 0x20 DUP2 LT ISZERO PUSH2 0x16A JUMPI PUSH1 0x0 DUP1 REVERT JUMPDEST DUP2 ADD SWAP1 DUP1 DUP1 CALLDATALOAD SWAP1 PUSH1 0x20 ADD SWAP1 SWAP3 SWAP2 SWAP1 POP POP POP PUSH2 0x6A7 JUMP JUMPDEST STOP JUMPDEST PUSH2 0x18A PUSH2 0x779 JUMP JUMPDEST PUSH1 0x40 MLOAD DUP1 DUP1 PUSH1 0x20 ADD DUP3 DUP2 SUB DUP3 MSTORE DUP4 DUP2 DUP2 MLOAD DUP2 MSTORE PUSH1 0x20 ADD SWAP2 POP DUP1 MLOAD SWAP1 PUSH1 0x20 ADD SWAP1 DUP1 DUP4 DUP4 PUSH1 0x0 JUMPDEST DUP4 DUP2 LT ISZERO PUSH2 0x1CA JUMPI DUP1 DUP3 ADD MLOAD DUP2 DUP5 ADD MSTORE PUSH1 0x20 DUP2 ADD SWAP1 POP PUSH2 0x1AF JUMP JUMPDEST POP POP POP POP SWAP1 POP SWAP1 DUP2 ADD SWAP1 PUSH1 0x1F AND DUP1 ISZERO PUSH2 0x1F7 JUMPI DUP1 DUP3 SUB DUP1 MLOAD PUSH1 0x1 DUP4 PUSH1 0x20 SUB PUSH2 0x100 EXP SUB NOT AND DUP2 MSTORE PUSH1 0x20 ADD SWAP2 POP JUMPDEST POP SWAP3 POP POP POP PUSH1 0x40 MLOAD DUP1 SWAP2 SUB SWAP1 RETURN JUMPDEST PUSH2 0x251 PUSH1 0x4 DUP1 CALLDATASIZE SUB PUSH1 0x40 DUP2 LT ISZERO PUSH2 0x21B JUMPI PUSH1 0x0 DUP1 REVERT JUMPDEST DUP2 ADD SWAP1 DUP1 DUP1 CALLDATALOAD PUSH20 0xFFFFFFFFFFFFFFFFFFFFFFFFFFFFFFFFFFFFFFFF AND SWAP1 PUSH1 0x20 ADD SWAP1 SWAP3 SWAP2 SWAP1 DUP1 CALLDATALOAD SWAP1 PUSH1 0x20 ADD SWAP1 SWAP3 SWAP2 SWAP1 POP POP POP PUSH2 0x81B JUMP JUMPDEST PUSH1 0x40 MLOAD DUP1 DUP3 ISZERO ISZERO DUP2 MSTORE PUSH1 0x20 ADD SWAP2 POP POP PUSH1 0x40 MLOAD DUP1 SWAP2 SUB SWAP1 RETURN JUMPDEST PUSH2 0x271 PUSH2 0x839 JUMP JUMPDEST PUSH1 0x40 MLOAD DUP1 DUP3 DUP2 MSTORE PUSH1 0x20 ADD SWAP2 POP POP PUSH1 0x40 MLOAD DUP1 SWAP2 SUB SWAP1 RETURN JUMPDEST PUSH2 0x2F3 PUSH1 0x4 DUP1 CALLDATASIZE SUB PUSH1 0x60 DUP2 LT ISZERO PUSH2 0x29D JUMPI PUSH1 0x0 DUP1 REVERT JUMPDEST DUP2 ADD SWAP1 DUP1 DUP1 CALLDATALOAD PUSH20 0xFFFFFFFFFFFFFFFFFFFFFFFFFFFFFFFFFFFFFFFF AND SWAP1 PUSH1 0x20 ADD SWAP1 SWAP3 SWAP2 SWAP1 DUP1 CALLDATALOAD PUSH20 0xFFFFFFFFFFFFFFFFFFFFFFFFFFFFFFFFFFFFFFFF AND SWAP1 PUSH1 0x20 ADD SWAP1 SWAP3 SWAP2 SWAP1 DUP1 CALLDATALOAD SWAP1 PUSH1 0x20 ADD SWAP1 SWAP3 SWAP2 SWAP1 POP POP POP PUSH2 0x843 JUMP JUMPDEST PUSH1 0x40 MLOAD DUP1 DUP3 ISZERO ISZERO DUP2 MSTORE PUSH1 0x20 ADD SWAP2 POP POP PUSH1 0x40 MLOAD DUP1 SWAP2 SUB SWAP1 RETURN JUMPDEST PUSH2 0x313 PUSH2 0x91C JUMP JUMPDEST PUSH1 0x40 MLOAD DUP1 DUP3 PUSH1 0xFF AND DUP2 MSTORE PUSH1 0x20 ADD SWAP2 POP POP PUSH1 0x40 MLOAD DUP1 SWAP2 SUB SWAP1 RETURN JUMPDEST PUSH2 0x378 PUSH1 0x4 DUP1 CALLDATASIZE SUB PUSH1 0x40 DUP2 LT ISZERO PUSH2 0x342 JUMPI PUSH1 0x0 DUP1 REVERT JUMPDEST DUP2 ADD SWAP1 DUP1 DUP1 CALLDATALOAD PUSH20 0xFFFFFFFFFFFFFFFFFFFFFFFFFFFFFFFFFFFFFFFF AND SWAP1 PUSH1 0x20 ADD SWAP1 SWAP3 SWAP2 SWAP1 DUP1 CALLDATALOAD SWAP1 PUSH1 0x20 ADD SWAP1 SWAP3 SWAP2 SWAP1 POP POP POP PUSH2 0x933 JUMP JUMPDEST PUSH1 0x40 MLOAD DUP1 DUP3 ISZERO ISZERO DUP2 MSTORE PUSH1 0x20 ADD SWAP2 POP POP PUSH1 0x40 MLOAD DUP1 SWAP2 SUB SWAP1 RETURN JUMPDEST PUSH2 0x398 PUSH2 0x9E6 JUMP JUMPDEST PUSH1 0x40 MLOAD DUP1 DUP3 DUP2 MSTORE PUSH1 0x20 ADD SWAP2 POP POP PUSH1 0x40 MLOAD DUP1 SWAP2 SUB SWAP1 RETURN JUMPDEST PUSH2 0x3B6 PUSH2 0x9EC JUMP JUMPDEST STOP JUMPDEST PUSH2 0x3FA PUSH1 0x4 DUP1 CALLDATASIZE SUB PUSH1 0x20 DUP2 LT ISZERO PUSH2 0x3CE JUMPI PUSH1 0x0 DUP1 REVERT JUMPDEST DUP2 ADD SWAP1 DUP1 DUP1 CALLDATALOAD PUSH20 0xFFFFFFFFFFFFFFFFFFFFFFFFFFFFFFFFFFFFFFFF AND SWAP1 PUSH1 0x20 ADD SWAP1 SWAP3 SWAP2 SWAP1 POP POP POP PUSH2 0xC09 JUMP JUMPDEST PUSH1 0x40 MLOAD DUP1 DUP3 DUP2 MSTORE PUSH1 0x20 ADD SWAP2 POP POP PUSH1 0x40 MLOAD DUP1 SWAP2 SUB SWAP1 RETURN JUMPDEST PUSH2 0x43F PUSH1 0x4 DUP1 CALLDATASIZE SUB PUSH1 0x20 DUP2 LT ISZERO PUSH2 0x426 JUMPI PUSH1 0x0 DUP1 REVERT JUMPDEST DUP2 ADD SWAP1 DUP1 DUP1 CALLDATALOAD PUSH1 0xFF AND SWAP1 PUSH1 0x20 ADD SWAP1 SWAP3 SWAP2 SWAP1 POP POP POP PUSH2 0xC52 JUMP JUMPDEST STOP JUMPDEST PUSH2 0x449 PUSH2 0xE48 JUMP JUMPDEST PUSH1 0x40 MLOAD DUP1 DUP3 PUSH20 0xFFFFFFFFFFFFFFFFFFFFFFFFFFFFFFFFFFFFFFFF AND DUP2 MSTORE PUSH1 0x20 ADD SWAP2 POP POP PUSH1 0x40 MLOAD DUP1 SWAP2 SUB SWAP1 RETURN JUMPDEST PUSH2 0x47D PUSH2 0xE71 JUMP JUMPDEST PUSH1 0x40 MLOAD DUP1 DUP1 PUSH1 0x20 ADD DUP3 DUP2 SUB DUP3 MSTORE DUP4 DUP2 DUP2 MLOAD DUP2 MSTORE PUSH1 0x20 ADD SWAP2 POP DUP1 MLOAD SWAP1 PUSH1 0x20 ADD SWAP1 DUP1 DUP4 DUP4 PUSH1 0x0 JUMPDEST DUP4 DUP2 LT ISZERO PUSH2 0x4BD JUMPI DUP1 DUP3 ADD MLOAD DUP2 DUP5 ADD MSTORE PUSH1 0x20 DUP2 ADD SWAP1 POP PUSH2 0x4A2 JUMP JUMPDEST POP POP POP POP SWAP1 POP SWAP1 DUP2 ADD SWAP1 PUSH1 0x1F AND DUP1 ISZERO PUSH2 0x4EA JUMPI DUP1 DUP3 SUB DUP1 MLOAD PUSH1 0x1 DUP4 PUSH1 0x20 SUB PUSH2 0x100 EXP SUB NOT AND DUP2 MSTORE PUSH1 0x20 ADD SWAP2 POP JUMPDEST POP SWAP3 POP POP POP PUSH1 0x40 MLOAD DUP1 SWAP2 SUB SWAP1 RETURN JUMPDEST PUSH2 0x500 PUSH2 0xF13 JUMP JUMPDEST PUSH1 0x40 MLOAD DUP1 DUP3 PUSH20 0xFFFFFFFFFFFFFFFFFFFFFFFFFFFFFFFFFFFFFFFF AND DUP2 MSTORE PUSH1 0x20 ADD SWAP2 POP POP PUSH1 0x40 MLOAD DUP1 SWAP2 SUB SWAP1 RETURN JUMPDEST PUSH2 0x578 PUSH1 0x4 DUP1 CALLDATASIZE SUB PUSH1 0x40 DUP2 LT ISZERO PUSH2 0x542 JUMPI PUSH1 0x0 DUP1 REVERT JUMPDEST DUP2 ADD SWAP1 DUP1 DUP1 CALLDATALOAD PUSH20 0xFFFFFFFFFFFFFFFFFFFFFFFFFFFFFFFFFFFFFFFF AND SWAP1 PUSH1 0x20 ADD SWAP1 SWAP3 SWAP2 SWAP1 DUP1 CALLDATALOAD SWAP1 PUSH1 0x20 ADD SWAP1 SWAP3 SWAP2 SWAP1 POP POP POP PUSH2 0xF39 JUMP JUMPDEST PUSH1 0x40 MLOAD DUP1 DUP3 ISZERO ISZERO DUP2 MSTORE PUSH1 0x20 ADD SWAP2 POP POP PUSH1 0x40 MLOAD DUP1 SWAP2 SUB SWAP1 RETURN JUMPDEST PUSH2 0x5DC PUSH1 0x4 DUP1 CALLDATASIZE SUB PUSH1 0x40 DUP2 LT ISZERO PUSH2 0x5A6 JUMPI PUSH1 0x0 DUP1 REVERT JUMPDEST DUP2 ADD SWAP1 DUP1 DUP1 CALLDATALOAD PUSH20 0xFFFFFFFFFFFFFFFFFFFFFFFFFFFFFFFFFFFFFFFF AND SWAP1 PUSH1 0x20 ADD SWAP1 SWAP3 SWAP2 SWAP1 DUP1 CALLDATALOAD SWAP1 PUSH1 0x20 ADD SWAP1 SWAP3 SWAP2 SWAP1 POP POP POP PUSH2 0x1006 JUMP JUMPDEST PUSH1 0x40 MLOAD DUP1 DUP3 ISZERO ISZERO DUP2 MSTORE PUSH1 0x20 ADD SWAP2 POP POP PUSH1 0x40 MLOAD DUP1 SWAP2 SUB SWAP1 RETURN JUMPDEST PUSH2 0x620 PUSH1 0x4 DUP1 CALLDATASIZE SUB PUSH1 0x20 DUP2 LT ISZERO PUSH2 0x60A JUMPI PUSH1 0x0 DUP1 REVERT JUMPDEST DUP2 ADD SWAP1 DUP1 DUP1 CALLDATALOAD SWAP1 PUSH1 0x20 ADD SWAP1 SWAP3 SWAP2 SWAP1 POP POP POP PUSH2 0x1024 JUMP JUMPDEST STOP JUMPDEST PUSH2 0x684 PUSH1 0x4 DUP1 CALLDATASIZE SUB PUSH1 0x40 DUP2 LT ISZERO PUSH2 0x638 JUMPI PUSH1 0x0 DUP1 REVERT JUMPDEST DUP2 ADD SWAP1 DUP1 DUP1 CALLDATALOAD PUSH20 0xFFFFFFFFFFFFFFFFFFFFFFFFFFFFFFFFFFFFFFFF AND SWAP1 PUSH1 0x20 ADD SWAP1 SWAP3 SWAP2 SWAP1 DUP1 CALLDATALOAD PUSH20 0xFFFFFFFFFFFFFFFFFFFFFFFFFFFFFFFFFFFFFFFF AND SWAP1 PUSH1 0x20 ADD SWAP1 SWAP3 SWAP2 SWAP1 POP POP POP PUSH2 0x10F9 JUMP JUMPDEST PUSH1 0x40 MLOAD DUP1 DUP3 DUP2 MSTORE PUSH1 0x20 ADD SWAP2 POP POP PUSH1 0x40 MLOAD DUP1 SWAP2 SUB SWAP1 RETURN JUMPDEST PUSH2 0x6A4 CALLER DUP3 PUSH2 0x1208 JUMP JUMPDEST POP JUMP JUMPDEST PUSH2 0x6AF PUSH2 0x13CE JUMP JUMPDEST PUSH20 0xFFFFFFFFFFFFFFFFFFFFFFFFFFFFFFFFFFFFFFFF AND PUSH1 0x0 DUP1 SLOAD SWAP1 PUSH2 0x100 EXP SWAP1 DIV PUSH20 0xFFFFFFFFFFFFFFFFFFFFFFFFFFFFFFFFFFFFFFFF AND PUSH20 0xFFFFFFFFFFFFFFFFFFFFFFFFFFFFFFFFFFFFFFFF AND EQ PUSH2 0x76F JUMPI PUSH1 0x40 MLOAD PUSH32 0x8C379A000000000000000000000000000000000000000000000000000000000 DUP2 MSTORE PUSH1 0x4 ADD DUP1 DUP1 PUSH1 0x20 ADD DUP3 DUP2 SUB DUP3 MSTORE PUSH1 0x20 DUP2 MSTORE PUSH1 0x20 ADD DUP1 PUSH32 0x4F776E61626C653A2063616C6C6572206973206E6F7420746865206F776E6572 DUP2 MSTORE POP PUSH1 0x20 ADD SWAP2 POP POP PUSH1 0x40 MLOAD DUP1 SWAP2 SUB SWAP1 REVERT JUMPDEST DUP1 PUSH1 0x9 DUP2 SWAP1 SSTORE POP POP JUMP JUMPDEST PUSH1 0x60 PUSH1 0x6 DUP1 SLOAD PUSH1 0x1 DUP2 PUSH1 0x1 AND ISZERO PUSH2 0x100 MUL SUB AND PUSH1 0x2 SWAP1 DIV DUP1 PUSH1 0x1F ADD PUSH1 0x20 DUP1 SWAP2 DIV MUL PUSH1 0x20 ADD PUSH1 0x40 MLOAD SWAP1 DUP2 ADD PUSH1 0x40 MSTORE DUP1 SWAP3 SWAP2 SWAP1 DUP2 DUP2 MSTORE PUSH1 0x20 ADD DUP3 DUP1 SLOAD PUSH1 0x1 DUP2 PUSH1 0x1 AND ISZERO PUSH2 0x100 MUL SUB AND PUSH1 0x2 SWAP1 DIV DUP1 ISZERO PUSH2 0x811 JUMPI DUP1 PUSH1 0x1F LT PUSH2 0x7E6 JUMPI PUSH2 0x100 DUP1 DUP4 SLOAD DIV MUL DUP4 MSTORE SWAP2 PUSH1 0x20 ADD SWAP2 PUSH2 0x811 JUMP JUMPDEST DUP3 ADD SWAP2 SWAP1 PUSH1 0x0 MSTORE PUSH1 0x20 PUSH1 0x0 KECCAK256 SWAP1 JUMPDEST DUP2 SLOAD DUP2 MSTORE SWAP1 PUSH1 0x1 ADD SWAP1 PUSH1 0x20 ADD DUP1 DUP4 GT PUSH2 0x7F4 JUMPI DUP3 SWAP1 SUB PUSH1 0x1F AND DUP3 ADD SWAP2 JUMPDEST POP POP POP POP POP SWAP1 POP SWAP1 JUMP JUMPDEST PUSH1 0x0 PUSH2 0x82F PUSH2 0x828 PUSH2 0x13CE JUMP JUMPDEST DUP5 DUP5 PUSH2 0x13D6 JUMP JUMPDEST PUSH1 0x1 SWAP1 POP SWAP3 SWAP2 POP POP JUMP JUMPDEST PUSH1 0x0 PUSH1 0x5 SLOAD SWAP1 POP SWAP1 JUMP JUMPDEST PUSH1 0x0 PUSH2 0x850 DUP5 DUP5 DUP5 PUSH2 0x15CD JUMP JUMPDEST PUSH2 0x911 DUP5 PUSH2 0x85C PUSH2 0x13CE JUMP JUMPDEST PUSH2 0x90C DUP6 PUSH1 0x40 MLOAD DUP1 PUSH1 0x60 ADD PUSH1 0x40 MSTORE DUP1 PUSH1 0x28 DUP2 MSTORE PUSH1 0x20 ADD PUSH2 0x1EE8 PUSH1 0x28 SWAP2 CODECOPY PUSH1 0x4 PUSH1 0x0 DUP12 PUSH20 0xFFFFFFFFFFFFFFFFFFFFFFFFFFFFFFFFFFFFFFFF AND PUSH20 0xFFFFFFFFFFFFFFFFFFFFFFFFFFFFFFFFFFFFFFFF AND DUP2 MSTORE PUSH1 0x20 ADD SWAP1 DUP2 MSTORE PUSH1 0x20 ADD PUSH1 0x0 KECCAK256 PUSH1 0x0 PUSH2 0x8C2 PUSH2 0x13CE JUMP JUMPDEST PUSH20 0xFFFFFFFFFFFFFFFFFFFFFFFFFFFFFFFFFFFFFFFF AND PUSH20 0xFFFFFFFFFFFFFFFFFFFFFFFFFFFFFFFFFFFFFFFF AND DUP2 MSTORE PUSH1 0x20 ADD SWAP1 DUP2 MSTORE PUSH1 0x20 ADD PUSH1 0x0 KECCAK256 SLOAD PUSH2 0x1B4F SWAP1 SWAP3 SWAP2 SWAP1 PUSH4 0xFFFFFFFF AND JUMP JUMPDEST PUSH2 0x13D6 JUMP JUMPDEST PUSH1 0x1 SWAP1 POP SWAP4 SWAP3 POP POP POP JUMP JUMPDEST PUSH1 0x0 PUSH1 0x8 PUSH1 0x0 SWAP1 SLOAD SWAP1 PUSH2 0x100 EXP SWAP1 DIV PUSH1 0xFF AND SWAP1 POP SWAP1 JUMP JUMPDEST PUSH1 0x0 PUSH2 0x9DC PUSH2 0x940 PUSH2 0x13CE JUMP JUMPDEST DUP5 PUSH2 0x9D7 DUP6 PUSH1 0x4 PUSH1 0x0 PUSH2 0x951 PUSH2 0x13CE JUMP JUMPDEST PUSH20 0xFFFFFFFFFFFFFFFFFFFFFFFFFFFFFFFFFFFFFFFF AND PUSH20 0xFFFFFFFFFFFFFFFFFFFFFFFFFFFFFFFFFFFFFFFF AND DUP2 MSTORE PUSH1 0x20 ADD SWAP1 DUP2 MSTORE PUSH1 0x20 ADD PUSH1 0x0 KECCAK256 PUSH1 0x0 DUP10 PUSH20 0xFFFFFFFFFFFFFFFFFFFFFFFFFFFFFFFFFFFFFFFF AND PUSH20 0xFFFFFFFFFFFFFFFFFFFFFFFFFFFFFFFFFFFFFFFF AND DUP2 MSTORE PUSH1 0x20 ADD SWAP1 DUP2 MSTORE PUSH1 0x20 ADD PUSH1 0x0 KECCAK256 SLOAD PUSH2 0x1180 SWAP1 SWAP2 SWAP1 PUSH4 0xFFFFFFFF AND JUMP JUMPDEST PUSH2 0x13D6 JUMP JUMPDEST PUSH1 0x1 SWAP1 POP SWAP3 SWAP2 POP POP JUMP JUMPDEST PUSH1 0x9 SLOAD DUP2 JUMP JUMPDEST CALLER PUSH20 0xFFFFFFFFFFFFFFFFFFFFFFFFFFFFFFFFFFFFFFFF AND PUSH1 0x1 PUSH1 0x0 SWAP1 SLOAD SWAP1 PUSH2 0x100 EXP SWAP1 DIV PUSH20 0xFFFFFFFFFFFFFFFFFFFFFFFFFFFFFFFFFFFFFFFF AND PUSH20 0xFFFFFFFFFFFFFFFFFFFFFFFFFFFFFFFFFFFFFFFF AND EQ PUSH2 0xA92 JUMPI PUSH1 0x40 MLOAD PUSH32 0x8C379A000000000000000000000000000000000000000000000000000000000 DUP2 MSTORE PUSH1 0x4 ADD DUP1 DUP1 PUSH1 0x20 ADD DUP3 DUP2 SUB DUP3 MSTORE PUSH1 0x23 DUP2 MSTORE PUSH1 0x20 ADD DUP1 PUSH2 0x1F7A PUSH1 0x23 SWAP2 CODECOPY PUSH1 0x40 ADD SWAP2 POP POP PUSH1 0x40 MLOAD DUP1 SWAP2 SUB SWAP1 REVERT JUMPDEST PUSH1 0x2 SLOAD TIMESTAMP GT PUSH2 0xB09 JUMPI PUSH1 0x40 MLOAD PUSH32 0x8C379A000000000000000000000000000000000000000000000000000000000 DUP2 MSTORE PUSH1 0x4 ADD DUP1 DUP1 PUSH1 0x20 ADD DUP3 DUP2 SUB DUP3 MSTORE PUSH1 0x1F DUP2 MSTORE PUSH1 0x20 ADD DUP1 PUSH32 0x436F6E7472616374206973206C6F636B656420756E74696C2037206461797300 DUP2 MSTORE POP PUSH1 0x20 ADD SWAP2 POP POP PUSH1 0x40 MLOAD DUP1 SWAP2 SUB SWAP1 REVERT JUMPDEST PUSH1 0x1 PUSH1 0x0 SWAP1 SLOAD SWAP1 PUSH2 0x100 EXP SWAP1 DIV PUSH20 0xFFFFFFFFFFFFFFFFFFFFFFFFFFFFFFFFFFFFFFFF AND PUSH20 0xFFFFFFFFFFFFFFFFFFFFFFFFFFFFFFFFFFFFFFFF AND PUSH1 0x0 DUP1 SLOAD SWAP1 PUSH2 0x100 EXP SWAP1 DIV PUSH20 0xFFFFFFFFFFFFFFFFFFFFFFFFFFFFFFFFFFFFFFFF AND PUSH20 0xFFFFFFFFFFFFFFFFFFFFFFFFFFFFFFFFFFFFFFFF AND PUSH32 0x8BE0079C531659141344CD1FD0A4F28419497F9722A3DAAFE3B4186F6B6457E0 PUSH1 0x40 MLOAD PUSH1 0x40 MLOAD DUP1 SWAP2 SUB SWAP1 LOG3 PUSH1 0x1 PUSH1 0x0 SWAP1 SLOAD SWAP1 PUSH2 0x100 EXP SWAP1 DIV PUSH20 0xFFFFFFFFFFFFFFFFFFFFFFFFFFFFFFFFFFFFFFFF AND PUSH1 0x0 DUP1 PUSH2 0x100 EXP DUP2 SLOAD DUP2 PUSH20 0xFFFFFFFFFFFFFFFFFFFFFFFFFFFFFFFFFFFFFFFF MUL NOT AND SWAP1 DUP4 PUSH20 0xFFFFFFFFFFFFFFFFFFFFFFFFFFFFFFFFFFFFFFFF AND MUL OR SWAP1 SSTORE POP JUMP JUMPDEST PUSH1 0x0 PUSH1 0x3 PUSH1 0x0 DUP4 PUSH20 0xFFFFFFFFFFFFFFFFFFFFFFFFFFFFFFFFFFFFFFFF AND PUSH20 0xFFFFFFFFFFFFFFFFFFFFFFFFFFFFFFFFFFFFFFFF AND DUP2 MSTORE PUSH1 0x20 ADD SWAP1 DUP2 MSTORE PUSH1 0x20 ADD PUSH1 0x0 KECCAK256 SLOAD SWAP1 POP SWAP2 SWAP1 POP JUMP JUMPDEST PUSH2 0xC5A PUSH2 0x13CE JUMP JUMPDEST PUSH20 0xFFFFFFFFFFFFFFFFFFFFFFFFFFFFFFFFFFFFFFFF AND PUSH1 0x0 DUP1 SLOAD SWAP1 PUSH2 0x100 EXP SWAP1 DIV PUSH20 0xFFFFFFFFFFFFFFFFFFFFFFFFFFFFFFFFFFFFFFFF AND PUSH20 0xFFFFFFFFFFFFFFFFFFFFFFFFFFFFFFFFFFFFFFFF AND EQ PUSH2 0xD1A JUMPI PUSH1 0x40 MLOAD PUSH32 0x8C379A000000000000000000000000000000000000000000000000000000000 DUP2 MSTORE PUSH1 0x4 ADD DUP1 DUP1 PUSH1 0x20 ADD DUP3 DUP2 SUB DUP3 MSTORE PUSH1 0x20 DUP2 MSTORE PUSH1 0x20 ADD DUP1 PUSH32 0x4F776E61626C653A2063616C6C6572206973206E6F7420746865206F776E6572 DUP2 MSTORE POP PUSH1 0x20 ADD SWAP2 POP POP PUSH1 0x40 MLOAD DUP1 SWAP2 SUB SWAP1 REVERT JUMPDEST PUSH1 0x0 DUP1 SLOAD SWAP1 PUSH2 0x100 EXP SWAP1 DIV PUSH20 0xFFFFFFFFFFFFFFFFFFFFFFFFFFFFFFFFFFFFFFFF AND PUSH1 0x1 PUSH1 0x0 PUSH2 0x100 EXP DUP2 SLOAD DUP2 PUSH20 0xFFFFFFFFFFFFFFFFFFFFFFFFFFFFFFFFFFFFFFFF MUL NOT AND SWAP1 DUP4 PUSH20 0xFFFFFFFFFFFFFFFFFFFFFFFFFFFFFFFFFFFFFFFF AND MUL OR SWAP1 SSTORE POP PUSH1 0x0 DUP1 PUSH1 0x0 PUSH2 0x100 EXP DUP2 SLOAD DUP2 PUSH20 0xFFFFFFFFFFFFFFFFFFFFFFFFFFFFFFFFFFFFFFFF MUL NOT AND SWAP1 DUP4 PUSH20 0xFFFFFFFFFFFFFFFFFFFFFFFFFFFFFFFFFFFFFFFF AND MUL OR SWAP1 SSTORE POP DUP1 PUSH1 0xFF AND PUSH1 0x2 DUP2 SWAP1 SSTORE POP PUSH1 0xA SWAP1 POP PUSH1 0x0 PUSH20 0xFFFFFFFFFFFFFFFFFFFFFFFFFFFFFFFFFFFFFFFF AND PUSH1 0x0 DUP1 SLOAD SWAP1 PUSH2 0x100 EXP SWAP1 DIV PUSH20 0xFFFFFFFFFFFFFFFFFFFFFFFFFFFFFFFFFFFFFFFF AND PUSH20 0xFFFFFFFFFFFFFFFFFFFFFFFFFFFFFFFFFFFFFFFF AND PUSH32 0x8BE0079C531659141344CD1FD0A4F28419497F9722A3DAAFE3B4186F6B6457E0 PUSH1 0x40 MLOAD PUSH1 0x40 MLOAD DUP1 SWAP2 SUB SWAP1 LOG3 POP JUMP JUMPDEST PUSH1 0x0 DUP1 PUSH1 0x0 SWAP1 SLOAD SWAP1 PUSH2 0x100 EXP SWAP1 DIV PUSH20 0xFFFFFFFFFFFFFFFFFFFFFFFFFFFFFFFFFFFFFFFF AND SWAP1 POP SWAP1 JUMP JUMPDEST PUSH1 0x60 PUSH1 0x7 DUP1 SLOAD PUSH1 0x1 DUP2 PUSH1 0x1 AND ISZERO PUSH2 0x100 MUL SUB AND PUSH1 0x2 SWAP1 DIV DUP1 PUSH1 0x1F ADD PUSH1 0x20 DUP1 SWAP2 DIV MUL PUSH1 0x20 ADD PUSH1 0x40 MLOAD SWAP1 DUP2 ADD PUSH1 0x40 MSTORE DUP1 SWAP3 SWAP2 SWAP1 DUP2 DUP2 MSTORE PUSH1 0x20 ADD DUP3 DUP1 SLOAD PUSH1 0x1 DUP2 PUSH1 0x1 AND ISZERO PUSH2 0x100 MUL SUB AND PUSH1 0x2 SWAP1 DIV DUP1 ISZERO PUSH2 0xF09 JUMPI DUP1 PUSH1 0x1F LT PUSH2 0xEDE JUMPI PUSH2 0x100 DUP1 DUP4 SLOAD DIV MUL DUP4 MSTORE SWAP2 PUSH1 0x20 ADD SWAP2 PUSH2 0xF09 JUMP JUMPDEST DUP3 ADD SWAP2 SWAP1 PUSH1 0x0 MSTORE PUSH1 0x20 PUSH1 0x0 KECCAK256 SWAP1 JUMPDEST DUP2 SLOAD DUP2 MSTORE SWAP1 PUSH1 0x1 ADD SWAP1 PUSH1 0x20 ADD DUP1 DUP4 GT PUSH2 0xEEC JUMPI DUP3 SWAP1 SUB PUSH1 0x1F AND DUP3 ADD SWAP2 JUMPDEST POP POP POP POP POP SWAP1 POP SWAP1 JUMP JUMPDEST PUSH1 0x8 PUSH1 0x1 SWAP1 SLOAD SWAP1 PUSH2 0x100 EXP SWAP1 DIV PUSH20 0xFFFFFFFFFFFFFFFFFFFFFFFFFFFFFFFFFFFFFFFF AND DUP2 JUMP JUMPDEST PUSH1 0x0 PUSH2 0xFFC PUSH2 0xF46 PUSH2 0x13CE JUMP JUMPDEST DUP5 PUSH2 0xFF7 DUP6 PUSH1 0x40 MLOAD DUP1 PUSH1 0x60 ADD PUSH1 0x40 MSTORE DUP1 PUSH1 0x25 DUP2 MSTORE PUSH1 0x20 ADD PUSH2 0x1F9D PUSH1 0x25 SWAP2 CODECOPY PUSH1 0x4 PUSH1 0x0 PUSH2 0xF70 PUSH2 0x13CE JUMP JUMPDEST PUSH20 0xFFFFFFFFFFFFFFFFFFFFFFFFFFFFFFFFFFFFFFFF AND PUSH20 0xFFFFFFFFFFFFFFFFFFFFFFFFFFFFFFFFFFFFFFFF AND DUP2 MSTORE PUSH1 0x20 ADD SWAP1 DUP2 MSTORE PUSH1 0x20 ADD PUSH1 0x0 KECCAK256 PUSH1 0x0 DUP11 PUSH20 0xFFFFFFFFFFFFFFFFFFFFFFFFFFFFFFFFFFFFFFFF AND PUSH20 0xFFFFFFFFFFFFFFFFFFFFFFFFFFFFFFFFFFFFFFFF AND DUP2 MSTORE PUSH1 0x20 ADD SWAP1 DUP2 MSTORE PUSH1 0x20 ADD PUSH1 0x0 KECCAK256 SLOAD PUSH2 0x1B4F SWAP1 SWAP3 SWAP2 SWAP1 PUSH4 0xFFFFFFFF AND JUMP JUMPDEST PUSH2 0x13D6 JUMP JUMPDEST PUSH1 0x1 SWAP1 POP SWAP3 SWAP2 POP POP JUMP JUMPDEST PUSH1 0x0 PUSH2 0x101A PUSH2 0x1013 PUSH2 0x13CE JUMP JUMPDEST DUP5 DUP5 PUSH2 0x15CD JUMP JUMPDEST PUSH1 0x1 SWAP1 POP SWAP3 SWAP2 POP POP JUMP JUMPDEST PUSH2 0x102C PUSH2 0x13CE JUMP JUMPDEST PUSH20 0xFFFFFFFFFFFFFFFFFFFFFFFFFFFFFFFFFFFFFFFF AND PUSH1 0x0 DUP1 SLOAD SWAP1 PUSH2 0x100 EXP SWAP1 DIV PUSH20 0xFFFFFFFFFFFFFFFFFFFFFFFFFFFFFFFFFFFFFFFF AND PUSH20 0xFFFFFFFFFFFFFFFFFFFFFFFFFFFFFFFFFFFFFFFF AND EQ PUSH2 0x10EC JUMPI PUSH1 0x40 MLOAD PUSH32 0x8C379A000000000000000000000000000000000000000000000000000000000 DUP2 MSTORE PUSH1 0x4 ADD DUP1 DUP1 PUSH1 0x20 ADD DUP3 DUP2 SUB DUP3 MSTORE PUSH1 0x20 DUP2 MSTORE PUSH1 0x20 ADD DUP1 PUSH32 0x4F776E61626C653A2063616C6C6572206973206E6F7420746865206F776E6572 DUP2 MSTORE POP PUSH1 0x20 ADD SWAP2 POP POP PUSH1 0x40 MLOAD DUP1 SWAP2 SUB SWAP1 REVERT JUMPDEST PUSH2 0x10F6 CALLER DUP3 PUSH2 0x1C09 JUMP JUMPDEST POP JUMP JUMPDEST PUSH1 0x0 PUSH1 0x4 PUSH1 0x0 DUP5 PUSH20 0xFFFFFFFFFFFFFFFFFFFFFFFFFFFFFFFFFFFFFFFF AND PUSH20 0xFFFFFFFFFFFFFFFFFFFFFFFFFFFFFFFFFFFFFFFF AND DUP2 MSTORE PUSH1 0x20 ADD SWAP1 DUP2 MSTORE PUSH1 0x20 ADD PUSH1 0x0 KECCAK256 PUSH1 0x0 DUP4 PUSH20 0xFFFFFFFFFFFFFFFFFFFFFFFFFFFFFFFFFFFFFFFF AND PUSH20 0xFFFFFFFFFFFFFFFFFFFFFFFFFFFFFFFFFFFFFFFF AND DUP2 MSTORE PUSH1 0x20 ADD SWAP1 DUP2 MSTORE PUSH1 0x20 ADD PUSH1 0x0 KECCAK256 SLOAD SWAP1 POP SWAP3 SWAP2 POP POP JUMP JUMPDEST PUSH1 0x0 DUP1 DUP3 DUP5 ADD SWAP1 POP DUP4 DUP2 LT ISZERO PUSH2 0x11FE JUMPI PUSH1 0x40 MLOAD PUSH32 0x8C379A000000000000000000000000000000000000000000000000000000000 DUP2 MSTORE PUSH1 0x4 ADD DUP1 DUP1 PUSH1 0x20 ADD DUP3 DUP2 SUB DUP3 MSTORE PUSH1 0x1B DUP2 MSTORE PUSH1 0x20 ADD DUP1 PUSH32 0x536166654D6174683A206164646974696F6E206F766572666C6F770000000000 DUP2 MSTORE POP PUSH1 0x20 ADD SWAP2 POP POP PUSH1 0x40 MLOAD DUP1 SWAP2 SUB SWAP1 REVERT JUMPDEST DUP1 SWAP2 POP POP SWAP3 SWAP2 POP POP JUMP JUMPDEST PUSH1 0x0 PUSH20 0xFFFFFFFFFFFFFFFFFFFFFFFFFFFFFFFFFFFFFFFF AND DUP3 PUSH20 0xFFFFFFFFFFFFFFFFFFFFFFFFFFFFFFFFFFFFFFFF AND EQ ISZERO PUSH2 0x128E JUMPI PUSH1 0x40 MLOAD PUSH32 0x8C379A000000000000000000000000000000000000000000000000000000000 DUP2 MSTORE PUSH1 0x4 ADD DUP1 DUP1 PUSH1 0x20 ADD DUP3 DUP2 SUB DUP3 MSTORE PUSH1 0x21 DUP2 MSTORE PUSH1 0x20 ADD DUP1 PUSH2 0x1F10 PUSH1 0x21 SWAP2 CODECOPY PUSH1 0x40 ADD SWAP2 POP POP PUSH1 0x40 MLOAD DUP1 SWAP2 SUB SWAP1 REVERT JUMPDEST PUSH2 0x129A DUP3 PUSH1 0x0 DUP4 PUSH2 0x1DD2 JUMP JUMPDEST PUSH2 0x1306 DUP2 PUSH1 0x40 MLOAD DUP1 PUSH1 0x60 ADD PUSH1 0x40 MSTORE DUP1 PUSH1 0x22 DUP2 MSTORE PUSH1 0x20 ADD PUSH2 0x1E7E PUSH1 0x22 SWAP2 CODECOPY PUSH1 0x3 PUSH1 0x0 DUP7 PUSH20 0xFFFFFFFFFFFFFFFFFFFFFFFFFFFFFFFFFFFFFFFF AND PUSH20 0xFFFFFFFFFFFFFFFFFFFFFFFFFFFFFFFFFFFFFFFF AND DUP2 MSTORE PUSH1 0x20 ADD SWAP1 DUP2 MSTORE PUSH1 0x20 ADD PUSH1 0x0 KECCAK256 SLOAD PUSH2 0x1B4F SWAP1 SWAP3 SWAP2 SWAP1 PUSH4 0xFFFFFFFF AND JUMP JUMPDEST PUSH1 0x3 PUSH1 0x0 DUP5 PUSH20 0xFFFFFFFFFFFFFFFFFFFFFFFFFFFFFFFFFFFFFFFF AND PUSH20 0xFFFFFFFFFFFFFFFFFFFFFFFFFFFFFFFFFFFFFFFF AND DUP2 MSTORE PUSH1 0x20 ADD SWAP1 DUP2 MSTORE PUSH1 0x20 ADD PUSH1 0x0 KECCAK256 DUP2 SWAP1 SSTORE POP PUSH2 0x135E DUP2 PUSH1 0x5 SLOAD PUSH2 0x1DD7 SWAP1 SWAP2 SWAP1 PUSH4 0xFFFFFFFF AND JUMP JUMPDEST PUSH1 0x5 DUP2 SWAP1 SSTORE POP PUSH1 0x0 PUSH20 0xFFFFFFFFFFFFFFFFFFFFFFFFFFFFFFFFFFFFFFFF AND DUP3 PUSH20 0xFFFFFFFFFFFFFFFFFFFFFFFFFFFFFFFFFFFFFFFF AND PUSH32 0xDDF252AD1BE2C89B69C2B068FC378DAA952BA7F163C4A11628F55A4DF523B3EF DUP4 PUSH1 0x40 MLOAD DUP1 DUP3 DUP2 MSTORE PUSH1 0x20 ADD SWAP2 POP POP PUSH1 0x40 MLOAD DUP1 SWAP2 SUB SWAP1 LOG3 POP POP JUMP JUMPDEST PUSH1 0x0 CALLER SWAP1 POP SWAP1 JUMP JUMPDEST PUSH1 0x0 PUSH20 0xFFFFFFFFFFFFFFFFFFFFFFFFFFFFFFFFFFFFFFFF AND DUP4 PUSH20 0xFFFFFFFFFFFFFFFFFFFFFFFFFFFFFFFFFFFFFFFF AND EQ ISZERO PUSH2 0x145C JUMPI PUSH1 0x40 MLOAD PUSH32 0x8C379A000000000000000000000000000000000000000000000000000000000 DUP2 MSTORE PUSH1 0x4 ADD DUP1 DUP1 PUSH1 0x20 ADD DUP3 DUP2 SUB DUP3 MSTORE PUSH1 0x24 DUP2 MSTORE PUSH1 0x20 ADD DUP1 PUSH2 0x1F56 PUSH1 0x24 SWAP2 CODECOPY PUSH1 0x40 ADD SWAP2 POP POP PUSH1 0x40 MLOAD DUP1 SWAP2 SUB SWAP1 REVERT JUMPDEST PUSH1 0x0 PUSH20 0xFFFFFFFFFFFFFFFFFFFFFFFFFFFFFFFFFFFFFFFF AND DUP3 PUSH20 0xFFFFFFFFFFFFFFFFFFFFFFFFFFFFFFFFFFFFFFFF AND EQ ISZERO PUSH2 0x14E2 JUMPI PUSH1 0x40 MLOAD PUSH32 0x8C379A000000000000000000000000000000000000000000000000000000000 DUP2 MSTORE PUSH1 0x4 ADD DUP1 DUP1 PUSH1 0x20 ADD DUP3 DUP2 SUB DUP3 MSTORE PUSH1 0x22 DUP2 MSTORE PUSH1 0x20 ADD DUP1 PUSH2 0x1EA0 PUSH1 0x22 SWAP2 CODECOPY PUSH1 0x40 ADD SWAP2 POP POP PUSH1 0x40 MLOAD DUP1 SWAP2 SUB SWAP1 REVERT JUMPDEST DUP1 PUSH1 0x4 PUSH1 0x0 DUP6 PUSH20 0xFFFFFFFFFFFFFFFFFFFFFFFFFFFFFFFFFFFFFFFF AND PUSH20 0xFFFFFFFFFFFFFFFFFFFFFFFFFFFFFFFFFFFFFFFF AND DUP2 MSTORE PUSH1 0x20 ADD SWAP1 DUP2 MSTORE PUSH1 0x20 ADD PUSH1 0x0 KECCAK256 PUSH1 0x0 DUP5 PUSH20 0xFFFFFFFFFFFFFFFFFFFFFFFFFFFFFFFFFFFFFFFF AND PUSH20 0xFFFFFFFFFFFFFFFFFFFFFFFFFFFFFFFFFFFFFFFF AND DUP2 MSTORE PUSH1 0x20 ADD SWAP1 DUP2 MSTORE PUSH1 0x20 ADD PUSH1 0x0 KECCAK256 DUP2 SWAP1 SSTORE POP DUP2 PUSH20 0xFFFFFFFFFFFFFFFFFFFFFFFFFFFFFFFFFFFFFFFF AND DUP4 PUSH20 0xFFFFFFFFFFFFFFFFFFFFFFFFFFFFFFFFFFFFFFFF AND PUSH32 0x8C5BE1E5EBEC7D5BD14F71427D1E84F3DD0314C0F7B2291E5B200AC8C7C3B925 DUP4 PUSH1 0x40 MLOAD DUP1 DUP3 DUP2 MSTORE PUSH1 0x20 ADD SWAP2 POP POP PUSH1 0x40 MLOAD DUP1 SWAP2 SUB SWAP1 LOG3 POP POP POP JUMP JUMPDEST PUSH1 0x0 PUSH20 0xFFFFFFFFFFFFFFFFFFFFFFFFFFFFFFFFFFFFFFFF AND DUP4 PUSH20 0xFFFFFFFFFFFFFFFFFFFFFFFFFFFFFFFFFFFFFFFF AND EQ ISZERO PUSH2 0x1653 JUMPI PUSH1 0x40 MLOAD PUSH32 0x8C379A000000000000000000000000000000000000000000000000000000000 DUP2 MSTORE PUSH1 0x4 ADD DUP1 DUP1 PUSH1 0x20 ADD DUP3 DUP2 SUB DUP3 MSTORE PUSH1 0x25 DUP2 MSTORE PUSH1 0x20 ADD DUP1 PUSH2 0x1F31 PUSH1 0x25 SWAP2 CODECOPY PUSH1 0x40 ADD SWAP2 POP POP PUSH1 0x40 MLOAD DUP1 SWAP2 SUB SWAP1 REVERT JUMPDEST PUSH1 0x0 PUSH20 0xFFFFFFFFFFFFFFFFFFFFFFFFFFFFFFFFFFFFFFFF AND DUP3 PUSH20 0xFFFFFFFFFFFFFFFFFFFFFFFFFFFFFFFFFFFFFFFF AND EQ ISZERO PUSH2 0x16D9 JUMPI PUSH1 0x40 MLOAD PUSH32 0x8C379A000000000000000000000000000000000000000000000000000000000 DUP2 MSTORE PUSH1 0x4 ADD DUP1 DUP1 PUSH1 0x20 ADD DUP3 DUP2 SUB DUP3 MSTORE PUSH1 0x23 DUP2 MSTORE PUSH1 0x20 ADD DUP1 PUSH2 0x1E5B PUSH1 0x23 SWAP2 CODECOPY PUSH1 0x40 ADD SWAP2 POP POP PUSH1 0x40 MLOAD DUP1 SWAP2 SUB SWAP1 REVERT JUMPDEST PUSH2 0x16E4 DUP4 DUP4 DUP4 PUSH2 0x1DD2 JUMP JUMPDEST PUSH2 0x1750 DUP2 PUSH1 0x40 MLOAD DUP1 PUSH1 0x60 ADD PUSH1 0x40 MSTORE DUP1 PUSH1 0x26 DUP2 MSTORE PUSH1 0x20 ADD PUSH2 0x1EC2 PUSH1 0x26 SWAP2 CODECOPY PUSH1 0x3 PUSH1 0x0 DUP8 PUSH20 0xFFFFFFFFFFFFFFFFFFFFFFFFFFFFFFFFFFFFFFFF AND PUSH20 0xFFFFFFFFFFFFFFFFFFFFFFFFFFFFFFFFFFFFFFFF AND DUP2 MSTORE PUSH1 0x20 ADD SWAP1 DUP2 MSTORE PUSH1 0x20 ADD PUSH1 0x0 KECCAK256 SLOAD PUSH2 0x1B4F SWAP1 SWAP3 SWAP2 SWAP1 PUSH4 0xFFFFFFFF AND JUMP JUMPDEST PUSH1 0x3 PUSH1 0x0 DUP6 PUSH20 0xFFFFFFFFFFFFFFFFFFFFFFFFFFFFFFFFFFFFFFFF AND PUSH20 0xFFFFFFFFFFFFFFFFFFFFFFFFFFFFFFFFFFFFFFFF AND DUP2 MSTORE PUSH1 0x20 ADD SWAP1 DUP2 MSTORE PUSH1 0x20 ADD PUSH1 0x0 KECCAK256 DUP2 SWAP1 SSTORE POP PUSH2 0x17E5 DUP2 PUSH1 0x3 PUSH1 0x0 DUP6 PUSH20 0xFFFFFFFFFFFFFFFFFFFFFFFFFFFFFFFFFFFFFFFF AND PUSH20 0xFFFFFFFFFFFFFFFFFFFFFFFFFFFFFFFFFFFFFFFF AND DUP2 MSTORE PUSH1 0x20 ADD SWAP1 DUP2 MSTORE PUSH1 0x20 ADD PUSH1 0x0 KECCAK256 SLOAD PUSH2 0x1180 SWAP1 SWAP2 SWAP1 PUSH4 0xFFFFFFFF AND JUMP JUMPDEST PUSH1 0x3 PUSH1 0x0 DUP5 PUSH20 0xFFFFFFFFFFFFFFFFFFFFFFFFFFFFFFFFFFFFFFFF AND PUSH20 0xFFFFFFFFFFFFFFFFFFFFFFFFFFFFFFFFFFFFFFFF AND DUP2 MSTORE PUSH1 0x20 ADD SWAP1 DUP2 MSTORE PUSH1 0x20 ADD PUSH1 0x0 KECCAK256 DUP2 SWAP1 SSTORE POP PUSH2 0x1888 PUSH1 0x9 SLOAD PUSH1 0x64 DUP4 DUP2 PUSH2 0x1838 JUMPI INVALID JUMPDEST DIV MUL PUSH1 0x3 PUSH1 0x0 DUP6 PUSH20 0xFFFFFFFFFFFFFFFFFFFFFFFFFFFFFFFFFFFFFFFF AND PUSH20 0xFFFFFFFFFFFFFFFFFFFFFFFFFFFFFFFFFFFFFFFF AND DUP2 MSTORE PUSH1 0x20 ADD SWAP1 DUP2 MSTORE PUSH1 0x20 ADD PUSH1 0x0 KECCAK256 SLOAD PUSH2 0x1DD7 SWAP1 SWAP2 SWAP1 PUSH4 0xFFFFFFFF AND JUMP JUMPDEST PUSH1 0x3 PUSH1 0x0 DUP5 PUSH20 0xFFFFFFFFFFFFFFFFFFFFFFFFFFFFFFFFFFFFFFFF AND PUSH20 0xFFFFFFFFFFFFFFFFFFFFFFFFFFFFFFFFFFFFFFFF AND DUP2 MSTORE PUSH1 0x20 ADD SWAP1 DUP2 MSTORE PUSH1 0x20 ADD PUSH1 0x0 KECCAK256 DUP2 SWAP1 SSTORE POP PUSH1 0x0 PUSH1 0x3 PUSH1 0x0 DUP5 PUSH20 0xFFFFFFFFFFFFFFFFFFFFFFFFFFFFFFFFFFFFFFFF AND PUSH20 0xFFFFFFFFFFFFFFFFFFFFFFFFFFFFFFFFFFFFFFFF AND DUP2 MSTORE PUSH1 0x20 ADD SWAP1 DUP2 MSTORE PUSH1 0x20 ADD PUSH1 0x0 KECCAK256 SLOAD SWAP1 POP PUSH2 0x1991 PUSH1 0x9 SLOAD PUSH1 0x64 DUP5 DUP2 PUSH2 0x191F JUMPI INVALID JUMPDEST DIV MUL PUSH1 0x3 PUSH1 0x0 PUSH1 0x8 PUSH1 0x1 SWAP1 SLOAD SWAP1 PUSH2 0x100 EXP SWAP1 DIV PUSH20 0xFFFFFFFFFFFFFFFFFFFFFFFFFFFFFFFFFFFFFFFF AND PUSH20 0xFFFFFFFFFFFFFFFFFFFFFFFFFFFFFFFFFFFFFFFF AND PUSH20 0xFFFFFFFFFFFFFFFFFFFFFFFFFFFFFFFFFFFFFFFF AND DUP2 MSTORE PUSH1 0x20 ADD SWAP1 DUP2 MSTORE PUSH1 0x20 ADD PUSH1 0x0 KECCAK256 SLOAD PUSH2 0x1180 SWAP1 SWAP2 SWAP1 PUSH4 0xFFFFFFFF AND JUMP JUMPDEST PUSH1 0x3 PUSH1 0x0 PUSH1 0x8 PUSH1 0x1 SWAP1 SLOAD SWAP1 PUSH2 0x100 EXP SWAP1 DIV PUSH20 0xFFFFFFFFFFFFFFFFFFFFFFFFFFFFFFFFFFFFFFFF AND PUSH20 0xFFFFFFFFFFFFFFFFFFFFFFFFFFFFFFFFFFFFFFFF AND PUSH20 0xFFFFFFFFFFFFFFFFFFFFFFFFFFFFFFFFFFFFFFFF AND DUP2 MSTORE PUSH1 0x20 ADD SWAP1 DUP2 MSTORE PUSH1 0x20 ADD PUSH1 0x0 KECCAK256 DUP2 SWAP1 SSTORE POP PUSH1 0x0 PUSH1 0x3 PUSH1 0x0 PUSH1 0x8 PUSH1 0x1 SWAP1 SLOAD SWAP1 PUSH2 0x100 EXP SWAP1 DIV PUSH20 0xFFFFFFFFFFFFFFFFFFFFFFFFFFFFFFFFFFFFFFFF AND PUSH20 0xFFFFFFFFFFFFFFFFFFFFFFFFFFFFFFFFFFFFFFFF AND PUSH20 0xFFFFFFFFFFFFFFFFFFFFFFFFFFFFFFFFFFFFFFFF AND DUP2 MSTORE PUSH1 0x20 ADD SWAP1 DUP2 MSTORE PUSH1 0x20 ADD PUSH1 0x0 KECCAK256 SLOAD SWAP1 POP PUSH1 0x8 PUSH1 0x1 SWAP1 SLOAD SWAP1 PUSH2 0x100 EXP SWAP1 DIV PUSH20 0xFFFFFFFFFFFFFFFFFFFFFFFFFFFFFFFFFFFFFFFF AND PUSH20 0xFFFFFFFFFFFFFFFFFFFFFFFFFFFFFFFFFFFFFFFF AND DUP6 PUSH20 0xFFFFFFFFFFFFFFFFFFFFFFFFFFFFFFFFFFFFFFFF AND PUSH32 0xDDF252AD1BE2C89B69C2B068FC378DAA952BA7F163C4A11628F55A4DF523B3EF DUP4 PUSH1 0x40 MLOAD DUP1 DUP3 DUP2 MSTORE PUSH1 0x20 ADD SWAP2 POP POP PUSH1 0x40 MLOAD DUP1 SWAP2 SUB SWAP1 LOG3 DUP4 PUSH20 0xFFFFFFFFFFFFFFFFFFFFFFFFFFFFFFFFFFFFFFFF AND DUP6 PUSH20 0xFFFFFFFFFFFFFFFFFFFFFFFFFFFFFFFFFFFFFFFF AND PUSH32 0xDDF252AD1BE2C89B69C2B068FC378DAA952BA7F163C4A11628F55A4DF523B3EF DUP5 PUSH1 0x40 MLOAD DUP1 DUP3 DUP2 MSTORE PUSH1 0x20 ADD SWAP2 POP POP PUSH1 0x40 MLOAD DUP1 SWAP2 SUB SWAP1 LOG3 POP POP POP POP POP JUMP JUMPDEST PUSH1 0x0 DUP4 DUP4 GT ISZERO DUP3 SWAP1 PUSH2 0x1BFC JUMPI PUSH1 0x40 MLOAD PUSH32 0x8C379A000000000000000000000000000000000000000000000000000000000 DUP2 MSTORE PUSH1 0x4 ADD DUP1 DUP1 PUSH1 0x20 ADD DUP3 DUP2 SUB DUP3 MSTORE DUP4 DUP2 DUP2 MLOAD DUP2 MSTORE PUSH1 0x20 ADD SWAP2 POP DUP1 MLOAD SWAP1 PUSH1 0x20 ADD SWAP1 DUP1 DUP4 DUP4 PUSH1 0x0 JUMPDEST DUP4 DUP2 LT ISZERO PUSH2 0x1BC1 JUMPI DUP1 DUP3 ADD MLOAD DUP2 DUP5 ADD MSTORE PUSH1 0x20 DUP2 ADD SWAP1 POP PUSH2 0x1BA6 JUMP JUMPDEST POP POP POP POP SWAP1 POP SWAP1 DUP2 ADD SWAP1 PUSH1 0x1F AND DUP1 ISZERO PUSH2 0x1BEE JUMPI DUP1 DUP3 SUB DUP1 MLOAD PUSH1 0x1 DUP4 PUSH1 0x20 SUB PUSH2 0x100 EXP SUB NOT AND DUP2 MSTORE PUSH1 0x20 ADD SWAP2 POP JUMPDEST POP SWAP3 POP POP POP PUSH1 0x40 MLOAD DUP1 SWAP2 SUB SWAP1 REVERT JUMPDEST POP DUP3 DUP5 SUB SWAP1 POP SWAP4 SWAP3 POP POP POP JUMP JUMPDEST PUSH1 0x0 PUSH20 0xFFFFFFFFFFFFFFFFFFFFFFFFFFFFFFFFFFFFFFFF AND DUP3 PUSH20 0xFFFFFFFFFFFFFFFFFFFFFFFFFFFFFFFFFFFFFFFF AND EQ ISZERO PUSH2 0x1CAC JUMPI PUSH1 0x40 MLOAD PUSH32 0x8C379A000000000000000000000000000000000000000000000000000000000 DUP2 MSTORE PUSH1 0x4 ADD DUP1 DUP1 PUSH1 0x20 ADD DUP3 DUP2 SUB DUP3 MSTORE PUSH1 0x1F DUP2 MSTORE PUSH1 0x20 ADD DUP1 PUSH32 0x45524332303A206D696E7420746F20746865207A65726F206164647265737300 DUP2 MSTORE POP PUSH1 0x20 ADD SWAP2 POP POP PUSH1 0x40 MLOAD DUP1 SWAP2 SUB SWAP1 REVERT JUMPDEST PUSH2 0x1CB8 PUSH1 0x0 DUP4 DUP4 PUSH2 0x1DD2 JUMP JUMPDEST PUSH2 0x1CCD DUP2 PUSH1 0x5 SLOAD PUSH2 0x1180 SWAP1 SWAP2 SWAP1 PUSH4 0xFFFFFFFF AND JUMP JUMPDEST PUSH1 0x5 DUP2 SWAP1 SSTORE POP PUSH2 0x1D25 DUP2 PUSH1 0x3 PUSH1 0x0 DUP6 PUSH20 0xFFFFFFFFFFFFFFFFFFFFFFFFFFFFFFFFFFFFFFFF AND PUSH20 0xFFFFFFFFFFFFFFFFFFFFFFFFFFFFFFFFFFFFFFFF AND DUP2 MSTORE PUSH1 0x20 ADD SWAP1 DUP2 MSTORE PUSH1 0x20 ADD PUSH1 0x0 KECCAK256 SLOAD PUSH2 0x1180 SWAP1 SWAP2 SWAP1 PUSH4 0xFFFFFFFF AND JUMP JUMPDEST PUSH1 0x3 PUSH1 0x0 DUP5 PUSH20 0xFFFFFFFFFFFFFFFFFFFFFFFFFFFFFFFFFFFFFFFF AND PUSH20 0xFFFFFFFFFFFFFFFFFFFFFFFFFFFFFFFFFFFFFFFF AND DUP2 MSTORE PUSH1 0x20 ADD SWAP1 DUP2 MSTORE PUSH1 0x20 ADD PUSH1 0x0 KECCAK256 DUP2 SWAP1 SSTORE POP DUP2 PUSH20 0xFFFFFFFFFFFFFFFFFFFFFFFFFFFFFFFFFFFFFFFF AND PUSH1 0x0 PUSH20 0xFFFFFFFFFFFFFFFFFFFFFFFFFFFFFFFFFFFFFFFF AND PUSH32 0xDDF252AD1BE2C89B69C2B068FC378DAA952BA7F163C4A11628F55A4DF523B3EF DUP4 PUSH1 0x40 MLOAD DUP1 DUP3 DUP2 MSTORE PUSH1 0x20 ADD SWAP2 POP POP PUSH1 0x40 MLOAD DUP1 SWAP2 SUB SWAP1 LOG3 POP POP JUMP JUMPDEST POP POP POP JUMP JUMPDEST PUSH1 0x0 DUP3 DUP3 GT ISZERO PUSH2 0x1E4F JUMPI PUSH1 0x40 MLOAD PUSH32 0x8C379A000000000000000000000000000000000000000000000000000000000 DUP2 MSTORE PUSH1 0x4 ADD DUP1 DUP1 PUSH1 0x20 ADD DUP3 DUP2 SUB DUP3 MSTORE PUSH1 0x1E DUP2 MSTORE PUSH1 0x20 ADD DUP1 PUSH32 0x536166654D6174683A207375627472616374696F6E206F766572666C6F770000 DUP2 MSTORE POP PUSH1 0x20 ADD SWAP2 POP POP PUSH1 0x40 MLOAD DUP1 SWAP2 SUB SWAP1 REVERT JUMPDEST DUP2 DUP4 SUB SWAP1 POP SWAP3 SWAP2 POP POP JUMP INVALID GASLIMIT MSTORE NUMBER ORIGIN ADDRESS GASPRICE KECCAK256 PUSH21 0x72616E7366657220746F20746865207A65726F2061 PUSH5 0x6472657373 GASLIMIT MSTORE NUMBER ORIGIN ADDRESS GASPRICE KECCAK256 PUSH3 0x75726E KECCAK256 PUSH2 0x6D6F PUSH22 0x6E7420657863656564732062616C616E636545524332 ADDRESS GASPRICE KECCAK256 PUSH2 0x7070 PUSH19 0x6F766520746F20746865207A65726F20616464 PUSH19 0x65737345524332303A207472616E7366657220 PUSH2 0x6D6F PUSH22 0x6E7420657863656564732062616C616E636545524332 ADDRESS GASPRICE KECCAK256 PUSH21 0x72616E7366657220616D6F756E7420657863656564 PUSH20 0x20616C6C6F77616E636545524332303A20627572 PUSH15 0x2066726F6D20746865207A65726F20 PUSH2 0x6464 PUSH19 0x65737345524332303A207472616E7366657220 PUSH7 0x726F6D20746865 KECCAK256 PUSH27 0x65726F206164647265737345524332303A20617070726F76652066 PUSH19 0x6F6D20746865207A65726F2061646472657373 MSIZE PUSH16 0x7520646F6E2774206861766520706572 PUSH14 0x697373696F6E20746F20756E6C6F PUSH4 0x6B455243 ORIGIN ADDRESS GASPRICE KECCAK256 PUSH5 0x6563726561 PUSH20 0x656420616C6C6F77616E63652062656C6F77207A PUSH6 0x726FA2646970 PUSH7 0x7358221220A2FF 0xDB 0x28 SWAP13 0xC3 0xAA 0xC3 0xB6 DUP12 CREATE2 0x5C MULMOD 0xA6 SWAP14 PUSH29 0x406CF36D79CF3F3CA0FF82352EB66BDD64736F6C634300060C00330000 "
				},
				"gasEstimates": {
					"creation": {
						"codeDepositCost": "1636600",
						"executionCost": "infinite",
						"totalCost": "infinite"
					},
					"external": {
						"MiniArchery(uint256)": "infinite",
						"TransferOwner()": "infinite",
						"_burnaddress()": "1119",
						"_feeBurn()": "1116",
						"allowance(address,address)": "1431",
						"approve(address,uint256)": "infinite",
						"balanceOf(address)": "1241",
						"decimals()": "1122",
						"decreaseAllowance(address,uint256)": "infinite",
						"destroyer(uint256)": "infinite",
						"increaseAllowance(address,uint256)": "infinite",
						"name()": "infinite",
						"owner()": "1144",
						"renouncedOwnership(uint8)": "66176",
						"setTaxFeePercent(uint256)": "21190",
						"symbol()": "infinite",
						"totalSupply()": "1036",
						"transfer(address,uint256)": "infinite",
						"transferFrom(address,address,uint256)": "infinite"
					}
				},
				"methodIdentifiers": {
					"MiniArchery(uint256)": "c71f3ea3",
					"TransferOwner()": "4be516c0",
					"_burnaddress()": "9d8a9279",
					"_feeBurn()": "47524ea8",
					"allowance(address,address)": "dd62ed3e",
					"approve(address,uint256)": "095ea7b3",
					"balanceOf(address)": "70a08231",
					"decimals()": "313ce567",
					"decreaseAllowance(address,uint256)": "a457c2d7",
					"destroyer(uint256)": "013cd675",
					"increaseAllowance(address,uint256)": "39509351",
					"name()": "06fdde03",
					"owner()": "8da5cb5b",
					"renouncedOwnership(uint8)": "8bde3f12",
					"setTaxFeePercent(uint256)": "061c82d0",
					"symbol()": "95d89b41",
					"totalSupply()": "18160ddd",
					"transfer(address,uint256)": "a9059cbb",
					"transferFrom(address,address,uint256)": "23b872dd"
				}
			},
			"storageLayout": {
				"storage": [
					{
						"astId": 457,
						"contract": "NewAisiki.sol:NAisiki",
						"label": "_owner",
						"offset": 0,
						"slot": "0",
						"type": "t_address"
					},
					{
						"astId": 459,
						"contract": "NewAisiki.sol:NAisiki",
						"label": "_previousOwner",
						"offset": 0,
						"slot": "1",
						"type": "t_address"
					},
					{
						"astId": 461,
						"contract": "NewAisiki.sol:NAisiki",
						"label": "_level",
						"offset": 0,
						"slot": "2",
						"type": "t_uint256"
					},
					{
						"astId": 598,
						"contract": "NewAisiki.sol:NAisiki",
						"label": "_balances",
						"offset": 0,
						"slot": "3",
						"type": "t_mapping(t_address,t_uint256)"
					},
					{
						"astId": 604,
						"contract": "NewAisiki.sol:NAisiki",
						"label": "_allowances",
						"offset": 0,
						"slot": "4",
						"type": "t_mapping(t_address,t_mapping(t_address,t_uint256))"
					},
					{
						"astId": 606,
						"contract": "NewAisiki.sol:NAisiki",
						"label": "_totalSupply",
						"offset": 0,
						"slot": "5",
						"type": "t_uint256"
					},
					{
						"astId": 608,
						"contract": "NewAisiki.sol:NAisiki",
						"label": "_name",
						"offset": 0,
						"slot": "6",
						"type": "t_string_storage"
					},
					{
						"astId": 610,
						"contract": "NewAisiki.sol:NAisiki",
						"label": "_symbol",
						"offset": 0,
						"slot": "7",
						"type": "t_string_storage"
					},
					{
						"astId": 612,
						"contract": "NewAisiki.sol:NAisiki",
						"label": "_decimals",
						"offset": 0,
						"slot": "8",
						"type": "t_uint8"
					},
					{
						"astId": 614,
						"contract": "NewAisiki.sol:NAisiki",
						"label": "_burnaddress",
						"offset": 1,
						"slot": "8",
						"type": "t_address"
					},
					{
						"astId": 616,
						"contract": "NewAisiki.sol:NAisiki",
						"label": "_feeBurn",
						"offset": 0,
						"slot": "9",
						"type": "t_uint256"
					},
					{
						"astId": 1187,
						"contract": "NewAisiki.sol:NAisiki",
						"label": "tokenTotalSupply",
						"offset": 0,
						"slot": "10",
						"type": "t_uint256"
					}
				],
				"types": {
					"t_address": {
						"encoding": "inplace",
						"label": "address",
						"numberOfBytes": "20"
					},
					"t_mapping(t_address,t_mapping(t_address,t_uint256))": {
						"encoding": "mapping",
						"key": "t_address",
						"label": "mapping(address => mapping(address => uint256))",
						"numberOfBytes": "32",
						"value": "t_mapping(t_address,t_uint256)"
					},
					"t_mapping(t_address,t_uint256)": {
						"encoding": "mapping",
						"key": "t_address",
						"label": "mapping(address => uint256)",
						"numberOfBytes": "32",
						"value": "t_uint256"
					},
					"t_string_storage": {
						"encoding": "bytes",
						"label": "string",
						"numberOfBytes": "32"
					},
					"t_uint256": {
						"encoding": "inplace",
						"label": "uint256",
						"numberOfBytes": "32"
					},
					"t_uint8": {
						"encoding": "inplace",
						"label": "uint8",
						"numberOfBytes": "1"
					}
				}
			},
			"userdoc": {
				"kind": "user",
				"methods": {},
				"version": 1
			}
		}
	}
}